S01F00005A334C696768745F646F6E676C656C5F76372E352E302E302E733337E1
S2140040000010002031560000719A0000759A0000DA
S2140040105B900300799A0000819A00005B90030091
S2140040205B9003005B9003005B9003005B900300D3
S214004030859A0000909B04005B9003005B90030051
S2140040405B9003005B9003005B9003000D5B000039
S2140040505B9003005B9003005B9003005B900300A3
S2140040605B9003005B900300B5AD0000815200003A
S214004070278703005B9003005B9003005B900300C0
S2140040805B9003005B9003005B9003005B90030073
S2140040905B900300016100005B9003005B900300EF
S2140040A05B900300E5620000C56200005B900300C1
S2140040B05B9003004FF603005B9003004114020080
S2140040C055F6030051F60300B50B020061F6030037
S2140040D059F60300051402005DF6030071F90100AD
S2140040E0811402005B9003005B9003005B9003006A
S2140040F05B9003005B9003005B9003005B90030003
S2140041005B9003005B9003005B9003005B900300F2
S2140041105B9003005B9003005B9003005B900300E2
S2140041205B9003005B9003005B9003005B900300D2
S2140041305B900300000000002DE9F04F4FF0FD0BF0
S214004140C9B09A460DF11B099DF8503108AFCDF85D
S2140041500C90CDF808B001970593038904460093A8
S21400416083790E46904641888288407813F002F89C
S214004170054650B10090A388002062883A4913F0A3
S2140041805FFB284649B0BDE8F08F99F8000038F08C
S2140041900FFA38B12846A3886288344913F050FBDA
S2140041A08D25EEE75A46394699F8000038F0CFF9E3
S2140041B08346002851D0529B1BB1BDF84C31984223
S2140041C04BD8002399F800900793A9F14102012AE1
S2140041D05FFA8BF123D838460139254ADFF898C0B4
S2140041E05FFA81FE734513DB059B04210792C3B972
S2140041F007AF18221F489FED1A7B02FB06042046D5
S2140042000A460830394684ED027B3EF0BCFD11E0DC
S21400421010F8011F013351400CFB01F2E2E7059B49
S21400422033B123464A46384600960EF029FCA8E7E6
S2140042300829DED9B8F1000F01D088F80090BAF14D
S214004240000F01D0AAF800B0529B002B99D05A4616
S214004250184608A93EF097FD93E7012591E700BFB1
S21400426000000000000000002BD804005CD804000A
S214004270C59D1C81701800209301000100000000FD
S2140042802DE9F04F93B0CDE90A32DDE91C530E93C9
S21400429053EC102BCDE90801104619468DED060BA0
S2140042A01E9E33F0B5FD80B1DDE906014FF0FF320A
S2140042B0C54B33F0D5FD40B9DDE906014FF0FF32BE
S2140042C06FF4801333F0AEFD70B1DDE908019DEDAB
S2140042D0060B0E9B1E96CDE91C53DDE90A3213B081
S2140042E0BDE8F04F00F088B90022DDE906010023A2
S2140042F033F098FD002800F03381DDE906A303F1D2
S214004300004BCBF30A5016F48063A0F2FF3008BFD0
S21400431006250F9333F0AAFA9BA3D3E9002333F0C4
S2140043200FFB9BA3D3E9002333F054F9CBF313041C
S214004330894644F07F5180460022A44B504641F403
S214004340401133F045F994A3D3E9002333F0F8FA8B
S21400435002460B464046494633F03CF933F08AFDA8
S214004360044633F083FA8EA3D3E9002380468946B9
S21400437033F0E6FA0022964B33F02CF933F07AFD50
S21400438089A3D3E9002307464946404633F0D8FAC6
S21400439080463846894633F069FA85A3D3E9002378
S2140043A033F0CEFA02460B464046494633F010F943
S2140043B002460B46CDE90C2333F0C2FADDE90C23A6
S2140043C0804689461046194633F004F90022CDE9A6
S2140043D01001804B4046494633F0DCFB00227E4B02
S2140043E033F0F8F802460B464046494633F0D2FB17
S2140043F000227A4B33F0EEF802460B46404649461A
S21400440033F0C8FBDDE90C238046894600204FF0D8
S214004410804133F0DDF802460B464046494633F00D
S214004420D9F802460B46DDE9100133F0B3FB07F27C
S214004430FF3700226A4B33F0CDF800223B0533F0FD
S2140044407FFA52465B468046894633F009FD0028CF
S21400445040F08980CDE90C8904F16303C72B34BF93
S2140044600427052731051BD553A3D3E9002350465F
S214004470594633F0EBFC00287FD051A3D3E9002344
S2140044805046594633F0CEFC002876D00027A54289
S214004490C6BF2C1B04F1FF3500253C4646F480665B
S2140044A00E9B9F422CBF4FF00008A3EB070816F0A8
S2140044B0020903D0002F18BF4FF000083CB1DDE919
S2140044C00C235046594633F065FB82468B46DDE9A1
S2140044D006010022002333F0A5FC10B10BF10043C7
S2140044E09B46DDE9080126F40063CDE90183DDE99A
S2140044F00A324BEC10AB009500F07EF802465FB334
S214004500DDE9091316F0200F00F10105089E0CBF27
S21400451065204520B047DDE9080105230022059304
S2140045200A23002CCDE9023207F1FF374FEAD47395
S214004530B8BF64422A46019304970A9B009439F058
S214004540E7FE0246B9F1000F06D00B9BC41A0B9B80
S2140045501A190E9BA34245D8104613B0BDE8F08F3B
S214004560DDE906ABCDE60022404649461A4B33F05D
S21400457011FB013CCDE90C016EE7002D90D00F9B9E
S214004580002B8DD0013D8BE7FB799F501344D33F22
S214004590B3C8608B288AC63F61436F63A787D23F44
S2140045A071A379094F930A401655B5BBB16B02400B
S2140045B0EF39FAFE422EE63F2D431CEBE2361A3F59
S2140045C00000000080842E41FFFFEF7F0000F83FD0
S2140045D00000E03F00002C4000002440000018408F
S2140045E00000F03F2020DDE90913089DA8470134AC
S2140045F0ADE700BF000000002DE9F04F5BEC10AB0C
S21400460097B0CDE90501DDE92057CDE907235046EF
S21400461052465B465946229E33F0FAFB70B9032396
S214004620CDE902760193B04B0093DDE90501DDE9A3
S214004630072339F08DFD17B0BDE8F08F4FF0FF323D
S2140046406FF480135046594633F0ECFB28B1042330
S214004650CDE902760193A54BE6E74FF0FF325046D0
S2140046605946A34B33F0FCFB68B1A24A06F004039C
S214004670002B08BF0322A04B1CBF13460422CDE923
S21400468002760192D0E7504693A3D3E90023594619
S21400469033F0E6FB38B992A3D3E9002350465946D7
S2140046A033F0C0FB68B1DDE90723DDE905014BEC1B
S2140046B010ABCDE92176209517B0BDE8F04FFFF797
S2140046C0DFBD002200235046594633F0ABFB0028DE
S2140046D000F09A805B4652460020002132F078FFB8
S2140046E0012382468B46099316F4806400F08E8080
S2140046F0092D40F28E80002430210EABA5F1090270
S2140047000134202C03F8011BA5EB040901D09442C8
S214004710F6D15946504633F0ADFB784B054603EBD1
S214004720C90393ED007B8DED0A7B33F09FF80246BC
S2140047300B465046594632F04BFFDDE90A2333F06C
S214004740FFF802460B46CDE90C2333F0BBFB804650
S21400475033F07CF802460B46DDE90C0132F038FFF8
S21400476002460B46CDE90C230022654B33F078FB5E
S214004770002851D008F10108404633F067F8024699
S2140047800B46DDE90A0133F057FB10B14FF0000885
S2140047900135B9F1000F50D1284633F067F80246CC
S2140047A00B465046594632F013FF0022544B8046C3
S2140047B0894633F037FB30B1002240464946504B1D
S2140047C033F04EFB10B1E80700D501350A210EABD9
S2140047D01A19202C0AD095FBF1F001FB1055303544
S2140047E002F8015B013405460028F2D106F0030208
S2140047F0012A57D1002F55D0099A12B916F00C0F7E
S21400480000D0013F302245E009906DE74FF00609E1
S2140048107FE7A94600247CE70022DDE90C01384B3F
S21400482033F000FB0028B4D1B8F1000F02D018F026
S214004830010FAED008F10108ABE70A210EAB234406
S214004840202C0ED0B8FBF1F001FB1082B8F1090F56
S21400485002F1300209F1FF3904F1010403F8012BDB
S21400486011D83021A1440EAA202CAFD0A14504F1C6
S21400487001030AD11C4609F158030DEB03092E2348
S21400488009F8203CA2E78046DAE7A1541C46EBE78D
S2140048901A550134A74205D9202CF9D1CDE9027664
S2140048A00194C1E6202CF9D0099A3AB12D2104F1E1
S2140048B058026A4402F8201C0134EFE7710704D559
S2140048C004F158022B216A44F4E73207E6D504F1D6
S2140048D0580220216A44EDE70000000065CDCD4176
S2140048E00000000065CDCDC1560205005A02050045
S2140048F0FFFFEF7F4D020500520205006002050033
S2140049000000E03F0000000070B58EB02C220021B1
S21400491003A83EF012FA64234FF002320893CDE962
S21400492005230B2301218DF83430514B8DF81010E0
S2140049301B88D80700F1958008461EF0A5F80A22C5
S2140049404C4B4D491A704FF428734C48ADF8123052
S2140049501CF00CFE4A4C206020B940F25221494817
S21400496004F082FF052120683AF04DFA20B140F2AB
S2140049706221444804F078FF206800F08DFC424B2A
S214004980206819683AF0B6FA0C251EF05DFF6843F9
S21400499009901EF059FF68430DEB0501079020684B
S2140049A017F084F820B140F27721364804F05CFF17
S2140049B00022364920683AF028FB20B140F27921DF
S2140049C0304804F051FF40F20353314D314E2B80F6
S2140049D0052396F90000AB707F2801D11EF0B2F9CE
S2140049E03378EB701EF030FF00EB80008000A8806C
S2140049F01EF02AFF0023C0004FF0FF31E880AB60B6
S214004A004FF0FF3018A3D3E900231EF0F9F922492E
S214004A1020683AF0C5FE206802A93AF0D0FA20B124
S214004A2040F2B221174804F01FFF042220680DEB65
S214004A3002013AF04DFA042804D040F2B52111489C
S214004A4004F012FF01A901203BF06AF905F054F8C2
S214004A5001201FF097F934F02FFD1FF0BDF91EF06E
S214004A6097F80EB070BD00BF0A0020FF420300009A
S214004A703C5400200F5F0020B12A0200C012002024
S214004A807C450020E2240500081100201D5F002060
S214004A90704500204C160020512C02000348044BA1
S214004AA0834202D0034B03B11847704720180020FA
S214004AB02018002000000000064B0749C91A89107C
S214004AC048BF0131491003D0044B0BB101481847C9
S214004AD0704700BF201800202018002000000000AB
S214004AE010B5064C237843B9FFF7D8FF044B13B133
S214004AF00448AFF300800123237010BDBE5400208D
S214004B0000000000F028050008B5054B1BB105495C
S214004B100548AFF30080BDE80840FFF7CDBF00BFF3
S214004B2000000000681E0020F0280500A3F5803A6B
S214004B30704700BF174B002B08BF134B9D46FFF76F
S214004B40F5FF00218B460F461348144A121A3EF012
S214004B50F4F80E4B002B00D098470D4B002B00D0DE
S214004B6098470020002104000D000D48002802D0C0
S214004B700C48AFF3008033F023FD2000290033F00B
S214004B8099FD33F04FFB00BF000008000000000056
S214004B90000000000010002020180020905F002079
S214004BA0000000000000000008B50E4B1A78042A2A
S214004BB00FD100221A703CF08CF8012103460A4AF5
S214004BC002200AF051F840F6B832FF21074835F0C7
S214004BD01CFEBDE808404FF47A72FF21044835F009
S214004BE014BE00BFBF540020202E0400AC1E0020C0
S214004BF08C1E002008B501210220034A0AF034F872
S214004C00BDE8084035F003BC4A2E040008B50B4842
S214004C1034F034FB0A4A13680133B3F5B47F1360EB
S214004C2007DABDE808404FF4FA72FF21054835F070
S214004C30ECBD0122044B1A7008BD00BF08880400B2
S214004C40881E0020CC1E0020C054002010B537F06F
S214004C5011FC02280ED00121074A04200AF004F8AD
S214004C600DF0A2F8BDE81040034601210420034AD7
S214004C7009F0FABF10BD00BF562E04006B2E0400CC
S214004C8010B537F0F7FB02280ED1FF21074835F0A4
S214004C90CDFD01200AF050F8BDE810400346012182
S214004CA00420034A09F0E0BF10BD00BF0C1F00201F
S214004CB0942E04007FB537F0DDFB022818D1184883
S214004CC034F0D6FA37F0D8FB044637F0D1FB054669
S214004CD037F0CCFB06463BF061FC2346CDE901608D
S214004CE0012104200F4A009509F0BEFF04B070BDF4
S214004CF0012104200C4A09F0B7FF00220B4BFF21CC
S214004D000B481A6035F08AFD0DF04EF8094B0190FD
S214004D10009301210420084B084A09F0A5FFE5E7A7
S214004D2008880400B72E0400562E0400881E0020B3
S214004D30CC1E00203C340400122F0400172F040061
S214004D401FB501230022009306210DF10F0337F053
S214004D5044FF28B99DF80F30044823B134F088FA90
S214004D6005B05DF804FB34F086FAF9E7088804001D
S214004D70912808B504D1BDE80840074834F07BBA4E
S214004D80902808D1044834F073FABDE80840FF21A3
S214004D90024835F043BD08BD088804000C1F0020FB
S214004DA073B504F021FD044604F024FD22460346B4
S214004DB02549002012F044FD37F05EFB044637F02C
S214004DC057FB054637F052FB2346FF241F4ECDE91E
S214004DD00050012102201E4A09F046FF23463046B5
S214004DE000211C4A009408F0CFFB234600211A4AF3
S214004DF01A48009408F0C8FB23460021184A1948B0
S214004E00009408F0C1FB184D23460021174A1848A5
S214004E10009408F0B9FB23460021164A1648009471
S214004E2008F0B2FB23462846144A0021009408F0F6
S214004E30ABFB2146304635F0F1FC2146284602B051
S214004E40BDE8704035F0EABC312F04002C1F00206E
S214004E50472F0400B54C0000814C00000C1F0020BA
S214004E604D4C0000EC1E00208C1E00200D4C000057
S214004E70CC1E0020F54B0000AC1E0020A94B000005
S214004E8037B50446034601210420224A09F0ECFE09
S214004E90214D74B30FF0DEFE044628B1034601210F
S214004EA004201E4A09F0E0FE1D4B1A7872B94FF432
S214004EB07A72FF211B4835F0A8FC009401210420DB
S214004EC02B68194A09F0D0FE03B030BD0022FF213E
S214004ED014482A601A7035F0A9FCFF21134835F0F3
S214004EE0A5FCFF21124835F0A1FC124834F0C3F9A6
S214004EF0E3E7FF210B482C6035F098FCFF210C48B7
S214004F0035F094FCFF21094803B0BDE8304035F089
S214004F108DBC00BF862F0400881E0020A42F04002E
S214004F20C0540020EC1E0020D22F04002C1F0020AE
S214004F30CC1E00200888040037B5054634F022F958
S214004F40012804460BD135F009FB1F4B214618609B
S214004F5004201E4A03B0BDE8304009F085BE28464E
S214004F6034F010F950BB0121194A042009F07CFEE8
S214004F7035F0F4FA144B174C1B68C01A2060FA2060
S214004F8005F054FD236898421AD84FF47A7005F05D
S214004F904DFD2368984215D841F2883005F046FD4D
S214004FA0236898428CBF032304230B4A0121137005
S214004FB0226804200092094A09F056FE03B030BD6C
S214004FC00123F2E70223F0E7801E0020FB2F0400F7
S214004FD029300400841E0020BF54002057300400EF
S214004FE030B50A4C0A4B22680A4D1A600A4B85B047
S214004FF02B600A4B019303F083FE2B68029001A9F5
S2140050002068039334F09EFC05B030BDA410002049
S214005010382D0020342D002098100020F58604003E
S214005020014B186834F0A2BCA410002038B503F079
S21400503067FE0446064D2B68D3F8B00203F054FE14
S214005040286834F0A6FC2046BDE8384003F04CBE85
S214005050A410002010B51E4C34F098F9236F23F0EE
S214005060070343F00203236734F097F9D4F820319E
S214005070002023F0070343F00103C4F82031D4F8DE
S214005080403123F0030343F00103C4F84031D4F861
S214005090603123F0030343F00103C4F86031D4F811
S2140050A0403223F0030343F00103C4F84032D4F83F
S2140050B0003223F0070343F00103C4F80032D4F8AB
S2140050C0083223F0070343F00103C4F8083210BD8A
S2140050D00080005007B501A802F016F89DF80530CC
S2140050E0012B27D1214A936DDB0313D4536B23F492
S2140050F0FF0323F4FE4343F4BC1343F4A06353635B
S214005100136B23F4704343F440431363136B43F46D
S214005110E06313639DF8043063B94FF000531B68D7
S214005120134B1B68134B1B68134B1B68134B1B68F6
S214005130134B1B68134AD2F8803043F00303C2F8BF
S214005140803003F0B3FD03F071FD03F077FDFFF749
S21400515081FF03F059FD00F09DFC04F0BBF801F060
S214005160D1F803B05DF804EB04F012BF00C00050A5
S214005170004000200080002000C000200000012029
S214005180004001200080005030B5184D95B00DACA1
S2140051900FCD0FC495E8070084E807000021144BE4
S2140051A0144A0DF12600CDE903230E22CDE90511A0
S2140051B03DF0C3FD4FF480210F4B0DAACDE9071338
S2140051C00B238DF824300C238DF825300B4B07A9C4
S2140051D00A9320230B9301238DF83130084B09489E
S2140051E0009303AB03F09AFF15B030BDD4870400DC
S2140051F0210101010080055024800550C154002083
S2140052000822002058220020831E012B10B512D839
S214005210012922D80121114B04221B6C0846C3F336
S214005220400301F0ABFD0E4B1B681868A8B1BDE843
S2140052301040436A18478B1E012B0CD801280CD847
S214005240BDE810400121054B00221B6C0846C3F345
S214005250400301F093BD0129E5D910BD00C00350FD
S214005260A810002008B50449044804F03DFFBDE836
S2140052700840FFF789BF00BFAC1000207C2200204A
S214005280014835F067B800BF58220020014B1A6A63
S214005290186810475822002008B516F035FC002282
S2140052A0014B1A7008BD00BFE1540020014833F0DE
S2140052B064BF00BFF0870400014833F0D6BF00BFCC
S2140052C0088804001FB5084903460868097902AA39
S2140052D002908DF80C10009205210022012007F0A4
S2140052E0EFFA05B05DF804FB208804001FB50849F6
S2140052F003460868097902AA02908DF80C100092FD
S21400530005214222012007F0DBFA05B05DF804FB18
S214005310268804001FB5084903460868097902AACA
S21400532002908DF80C10009205214022012007F013
S214005330C7FA05B05DF804FB208804001FB5064ACE
S2140053400346039203AA009201220821104607F0A2
S214005350B7FA05B05DF804FB010121211FB5064A26
S2140053600346039203AA009208210022012007F0B8
S214005370A7FA05B05DF804FB010221211FB5094913
S21400538003460888897803AAADF80C008DF80E103D
S214005390009206214222012007F092FA05B05DF83D
S2140053A004FB00BF2C8804001FB503AA0092052248
S2140053B00749034608888978ADF80C008DF80E106A
S2140053C00120114607F07CFA05B05DF804FB00BF2B
S2140053D0308804001FB5084903460868097902AA00
S2140053E002908DF80C10009208210222012007F08E
S2140053F067FA05B05DF804FB348804001FB5094958
S21400540003460888897803AAADF80C008DF80E10BC
S214005410009208210622012007F052FA05B05DF836
S21400542004FB00BF3A8804000A46014933F042BB39
S214005430879B04000A46014933F03CBB7C9B040072
S2140054400A46014933F036BB779B04000A460149F9
S21400545033F030BB729B04000A46014933F02ABB86
S2140054606D9B04000A46014933F024BB609B040090
S2140054700A46014933F01EBB519B04000A46014907
S21400548033F018BB4C9B04000A46014933F012BBAC
S214005490439B04000A46014933F00CBB3A9B0400C8
S2140054A00A46014933F006BB319B04000A4601490F
S2140054B033F000BB2A9B04000A46014933F0FABACF
S2140054C01F9B04000A46014933F0F4BA149B0400FB
S2140054D00A46014933F0EEBA099B04000A46014920
S2140054E033F0E8BA009B04000A46014933F0E2BAFA
S2140054F0F59A04000A46014933F0DCBAF29A040031
S2140055000A46014933F0D6BAEF9A04000A46014922
S21400551033F0D0BAEC9A04000A46014933F0CABA0E
S214005520E99A04000A46014933F0C4BAE69A040030
S2140055300A46014933F0BEBAE19A04000A46014918
S21400554033F0B8BADC9A04000A46014933F0B2BA1E
S214005550D39A04000A46014933F0ACBAC89A04004C
S2140055600A46014933F0A6BAC39A04000A4601491E
S21400557033F0A0BABE9A04000A46014933F09ABA3C
S214005580B99A04000A46014933F094BAB49A040062
S2140055900A46014933F08EBAA99A04000A46014920
S2140055A033F088BA9E9A04000A46014933F082BA5C
S2140055B0979A04000A46014933F07CBA949A04008C
S2140055C00A46014933F076BA919A04000A46014920
S2140055D033F070BA869A04000A46014933F06ABA74
S2140055E0819A04000A46014933F064BA789A0400A6
S2140055F00A46014933F05EBA6F9A04000A4601492A
S21400560033F058BA6A9A04000A46014933F052BA8F
S2140056105F9A04000348044A0449121A921033F0B1
S2140056201DBD00BF8C3005008C300500905F00204B
S21400563008B500F02FF8FFF7EDFF124B12498B422A
S21400564012D30020114B12498B4218D3FFF772FA7F
S214005650186850F82240586840F82240013298688E
S2140056608242F5D30C33EAE70022F8E71C6844F8D8
S214005670220001325C68A242F8D30833E4E7002235
S214005680F8E700BFF82805000429050004290500EE
S214005690042905006FF00100104B114A10B59A60FE
S2140056A0D3F888200F4942F47002C3F8882001F529
S2140056B00052106641F2FF7050660220C3F8D00018
S2140056C0BFF34F8FBFF36F8F08244FF44033064865
S2140056D0C0F88041D36004600B6110BD00ED00E0AF
S2140056E0004000000080004400E100E0014B186824
S2140056F0704700BFD4100020014B1860704700BFF1
S214005700D4100020084B1B6F03F00703022B04D0B5
S214005710032B05D0012B05D0FEE7044B1868704715
S214005720034BFBE70348704700800050D41000206E
S214005730DC100020002D310108B5FFF7E3FF054B14
S2140057401B6FC3F301330133B0FBF3F0024B186059
S21400575008BD00BF00800050D010002000487047F1
S21400576000B4C404014B1868704700BFDC1000206A
S214005770054B1860054B1B6F03F00703032B01D185
S214005780FFF7DABF704700BFDC1000200080005033
S21400579000487047002D3101174B9868C0F304404D
S2140057A00C280AD8DFE800F00B09090909090721C7
S2140057B019091B1D1F0011487047002070479B6881
S2140057C003F04073B3F1807F11D0B3F1007F10D0A7
S2140057D00B4A002B08BF104670470A4870470A4815
S2140057E070470A4870470A4870470A4870470A4890
S2140057F070470A48704700BF0040015A405DC60027
S21400580000093D00C0EA210180BA8C010048E80189
S214005810005A62020024F40080841E0040420F00FA
S214005820014B1868704700BFD8100020BFF34F8F99
S2140058300549064BCA6802F4E0621343CB60BFF327
S2140058404F8F00BFFDE700BF00ED00E00400FA0543
S21400585000239B6AB3F5804F03D21968064A91422B
S21400586003D00023037083607047012202709A6899
S2140058709B694260F7E700BF07B0CD5E73B5494B42
S21400588004461A781AB102221A7002B070BDCDE929
S21400589000220028F9D001261E7033F093FD424DF9
S2140058A0424B186018F052FF2B785BB900F02AFDC7
S2140058B040B93F4808233F4A3F49006815F052FB6D
S2140058C000B92E703D4B5A68E2603D4A9A601A6EE7
S2140058D022605A6E6260D3F87021A2601B6E5C0470
S2140058E040D5384AD368D807FCD4374B1A68531CBF
S2140058F03DD04FF480139340344A13660423334C50
S21400590023664FF48063236633F0D3FB01300ED05A
S21400591033F0CFFB40F20113984208D04FF4804397
S21400592023664FF4004323661023C4F87031102317
S214005930264C4FF0804223664FF400536846236699
S21400594001A92266636633F09CFB009B2366019BDD
S21400595063662B78002B98D0164B1A6822665B6815
S214005960636692E71A4AD368D907FCD4BDE7194B99
S2140059701B78002BC2D1184B5A68144B12B94FF43F
S21400598080121A66154A526812B94FF400121A6647
S214005990134B5B68002BB1D14FF480020B4B1A6699
S2140059A0ACE700BFE3540020E4540020942200201B
S2140059B00411002098220020007108000080004496
S2140059C055CEAC0000000440E010002000900044DB
S2140059D000000450E25400200080055000C005502E
S2140059E00000065038B5224D04462B78012B02D015
S2140059F001232B7038BD0028FCD033F05AFB013051
S214005A0009D033F056FB40F20113984203D0194AEE
S214005A10D368DB07FCD42268174B1A6662685A669E
S214005A20A268C3F87021E268D40744BF00229A60D7
S214005A30124B1A68013213D1114A127882B91149F1
S214005A404968C80748BF1A600F4A5268D10744BF62
S214005A5001221A600D4A5268D20744BF02221A6019
S214005A6018F07CFE0A4B186833F0B2FC0023C0E73F
S214005A70E35400200000044000800044E0100020B2
S214005A80E25400200080055000C00550000006507B
S214005A909422002038B500239B6AB3F5804F25D2A8
S214005AA01A68144B9A4221D1134D2B7813F0FD043B
S214005AB002D00024204638BD1048FFF7DFFE08213C
S214005AC04FF480330E4A0F48C2F88011C36011604D
S214005AD00D4A1361A36ADB69984704460748FFF737
S214005AE081FF002CE6D101232B70E2E74FF481748E
S214005AF0E0E700BF07B0CD5EE2540020842200201D
S214005B0000E100E000A000440090004413B5204BE4
S214005B101B7803B9FEE700231E4CCDE900336A4626
S214005B2008231D49206815F01DFAF0B91B4AD2F863
S214005B304031D2F840211F2B4FF0010310D9203AF4
S214005B409340019A1A43019208236A461249206834
S214005B5015F0BEF94FF00053114A1A60FFF766FEC3
S214005B609340009A1A430092EEE70E4B9842F1D10A
S214005B700A4AD2F84031D2F840211F2B4FF00103D9
S214005B8085BF203A93409340019398BF0093DBE78C
S214005B90E354002004110020007108000080004437
S214005BA00B020FF00BE000F070B5D0B1C9B10E4E8D
S214005BB0431E013913F8014F2046325D02F00302FE
S214005BC0012A11F8012F08BF04F12000B55C05F08A
S214005BD00305012D08BF2032801A01D1002CE9D11F
S214005BE070BD0120FCE700BFED270500F7B504688F
S214005BF00023012261790546207901F0BFF81423BD
S214005C003021227911FB023101F1A04101F57031FA
S214005C1009686379D940C943A37901F00101022BD1
S214005C20217017D100F0C2FA164A2B466179207906
S214005C3000F0E6FAFF28024660790ED12A4611499E
S214005C4000F00EFB0123024661792079CDE900338E
S214005C5001F04EF8002003B0F0BD0126277900239E
S214005C6001460096384601F0E9F82A46054960796B
S214005C7000F0F6FA00236179024620790093019637
S214005C803346E5E78F91030010B50122437801788B
S214005C90847830209A40054B00FB01331CB942F251
S214005CA010015A5010BD41F21001FAE700C003502F
S214005CB010B5012243780178847830209A40054B4D
S214005CC000FB01331CB941F210015A5010BD42F2DC
S214005CD01001FAE700C003502DE9F04F9A46564BE4
S214005CE085B01B7806460F461546DDF83C909DF8B5
S214005CF044B0DDF85080002B00F09780072A00F2B1
S214005D0096800E9B002B00F09280B9F1000F00F0F9
S214005D108E80129BB3F5006F00F38980012803D1B3
S214005D20109B002B00F08380444B03EB05131B7B7A
S214005D30002B7ED0424C1022002168463CF0FDFF2E
S214005D4004EB45141022A7BB394620463CF0F5FF6D
S214005D5043F210036380BBF1000F03D1E37843F0F6
S214005D600303E370364A0E9B02EB451CCCE9019315
S214005D70129B6901581E9DF84C30C0F30A0003F0D0
S214005D8003039B0643EA001E53582E48012E00EAE2
S214005D9003004EEA0003CDF800A0535017D0B8F128
S214005DA0000F2ED19CF8023068F304138CF80230F2
S214005DB027E0002120463CF0C0FF4FF44473638088
S214005DC0BBF1000FCED1E37843F03003C9E71323CD
S214005DD00CF1100ECCF80C309CE80F008EE80F008B
S214005DE06FF00301DCF81C20109B61F39F02012F6B
S214005DF0CCF81C20CCF8143003D1CCF81890CCF892
S214005E00043000270D4A290102EB051342F80180F1
S214005E10159A28465A60694622469F605E7301F0CE
S214005E2077F8384605B0BDE8F08F0748FAE7074828
S214005E30F8E70748F6E700BFE5540020A023002057
S214005E40A02200200F80FFF3028000F0018000F007
S214005E50078000F038B5124B05461B78DBB1E0B181
S214005E6033F0B0FA0F4A00231146147B54B92B6066
S214005E7001251A0101EB03131D738C5033F0A8FAA9
S214005E80204638BD0133082B02F11002EDD133F065
S214005E909FFA0548F5E70548F3E70548F1E700BF30
S214005EA0E5540020A0230020048000F0028000F0CB
S214005EB0018000F038B533F085FA002305460B4A1A
S214005EC0147B6CB90133082B02F11002F8D100F0F4
S214005ED0D3FF074B28461C7033F07AFA204603E0BF
S214005EE0284633F075FA034838BD00BFA0230020CB
S214005EF0E5540020058000F00D4B10B51B780446D5
S214005F0093B1072812D833F05DFA0A4B03EB04135B
S214005F101A7B2AB100241C7333F05AFA204610BDAF
S214005F2033F056FA0448FAE70448F8E70448F6E778
S214005F30E5540020A0230020068000F0028000F038
S214005F40018000F0154B13B51868002301908DF8FA
S214005F50043033F037FA124B1C7824B133F038FA99
S214005F60104802B010BD01221A7033F031FA0E4B01
S214005F7001A81C731C7783F82C4083F83C4083F8F8
S214005F804C4083F85C4083F86C4083F87C400823E0
S214005F908DF8073000F092FF2046E2E7E09B040011
S214005FA0E5540020038000F0A02300200A4A08B52C
S214005FB012785AB107280BD8084A02EB00131B7B4D
S214005FC043B1002100F06CFF002008BD0448FCE748
S214005FD00448FAE70448F8E7E5540020A023002028
S214005FE0028000F0018000F0078000F00A4A08B541
S214005FF012785AB107280BD8084A02EB00131B7B0D
S21400600043B1012100F04CFF002008BD0448FCE726
S2140060100448FAE70448F8E7E5540020A0230020E7
S214006020028000F0018000F0078000F00A4A08B500
S214006030127852B107280AD8084A02EB00131B7BD5
S2140060403BB100F0AFFF002008BD0548FCE705485F
S214006050FAE70548F8E700BFE5540020A023002033
S214006060028000F0018000F0078000F00D4B1B78E6
S21400607093B1072812D889B10B4B03EB00131B7B97
S21400608073B10A4B1A6D01238340134214BF0123D8
S214006090002300200B70704705487047054870477E
S2140060A005487047E5540020A02300200000045057
S2140060B0028000F0018000F0078000F00B4A10B567
S2140060C012780C4662B107280CD859B1084A02EB80
S2140060D000131B7B43B100F077FF2070002010BD3B
S2140060E00448FCE70448FAE70448F8E7E5540020CB
S2140060F0A0230020028000F0018000F0078000F05E
S214006100184B2DE9F0411F6D5B6D1F4000D5FEE773
S21400611001260025144CDFF85880374218D0236833
S214006120C8F85060A3B1A168284601316268A16032
S2140061309847637B012B0BD150B90C4B03EB4513EF
S2140061401A7B60F341021A731A7F60F341021A77D2
S2140061500135082D4FEA460604F11004DDD1BDE8EE
S214006160F08100BF00000450A0230020A0220020E1
S2140061700020045070B5044601250B4E04B970BDCE
S21400618094FAA4F0B0FA80F005FA00F306EB0012D9
S21400619024EA03045368002BF0D0117B11B19168F8
S2140061A09847EBE79847E9E72024002008B5192030
S2140061B000F04AFD28B14FF00072074BC3F880216B
S2140061C01A601A2000F040FD28B14FF08062024BA2
S2140061D0C3F880211A6008BD00E100E038B5054626
S2140061E00C4633F0EFF80022044B03EB05135C601B
S2140061F01A73BDE8384033F0EBB800BF2024002007
S214006200F8B504460D4617461E4633F0DBF81CB9B3
S214006210052D13D0FF241AE0012C03D1012DF9D14E
S21400622003240BE0022C04D1ADB1052DF2D10724D6
S21400623004E0032CEED1022DECD10924074904F129
S214006240100301EB03110123C1E901760B7333F050
S214006250BFF82046F8BD0624F0E700BF2024002043
S214006260F8B505460E46174633F0ACF8134B2C46E9
S214006270D3F8242405F0FC0122FA05F3DB0712D537
S21400628000230133DBB2042B04D1FF2433F0A0F843
S2140062902046F8BDEC1804F003040C4422FA04FC73
S2140062A01CF0010FEDD1FF2CF0D00122044B03EBC4
S2140062B00413C3E901671A73E8E700BF00C0035080
S2140062C020240020064BD3F82404D3F8202403F51A
S2140062D00053104000F05530C3F82004FFF74ABFC3
S2140062E000C00350064BD3F82404D3F8202403F54B
S2140062F00053104000F0AA30C3F82004FFF73ABF5E
S21400630000C00350024B1968024B186814F006BD13
S214006310E41000200411002070B5940022460546C3
S2140063200E463CF059FD431C0AD058B92246314669
S21400633028463CF0D8FC0028034808BF002070BD63
S2140063400248FCE70248FAE710E000F021E000F01F
S21400635024E000F010B504463CF042FD431C10D08B
S21400636088B900F0DFFE234620F003002044984260
S21400637001D1002010BD53F8042B0132F7D003489A
S214006380F8E70348F6E70348F4E700BF0EE000F03E
S21400639021E000F024E000F008B533F008F8014BE7
S2140063A0186008BD102D0020014B186833F003B8A4
S2140063B0102D002041F67133124A30B5D469124DC3
S2140063C0D3639368A84204F4803423F4401306D8B9
S2140063D093600E4AD2F8183223F002030AE043F420
S2140063E0801393600A4B9842F3D9084AD2F81832C1
S2140063F043F00203C2F8183214B10022014BDA63EC
S21400640030BD00BF00000350005A620200C00750B3
S21400641080F0FA022E4B98424AD022D82D4B984252
S21400642040D014D82C4B984239D00AD82B4B9842DF
S21400643032D02B4B98422FD02A4B98422CD000209B
S2140064407047294B9842FAD1284B186F7047284B53
S21400645098422AD0274B9842F1D1244BD3F880009B
S2140064607047254B98422BD009D8244B984223D00E
S214006470234B9842E3D11D4BD3F88C007047214B39
S214006480984221D003F5740303F510539842D6D1F1
S214006490164BD3F898007047144B986D7047134B03
S2140064A0586E7047114B586F7047104B986F704777
S2140064B00E4BD3F8840070470C4BD3F88800704717
S2140064C00A4BD3F890007047084BD3F894007047F7
S2140064D00048E8010024F400C0CF6A0080841E0053
S2140064E000093D0040420F00405DC6000080E00FFE
S2140064F0C0EA210180BA8C01007E560380D5430293
S214006500006CDC020090D00338B5134B0546D3F878
S21400651020010C4600F0070004281AD8DFE800F037
S21400652003090D111500012305B1286004B123608D
S21400653038BDFFF7DBF80423F6E7FFF713F903236C
S214006540F2E7FFF729F90523EEE7FFF721F9022323
S214006550EAE700231846E7E70080005037B50C4608
S2140065600021114B0191D3F88031054603F0030357
S214006570022B0ED0032B11D0012B03D101A8FFF75D
S214006580C3FF0D210DB1019B2B6004B1216003B048
S21400659030BDFFF701F905210190F3E7FFF7F8F8A2
S2140065A002210190EEE700BF0080005038B5104B86
S2140065B00546D3F840310C4603F00303022B0BD0FC
S2140065C0032B0DD0012B0FD132F055FD082305B15A
S2140065D0286004B1236038BDFFF722F90723F6E7E9
S2140065E032F04CFD0923F2E701230020EFE700BF5D
S2140065F00080005038B5104B0546D3F860310C4685
S21400660003F00303022B0BD0032B0DD0012B0FD16D
S21400661032F031FD082305B1286004B1236038BD8F
S214006620FFF7FEF80723F6E732F028FD0923F2E726
S21400663001230020EFE700BF0080005038B5144B60
S2140066400546D3F800020C4600F0070004281BD8C5
S214006650DFE800F003090D111500012305B12860DD
S21400666004B1236038BD32F006FD0823F6E7FFF7D5
S214006670D7F80723F2E732F001FD0923EEE7FFF72C
S2140066805BF80C23800AE9E700231846E6E700BF1C
S2140066900080005038B5144B0546D3F808020C4667
S2140066A000F0070004281BD8DFE800F003090D11EE
S2140066B01500012305B1286004B1236038BD32F00F
S2140066C0DAFC0823F6E7FFF7ABF80723F2E732F029
S2140066D0D5FC0923EEE7FFF72FF80C23800AE9E73D
S2140066E000231846E6E700BF0080005038B5104B80
S2140066F00546D3F840320C4603F00303022B0BD0BA
S214006700032B0DD0012B0FD132F0B5FC082305B1B9
S214006710286004B1236038BDFFF782F80723F6E748
S21400672032F0ACFC0923F2E700231846EFE700BF7F
S2140067300080005038B5104B0546D3F800310C46A3
S21400674003F00303022B0BD0032B0DD0012B0FD12C
S214006750FFF708F8032305B1286004B1236038BDAD
S214006760FFF75EF80723F6E732F083FC0623F2E72E
S21400677001230020EFE700BF00800050032814D05C
S21400678005D8012805D0022809D0002005E00F28EA
S214006790FBD1084B186FC0F3013001307047054B32
S2140067A0D3F89000C0F30460F7E7024B186FC0F30D
S2140067B08020F2E7008000501FB5002301932528B3
S2140067C017D8DFE800F0131A1D272C363B51565B0E
S2140067D060656A78161A401616561A272C27361A37
S2140067E05127783B3B3B3B2727275B60FEF78AFF1A
S2140067F00190019805B05DF804FBFEF79DFFF7E7F2
S214006800FEF780FF02460220FFF7B8FFB2FBF0F269
S2140068100192EEE7FEF790FF02460320F4E7FEF74C
S2140068208BFF02460320FFF7A9FFB2FBF0F25208E7
S214006830EEE7002101A8FFF791FEDAE7002101A8A4
S214006840FFF762FED5E702934FF0E0231B695B0774
S21400685005D5FEF771FF0290029B0193C9E703A9D5
S21400686002A8FFF7A3FEF7E7002101A8FFF79EFEA8
S214006870BFE7002101A8FFF7BDFEBAE7002101A887
S214006880FFF7DCFEB5E7002101A8FFF703FFB0E73E
S214006890002101A8FFF74EFFABE7094BD3F8803085
S2140068A003F00303022BA8D0032B01D000209FE7A0
S2140068B0FEF772FF9CE7002101A8FFF717FF98E795
S2140068C00080005008B50120FFF776FFBDE80840BD
S2140068D00349884294BF01210221032000F002B838
S2140068E080F0FA02032810B50C4627D004D80128F9
S2140068F004D0022817D010BD0F28FCD132F03AFD84
S21400690032F040FD124A013C136F23F4405343EA31
S21400691004331367FEF710FF0021FFF74BFDBDE8B9
S2140069201040FFF7CFBF0A4A4C1ED2F8903023F033
S214006930F85343EA0463C2F89030DCE7044A4C1E7E
S214006940136F23F4806343EA84231367D3E700BFFF
S214006950008000501FB500230193252821D8DFE8CA
S21400696000F013202020202A2F454A4F54595E71EC
S21400697020203420204A202020202A204520712F45
S2140069802F2F2F2020204F54314B1B6F03F007036F
S214006990013B032B05D8DFE803F00C02080A0423AA
S2140069A00193019805B05DF804FB0323F8E706237E
S2140069B0F6E70223F4E7002001A9FFF7CFFDF0E792
S2140069C0002001A9FFF7A0FDEBE702934FF0E023BC
S2140069D01B695B0705D5FEF7AFFE0B230393039BEE
S2140069E0DEE703A902A8FFF7E1FDF8E7002001A90A
S2140069F0FFF7DCFDD5E7002001A9FFF7FBFDD0E798
S214006A00002001A9FFF71AFECBE7002001A9FFF737
S214006A1041FEC6E7002001A9FFF78CFEC1E70C4B3C
S214006A20D3F8803003F00303022B03D0032B05D0EA
S214006A300023B5E7FEF780FE0B23B1E7FEF7ACFEBA
S214006A400523ADE7002001A9FFF750FEA9E700BF28
S214006A500080005038B50546FFF7DCFC204B0446A6
S214006A605A68012A04D11F494A609A699207FCD1E4
S214006A700020FFF76FFF042803D132F07BFC32F0D2
S214006A8081FC194A24F0407395421FD0174A95425C
S214006A901FD0174AD16811F0060FFBD1906893609B
S214006AA091684B4013F4F81F16D12846FEF724FED3
S214006AB00020FFF74FFF042810D1FEF73DFE00210F
S214006AC0FFF778FCBDE83840FFF7FCBE43F00073E4
S214006AD0DFE743F08073DCE79060E9E738BD00BF8E
S214006AE000C0015000E0015040420F0080841E00AC
S214006AF000000150F8B504460020FFF72BFF0328DE
S214006B0000F0818045F60E0302213F4AC2F880302D
S214006B103E4B9962012103F580539962936DD90328
S214006B20FCD4D4E900131B0543EA0163E17B94F827
S214006B3020500B43217BE77E43EA0143617B6D01D6
S214006B4043EA0133A17B43EA811313619169D4E9D7
S214006B5004031B0643EA806301F000410B43A17E59
S214006B6094F823000B43217E43EA0143617E43EA07
S214006B7001239361136AE66923F00D0394F822104B
S214006B8043EA870366BB1362966A94F8213045EAA7
S214006B90031326F033052B4343F0010393621C4D89
S214006BA0194A936D35EA0303FBD10225174B9D6204
S214006BB0936D5B00FCD41369A56823F4700343EA65
S214006BC0055313614FF00042104B9A6119B9022227
S214006BD003F580539A6278B901220E4B9A620BE055
S214006BE0334343F008031362936A23F033030343EB
S214006BF02B4343EA4103936294F824301BB1024BC3
S214006C00054AC3F88020F8BD00C0005000D00050F0
S214006C100300014000E00050F1A7FFFF014B93F98D
S214006C2000007047E6540020014B1880704700BFF4
S214006C30B4150020034B5868C0F30800003818BF8E
S214006C400120704700ED00E0054B420953F8223062
S214006C5000F01F0023FA00F0C04300F00100704768
S214006C6000E100E00C4A10B51369044643F0040343
S214006C70136103F00DFC32F0AEFB084B084AC3F874
S214006C80202430BF32F0A8FB03F024FC1CB9BDE87A
S214006C901040FEF751BD10BD00ED00E000E00350CF
S214006CA00000FFFF0A4A10B51369044643F00403C8
S214006CB01361084B084AC3F8202403F0E9FB30BFF1
S214006CC003F008FC1CB9BDE81040FEF735BD10BD4A
S214006CD000ED00E000E003500000FFFF034A0179EA
S214006CE0D36E23F030030B43D3667047004000504A
S214006CF0072A2DE9F0410D46144698460FD803267C
S214006D009700BE4000FA07F23146154832F067FB9E
S214006D1005F0030231461348BA4032F060FB124BCE
S214006D2012499DF81800B8F1000F18BF1946012344
S214006D3003FA04F40C600E4B0E49002818BF0B46ED
S214006D401C600D4B9DF81C00C3F82044103103F264
S214006D502443002818BF0B461C60BDE8F08100BF26
S214006D6000C4035008C4035010D4035010E403506A
S214006D7014E4035014D4035000E00350F8B504465E
S214006D800D461F4616464AB101238B403021184A4D
S214006D9001FB0022F7B141F21001535004EB44030B
S214006DA0072D4FF00F014FEA031316D8A80006FA76
S214006DB000F281400F48184432F011FB4EB901230F
S214006DC030210B4AAB4001FB042277B141F210019F
S214006DD05350F8BD42F21001DFE7A5F1080080002D
S214006DE006FA00F281400448E5E742F21001EFE7B8
S214006DF000C0035004C003500CC0035010B50C4B29
S214006E000C4C0D4A0140C4F83004C3F83014C3F8E3
S214006E102C04D36E03F03003202B1FBFD36E23F059
S214006E20300343F01003D366C4F8200410BD00BF3F
S214006E3000D0035000E003500040005038B5144620
S214006E401D46032283F00103FFF798FF012004F19B
S214006E501001884005FA01F1FFF7D0FF9DF81010E9
S214006E60034B044A002918BF1346186038BD00BFFC
S214006E7024E4035024D403504FF40012064BC3F806
S214006E808020BFF34F8FBFF36F8F0022FF21034B8D
S214006E905A6599625A60704700E100E000000450AD
S214006EA0044A054B002908BF1346012282401A6097
S214006EB0704700BF401004504020045010B5012415
S214006EC00178114B0906C2785C6099604478817835
S214006ED04FF4001041EA04419961FF2199620021B4
S214006EE0996319644FF0004159654FF0FF3103F57F
S214006EF00053196505491301DBB2C1F8800181F81A
S214006F001533086010BD00BF0000045000E100E02B
S214006F10F8B50125C3B2DFF888C0D1F800E09D407F
S214006F208F7ACB7A0C46097BCCF850500CF5005C77
S214006F304CF820E04FF0300E174E1B050EFB00609D
S214006F4094F80DC043EA074343EA415322F0030294
S214006F50C0F860C0C365026732F034FA736D227AF7
S214006F602B4373650D4B02B11D64627A02B19D63BB
S214006F702279A37943EA0243094A93616179E37966
S214006F8043EA014305498B61034B55639D64BDE8A5
S214006F90F84032F01DBA00BF000004500010045044
S214006FA00020045010B50124C0B2844032F00AFA22
S214006FB0044B5A6D22EA04025A659C62BDE81040F2
S214006FC032F006BA0000045010B50124C0B2844066
S214006FD032F0F8F9074BDA6A224208D15B6B9C4321
S214006FE00CBF0124002432F0F3F9204610BD002423
S214006FF0F9E700BF0000045041F67132034BDA6334
S214007000012203F50053DA60704700BF000003500A
S21400701041F671320121044BDA6303F50052D16068
S2140070200022DA63704700BF00000350014BD3F81C
S2140070309400704700400050CB784A7810B55B014A
S2140070400C7843EA82030A79234343EA02130C22AC
S214007050424302F1B0421363012C02BF8A78024B0E
S21400706043F8202010BD00BFD080035008B54FF075
S214007070B0435A686AB958B15B680BB132F0C4F9CC
S21400708001210D4B596032F0BFF94FF0B043D96083
S21400709008BD5B680BB132F0B7F90028F0D132F0CA
S2140070A0B3F94FF0B0430222DA6032F0ADF90122B4
S2140070B0024B5A60ECE700BF001000580020005852
S2140070C04FF0B0414B6810B50BB132F09DF901227C
S2140070D00B4BC4785A608378934043EA8403447821
S2140070E02343047943EA0413447943EAC4038B60D8
S2140070F0044B5A600378C3F10203CB6010BD00BF97
S2140071000020005800100058054B5B69C3F3851239
S214007110827003F03F021B0B42700370704700BF83
S21400712000C007500120034B9B680A3303F01F037F
S214007130984070470080E00F0D4B984208D1A3F5A9
S2140071400033C3F88411802300F58050C365704770
S214007150084B984204D1A3F51033C3F89411F2E714
S214007160054B984204BFA3F52033C3F8A411EAE701
S2140071700080055000C005500000065070B505465A
S21400718016461C4619B90320FFF716FB0146402C8D
S2140071901BD003D8DCB1202C1BD070BD602CFCD1DA
S2140071A0042303FB06F2530803EB4113B3FBF2F38D
S2140071B06021094A203B02EAC30305F500529160AC
S2140071C005F580529460EB61E7E70623E9E71023B4
S2140071D0E7E70823E5E700BFF8FF7F00012200F598
S2140071E080535A6040F6AA6341F2050243610023C9
S2140071F00D498360C365C26000F500520361C36138
S214007200C364916409498365884203D103650023FA
S214007210436506E006498842F8D001F58041884279
S214007220F4D0012353607047FFFF01000080055033
S21400723000C0055070B50D46FFF7D0FF012300F5DE
S21400724080567360AB7C04461BB1836843F0804372
S2140072508360EB7C1BB12046297DFFF76DFF2A8AF1
S2140072606B7B20461343EA891343E3602B7BD5E907
S2140072700112FFF783FF6B7D1BB1A36843F48033D5
S214007280A360AB7D1BB1A36843F40043A360EB7D12
S2140072902A7E1B07120502F4E00203F0E0431343C4
S2140072A0A365697E1F4A8B1E012B1F4B1DD8944277
S2140072B017D002F58042944215D002F580429442DF
S2140072C00CBF02224FF0FF3203EB4213022041F2C2
S2140072D0AC520329985020D10423F3652B786361C0
S2140072E070BD0022F0E70122EEE7944211D00F4A6B
S2140072F0944210D002F5804294420CBF02224FF016
S214007300FF3203EB4213022042F2AC52012998509E
S214007310E1E70022F5E70122F3E7042204F5005333
S214007320DA65DBE70080055000C0035000C005505A
S21400733038B50446054D37F0EEFD0FCC0FC594E882
S2140073400F0085E80F00002038BD00BF142D002078
S21400735047F6FF739A42F0B572D0022972D83A4BBC
S2140073605B5C022B6ED8394DDF0005EBC304A178B9
S21400737015F83330012938BF0121012B13D1002520
S214007380E078401AA84202D80844C0B2F0BD431BB9
S2140073906668A0EB530336F913609642D4BF1D46C9
S2140073A003F1FF30EEE760680028EFD0B0F9004048
S2140073B0944204DBB0F902409442B8BF1446838876
S2140073C03D44FF2B19BFC8224FF0280CB0F9062009
S2140073D0B0F908C0A2EB04030CBF0126002693FBFD
S2140073E0FCF333446E781BB29E4201DD002B01DABB
S2140073F0731E1BB24FF47A7C01339BB2071D5D1ED1
S2140074002DB24FEAC50E00EBC505EA88AD689E4270
S21400741014FB025222EAE27202F15C02B2FBFCF2B8
S21400742004DD37F8335001339542E8D200EB0E0303
S2140074309888904228BF1046884238BF0846A4E77E
S214007440FF20A3E70020A1E7059C0400142D0020E0
S2140074500229F0B560D8314B595C02295CD8304B14
S21400746013F83100012816D103EBC1039C78D878B5
S214007470012C214638BF0121904294BFC1EB000188
S214007480C1EB0201001BCAB28242C8BF00225B6881
S21400749033F91200F0BD002A3CD003EBC103596853
S2140074A0002939D09878904202D3B1F90200F1E76A
S2140074B0DC78B1F900009442ECD95C788B88013C0A
S2140074C0A3F1FF06734201F10405E4B2734101F132
S2140074D00C07DEB2B44216D805EBC3034FF47A7538
S2140074E06A43B3F902405B68D21A04EBD47302EB2A
S2140074F0630292FBF4F29042CCDBB1F902009042B8
S214007500C8DC10B2C6E737F833C05E1C9445E3D338
S2140075103346DEE70348BDE70348BBE7059C0400A7
S214007520142D00200CFEFFFF0080FFFF08B5044866
S214007530FFF7FEFEBDE80840012037F011BD00BF92
S214007540089C04007FB51422002101A83BF0F5FB3F
S214007550044B01A94FF0FF30029337F03DFD07B012
S2140075605DF804FB006A18002DE9F0418CB08846EF
S214007570DDE912761D460446002847D0002945D08E
S214007580002F43D0002E41D013F00F033ED12048E9
S2140075902049A360002A08BF0146E361C4E900133E
S2140075A0404609A932F045F868BB2046099931F0F3
S2140075B047FF2946204631F043FF6946404632F0F1
S2140075C0E6F800BB6946204631F026FF404603A990
S2140075D032F0E8F8B8B9204603A931F01DFF069747
S2140075E00127204645F0005506A90797089531F073
S2140075F013FF204609A909960A970B9531F016FF46
S214007600204631F0A4FF0CB0BDE8F0812120FAE757
S21400761000010004000101042DE9F04F97B08946EF
S21400762090461F460546DDF880A0002800F0BB8087
S214007630002900F0B8803AB1229B002B00F0B380FE
S214007640239B002B00F0AF80BAF1000F00F0AB8058
S214007650219B002B00F0A78067B13C680026229B88
S21400766043440293464507D307B13C60002017B059
S214007670BDE8F08F3C46F1E75CB1229B219A9B5D0A
S214007680125D01345340239A04F00F0493550136DB
S214007690E8E7A8EB060BBBF10F0F58D9434B48465B
S2140076A0C5E90034AC60EC6113A931F0C2FF0028D4
S2140076B0DDD1284613992BF00F0B31F0C1FE594649
S2140076C0284631F0BDFE484604A932F060F800288E
S2140076D0CDD1284604A931F09FFE484607A932F0CE
S2140076E061F80028C3D1284607A931F095FE01238A
S2140076F022992F4ACDF828A00B930C928A190D9246
S21400770028464BF000520AA90E9303920F9231F0CE
S21400771083FE28460DA931F07FFE239B039A991914
S2140077200123109111931292214A284610A9CDF8F0
S2140077304CA01493159231F079FE284613A931F027
S21400774075FE284631F003FF5E4400288FD1229B49
S21400775003EB060B239B1E44029B5B4501D146466A
S21400776080E7ACB9219B2246CDE900A34946102309
S2140077702846FFF7F9FE00287FF479AF0AF11002D9
S21400778012F8013D0133DBB213700BB95245F7D145
S214007790219A1BF8013B125D0134534006F8013B69
S2140077A004F00F04D8E7212061E700BF03030004BC
S2140077B0100000202DE9F04F97B0894615469A46EE
S2140077C00446209FDDF88880DDF890B0269E0028CD
S2140077D000F09D80002900F09A80002E40F08A80FC
S2140077E0002B00F09480B8F1000F0AD0219B002BEC
S2140077F000F08D80002A40F09F80F10700F187801E
S21400780002E0002A40F08580FB1F062B7FD8524BF3
S2140078100BEB05029A427AD20023504A4846C4E946
S2140078200023A360E36113A931F003FF00285ED1B3
S2140078302046139931F004FE204646EA074131F00F
S214007840FFFD4146204631F0FBFD2946204631F03B
S214007850F7FD484601A931F09AFF002847D1204697
S21400786001A931F0D9FD484604A931F09BFF002854
S2140078703DD14FF00109204604A931F0CDFD239BF0
S21400788045F000550793219BCDF82090204609959A
S2140078900DA90A9347F0005748F00053CDF82C90F6
S2140078A00C93CDF834A0CDF838900F9731F0B4FD96
S2140078B020460AA931F0B0FD204607A931F0ACFDFC
S2140078C0259B204610A946F00056CDF840B0CDF8CE
S2140078D0449012951393CDF85090159631F0A6FD6E
S2140078E0204613A931F0A2FD204631F030FE17B035
S2140078F0BDE8F08F259B53B1BAF1000F07D0B8F161
S214007900000F01D0219B13B1B5B9022E20D1212042
S214007910EDE7239B002BFAD0BBF1000FF7D0C7F1A1
S2140079200F03DBB2032B3FF668AF0122DB0002FA3F
S21400793003F3AB42EBD9E8E7239B002BE7D0BBF180
S214007940000FE4D0C7F10F03DBB2032BDDD8ECE762
S214007950102E7FF652AFDAE7008001200000050403
S2140079602DE9F04F99B0884615469B460446229F5F
S214007970DDF89890289E60B159B1279B4BB1BBF1BA
S214007980000F06D0249B0BB1239B13B11DB9022E0A
S21400799013D121239AE0259B002BFAD0B9F1000FD2
S2140079A0F7D0C7F10F03DBB2032BF0D80122DB00C0
S2140079B002FA03F3AB42ECD9E9E7731E0F2BE8D8C3
S2140079C016F0010AE5D1FB1F062BE2D8414B09EB66
S2140079D005029A42DDD2404B4046C4E9003AC4F85C
S2140079E008A0C4F81CA015A931F023FE0346002801
S2140079F06CD12046159931F023FD204646EA074112
S214007A0031F01EFD2046249931F01AFD2946204605
S214007A1031F016FD404603A931F0B9FE03460028B2
S214007A2054D1204603A931F0F7FC404606A931F0B0
S214007A30B9FE0346002849D14FF00108204606A9A2
S214007A4031F0EAFC259B2046099345F00053CDF81B
S214007A50288001930B93239B0FA90C93249B47F03C
S214007A60005743F00052CDF834800E92CDF83CB06B
S214007A70CDF84080119731F0CFFC20460CA931F0AC
S214007A80CBFC204609A931F0C7FC019B204612A971
S214007A90CDF84890CDF84C80149331F0C7FC279B66
S214007AA0204615A946F000561593CDF8588017962F
S214007AB031F0B2FC204631F04AFD034630B1019069
S214007AC02A46514648463BF038F9019B184619B0FD
S214007AD0BDE8F08F00800120000006047FB50E464A
S214007AE01D460446F0B102B9E3B9012301920293A0
S214007AF045F00053039300230B4AA360C4E9002318
S214007B00E361204601A931F087FC3146204631F07A
S214007B1097FC2046294631F093FC204631F017FDAD
S214007B2004B070BD2120FBE70000094330B504888F
S214007B3004F4E043B3F5005F2ED1C4F30223042B14
S214007B402AD181F0AA6383F4807333F47E132AD09B
S214007B5081F0AA6383F4007333F47E1323D00023EA
S214007B60144D21F47E11A9421AD1B4F5105F17D135
S214007B70418821F04000802802D0B1F5807F15D1E1
S214007B80191F0C2912D8DB0710D4073A072A34BF6E
S214007B9000206FF0860030BD42F204039C42DED126
S214007BA06FF08500F7E7C1F30543D9E76FF086006D
S214007BB0F1E700BF000140052DE9F04F9BB081467C
S214007BC0DDE928761D468B46DDF8A880DDF8BCA0EA
S214007BD0099241B138B1249B2BB1269B0BB9279B48
S214007BE00BB91FB94EB16FF086047FE02EB1B8F125
S214007BF0000FF8D02B9B002BF5D02C9B002BF2D03F
S214007C00BAF1000FEFD02E9B002BECD02D9B002B53
S214007C10E9D0B9F8003003F4E042B2F5005F69D16C
S214007C20C3F30222042A65D185F0AA6383F4807325
S214007C3033F47E1306D085F0AA6383F4007333F41E
S214007C407E1360D1C5F3054329464846259ACAF8EF
S214007C500030FFF76BFF0446002847D1014620227C
S214007C600AA83BF06AF82022214612A83BF065F8E5
S214007C700AA831F07FFC002855D159464846099A93
S214007C8012AB31F0F8FD044600282FD12B9B9E4204
S214007C904CD8DAF800302E9A934247D8474508D297
S214007CA0BB19984505D23946324640463BF02BF87C
S214007CB04746204B25F47E159D4226D1DAF8003043
S214007CC0324606932D9B0397CDE90483279B12A982
S214007CD00293269B0AA80193259B0093249BFFF7FB
S214007CE069FD212819D0D8B92C9B1E6020461BB0F0
S214007CF0BDE8F08F42F20402934204D185F00523DA
S214007D0083F480139BE700239EE76FF0880400232C
S214007D102C9A1360CAF80030E8E76FF08604F6E79E
S214007D206FF09204F3E76FF09204DFE76FF08904D8
S214007D30DCE700BF000140052DE9F04F99B08A4608
S214007D40DDE926659346984681462A9F28B96FF056
S214007D508604204619B0BDE8F08F0029F7D0229B94
S214007D60002BF4D0249B13B9259B002BEFD10EB922
S214007D70002DECD117B92B9B002BE8D12C9B002BA8
S214007D80E5D0289B002BE2D041464846239AFFF7D1
S214007D90CDFE04460028DCD1202201460DEB020071
S214007DA03AF0CBFF2022214610A83AF0C6FF08A8DA
S214007DB031F0E0FB10B16FF09204CAE75A46514624
S214007DC0484610AB31F057FD04460028C1D12B9B26
S214007DD09D422AD8BE4208D273199F4205D2314628
S214007DE02A4638463AF08FFF3E46144B28F47E1853
S214007DF098451DD1299B2A460693289B0396CDE9D4
S214007E000473259B10A90293249B08A80193239B27
S214007E100093229BFFF7A4FD212898D02C280AD097
S214007E200028C8D12C9B1D6093E76FF0890490E76B
S214007E306FF088048DE76FF094048AE70001400530
S214007E40084B984202D0084B984207D10B88B3F5EE
S214007E50105F0CBF00206FF0850070476FF0850044
S214007E60704700BF004440040013C0042DE9F04FE3
S214007E7099460023A3B09346DDE92E74DDE9306809
S214007E80CDE90633CDE90833CDE90A33CDE90C3325
S214007E90DDF8C8A00490059129B96FF0860528463C
S214007EA023B0BDE8F08F002AF7D00FB9002CF4D12C
S214007EB02C9B13B92D9B002BEFD116B9B8F1000FF0
S214007EC0EBD1BAF1000FE8D048460499FFF7B8FFA7
S214007ED005460028E3D10146202212A83AF02DFFDD
S214007EE0202229461AA83AF028FF12A831F042FBB1
S214007EF0002878D1DDE904015A461AAB31F0BBFC04
S214007F0005460028CBD11A9831F072FC05460028A9
S214007F10C5D114B9CAF80000C1E7B7420AD23B1966
S214007F209E4207D24445B8D83946224630463AF0F3
S214007F30EAFE37464E4B994558D003F540739945AF
S214007F4015D04C4B994540F08C804445A5D814F08C
S214007F500F02A2D12346CDE900761AA912A8FFF790
S214007F6003FB0746002834D1CAF8004097E70023F1
S214007F704445CDE90E33CDE910338ED82D9B0D2B1D
S214007F808BD101238DF838302C9B0DF1390203F18B
S214007F900C0153F8040B8B4242F8040BF9D11B7802
S214007FA0137001238DF8473014F00F0933D10F2CCE
S214007FB0DAD906AB01930EABCDE90276009324F036
S214007FC00F0200231AA912A8FFF726FB074600286F
S214007FD043D04246002130463AF0AFFE0023012F40
S214007FE0CAF8003040D06FF0920558E744453FF697
S214007FF054AF2D9B102B7FF450AF2C9B0DF1380CFB
S21400800003F1100E624618685968083303C27345B8
S2140080109446F7D1C8E724F00F033B440DF1280C33
S21400802003F1100E624618685968083303C2734598
S2140080309446F7D10F2CBCD824F00F033344039397
S2140080400AAB029306AB01930EAB00934A4600239D
S2140080501AA912A8FFF7E0FA83E7B9F1000F83D058
S214008060EAE76FF085051AE76FF08B0517E700BFA4
S2140080700010C004004440042DE9F04F9946002348
S2140080809FB09346DDE92865DDE92A788A46CDE982
S2140080900633CDE90833CDE90A33CDE90C33059034
S2140080A029B96FF0860420461FB0BDE8F08F002A7D
S2140080B0F7D00EB9002DF4D117B9B8F1000FF0D1F2
S2140080C02C9B002BEDD048460599FFF7B9FE0446D9
S2140080D00028E8D1014620220EA83AF02EFE2022E3
S2140080E0214616A83AF029FE0EA831F043FA0028D9
S2140080F044D15A465146059816AB31F0BCFB0446AF
S2140081000028D0D1169831F073FB04460028CAD157
S21400811015B92C9B1860C6E7BE420AD273199F4257
S21400812007D24545BDD831462A4638463AF0EBFDDB
S2140081303E46344B994549D003F54073994520D0C7
S214008140314B994554D1454555D82B07A9D12B46D7
S2140081500122CDE9006716A90EA8FFF705FA2C9BA9
S21400816006461D6000289ED04246002138463AF05A
S214008170E4FD00232C9A012E13603FD06FF092048A
S21400818091E70D3D454536D801238DF82830334616
S2140081900DF1290206F10C0153F8040B8B4242F84C
S2140081A0040BF9D11B780D3613704FF48073ADF8BD
S2140081B0363006AB01930AAB00932A460023CDE97E
S2140081C0026716A90EA8FFF727FAC8E7103D45452F
S2140081D011D833460DF1280C06F1100E62461868C9
S2140081E05968083303C273459446F7D11036E0E762
S2140081F06FF0850457E76FF0890454E76FF08B043F
S21400820051E700BF0010C0040044400410B54FF40E
S2140082102F72002104463AF090FD8023C4F88C307B
S214008220054B04F19C00C4F88430012384F88830A0
S214008230BDE8104030F066BFF49C040010B5D0F8DE
S214008240A0400A4684B931F02CFD044610B900243B
S214008250204610BD2D2896BF064B074953F8201020
S214008260064831F064FEF3E7D0F8A4101046A047A5
S214008270EDE700BFA09D0400FD9C0400E3C50400DC
S214008280F8B590F88060044616B100263046F8BD72
S21400829031F03AFB0028F8D1012384F8803094F8B6
S2140082A0883033B1D4F88410194884F8886031F0E7
S2140082B03EFE4FF0FF37D4F8B402421C1CD0C4F880
S2140082C0B47210F0FF0520D0204631F01AFB294684
S2140082D0204600F0AFFB0028EDD0204631F01FFB13
S2140082E094F888306BB1D4F88410094831F01FFE3A
S2140082F0002384F8883004E031F0FEFD431CE0D112
S2140083000126002384F88030C0E70126D3E700BFAB
S2140083107EC10400F8B50B780446302B0D46164691
S21400832004D14B7803F0DF03582B11D0284F6A1E78
S21400833012F8011F002934D128460A2230F030F9FD
S214008340202C03460D4631D1B1FA81F040091AE0DF
S2140083504A1C1F4912F8013F8BB928463AF020FD07
S2140083601C4B02382340032B12D10134A410844244
S2140083700AD1A87837288CBF0020012003E0CB5C08
S21400838013F04400E6D1F8BDCCBF01200020FAE788
S214008390002CB8BF0334B0EBA40FD4BF01200020DC
S2140083A0F1E77B5C13F00400C2D1ECE726B108438A
S2140083B002D0013B61F100050122A240013A1A40B9
S2140083C0002D08BF9A420CBF01200020DBE700BF4B
S2140083D0ED27050003000080F0B5037801467B2BEF
S2140083E017D10646022400220B4F16F8015F7D2D9A
S2140083F005D10B5D6BB9D24302F0010008E07B5D4E
S21400840013F0440002D001320134EEE7202DFBD0F9
S214008410F0BD0020FCE700BFED27050070B506465E
S2140084200D463AF0BDFC0446304631F080FD044E61
S214008430AC4200D370BD304631F079FD0134F7E729
S214008440E4B804002DE9F84F044602216048FFF71F
S214008450E5FF1E212068FFF7E1FF6368586831F0EA
S21400846066FD5C4831F063FD67683B7BFD2B12D8E8
S214008470D7F808804FF0FF3440463AF091FC0646A5
S214008480DFF84C91DFF8A8A1DFF864B10C3717F8D5
S214008490013BFF2B01D1BDE8F88F212B14D8212BEF
S2140084A014D8DFE803F0178C8884807C7874131364
S2140084B0131313131313706C6864605C585413130F
S2140084C0131313131313504CFE2B34D006B1013480
S2140084D0414D02E006B10134404D02214846FFF707
S2140084E09DFF1E214846FFF799FF504631F01FFDBD
S2140084F0594628463AF03DFC3949002818BF294617
S214008500384831F014FD3B78202B02D12B2031F077
S21400851002FD354831F00BFD4EB118F804301F2B24
S21400852005D018F804001F2801D0B4424BDB2948B8
S21400853031F0FDFCABE706B101342C4DCDE706B1BA
S21400854001342B4DC9E7002EA1D001349FE706B1B8
S2140085500134284DC1E706B10134274DBDE706B109
S2140085600134264DB9E706B10134254DB5E706B10D
S2140085700134244DB1E706B10134234DADE706B111
S2140085800134224DA9E706B10134214DA5E706B115
S2140085900134204DA1E706B101341F4D9DE706B119
S2140085A001341E4D99E706B101341D4D95E706B11D
S2140085B001341C4D91E706B101341B4D8DE706B121
S2140085C001341A4D89E731F0A6FC0134A9E700BF53
S2140085D02B880400C2A20400659E04005F9E04006F
S2140085E0B69E04007EC104007AB304009DD9040040
S2140085F06D9E0400769E04007D9E0400889E040006
S214008600929E04009C9E0400879E0400919E040097
S2140086109B9E0400A49E0400A89E0400B09E040036
S214008620599E0400609E0400AF9E0400589E0400FD
S214008630FFCA04002DE9F04F9BB005468B46002488
S214008640009204933AF0ACFB249F049B05901C60B8
S21400865028463C600AAA09A931F08AFC064658B9A1
S2140086600A983AF09DFB3446B146049B1860D5F84C
S2140086709C300393039B1BB920461BB0BDE8F08FCC
S214008680039B9B680193002B69D02E4416F8013B90
S214008690202B12D000260C237343019A02EB030A08
S2140086A0D3580293002B55D0DDF82480C84551DB03
S2140086B09AF808302BB1721C35E03B6801333B60FA
S2140086C0E4E73B68D5F894200299D21A049B1A6016
S2140086D01AAB03EB890353F8403C184606933AF06E
S2140086E034FB07900028E6D102983AF059FBDAF8F6
S2140086F004100346087BD7F800A0FE28079A16D178
S21400870008F1FF38C8452ED00B68069802920193F0
S2140087103AF046FB0AF10103029A0344E95C21B1F0
S2140087203B6009F101091646B5E70133F6E7D5F8CF
S2140087309420A2EB0A029A42BDDC584606933AF011
S2140087402FFB069B03447B2B1DD958461E4A0099D7
S21400875030F0FFFC2B46059A2A449A422AD1039B06
S2140087601B68039386E7D5F89420A2EB0A029A4288
S214008770E3DDD1F8008058F80C2B82B9059B3B60EE
S214008780049B1A60E6E75846029A009930F0E1FC2E
S21400879058460E4A0099013430F0DBFC8BE7584609
S2140087A0009930F0D6FC5846084A009930F0D1FCC3
S2140087B00134E0E713F8011B0029CED14FF0200169
S2140087C003F8011CC9E700BFB89E0400E4B8040023
S2140087D02DE9F047002486B01C60DDE90EA80646A9
S2140087E089468AF800401168154888F80040174600
S2140087F01D468DF81740FDF7D7F918B901242B68E8
S21400880001332B600020D6F89C6036B914B10123E2
S21400881088F8003006B0BDE8F087B06868B14B460F
S2140088200021CDE902A8CDE900750DF1170231F05F
S214008830D7F99DF81730002BE8D13668E5E700BF7A
S214008840BD9E04002DE9F04300260446ADF5457DA7
S2140088507C22314605A802AF04963AF06EFA8022D2
S2140088602046009703AB04A9FFF7E4FE01283ED19B
S21400887004A83AF095FA03993B68A0EB01080B446C
S214008880234428EAE878054604A8014442461846E8
S2140088903AF079FA00F80860D4F89060039B3968DB
S2140088A0D4F890201944B14212DCD4F89410E81A97
S2140088B00244C4F89020014404AAC4F89410D418C2
S2140088C025182B1B002B0DDC0DF5457DBDE8F08330
S2140088D0A05C31F020FBD4F8903001360133C4F8A8
S2140088E09030DBE714F8010B31F015FBE9E7EBDD20
S2140088F024AD8022314628463AF01FFA44AB4FF4A6
S2140089000072314618463AF018FA0DF1100903467F
S2140089104A464FF00108314612F8016B002E49D145
S21400892004A843F828103AF03BFA2946334619F8CB
S214008930016B0DF5887C5CF8042B824243D1013331
S214008940984501F8016BF2DAD4F89060039BB342C5
S21400895042DC2346354A04A9354831F0E8FA284671
S2140089603AF01EFA0646039B3F68F61A1F44E019C3
S2140089701D4426EAE67204F198031744984204EB75
S21400898007014ED204F1900399424AD96A1E811912
S2140089900B1A002B39DD12F8013F00F8013BD4F822
S2140089A090300133C4F89030D4F894300133C4F8D2
S2140089B09430EDE7202E01F1010104BF43F82810A2
S2140089C008F10108A8E70DF1100E7244D25CB2421D
S2140089D0B1D00022EA54B7E7D4F890300136E05C14
S2140089E031F099FAD4F890300133C4F89030ADE7FE
S2140089F0D4F89020013B0132C4F89020D4F894209B
S214008A000132C4F89420002BF2DC00232E44E355F8
S214008A10731B002B7FF758AF15F8010B31F07BFA6C
S214008A20F6E729463AF0AFF93346ECE7F49C040043
S214008A30C29E04002DE9F843D0E9245604460F46AA
S214008A40002294F89830012B07D10A2F07D1002373
S214008A5084F898300020BDE8F88300F29F801B2F32
S214008A6001D10223F4E70D2F0DD1012384F89830AD
S214008A700D2031F050FA0A2031F04DFA0023012083
S214008A80C4E92433E7E74FF00008082F84F89880FD
S214008A9034D1454530DDB5420FD1384631F03BFA8A
S214008AA0202031F038FA013D384631F034FA013EE4
S214008AB004F80580C4E92456CCE7FBDA05F1FF3953
S214008AC0384631F028FA04EB0903A6EB09026119CF
S214008AD018463AF018F904F806800146013E484860
S214008AE031F025FA35464D4501DC4D46E2E70820D3
S214008AF031F011FA013DF6E7ACD0DBE77F2F1CD151
S214008B00002EA7DDB542A5DA6319691C2144184674
S214008B10721B3AF0F8F804F806800146394831F03E
S214008B2006FA0820013E31F0F6F9B542F9D1D4F83C
S214008B309430013BC4F894308CE70A2F98D0092F64
S214008B4003D12046FFF77EFE84E7D4F88C30013B45
S214008B50B3427FF77FAFB54204EB050805F1010984
S214008B600CDB384688F80070D4F89430C4F890903F
S214008B700133C4F8943031F0CEF96BE74146721BEE
S214008B8004EB09003AF0BFF8404631F0D0F908206F
S214008B90013E31F0C0F9B542F9DDE2E7022B06D11D
S214008BA05B2F01D1032353E784F8982049E7032B72
S214008BB07FF450AF413F84F89820032F3FF64AAF2A
S214008BC0DFE807F002070A160121204631F054F9C3
S214008BD040E74FF0FF31F8E7B542BFF63BAF605DC8
S214008BE031F099F9D4F890300133C4F8903031E779
S214008BF0002D7FF72FAF013D0820C4F89050BAE74C
S214008C00CB9E04005FB4040013B50024064A6846F1
S214008C10536F43F00103536700948DF80440FEF74A
S214008C205DF8204602B010BD0040005008B502486E
S214008C30FDF710FF002008BD00B4C40430B58BB0AB
S214008C406C46174D0FCD0FC40FCD0FC495E803002B
S214008C5084E80300134BD3F84C2112031CD5A3F56C
S214008C60FE431C884FF6FF739C4208BF8C248DF889
S214008C701940FDF7D3FF204480F308008DF8180054
S214008C800948FCF775FD6846FDF734FF3220FDF70E
S214008C90CBFF00200BB030BDD3F85041E4B2E6E77E
S214008CA0D09E04000080E00F00F049026FF004033D
S214008CB0502110B50A480B4C13F0800F03F1010247
S214008CC007D123443D2A83F800131346F4D100202D
S214008CD010BD03F00F03043B034419761346EBE77D
S214008CE000ED00E000E100E010B5044630F05FFB68
S214008CF0024B1C6030F05FFB002010BD3C2D0020B6
S214008D0010B530F054FB034B1C6830F054FB204683
S214008D1010BD00BF3C2D002038B50C461546014658
S214008D2010B9FFF7EDFF01462B462246034810F028
S214008D30CFFE0028D4BF3720002038BDBBA00300DC
S214008D4030B51446054687B0104631F0E8F9636939
S214008D50024683423CBFD4E903315B181B1A7BB141
S214008D600F49049403910021CDE9013101230093BA
S214008D702846D4E9001330F0B2FA002007B030BD20
S214008D800122627694F82D20002AF6D084F8353039
S214008D901321E369204698472046636A9847ECE724
S214008DA0418D00002DE9F04788B004460F46164670
S214008DB0984630F007FB8146002E7AD0237E03F0DB
S214008DC0FF02002B00F0A280204631F0A8F965696A
S214008DD0A84205D1637ED4E9033213445D1B01E04B
S214008DE0F9D9451BB54228BF354630F0EBFA94F862
S214008DF02D308246002B6DD12A463846616939F0FF
S214008E00C2FF63692E462B44636121E0037803F0BA
S214008E10FD0111295BD1216B814205D1A3F111011E
S214008E204B424B4184F83430013E6369216B01327A
S214008E308B4203F1010308BF2363636195426069B7
S214008E40E4D1D4E90323216B1344994200D1226371
S214008E500025D4E9032361691344994208BF62617F
S214008E60207A6576FDF7A2F8204631F058F9636956
S214008E70834232D1257694F82D30E568656103B1DA
S214008E8025632046636A9847214B04940393002386
S214008E90029323692A46019301230093636821689D
S214008EA0207A30F01CFA207AFDF7A0F8504630F011
S214008EB08FFA4846C8F8006030F08AFAD8F80030D2
S214008EC0002B0CBF1B20002008B0BDE8F08707F879
S214008ED0013BAAE72E460022B0E70123207A23763C
S214008EE00DF11E01FDF7EAF89DF81E30002BDAD0D2
S214008EF00DF11F01207AFDF7B9F89DF81F10002923
S214008F00D1D12246207AFFF71BFFCCE71646D0E7E2
S214008F10418D0000002807DB01234109034A00F0C9
S214008F201F00834042F82130704700BF00E100E098
S214008F30002808DB01224309034900F01F00824095
S214008F40603341F82320704700E100E070B5044626
S214008F500568FFF7D5FE844202D10020FFF7C4FE65
S214008F6095F936603046FFF7E3FF002E0CDB012252
S214008F701949730906F01F06B240203341F8232032
S214008F80BFF34F8FBFF36F8F95F937603046FFF70B
S214008F90CFFF002E0CDB01220F49730906F01F06D7
S214008FA0B240203341F82320BFF34F8FBFF36F8FBB
S214008FB0287AFDF73BF8287AFCF79EFFFCF77AFF45
S214008FC000232846C4E90033C4E90433A360AB6A2F
S214008FD0BDE87040184700BF00E100E02DE9F0430F
S214008FE00C461546064687B04022002120461F46FE
S214008FF039F0A3FE95E8030000232A692376EB6880
S21400900084E80300C4E904232A7DE36084F82C2066
S214009010AA7D2363012384F8343084F835300E9B10
S21400902084F82D2023620F9BE7616362109BA36286
S2140090302B7A84F836306B7A84F837302D4B3460D0
S21400904073602D4BB3602D4B33612D4B73612D4BED
S214009050F360FCF777FF38B12B4B984204D010240E
S214009060204607B0BDE8F083002104F10800FCF7B5
S214009070F1FE07460028F2D14FF00108234B336279
S214009080234B84F83C80B361224BF3619DF8483053
S21400909084F8390084F83B309DF84430204684F844
S2140090A03A30697D84F8388031F049F895F90990AE
S2140090B04846FFF73DFF4846FFF72CFF164B049443
S2140090C0CDE902732369CDE900836368E26821680D
S2140090D0207A30F004F904460028C0D195F90850EB
S2140090E02846FFF725FF2846FFF714FF3046FFF710
S2140090F0FBFDB5E78FA10300A58D00000DA10300C1
S21400910013A103004D8F0000038000F0E7A00300CA
S2140091103FA1030019A10300418D00002DE9F04195
S2140091204FF001081C46574B86B00293564B0C9DD9
S2140091300193564B174600930A46CDE90388294605
S214009140534BFFF74BFF0646002840F092802368FB
S21400915004222B64237985F84430A17985F84610DB
S214009160607985F84500237A85F84830E37985F8F4
S2140091704730A37A85F84A30637A85F84930237BEE
S21400918085F84C30E37A85F84B304346FDF7F6FD1C
S21400919043460222217AE079FDF7F0FD3E7039461B
S2140091A02068FEF747F81421A27B3A4B03EB4210E7
S2140091B0C0F8AC1594F806C061792E3203EB421362
S2140091C041EA0C415960227AE37943EA0243C0F847
S2140091D0BC3585F84D607B7E032B50D8DFE803F066
S2140091E03A4D021D022385F84D3000230422217BD0
S2140091F0E07AFDF7C3FD41F2AC520221A37B5B018E
S21400920003F1A04303F570339950217BE27A42EADA
S214009210014241F2B8515A501CE0012785F84D3002
S21400922002220023A17A607AFDF7A8FDA17A627A6D
S214009230A37B42EA014241F2B4515B0103F1A04331
S21400924003F570335A500422236803F58053DA6519
S214009250002FCAD104226379052185F84530A37909
S21400926085F846302B6C206803F58053DA6430F0BE
S2140092700DF9304606B0BDE8F0810027CEE723267C
S214009280F7E700BFBDA20300B1A203003DA30300A1
S21400929031A3030000C0035007B501F0A7FB6A46E0
S2140092A001F01CFC18B15221034800F0DDFADDE99C
S2140092B0000103B05DF804FBF89E040008B501F059
S2140092C0C9FA18B17A21024800F0CEFA002008BD8B
S2140092D0F89E040008B500F025FA0D4A536A43F4D8
S2140092E070235362EFF308834FF0CD31094A043BF5
S2140092F0934209D20222084B1A67FFF7DFFFBDE848
S21400930008400648FEF714B843F80419F0E700BF13
S21400931000ED00E00000002000400050089C040023
S21400932007B5042200200DEB020135F0D1FD04281C
S21400933004D040F26711044800F096FA019800F055
S214009340DBFB03B05DF804FBF89E0400082310B5B1
S2140093500A0A41400648C9B201F00104490804B1AE
S2140093604140013B13F0FF03F6D181EA020010BD35
S2140093702083B8ED2DE9F8430025134C134EDFF893
S2140093805480134FDFF8509023780BB9BDE8F8836C
S21400939022464146002056F8043B30F097FE2278DD
S2140093A023460134002AFAD15B7853B105F0030353
S2140093B0032B0CBF39464946002030F087FE0135A6
S2140093C0E2E73946F8E700BF54A404000010002086
S2140093D0C1A204003E9F0400E3DA040040F6052222
S2140093E06A4B2DE9F0411B8893420ED8B3F5206FE7
S2140093F00DD840F20252934218D040F201729342C6
S21400940020D040F2015293420AD0BDE8F081A3F684
S21400941002235F4C032B1ED8DFE803F0376396B2B7
S2140094205C490020BDE8F04130F050BE00205A49AB
S21400943030F04CFE564B1A6C0020BDE8F041574900
S21400944030F044BE524A0020D2E92423BDE8F04161
S214009450534930F03BBE0020524930F037FE94F8B6
S21400946068309E0703D500204F4930F02FFE94F851
S2140094706B305D0603D500204C4930F027FE94F98A
S2140094806B30002BC1DA4A49CBE70020494930F05F
S2140094901DFE94F86430980704D00020226C3F49E3
S2140094A030F014FE94F96430002B04DA0020226FAA
S2140094B0414930F00BFE00250126404FDFF80881B9
S2140094C0626E06FA05F3134207D057F82520137884
S2140094D01BB14146002030F0F9FD0135082DEFD1D3
S2140094E093E73749002030F0F1FD2C490020226C2C
S2140094F030F0ECFD94F86530590703D5002031496B
S21400950030F0E4FD94F96530002B04DA0020226F79
S214009510294930F0DBFD0825284E2B4F636EEB40C3
S214009520DA0707D556F8252013781BB139460020F0
S21400953030F0CCFD0135102DF0D194F864000028F1
S2140095407FF463AF21496DE72149002030F0BEFD6E
S2140095500020226C114930F0B9FD1025174E1A4F25
S214009560636EEB40DB0707D556F8252013781BB152
S2140095703946002030F0AAFD01351A2DF0D144E717
S2140095800020144930F0A2FD226C55E7D448002094
S21400959000100020489F0400869F0400B79F040028
S2140095A0D29F0400EE9F040007A0040042A004001F
S2140095B076A00400B3A00400D9A004005CAC0400AC
S2140095C000A1040018A10400F7A004005FA1040095
S2140095D090A10400AAA104002DE9F04F424C85B0EA
S2140095E0D4E90D32580748BF0026D4E9121B48BFFD
S2140095F0B046D4F83CA05FBFD4F850808B46924665
S2140096003A4E54BFDFF81091DFF8109113F0080FB0
S214009610374B384A18BF1A46B6EB08071FBF6423F5
S2140096207D0803FB0B55B5FBF7F50CBF3D46ADB209
S2140096304B4631490020CDE9016ACDF80080BFB223
S21400964030F044FD2B460020CDE900972B491FFA49
S2140096508BF230F03BFDB24501D8C24504D24A46F3
S2140096600020274930F032FDD4E91703184338D0DC
S2140096700020244930F02AFD00250126224FDFF87D
S214009680A080E26D06FA05F3134207D057F82520AE
S21400969013781BB14146002030F018FD0135202D0F
S2140096A0EFD100250126194FDFF87480226E06FAE6
S2140096B005F3134207D057F8252013781BB141460F
S2140096C0002030F003FD01351D2DEFD1002010499C
S2140096D030F0FCFC00200E4905B0BDE8F04F30F03D
S2140096E0F5BC0C49F4E700BF001000200010002075
S2140096F0D1A10400D8A10400E0A1040012A2040035
S2140097004CA204006BA2040068AB0400E8AB0400A3
S214009710C2A204009BA20400CCA1040072E00400D4
S2140097207DC1040010B5FDF781FC04462FF066FEEF
S214009730E30721D401221046114600FA01F3234024
S21400974002F101021AD0214B33F811302049062BC2
S21400975019D040F20722934212D14FF000524FF236
S2140097600F00548884420BD11088984208D14CF2DE
S2140097703C335380088010BD0021E4E7102ADBD17B
S214009780134A138012E04FF000534FF20F0258882E
S214009790904218D11B88B3F5406F28BF4FF4C063C2
S2140097A00B804CF23C324FF000535A80084B1A881C
S2140097B040F201739A4201BF064B074AD2E9000104
S2140097C0C3E90001D7E74FF4C063E9E734A4040017
S2140097D0D4480020402D002090100020014B18880F
S2140097E0704700BFD4480020014B1888000A704715
S2140097F0D4480020044B05481B881A0AB3F5406F6E
S21400980038BF00EB82007047D448002004A4040050
S214009810044B1888044B020A53F82230C0B203EBFC
S21400982080007047D4480020D4A3040010B5044636
S2140098302FF0C4FD4FF000534FF20F021C805A80E9
S214009840BFF35F8FBFF34F8F0549064BCA6802F41C
S214009850E0621343CB60BFF34F8F00BFFDE700BF4E
S21400986000ED00E00400FA0538B504460D460B4648
S21400987002460749002030F029FC30F000FE2FF0A9
S2140098809DFD29462046BDE8384030F0DEBD00BFCD
S214009890B1A204006D4A2DE9F0416D4B55686D4C40
S2140098A05D65516A99656C49D1F80002D865D1F8B2
S2140098B00412586B1966916A10F0040F5966D16A43
