S01E00006F742D7263705F646F6E676C65655F76322E342E342E302E7333371B
S21400400000100020C1450000056D0000096D00008D
S214004010F94701000D6D0000156D0000F740010026
S214004020F7400100F7400100F7400100F7400100AB
S214004030196D0000ECA20100F7400100F7400100F6
S214004040F7400100F7400100F7400100B14A0000C8
S214004050F7400100F7400100F7400100F74001007B
S214004060F7400100F740010009750000F740010025
S214004070F7400100F7400100F7400100F74001005B
S214004080F7400100F7400100F7400100F74001004B
S214004090F7400100C14E0000F7400100F740010064
S2140040A0F7400100E14F0000C14F0000F74001005B
S2140040B0F7400100779A0100F7400100D92E010071
S2140040C07D9A0100799A01006D260100899A010007
S2140040D0819A01009D2E0100859A0100E90D0100DC
S2140040E0192F0100F7400100F7400100F7400100DA
S2140040F0F7400100F7400100F7400100F7400100DB
S214004100F7400100F7400100F7400100F7400100CA
S214004110F7400100F7400100F7400100F7400100BA
S214004120F7400100F7400100F7400100F7400100AA
S214004130F740010000000000F7B5012003F098FCEE
S2140041400446002840F09F80534E544B544DC6E919
S214004150003041F60B2310227F21B06028605148C2
S214004160AB8015F0CEFD7F224F4B214630461A70AD
S21400417008F00CF9044600B9FEE74C4908F0A8FC24
S21400418000B1FEE70221204614F060FF00B1FEE712
S2140041902046474908F0B2FE00B1FEE7012120465E
S2140041A015F004F900B1FEE70121204615F00CF9E0
S2140041B0074600B1FEE701463C223E4815F0A1FD49
S2140041C080233A46204606F1100115F006F88028AE
S2140041D000D0FEE7384E012008F02CF92CA3D3E9D6
S2140041E0002334602046CDE900234FF0FF324FF025
S2140041F0FF3314F066FF014600B1FEE7284603F0E1
S21400420093FC0121084603F061FC0121306814F09C
S214004210C5FE00B1FEE700244FF40C6200212748DB
S21400422015F06FFD264B274A9C801C60264B6FF0CE
S21400423063001A609C80254A254B1A60254A9C809C
S2140042405A6105F067FB2B790B2B00D9FEE76B79DB
S2140042500A2BFBD9204B1D6002F092FB204603F090
S214004260B3FC08223068114614F030FF044600B153
S214004270FEE704F015FD194B19481C7003B0BDE8A5
S214004280F04010F009BF03B0F0BD00BFAFF30080F0
S2140042900BE020FF22020000E83700204D7D0000E2
S2140042A0E0370020924800209148002007001100C7
S2140042B0FCA5010098370020D83700207C38002065
S2140042C0381500202B49002010150020AC4800208F
S2140042D0E8140020D8140020DC370020AD49002068
S2140042E0EDA501000348044B834202D0034B03B103
S2140042F01847704774140020741400200000000053
S214004300064B0749C91A891048BF0131491003D026
S214004310044B0BB101481847704700BF74140020C7
S214004320741400200000000010B5064C237843B932
S214004330FFF7D8FF044B13B10448AFF30080012306
S214004340237010BD7048002000000000BCE0010093
S21400435008B5054B1BB105490548AFF30080BDE81D
S2140043600840FFF7CDBF00BF00000000F82B00207C
S214004370BCE00100A3F5803A704700BF174B002B46
S21400438008BF134B9D46FFF7F5FF00218B460F46EF
S2140043901348144A121A15F0B4FC0E4B002B00D02A
S2140043A098470D4B002B00D09847002000210400B2
S2140043B00D000D48002802D00C48AFF300800FF027
S2140043C021FA200029000FF05EFE0FF00DF800BF66
S2140043D000000800000000000000000000100020A0
S2140043E074140020D84A00200000000000000000DE
S2140043F008B510F001FE054B186028B93F21044BA4
S214004400044A05480EF0D2FF08BD00BF102C00205D
S214004410C0A20100D3A20100CAA20100014B186885
S21400442005F028BA102C002010B5044C206810F0B7
S21400443039FE2068BDE8104004F040BD102C002076
S21400444010B51E4C10F00AF8236F23F0070343F054
S2140044500203236710F009F8D4F82031002023F077
S214004460070343F00103C4F82031D4F8403123F0A9
S214004470030343F00103C4F84031D4F8603123F05D
S214004480030343F00103C4F86031D4F8403223F04C
S214004490030343F00103C4F84032D4F8003223F09B
S2140044A0070343F00103C4F80032D4F8083223F0BF
S2140044B0070343F00103C4F8083210BD0080005023
S2140044C007B501A802F044F89DF80530012B27D166
S2140044D0204A936DDB0313D4536B23F4FF0323F4BA
S2140044E0FE4343F4BC1343F4A0635363136B23F4FB
S2140044F0704343F440431363136B43F4E063136366
S2140045009DF8043063B94FF000531B68124B1B68CC
S214004510124B1B68124B1B68124B1B68124B1B6816
S214004520124AD2F8803043F00303C2F8803002F01B
S214004530CBFB02F089FB02F08FFBFFF781FF02F056
S21400454071FB00F079FA00F05BFD03B05DF804EB58
S21400455004F0AABD00C000500040002000800020EB
S21400456000C0002000000120004001200080005014
S21400457018B1034B1860002070472520704700BF15
S214004580142C002010B5054C0549206800F030FFBB
S2140045902068BDE81040FFF7EBBF00BFBC1100204D
S2140045A0981000200348044A0449121A92100FF08B
S2140045B0A3BD00BFACE40100ACE40100D84A002073
S2140045C008B500F02FF8FFF7EDFF124B12498B42AB
S2140045D012D30020114B12498B4218D3FFF7CEFEA0
S2140045E0186850F82240586840F82240013298680F
S2140045F08242F5D30C33EAE70022F8E71C6844F859
S214004600220001325C68A242F8D30833E4E70022B5
S214004610F8E700BFC4E00100D0E00100D0E00100F0
S214004620D0E001006FF00100104B114A10B59A60FF
S214004630D3F888200F4942F47002C3F8882001F5A9
S2140046400052106641F2FF7050660220C3F8D00098
S214004650BFF34F8FBFF36F8F08244FF440330648E5
S214004660C0F88041D36004600B6110BD00ED00E02F
S214004670004000000080004400E100E0014B1868A4
S214004680704700BFC4110020014B1860704700BF80
S214004690C4110020084B1B6F03F00703022B04D045
S2140046A0032B05D0012B05D0FEE7044B1868704796
S2140046B0034BFBE70348704700800050C4110020FE
S2140046C0CC110020002D310108B5FFF7E3FF054BA4
S2140046D01B6FC3F301330133B0FBF3F0024B1860DA
S2140046E008BD00BF00800050C01100200048704781
S2140046F000B4C404014B1868704700BFCC110020FA
S214004700054B1860054B1B6F03F00703032B01D105
S214004710FFF7DABF704700BFCC11002000800050C2
S21400472000487047002D3101174B9868C0F30440CD
S2140047300C280AD8DFE800F00B0909090909072147
S21400474019091B1D1F0011487047002070479B6801
S21400475003F04073B3F1807F11D0B3F1007F10D027
S2140047600B4A002B08BF104670470A4870470A4895
S21400477070470A4870470A4870470A4870470A4810
S21400478070470A48704700BF0040015A405DC600A7
S21400479000093D00C0EA210180BA8C010048E8010A
S2140047A0005A62020024F40080841E0040420F007B
S2140047B0014B1868704700BFC8110020BFF34F8F29
S2140047C00549064BCA6802F4E0621343CB60BFF3A8
S2140047D04F8F00BFFDE700BF00ED00E00400FA05C4
S2140047E000239B6AB3F5804F03D21968064A9142AC
S2140047F003D00023037083607047012202709A681A
S2140048009B694260F7E700BF07B0CD5E08B54FF082
S2140048100053024A1A60FFF7D1FF00BF02020FF0F2
S21400482073B5494B04461A781AB102221A7002B0C0
S21400483070BDCDE900220028F9D001261E700FF0C9
S21400484029FE424D424B18600BF07CF92B785BB981
S21400485000F0D6FB40B93F4808233F4A3F4900686E
S21400486007F098FB00B92E703D4B5A68E2603D4A4F
S2140048709A601A6E22605A6E6260D3F87021A26047
S2140048801B6E5C0440D5384AD368D807FCD4374B37
S2140048901A68531C3DD04FF480139340344A136675
S2140048A00423334C23664FF4806323660FF04FFCDB
S2140048B001300ED00FF04BFC40F20113984208D0A6
S2140048C04FF4804323664FF4004323661023C4F856
S2140048D070311023264C4FF0804223664FF400536D
S2140048E06846236601A9226663660FF018FC009BE3
S2140048F02366019B63662B78002B98D0164B1A68AC
S21400490022665B68636692E71A4AD368D907FCD4C6
S214004910BDE7194B1B78002BC2D1184B5A68144BB5
S21400492012B94FF480121A66154A526812B94FF43B
S21400493000121A66134B5B68002BB1D14FF480024D
S2140049400B4B1A66ACE700BF724800207348002085
S214004950842C0020F8110020882C0020007108000C
S2140049600080004455CEAC0000000440D01100206A
S214004970009000440000045071480020008005505C
S21400498000C005500000065038B5224D04462B786E
S214004990012B02D001232B7038BD0028FCD00FF06D
S2140049A0D6FB013009D00FF0D2FB40F2011398423B
S2140049B003D0194AD368DB07FCD42268174B1A6663
S2140049C062685A66A268C3F87021E268D40744BFDA
S2140049D000229A60124B1A68013213D1114A1278DB
S2140049E082B911494968C80748BF1A600F4A526819
S2140049F0D10744BF01221A600D4A5268D20744BF4D
S214004A0002221A600BF0A6F80A4B18680FF048FD51
S214004A100023C0E7724800200000044000800044E5
S214004A20D0110020714800200080055000C00550BD
S214004A3000000650842C002038B500239B6AB3F58E
S214004A40804F25D21A68144B9A4221D1134D2B78E9
S214004A5013F0FD0402D00024204638BD1048FFF7AE
S214004A60DFFE08214FF480330E4A0F48C2F880114B
S214004A70C36011600D4A1361A36ADB699847044658
S214004A800748FFF781FF002CE6D101232B70E2E7F1
S214004A904FF48174E0E700BF07B0CD5E7148002098
S214004AA0742C002000E100E000A0004400900044C8
S214004AB013B5204B1B7803B9FEE700231E4CCDE947
S214004AC000336A4608231D49206807F063FAF0B9E8
S214004AD01B4AD2F84031D2F840211F2B4FF0010379
S214004AE010D9203A9340019A1A43019208236A4645
S214004AF01249206807F004FA4FF00053114A1A6072
S214004B00FFF75CFE9340009A1A430092EEE70E4BC6
S214004B109842F1D10A4AD2F84031D2F840211F2BF0
S214004B204FF0010385BF203A93409340019398BF0E
S214004B300093DBE772480020F8110020007108009F
S214004B40008000440B020FF00BE000F00346054A1D
S214004B500549106803448B428CBF4FF0FF3013604A
S214004B60704700BFD4110020000001202DE9F04F4F
S214004B709A46564B85B01B7806460F461546DDF816
S214004B803C909DF844B0DDF85080002B00F09780F4
S214004B90072A00F296800E9B002B00F09280B9F157
S214004BA0000F00F08E80129BB3F5006F00F3898033
S214004BB0012803D1109B002B00F08380444B03EBAD
S214004BC005131B7B002B7ED0424C1022002168462A
S214004BD015F097F804EB45141022A7BB394620467B
S214004BE015F08FF843F210036380BBF1000F03D17A
S214004BF0E37843F00303E370364A0E9B02EB451C52
S214004C00CCE90193129B6901581E9DF84C30C0F305
S214004C100A0003F003039B0643EA001E53582E487F
S214004C20012E00EA03004EEA0003CDF800A0535020
S214004C3017D0B8F1000F2ED19CF8023068F3041399
S214004C408CF8023027E00021204615F05AF84FF481
S214004C5044736380BBF1000FCED1E37843F030039A
S214004C60C9E713230CF1100ECCF80C309CE80F00AB
S214004C708EE80F006FF00301DCF81C20109B61F338
S214004C809F02012FCCF81C20CCF8143003D1CCF8AE
S214004C901890CCF8043000270D4A290102EB0513C2
S214004CA042F80180159A28465A60694622469F6057
S214004CB05E7301F017FB384605B0BDE8F08F074875
S214004CC0FAE70748F8E70748F6E700BF7448002009
S214004CD0902D0020902C00200F80FFF3028000F023
S214004CE0018000F0078000F038B5124B05461B78AF
S214004CF0DBB1E0B10FF0CEFB0F4A00231146147B68
S214004D0054B92B6001251A0101EB03131D738C5057
S214004D100FF0C6FB204638BD0133082B02F1100207
S214004D20EDD10FF0BDFB0548F5E70548F3E705486C
S214004D30F1E700BF74480020902D0020048000F0AA
S214004D40028000F0018000F0154B13B518680023B0
S214004D5001908DF804300FF09DFB124B1C7824B1A7
S214004D600FF09EFB104802B010BD01221A700FF023
S214004D7097FB0E4B01A81C731C7783F82C4083F816
S214004D803C4083F84C4083F85C4083F86C4083F8E2
S214004D907C4008238DF8073001F07AFA2046E2E7D7
S214004DA03CA3010074480020038000F0902D0020F2
S214004DB00A4A08B512785AB107280BD8084A02EBF7
S214004DC000131B7B43B1002101F054FA002008BDFC
S214004DD00448FCE70448FAE70448F8E7744800206B
S214004DE0902D0020028000F0018000F0078000F087
S214004DF00A4A08B512785AB107280BD8084A02EBB7
S214004E0000131B7B43B1012101F034FA002008BDDA
S214004E100448FCE70448FAE70448F8E7744800202A
S214004E20902D0020028000F0018000F0078000F046
S214004E300C4B1B787BB107280FD871B10A4B03EBDC
S214004E4000131B7B5BB1094BDB6AC34003F0010315
S214004E5000200B70704706487047064870470648A3
S214004E60704700BF74480020902D002000000450BA
S214004E70028000F0018000F0078000F00B4A10B5B9
S214004E8012780C4662B107280CD859B1084A02EBD2
S214004E9000131B7B43B101F071FA2060002010BDA7
S214004EA00448FCE70448FAE70448F8E7744800209A
S214004EB0902D0020028000F0018000F0078000F0B6
S214004EC0184B2DE9F0411F6D5B6D1F4000D5FEE7C6
S214004ED001260025144CDFF85880374218D0236886
S214004EE0C8F85060A3B1A168284601316268A16085
S214004EF09847637B012B0BD150B90C4B03EB451342
S214004F001A7B60F341021A731A7F60F341021A7724
S214004F100135082D4FEA460604F11004DDD1BDE840
S214004F20F08100BF00000450902D0020902C00203F
S214004F300020045070B5044601250B4E04B970BD20
S214004F4094FAA4F0B0FA80F005FA00F306EB00122B
S214004F5024EA03045368002BF0D0117B11B191684A
S214004F609847EBE79847E9E7102E002008B5192088
S214004F7001F0B8F828B14FF00072074BC3F8802153
S214004F801A601A2001F0AEF828B14FF08062024B8A
S214004F90C3F880211A6008BD00E100E038B5054678
S214004FA00C460FF077FA0022044B03EB05135C6007
S214004FB01A73BDE838400FF073BA00BF102E0020F9
S214004FC0064BD3F82404D3F8202403F500531040EE
S214004FD000F05530C3F82004FFF7ACBF00C0035004
S214004FE0064BD3F82404D3F8202403F500531040CE
S214004FF000F0AA30C3F82004FFF79CBF00C003509F
S214005000024B1968024B186806F0A0BED8110020A3
S214005010F811002070B59400224605460E4615F09D
S2140050202FF9431C0AD058B922463146284614F0B8
S2140050303EFE0028034808BF002070BD0248FCE77B
S2140050400248FAE710E000F021E000F024E000F06B
S21400505010B5044615F010F9431C10D088B901F0BD
S2140050608BFA234620F003002044984201D100200A
S21400507010BD53F8042B0132F7D00348F8E7034875
S214005080F6E70348F4E700BF0EE000F021E000F08A
S21400509024E000F008B50FF0F2F9014B186008BDE7
S2140050A000370020014B18680FF0EDB900370020DC
S2140050B038B141B1013AB2F5006F044838BF00205C
S2140050C07047034870470148704700BF037000F000
S2140050D0027000F038B504460D460FF0DBF9A388E1
S2140050E09BB223B92B600FF0DBF9064838BD1422BB
S2140050F063889BB202FB034408342C600FF0D0F99F
S2140051000020F3E70B7000F0002313B51D4A52F899
S214005110044B94F8211081420ED00133042BF6D1B3
S21400512002B010BD0028FBD19DF80730002BF7D049
S214005130A068FFF73DFEF3E794F83130022BEFD17D
S21400514020460FF0CBF8637E2076022BE8D194F849
S2140051502E3003F0FF02002BE2D1A0680DF107010C
S2140051608DF80720FFF764FE237E1BB194F82F30DE
S214005170002BD7D00023A06884F82F30FFF738FE26
S214005180CEE700BF0437002030B5012490F8325037
S21400519087B080F82C4095B9426B0368224442637E
S2140051A0094A0490CDE902524A682433CDE9004208
S2140051B00A684169C0680FF020F807B030BD0023C8
S2140051C080F82C30F9E700BFF956000030B501240E
S2140051D090F8325087B080F82D4095B9436B02683E
S2140051E023444363094B0490CDE902534B683C3299
S2140051F0CDE900430B68016980680EF0E4FF07B054
S21400520030BD002380F82D30F9E700BF955200002E
S214005210F8B5044616460F460FF03CF9A388E28818
S2140052209BB29A42054605D8002333600FF038F942
S2140052301748F8BD1422238807F1100C9BB202FB16
S21400524003433A460833174603CF6745186059604C
S2140052503A4603F10803F6D114223868186023880A
S21400526028469BB202FB0343083333602388E28858
S2140052709BB20133B3FBF2F102FB11339BB22380E6
S214005280A38801339BB2A3800FF00AF90020D0E771
S2140052900A7000F02DE9F3411446906A01A9FFF761
S2140052A019FF636B636B013B6363164B984222D016
S2140052B00027019D2F61AF600FF0ECF8D5F80C8049
S2140052C00646B8F1000F04D0D5E90023394620463B
S2140052D0C047A06A01A90FF018F8A06A83889BB29D
S2140052E06BB101A9FFF7F6FE20460199FFF76EFFA6
S2140052F030460FF0D5F8012002B0BDE8F08184F802
S2140053002D30F5E70B7000F010B5044680B190F82C
S2140053102E302BB90EF0E2FF10B9A068FFF748FD5B
S214005320002094F82E300133DBB284F82E3010BD06
S2140053300048FCE7027000F010B50446A0B190F8F3
S2140053402E309BB190F82E30012B05D10EF0C6FF03
S21400535010B9A068FFF74CFD002094F82E30013BF2
S214005360DBB284F82E3010BD0148FCE70148FAE7AE
S214005370027000F0057000F037B590F83150044622
S214005380022D1DD1012290F82230457E817F9A4061
S2140053903020164B3DB900FB013342F210015A5043
S2140053A0002003B030BD012D04D100FB013341F2D3
S2140053B01001F4E7247E00FB0133002CF7D1ECE764
S2140053C0012DEDD1037E73B911238DF80730FFF759
S2140053D09BFF2A4620460DF107010EF0E4FF20460B
S2140053E0FFF7AAFFDCE71323EFE700BF00C0035078
S2140053F0F0B504469E4F8BB003AE0D460FCF0FC6DA
S21400540097E8070086E807001CB99A4C20460BB0C0
S214005410F0BD0DB9984CF9E75C220021204614F047
S21400542070FC9649964B0A782AB9C3E90022C3E96C
S214005430022201220A7092490022084650F8046BA4
S214005440B4420AD00132042AF8D1002251F8040BE3
S214005450002840F0D28043F822402B7D84F831307B
S214005460286820602B7B2371864B984200F0CA8008
S21400547003F58043984200F0CA8003F580439842C3
S214005480C8D123214FF4C0237F4A002684F8231076
S214005490C4E90423D5E90723626216805680968005
S2140054A084F82C60A3621E805E809E806B6884F801
S2140054B02D600593EB8984F82F60ADF81C302B8A9D
S2140054C003A9ADF81A30AB7C8DF80C608DF8183057
S2140054D0EB7C8DF81E3005238DF8193001F0D4F8DA
S2140054E014212A7B694B03EB4217C7F8AC15287AC0
S2140054F0A97A2E3240EA014C03EB4213C3F804C0EB
S2140055006A7AEB7A42EA034CC7F8BCC5E076E177E4
S214005510227784F820306B7D04226377AB7D84F895
S2140055202130EB7DA3772B7E84F82230012300F018
S21400553061FE0123022294F82010207F00F05AFE1C
S21400554094F83130022B67D13346012294F82110AB
S214005550607F00F04FFE3346042294F82210A07FAE
S21400556000F048FE012394F82120CDE900331146CF
S214005570607F00F0F9FD0EF08DFF2B7D0646032BB5
S2140055805BD141F2AC5202212B7B5B0103F1A043BD
S21400559003F57033995004212A6802F58052D165CC
S2140055A0297EEA7D42EA014241F2B8515A50A97D6D
S2140055B06A7D42EA014241F2B4515A504FF0FF323E
S2140055C0286800F500539A642B7D032B0CBF052139
S2140055D004210EF0E8FF4FF440622B685A61FFF793
S2140055E0B3FB002104F10800FFF77EFB0146B0B3D1
S2140055F0274C30460EF054FF08E70132042A7FF4A9
S21400560025AF02E721214FF48023224A3DE72221DD
S2140056104FF4A023204A38E7032BACD1334694F846
S2140056202110607F012200F0E5FD3346042294F845
S2140056302210A07F00F0DEFD9DE7022BBED194F87D
S21400564021001649FFF7AAFCFFF790FC4FF4007301
S214005650238300232046A376FFF78EFEAEE704F1F1
S2140056600C00FFF741FB04460028C2D0C0E700BF8D
S21400567064A30100027000F0037000F0754800207B
S21400568004370020008005500200060000C00350CA
S2140056900E7000F002000400020005000951000030
S2140056A0F0B587B005461646FFF702FD0446E8B992
S2140056B00493104BCDE901166A46686A01A9039661
S2140056C00593FFF7A5FD044680B995F82C306BB915
S2140056D028460EF0F2FD0099FFF756FD95F831309A
S2140056E0032B03D028462C76FFF746FE204607B04D
S2140056F0F0BD00BF017000F0F7B51446506A01A96E
S214005700FFF7E8FC636B636B013B63632E4B9842C9
S2140057102FD094F83210019D002938D123689A6C56
S21400572012F4007228D0294AA9602A614FF4007248
S21400573003F500539A640EF0ADFEEF68064637B1E7
S2140057406A68AB682046D31A29692A68B847606A2F
S21400575001A90EF0DAFD606A8588ADB2DDB101A957
S214005760FFF7B8FC20460199FFF70EFD30460EF015
S21400577097FE012003B0F0BD996CC90507D5144902
S214005780AA6029614FF4807203F50053D2E7002324
S2140057902B61AB60CFE7012320462376FFF7ECFDB5
S2140057A094F8313084F82C50032BDFD042F2AC5200
S2140057B0042123795B0103F1A04303F5703399506C
S2140057C0022223685A61D1E70B7000F00D7000F0DA
S2140057D00C7000F0F0B587B004461646FFF768FC7C
S2140057E0054638BB0493154B039605932368CDE90D
S2140057F001169B699B0702D420460EF04DFD6A46B3
S214005800A06A01A9FFF704FD054698B994F82D3063
S21400581083B90EF03FFEA36A06469B889BB233B15F
S21400582020460099FFF7D2FC012384F8303030463A
S2140058300EF036FE284607B0F0BD00BF017000F03F
S21400584041F67133124A30B5D469124DD36393686A
S214005850A84204F4803423F4401306D893600E4A1A
S214005860D2F8183223F002030AE043F48013936060
S2140058700A4B9842F3D9084AD2F8183243F002038A
S214005880C2F8183214B10022014BDA6330BD00BFF3
S21400589000000350005A620200C0075080F0FA026F
S2140058A02E4B98424AD022D82D4B984240D014D83E
S2140058B02C4B984239D00AD82B4B984232D02B4BDF
S2140058C098422FD02A4B98422CD000207047294B64
S2140058D09842FAD1284B186F7047284B98422AD026
S2140058E0274B9842F1D1244BD3F880007047254BC4
S2140058F098422BD009D8244B984223D0234B984269
S214005900E3D11D4BD3F88C007047214B984221D031
S21400591003F5740303F510539842D6D1164BD3F80B
S21400592098007047144B986D7047134B586E70472D
S214005930114B586F7047104B986F70470E4BD3F84B
S214005940840070470C4BD3F8880070470A4BD3F896
S21400595090007047084BD3F8940070470048E80161
S2140059600024F400C0CF6A0080841E0000093D00B9
S21400597040420F00405DC6000080E00FC0EA2101F3
S21400598080BA8C01007E560380D54302006CDC0290
S2140059900090D00338B5134B0546D3F820010C46CB
S2140059A000F0070004281AD8DFE800F003090D11FC
S2140059B01500012305B1286004B1236038BDFEF749
S2140059C05DFE0423F6E7FEF795FE0323F2E7FEF7F7
S2140059D0ABFE0523EEE7FEF7A3FE0223EAE700236D
S2140059E01846E7E70080005037B50C460021114BFB
S2140059F00191D3F88031054603F00303022B0ED045
S214005A00032B11D0012B03D101A8FFF7C3FF0D21F3
S214005A100DB1019B2B6004B1216003B030BDFEF7D1
S214005A2083FE05210190F3E7FEF77AFE022101903E
S214005A30EEE700BF0080005038B5104B0546D3F89F
S214005A4040310C4603F00303022B0BD0032B0DD082
S214005A50012B0FD10EF05DFB082305B1286004B1C1
S214005A60236038BDFEF7A4FE0723F6E70EF054FBCE
S214005A700923F2E701230020EFE700BF0080005073
S214005A8038B5104B0546D3F860310C4603F00303D7
S214005A90022B0BD0032B0DD0012B0FD10EF039FBB0
S214005AA0082305B1286004B1236038BDFEF780FEE8
S214005AB00723F6E70EF030FB0923F2E70123002068
S214005AC0EFE700BF0080005038B5144B0546D3F80A
S214005AD000020C4600F0070004281BD8DFE800F0A0
S214005AE003090D111500012305B1286004B12360D8
S214005AF038BD0EF00EFB0823F6E7FEF759FE072327
S214005B00F2E70EF009FB0923EEE7FEF7DDFD0C23B6
S214005B10800AE9E700231846E6E700BF0080005049
S214005B2038B5144B0546D3F808020C4600F00700BB
S214005B3004281BD8DFE800F003090D111500012327
S214005B4005B1286004B1236038BD0EF0E2FA0823E0
S214005B50F6E7FEF72DFE0723F2E70EF0DDFA09233F
S214005B60EEE7FEF7B1FD0C23800AE9E700231846AE
S214005B70E6E700BF0080005038B5104B0546D3F866
S214005B8040320C4603F00303022B0BD0032B0DD040
S214005B90012B0FD10EF0BDFA082305B1286004B121
S214005BA0236038BDFEF704FE0723F6E70EF0B4FACE
S214005BB00923F2E700231846EFE700BF00800050F5
S214005BC038B5104B0546D3F800310C4603F00303F6
S214005BD0022B0BD0032B0DD0012B0FD1FEF78AFD25
S214005BE0032305B1286004B1236038BDFEF7E0FD4D
S214005BF00723F6E70EF08BFA0623F2E701230020D0
S214005C00EFE700BF00800050032814D005D8012815
S214005C1005D0022809D0002005E00F28FBD1084B4C
S214005C20186FC0F3013001307047054BD3F8900071
S214005C30C0F30460F7E7024B186FC0F38020F2E76A
S214005C40008000501FB500230193252817D8DFE8F1
S214005C5000F0131A1D272C363B51565B60656A7898
S214005C60161A401616561A272C27361A5127783B2E
S214005C703B3B3B2727275B60FEF70CFD0190019816
S214005C8005B05DF804FBFEF71FFDF7E7FEF702FD23
S214005C9002460220FFF7B8FFB2FBF0F20192EEE7F1
S214005CA0FEF712FD02460320F4E7FEF70DFD02465E
S214005CB00320FFF7A9FFB2FBF0F25208EEE700213F
S214005CC001A8FFF791FEDAE7002101A8FFF762FEC0
S214005CD0D5E702934FF0E0231B695B0705D5FEF777
S214005CE0F3FC0290029B0193C9E703A902A8FFF701
S214005CF0A3FEF7E7002101A8FFF79EFEBFE70021FD
S214005D0001A8FFF7BDFEBAE7002101A8FFF7DCFEF9
S214005D10B5E7002101A8FFF703FFB0E7002101A8BF
S214005D20FFF74EFFABE7094BD3F8803003F00303D1
S214005D30022BA8D0032B01D000209FE7FEF7F4FC2F
S214005D409CE7002101A8FFF717FF98E700800050A6
S214005D5008B50120FFF776FFBDE8084003498842F2
S214005D6094BF01210221032000F002B880F0FA025D
S214005D70032810B50C4627D004D8012804D00228E2
S214005D8017D010BD0F28FCD10EF05CFB0EF062FBA6
S214005D90124A013C136F23F4405343EA043313675B
S214005DA0FEF792FC0021FFF74BFDBDE81040FFF721
S214005DB0CFBF0A4A4C1ED2F8903023F0F85343EA7D
S214005DC00463C2F89030DCE7044A4C1E136F23F4D9
S214005DD0806343EA84231367D3E700BF0080005044
S214005DE01FB500230193252821D8DFE800F01320F3
S214005DF02020202A2F454A4F54595E7120203420F7
S214005E00204A202020202A204520712F2F2F2F20A7
S214005E1020204F54314B1B6F03F00703013B032B2D
S214005E2005D8DFE803F00C02080A04230193019862
S214005E3005B05DF804FB0323F8E70623F6E7022324
S214005E40F4E7002001A9FFF7CFFDF0E7002001A945
S214005E50FFF7A0FDEBE702934FF0E0231B695B071B
S214005E6005D5FEF731FC0B230393039BDEE703A95E
S214005E7002A8FFF7E1FDF8E7002001A9FFF7DCFD27
S214005E80D5E7002001A9FFF7FBFDD0E7002001A918
S214005E90FFF71AFECBE7002001A9FFF741FEC6E791
S214005EA0002001A9FFF78CFEC1E70C4BD3F8803029
S214005EB003F00303022B03D0032B05D00023B5E722
S214005EC0FEF702FC0B23B1E7FEF72EFC0523ADE739
S214005ED0002001A9FFF750FEA9E700BF0080005090
S214005EE038B50546FFF7DCFC204B04465A68012A05
S214005EF004D11F494A609A699207FCD10020FFF737
S214005F006FFF042803D10EF09DFA0EF0A3FA194A8B
S214005F1024F0407395421FD0174A95421FD0174A67
S214005F20D16811F0060FFBD19068936091684B40E2
S214005F3013F4F81F16D12846FEF7A6FB0020FFF73D
S214005F404FFF042810D1FEF7BFFB0021FFF778FCB7
S214005F50BDE83840FFF7FCBE43F00073DFE743F0D0
S214005F608073DCE79060E9E738BD00BF00C00150F1
S214005F7000E0015040420F0080841E0000000150E7
S214005F80F8B504460020FFF72BFF032800F08180B9
S214005F9045F60E0302213F4AC2F880303E4B996216
S214005FA0012103F580539962936DD903FCD4D4E99B
S214005FB000131B0543EA0163E17B94F820500B4372
S214005FC0217BE77E43EA0143617B6D0143EA0133AF
S214005FD0A17B43EA811313619169D4E904031B068C
S214005FE043EA806301F000410B43A17E94F823004E
S214005FF00B43217E43EA0143617E43EA012393611A
S214006000136AE66923F00D0394F8221043EA870327
S21400601066BB1362966A94F8213045EA031326F0AD
S21400602033052B4343F0010393621C4D194A936DCD
S21400603035EA0303FBD10225174B9D62936D5B0087
S214006040FCD41369A56823F4700343EA055313616F
S2140060504FF00042104B9A6119B9022203F58053A3
S2140060609A6278B901220E4B9A620BE0334343F0F2
S21400607008031362936A23F0330303432B4343EA74
S2140060804103936294F824301BB1024B054AC3F8CF
S2140060908020F8BD00C0005000D000500300014032
S2140060A000E00050F1A7FFFF014B93F90000704796
S2140060B076480020014B1880704700BFB8120020B9
S2140060C00028ABBF00F16040054B00F5614000F0D2
S2140060D00F00ACBF90F80003185C0009704700BFC3
S2140060E014ED00E0054B420953F8223000F01F0083
S2140060F023FA00F0C04300F00100704700E100E022
S214006100014608B5EFF31083DB0702D501221046DF
S21400611008BDFFF7E7FF02460028F7D10846FFF75D
S214006120CFFF0146EFF3118313B1B0EB131FEDD28F
S214006130074B5B68C3F30803002BE8D0103B58B24C
S214006140FFF7BEFF88428CBF00220122DFE700BFB8
S21400615000ED00E0034A0179D36E23F030030B43D1
S214006160D366704700400050072A2DE9F0410D46DF
S214006170144698460FD803269700BE4000FA07F24A
S214006180314615480EF08FF905F0030231461348E4
S214006190BA400EF088F9124B12499DF81800B8F173
S2140061A0000F18BF1946012303FA04F40C600E4BC7
S2140061B00E49002818BF0B461C600D4B9DF81C00AE
S2140061C0C3F82044103103F22443002818BF0B46BE
S2140061D01C60BDE8F08100BF00C4035008C4035033
S2140061E010D4035010E4035014E4035014D40350A6
S2140061F000E00350F8B504460D461F4616464AB161
S21400620001238B403021184A01FB0022F7B141F2EE
S2140062101001535004EB4403072D4FF00F014FEAD3
S214006220031316D8A80006FA00F281400F48184457
S2140062300EF039F94EB9012330210B4AAB4001FB71
S214006240042277B141F210015350F8BD42F210011A
S214006250DFE7A5F10800800006FA00F28140044856
S214006260E5E742F21001EFE700C0035004C0035018
S2140062700CC00350044A054B002908BF13460122F0
S21400628082401A60704700BF4010045040200450FF
S21400629030B501250178114B09064478C2785D6057
S2140062A0996081784FF4001041EA04419961FF211A
S2140062B099620021996319644FF0004159654FF0C7
S2140062C0FF3103F50053196505491301DBB2C1F828
S2140062D0800181F81533086030BD00BF000004500F
S2140062E000E100E0F8B50125C3B2DFF888C0D1F8B8
S2140062F000E09D408F7ACB7A0C46097BCCF8505054
S2140063000CF5005C4CF820E04FF0300E184E1B05E4
S2140063100EFB006094F80DC043EA074343EA41537E
S21400632022F00302C0F860C0C36502670EF0B2F840
S214006330736D2B437365237A13B1336C2B4333642D
S214006340637A13B1B36B2B43B3632279A37943EA21
S2140063500243084A93616179E37943EA01430649B7
S2140063608B61034B55639D64BDE8F8400EF098B80A
S214006370000004500020045000100450F8B5012519
S214006380C3B204469D400EF085F83022094B1E6DC0
S2140063905F6B02FB04335C6E0EF082F83D4206D162
S2140063A0C4F30A1008B9354200D10130F8BD002008
S2140063B0FCE700BF0000045041F67132034BDA637D
S2140063C0012203F50053DA60704700BF0000035057
S2140063D041F671320121044BDA6303F50052D160B5
S2140063E00022DA63704700BF0000035001382528FA
S2140063F09ABF024B185C0020704700BF80A30100C4
S214006400021E30B54FF000000CBF0C25042547F6E1
S2140064100774084952B9831D51F82330234023B12D
S21400642001308542F6D14FF0FF3030BD00F1120347
S214006430F2E700BF0080035038B5C2F306250446D5
S21400644002F0070241B942EA052242F4402206342D
S214006450074B43F8242038BD114628460EF032F884
S21400646002462846FFF7C2FF123442EA0022EFE750
S21400647000800350014BD3F8940070470040005052
S214006480CB784A7810B55B010C7843EA82030A7928
S214006490234343EA02130C22424302F1B042136341
S2140064A0012C02BF8A78024B43F8202010BD00BFA3
S2140064B0D080035008B54FF0B0435A686AB958B157
S2140064C05B680BB10EF02DF801210D4B59600EF0F4
S2140064D028F84FF0B043D96008BD5B680BB10EF0EA
S2140064E020F80028F0D10EF01CF84FF0B04302223E
S2140064F0DA600EF016F80122024B5A60ECE700BF95
S21400650000100058002000584FF0B0414B6810B5FE
S2140065100BB10EF006F801220B4BC4785A60837854
S214006520934043EA840344782343047943EA0413FC
S214006530447943EAC4038B60044B5A600378C3F182
S2140065400203CB6010BD00BF0020005800100058AA
S214006550054B5B69C3F38512827003F03F021B0B89
S21400656042700370704700BF00C00750014B986C24
S214006570D96C70470080E00F0120034B9B680A33FC
S21400658003F01F03984070470080E00F0D4B9842C1
S21400659008D1A3F50033C3F88411C36D43F080031C
S2140065A0C3657047084B984204D1A3F51033C3F86F
S2140065B09411F2E7054B984204BFA3F52033C3F8C5
S2140065C0A411EAE70080055000C005500000065000
S2140065D070B5054616461C4619B90320FFF732FB70
S2140065E00146402C1BD003D8DCB1202C1BD070BD3C
S2140065F0602CFCD1042303FB06F2530803EB411383
S214006600B3FBF2F3094A203B02EAC303AA6822F06E
S2140066106002AA60AA681443AC60EB61E7E7062351
S214006620E9E71023E7E70823E5E700BFF8FF7F0068
S214006630012200F580535A6040F6AA6341F2050233
S214006640436100230D498360C365C26000F50052B4
S2140066500361C361C364916409498365884203D1B9
S21400666003650023436506E006498842F8D001F535
S21400667080418842F4D0012353607047FFFF010039
S2140066800080055000C0055070B50D46FFF7D0FFDE
S214006690012300F580567360AB7C04461BB183680B
S2140066A043F080438360EB7C1BB12046297DFFF7D7
S2140066B06DFF2A8A6B7B20461343EA891343E36007
S2140066C02B7BD5E90112FFF783FF6B7D1BB1A36817
S2140066D043F48033A360AB7D1BB1A36843F400434F
S2140066E0A360EB7D2A7E1B07120502F4E00203F08E
S2140066F0E0431343A365697E1F4A8B1E012B1F4B85
S2140067001DD8944217D002F58042944215D002F567
S214006710804294420CBF02224FF0FF3203EB42133A
S214006720022041F2AC520329985020D10423F3658D
S2140067302B78636170BD0022F0E70122EEE79442F9
S21400674011D00F4A944210D002F5804294420CBFFA
S21400675002224FF0FF3203EB4213022042F2AC5209
S21400676001299850E1E70022F5E70122F3E7042229
S21400677004F50053DA65DBE70080055000C00350DF
S21400678000C0055038B50446054D12F0D2FC0FCCBB
S2140067900FC594E80F0085E80F00002038BD00BF45
S2140067A01437002047F6FF739A42F0B572D00229DC
S2140067B072D83A4B5B5C022B6ED8394DDF0005EB86
S2140067C0C304A17815F83330012938BF0121012B05
S2140067D013D10025E078401AA84202D80844C0B277
S2140067E0F0BD431B6668A0EB530336F91360964270
S2140067F0D4BF1D4603F1FF30EEE760680028EFD0F7
S214006800B0F90040944204DBB0F902409442B8BFAD
S214006810144683883D44FF2B19BFC8224FF0280C2E
S214006820B0F90620B0F908C0A2EB04030CBF01269D
S214006830002693FBFCF333446E781BB29E4201DDC8
S214006840002B01DA731E1BB24FF47A7C01339BB225
S214006850071D5D1E2DB24FEAC50E00EBC505EA8882
S214006860AD689E4214FB025222EAE27202F15C021A
S214006870B2FBFCF204DD37F8335001339542E8D220
S21400688000EB0E039888904228BF1046884238BF17
S2140068900846A4E7FF20A3E70020A1E7A6A301007F
S2140068A0143700200229F0B560D8314B595C022914
S2140068B05CD8304B13F83100012816D103EBC10326
S2140068C09C78D878012C214638BF0121904294BF8D
S2140068D0C1EB0001C1EB0201001BCAB28242C8BF75
S2140068E000225B6833F91200F0BD002A3CD003EBAF
S2140068F0C1035968002939D09878904202D3B1F97B
S2140069000200F1E7DC78B1F900009442ECD95C783B
S2140069108B88013CA3F1FF06734201F10405E4B243
S214006920734101F10C07DEB2B44216D805EBC3037F
S2140069304FF47A756A43B3F902405B68D21A04EBE7
S214006940D47302EB630292FBF4F29042CCDBB1F913
S21400695002009042C8DC10B2C6E737F833C05E1CAF
S2140069609445E3D33346DEE70348BDE70348BBE779
S214006970A6A30100143700200CFEFFFF0080FFFFD7
S21400698008B50448FFF7FEFEBDE80840012012F0F7
S214006990F3BB00BFACA301007FB51422002101A801
S2140069A013F0AFF9044B01A94FF0FF30029312F039
S2140069B028FC07B05DF804FB006A18002DE9FF47C5
S2140069C04FF000080E4617460446CDF80080002813
S2140069D059D022B90025284604B0BDE8F087002922
S2140069E051D032F0030902F0030A1FD04FF0E063E3
S2140069F0C0E9003801230191C0F808800293C0F86E
S214006A001C8049F0005301A903930DF09CFD4946F4
S214006A1020460DF0A2FD20460DF022FE054628B1C8
S214006A204A464146304613F06CF9D4E7BAF1000FF7
S214006A30D0D04FF000084FF0E063C4E900380123DF
S214006A40CDF804D00293114B204601A9C4F8088063
S214006A50C4F81C8003930DF076FD042120460DF04B
S214006A607CFD20460DF0FCFD054608B13A46D8E709
S214006A70009A4E44EB00013522FA03F3AA4506F8C5
S214006A80013BF7D1A6E72125A5E700BF04000020BB
S214006A902DE9F041012905460E4690461F4692B064
S214006AA04AD8046824F04003802B02D0B4F5807FD7
S214006AB045D11C2200210BA813F023F9234A244BAE
S214006AC00121012E08BF13460A932B1D0193E408EB
S214006AD0204B44F0005402910AA80394CDF810808D
S214006AE0059106930797089101A909930DF021FDDA
S214006AF004A90AA80DF01DFD07A90AA80DF023FD9C
S214006B0029680AA8C9080DF028FD10210AA80DF06A
S214006B1024FD0DF0A1FDA8B90AA80DF027FD4FF041
S214006B2098435A6CD202FCD55C6D0DF097FD04F4C8
S214006B30702012B0BDE8F0816FF02000F9E76FF02A
S214006B407100F6E74FF0FF30F3E700BF00010004E6
S214006B50000101041000002030B5154B87B00293E9
S214006B60144B0390049346F611030D46059300F06C
S214006B7023F81428044616D168460DF0FCFD4FF0A5
S214006B80A843032202A95A6319601D619A63DA6B4F
S214006B909207FCD1142C02D168460DF0FAFD00F0E5
S214006BA03BF8044601E00028E9D0204607B030BD97
S214006BB03437002004000020144A38B5D2F880325A
S214006BC043F00103C2F88032114B5B68C3F308033D
S214006BD043B14FF0A842D36B13F0430FFBD11424FC
S214006BE0204638BD4FF0A843DC6B14F04304FBD1BD
S214006BF0084D2B681BB90421284602F0D5FD2B68EA
S214006C00013343F000432B60EAE700BF00800050EA
S214006C1000ED00E034370020014B00205B68704731
S214006C2000ED00E013B50024064A6846536F43F0B3
S214006C300103536700948DF80440FFF78BFA204653
S214006C4002B010BD0040005008B50248FFF748F9F2
S214006C50002008BD00B4C40430B58BB06C46174D98
S214006C600FCD0FC40FCD0FC495E8030084E80300D2
S214006C70134BD3F84C2112031CD5A3F5FE431C88F6
S214006C804FF6FF739C4208BF8C248DF81940FFF71F
S214006C900BFA204480F308008DF818000948FDF729
S214006CA02FFD6846FFF76CF93220FFF703FA002045
S214006CB00BB030BDD3F85041E4B2E6E798A401002B
S214006CC00080E00F00F049026FF00403502110B579
S214006CD00A480B4C13F0800F03F1010207D123443E
S214006CE03D2A83F800131346F4D1002010BD03F0AC
S214006CF00F03043B034419761346EBE700ED00E070
S214006D0000E100E000F00CB800F00AB800F008B8A7
S214006D1000F006B800F004B800F002B800F000B8C2
S214006D2072B61EF0080F09D01EF0040F0DD0DFF863
S214006D3050E0AEE8FF1F6FF002000CE0DFF840E026
S214006D40AEE8FF1F6FF00E0005E0DFF834E0AEE8B7
S214006D50FF1F6FF006006946EFF309828EE8070012
S214006D6086460848084C854501D3A54501D384F3DB
S214006D70088802F01FFC84F3088802F0FDFB000080
S214006D80001000204000002000100020BFF35F8F9E
S214006D90074B5A6A22F480325A62D3F8942022F0C3
S214006DA00102C3F89420BFF34F8FBFF36F8F704775
S214006DB000ED00E070B52948294CFFF7E7FF844254
S214006DC0284D294919D1D5F8C03023F0FF0343F0E8
S214006DD0A003C5F8C0304FF080430A68214D234E0B
S214006DE0C5F8982043F0010301328442C5F89C6040
S214006DF0C5F8A0300A601ED00DE0D5F8C02020F0FF
S214006E001F03203B22F0FF0242F0A002B3F1005F16
S214006E10C5F8C020E1D2164B0A68124823F01F03BB
S214006E2043F00303C0F89820C0F89C30114B0132A1
S214006E30C0F8A0300A60BFF35F8F0522094BC3F885
S214006E4094205A6A42F480325A62BFF34F8FBFF3DF
S214006E506F8FBFF34F8FBFF36F8F70BDD0120020C0
S214006E606C14002000ED00E03837002003000020FE
S214006E708B140020E1FFFF3FF8B51446FFF786FFAE
S214006E801F2C27D90027C2062A4D1CBF20F01F0042
S214006E9020302A68CB06284B18BF21F01F01FCB211
S214006EA0A2422BD8D3F8C04020F01F0024F47F4421
S214006EB044F4807421F01F01C3F8C04040F0030082
S214006EC0C3F8982041F003010132C3F89C00C3F8D0
S214006ED0A0102A600020BFF35F8F0522164BC3F870
S214006EE094205A6A42F480325A62BFF34F8FBFF33F
S214006EF06F8FBFF34F8FBFF36F8FF8BDC3F8984007
S214006F00D3F89C40D3F8A06024F01F04A04226F0DB
S214006F101F0601D1B142DDD0B04201D8A14207D24E
S214006F20D3F89840013724F0FF04C3F89840B6E73A
S214006F302820D0E73837002000ED00E030B50E4CB2
S214006F40416123688BB9206083600DE0891A9A68D6
S214006F501D4641616AB113465A698A42F6D935B16F
S214006F60A860521A83605A6130BD0025F4E720609D
S214006F70F7E798608260F7E74437002038B50DF0F1
S214006F8063FC0025084B094C1A682368C31A2AB10B
S214006F9023B15169994203D3C91A5161206038BDA3
S214006FA055615B1A9268F2E74437002040370020AC
S214006FB038B5134D2B685B6993B1124A02201468EA
S214006FC01C440DF048FC204600F04CFA00230E4905
S214006FD02A680B70D088800709D501230B7038BD4E
S214006FE002200DF038FC022000F086FAEEE79268E8
S214006FF0002AF4D050690344012BEBD9EFE700BF19
S21400700044370020403700207848002070B51646E8
S2140070109DF81420C0E903360271049ABDF81830B2
S2140070200260002204460D468260C380EEB90DF071
S2140070300BFC2844A0619DB12E460DF020FA0546B3
S214007040FFF79CFF31462046FFF778FF104B1B6882
S214007050A34201D1FFF7ACFF28460DF014FA02E078
S214007060E36865617BB9002070BD0DF0EDFB304430
S214007070A061002DE0D1E3686561002BDDD02046DD
S21400708021689847D9E7204621689847EBE700BF74
S2140070904437002000220C490B687BB183420AD19A
S2140070A083687AB1936083681BB15A6941690A4460
S2140070B05A61002070471A469B68EEE70028EFD01A
S2140070C0022070470B60EEE74437002070B50DF0E5
S2140070D0E1F9144E05463478FCB9134B1C60134B8B
S2140070E01C60134B1C8000F083F901200DF0B3FBED
S2140070F00DF0CCFB0F4B0246186020B928460DF069
S214007100CFF9232070BD234640F2E7310A480BF042
S214007110BDFF0A4B18600123337028460DF0C0F9F6
S2140071200020EFE779480020443700204037002051
S214007130704700204837002018FCFFFF3C3700202F
S21400714070B5044640B30DF09AF9144E0546FFF7A5
S21400715015FF3068A04209D02046FFF79BFF044683
S214007160B0B128460DF08FF9204670BDFFF792FFAC
S21400717004460028F5D133683BB9022000F0A4F994
S21400718028460DF080F90024EEE7FFF711FFF7E739
S2140071903368002BF4D1F0E72224E5E744370020DB
S2140071A038B50C460546A8B1A1B100230B700DF00A
S2140071B071F90121084B1B6833B90DF071F90020F5
S2140071C038BD9D4204D121702278002AF9D0F4E718
S2140071D09B68F1E72220F3E74437002070B50DF0F6
S2140071E059F906460DF030FB084B04461D88012071
S2140071F0ADB20DF03CFB18B10DF026FB0446013590
S21400720030460DF04DF92046294670BD70470020E7
S214007210F8B50C4B05461B680E4683420FD3002478
S21400722040F2E7302146084B4FF47A721F6800237D
S214007230E5FB07010BF02AFF30602046F8BD212051
S214007240FCE700BF3C37002048370020014B186899
S214007250704700BF3C37002038B5154B14468342B4
S214007260144B8B4121D3144B1A68F2B14FF47A7544
S214007270A0FB050305FB0131531E134211D1B2FAE0
S21400728082F2C2F11F05531CD24301FA03F3E84011
S21400729021FA02F218431043E940C4E90001002035
S2140072A038BD00230BF0F2FEF7E72120F8E700BF19
S2140072B0EFA7C64B3789410048370020C2072DE9A3
S2140072C0F04704460BD5474A138801339BB2138018
S2140072D0FFF754FE444B1B680BB1FFF769FEA3078C
S2140072E07ED50DF0D7F84FF0000905464E46FFF75D
S2140072F045FEC8463C4F3C680CB163698BB1002222
S2140073003A4B012E1A7003D119F0020F18BF1E70E7
S214007310002C61D0FFF74CFE2846BDE8F0470DF084
S214007320BFB823465A693AB91A792179914288BF7B
S2140073301C469B68002BF5D128460DF0B1F8256950
S214007340DDB10DF081FAA269A0EB02094FEAE973FC
S2140073504D4578EB030311DA23691344A361E36810
S214007360B4F80690013613B12046216898470DF010
S21400737091F80546FFF702FEBDE7A9460DF08AF82C
S21400738082462046FFF786FE50460DF089F82369B0
S214007390002BE4D0A38BB5EB090533B1E28B134485
S2140073A09BB2B3F57A7F0FD2E3830DF073F8814674
S2140073B029462046FFF7C2FDA369226948461344C2
S2140073C0A3610DF06DF8CAE7A3F57A73E383A369AA
S2140073D0013D013BA361E8E7022000F075F89BE75A
S2140073E0BDE8F0877047002044370020774800202B
S2140073F01FB50024184B18689A880290D3F8060028
S2140074009B7A009002A8ADF80C208DF804308DF819
S21400741008408DF80C40FFF777F8694601208DF894
S2140074200040FFF72DF84FF0B0431F219A6922F075
S2140074301F029A61094A51619A6A12F00802FBD14A
S2140074401A620120FFF736F84FF48062044BC3F847
S21400745080211A6004B010BDC0A4010000200058AE
S21400746000E100E010B504460DF009F84FF0B04218
S214007470936A1907FCD4136A116C5269120704D474
S214007480CA1A032A01D899420ED1E21A022A98BFD4
S214007490DC1CB4F1FF3F38BF013C4FF0B0431C6426
S2140074A09A6942F008029A610CF0EDFF054A1378DB
S2140074B03BB14FF0B041CB6B43F00203CB630023EC
S2140074C0137010BDC4120020820700F001030AD515
S2140074D00121084A43F0080311704FF0B041CA6B0F
S2140074E022F00302CA634FF0B0418A6922EA03031E
S2140074F08B617047C4120020830742BF0822014BED
S2140075005A6170470010005810B50CF0C3FF4FF0DA
S214007510B04304465B691A07074A03F0010003F00C
S2140075200D0348BF40F002005361FFF7C7FE204638
S214007530BDE810400CF0B4BF0020005813B5144648
S21400754022B902B0BDE810400DF009BC538812887D
S2140075509A420ED20023012200934FF0FF310A4BCD
S21400756011F033FD00B1FEE723880133238002B01B
S21400757010BD002BFBD00022044B1A7002B0BDE8F1
S214007580104011F030BD00BF3D7500007A48002065
S21400759030B585B00446084603A91546FFF738FE01
S2140075A040B90123044ACDE9000303992B4620463F
S2140075B00DF026F905B030BDBD75000038B505469E
S2140075C00C4619B9BDE838400DF0C9BB4B880A888F
S2140075D09A420CD2FFF73AFE224601462846FFF7AB
S2140075E0D7FF00B1FEE723880133238038BD002B88
S2140075F0FCD00022024B1A70BDE83840FFF7A0BD51
S2140076007B48002020220021014812F07ABB00BFF0
S2140076106C3700202DE9F04116460C46002521481F
S214007620FFF78EFDA419204B45EB0506C3E900467F
S2140076300DF047F901221D4B241A66F1000694420C
S2140076401A7076F1000303DABDE8F0410DF087BB4F
S214007650FFF7FCFDA04275EB06031ADAFFF7F6FD0E
S2140076608046FFF7F3FD2B460246314620460BF0D8
S214007670BDFC0F4F424678802B46204631463D8063
S2140076800BF0B4FC074811463A46FFF781FF38B1C5
S214007690FEE72A4621460348FFF77AFF00B1FEE7D9
S2140076A0BDE8F0816C370020D01400207B48002015
S2140076B07647002008B50348FFF742FD0022024B3C
S2140076C01A7008BD6C3700207B48002070B50CF09F
S2140076D0D6FE054611F0AAFD044608490B68086068
S2140076E08342074B284682BF1A6801321A601E681A
S2140076F00CF0C9FE2046314670BD00BF5037002052
S2140077004C37002073B50C46154600261E4811F06F
S2140077106AFC64191D4B46EB0605C3E9004511F0EB
S21400772085FD201A4FF00104194B65F10001A042B7
S2140077301C7071F1000304DA02B0BDE870400DF071
S2140077400EBB4FF0FF33834276EB010310DA4FF0A7
S214007750FF3200230BF04AFC0E4B114658801E8069
S2140077602246009308480C4B11F02FFC48B1FEE768
S21400777001462246084B0448009611F026FC00B14C
S214007780FEE702B070BD00BF54370020C8140020CA
S2140077907A480020724700203D75000008B503486F
S2140077A011F021FC0022024B1A7008BD543700204D
S2140077B07A4800202DE9F04104460CF06BFE224B7F
S2140077C005461B78214E2BB93378EBB9BDE8F0415E
S2140077D00CF066BE1E4BD3E900870DF072F800234E
S2140077E04045BB4103DA337873B92846EEE72046B6
S2140077F0FFF760FF367846B928460CF051FE204663
S214007800BDE8F04102F04CBA0026124BD3E90087DF
S21400781011F00CFD00234045BB410EDB2046FFF770
S214007820BDFF28460CF03CFE16B1204602F038FAA2
S2140078302046BDE8F04102F057BA28460CF030FE6C
S214007840002EDCD1BDE8F0817B4800207A4800207D
S214007850D0140020C814002008B5FEF70BFE034B1A
S2140078601860BDE808400CF056BE00BF8C370020FC
S214007870BFF34F8F0549064BCA6802F4E062134314
S214007880CB60BFF34F8F00BFFDE700BF00ED00E009
S2140078900400FA050E4B1B68D9070FD45A060FD4FE
S2140078A013F0180F0ED199070ED49A060ED440F294
S2140078B08472134214BF06200720704700207047CA
S2140078C00220704708207047012070470320704749
S2140078D08C37002010B501F02DFE044601F030FE76
S2140078E021460246104802F02DF901F01DFE04461E
S2140078F001F034FE214602460C4802F023F901F05E
S21400790019FE012340F2A172834013420AD00020E0
S21400791001F018FD002001F02BFCBDE8104000200F
S21400792001F0DABB10BD00BFCBA40100E1A401004A
S2140079300E4B10B51C68A0235C4308B90CF0CFFFB3
S2140079400B4B1B68B3FBF4F204FB1233B0FBF4F2F0
S21400795004FB12002344181AB0FBF4F304FB1300D4
S214007960A023B0FBF3F080B210BD00BF9437002018
S214007970903700202DE9F04104460D460DF015FB2A
S214007980002857D020460DF015FB002852D094F85A
S214007990237017F010074DD1FF2D00D1FEE72046CB
S2140079A00DF0DEFAA8B120460DF015FB06460028BD
S2140079B044D03C22224B02FB05335B785A1E904291
S2140079C00DD083420AD00133984235D00820BDE856
S2140079D0F0813C221A4B02FB05335E7801274FF0FC
S2140079E03C080C2318FB053303EB0713144F3B44EA
S2140079F0236194F82330DB0716D420460DF0B0FA46
S214007A0028B108FB05F3FA18FE5453689360314614
S214007A1020460DF0EDFA3C2303FB057779682046F7
S214007A204B1C7B600DF0E6FA0649204601EBC501CB
S214007A300DF0E7F80020CAE70227D0E70120C6E7E6
S214007A4098370020A248002010B5084C206811F096
S214007A50B6FA012804D001220021206811F0B1FAFC
S214007A602068BDE8104004F0DDBC00BFD837002019
S214007A7038B504460CF00EFD044B1D680CF010FDE6
S214007A802C4214BF0120002038BD00BFD437002090
S214007A9008B50220FFF7ECFF20B1034B1B681878EF
S214007AA0C0F3401008BD00BFE814002010B5064B18
S214007AB002201B681C88FFF7DBFF20B104F00704D8
S214007AC0E31E5842584110BDE814002038B50D4654
S214007AD004460CF0DFFC064B1A682DB114431C60FC
S214007AE0BDE838400CF0DCBC22EA0404F7E700BF2F
S214007AF0D437002010B50CF0CDFC084B084A1B7894
S214007B0012789A4211BF0024064B1C7884F00104B8
S214007B100CF0C6FC04F0010010BD00BF8D4800202C
S214007B208C4800208E48002073B50646244B254D11
S214007B3018689B880090ADF8043033680C462868B7
S214007B40BBB1972111F0FEFB024600B1FEE731689B
S214007B50286804F031FF3379834200D0FEE7012223
S214007B600E23114628688DF8003011F01DFC20B158
S214007B70FEE705F0F1F900B1FEE70322286811469A
S214007B8011F002FC7F2C18D0286811F0BFFAFF28ED
S214007B9008D104EB840464006946286811F0B8FA3A
S214007BA028B1FEE7286804F01DFF0446F4E72146E6
S214007BB0286811F0C2FA00B1FEE702B070BD00BF3F
S214007BC028A60100D837002008B5054B00EB80003A
S214007BD04100186811F0B1FA00B1FEE708BD00BF19
S214007BE0D837002008B5FFF753FF00B9FEE7082096
S214007BF0FFF73EFF00B9FEE701214FF48060FFF774
S214007C0065FF00210220FFF761FF00210820FFF733
S214007C105DFF044B186804F005FC0022024B1A7046
S214007C2008BD00BFD83700208F4800202DE9F0435C
S214007C30164601220D461C4BDFF880801B4F1C4C5D
S214007C4018700021D8F8000085B03A7011F0B9F924
S214007C502279EBB29A4225D862799A4222D3DFF88B
S214007C606090D9F80030A34205D07F212046FFF768
S214007C705BFFC9F80040FF238DF804300D4B3246F9
S214007C80CDE902362946D8F8000001AB04F03EFCE8
S214007C9028B17F22084B01201A7002233B7005B0E2
S214007CA0BDE8F0830720FAE7AB490020AD49002085
S214007CB0E037002020A10700AC490020D83700207C
S214007CC0DC37002010B504460220FFF7D1FEC0B115
S214007CD0B4F5007F4FF0010110D12046FFF7F6FE05
S214007CE000211020FFF7F2FE0A200021FFF7EEFE2B
S214007CF0BDE81040034B186804F094BB4FF4805066
S214007D00F0E710BDD837002007B50D4B0DF1060182
S214007D10186811F0A1F90B4BBDF8061093F9002076
S214007D20094B7F2A0B4413F90B0C05D17F2808BF9B
S214007D30002003B05DF804FB9042A8BF1046F8E7A9
S214007D40D837002091480020924800202DE9F04FB7
S214007D501446A20205461F46E5B040F1CD80354BDD
S214007D600BA9186811F041FABDF82E30022B40F22C
S214007D70C380272B0AD92723BDF83020ADF82E3034
S214007D80262A82BFADF8303000230E930BA924A814
S214007D900CF0A9FF9DF82E60002E00F0AD800DF1CE
S214007DA091031093731EADF844300DF168090DF27F
S214007DB0111310A8C9F800300DF0EBF8DFF8848036
S214007DC0002800F06F8108A910A80DF0D1F898F8E7
S214007DD000605EB19DF8286046B1022E23D10020D7
S214007DE008A900F0E7FFC643C6F3C036124A134997
S214007DF092F90020097807AB08A801F091FDDFF89A
S214007E0048A0804610B3DAF8000010B10C4801F024
S214007E10DDFD834642460A4807A901F0EFFD5844B7
S214007E205FFA80F819E0BDF82010002000F04CFF43
S214007E30D9E700BFD8370020AA480020AB4800206A
S214007E407C480020AA49002094370020DAF8003049
S214007E501BB1BC4801F0BAFD804643463146B94ADC
S214007E60CDF8009010A801F097FD002844D1DAF86C
S214007E700030A3B10CF033FDBDF84430BDF82E2021
S214007E805B0103F5F073A3EB42131844BAF80080C5
S214007E90FFF74EFD4146024648460DF084F8484638
S214007EA00DF083F820B100214846FFF763FD18BBAC
S214007EB00BA80CF00AFFF8B9DDE90D83BDF83020F9
S214007EC04846002A08BF98460DF06FF828B198F883
S214007ED0003043F0040388F800302EB198F80030E4
S214007EE063F07F0388F8003099F80420284644A9F8
S214007EF08DF8102111F07BFAE30104F0807240F156
S214007F003F810220FFF7B4FD68B100211020FFF783
S214007F10DDFDFFF7BDFD0646002800F025810121A6
S214007F200820FFF7D3FD2020FFF7A2FD04F400533E
S214007F30002800F0368123B101214FF40040FFF7FE
S214007F40C5FD14F4404F0AD000212020FFF7BEFDE7
S214007F5000214FF40040FFF7B9FDFFF775FD260737
S214007F6040F18C81284611F047F9774EDFF8ECA1F6
S214007F70014624AA3068DAF800B011F032F98146DA
S214007F80002800F0DB819DF890303068072B40F029
S214007F90D581494644AA11F02BF9002840F0CE813D
S214007FA0BDF8928008F101039BB20493269B049AC5
S214007FB01B78934240F0C281A8F103037B2B00F2AA
S214007FC0BD8124A80CF081FE002840F0B781BDF8E2
S214007FD09430002B40F0F280279B1B7803939DF88B
S214007FE01D31002B40F0EC80584B1B78002B40F0E6
S214007FF0A581DFF86CB19BF80020D3B20F2A059359
S21400800000F29C818C200C22514910FB0320DFF8E3
S21400801054A109785044002900F08C8124A90CF062
S21400802062FE4946306811F0E9F89DF816110029FD
S21400803000F0848108F10208306844A9ADF8148184
S21400804011F0D8F8002840F079819BF80010414BD9
S214008050013101F00F018BF800109BF800101B781F
S2140080603A4A591A4B424B4113708C23059A03FB2C
S21400807002FB049A0AEB0B030AF80B20BDF8242136
S21400808018715A70BDF81E2152BA5A80449A9A60E6
S214008090039B13F0200800F0568101210420FFF70F
S2140080A015FDEBE0012E98F8003018D103B32846F2
S2140080B044A911F099F9034600283AD19DF81831E1
S2140080C0032B2BD09DF81831022B7FF415AF002020
S2140080D0BDF8101100F0F8FD002824DA0CE7002B9C
S2140080E0E5D19DF8913003F00703012B3FF404AF70
S2140080F0284611F077F910BB0BA80CF0E6FD002817
S2140081007FF4FAAEDDE90D32BDF83010002908BF65
S21400811013461A7862F07F021A70EDE644A900F062
S21400812049FE0028CEDB284611F05CF903460028FD
S214008130E2D0022B05D108480CF0ABFFDCE60228A3
S214008140F9D0FEE77C480020D83700208E48002073
S214008150904800208C48002001A501001015002042
S2140081608D4800207C380020A74B186804F05AF988
S21400817001214FF48070FFF7A9FC31460220D0E6BB
S21400818007F002031A4304D04FF40070FFF79AFD7D
S214008190C9E604F0A8421A433FF4C5AE4FF4805037
S2140081A0F4E7002B7FF4DBAE07F0200213433FF426
S2140081B0D6AE4FF40060FFF785FDD0E6269B0CE7B1
S2140081C0039B03F00703022B40F0B880584624A90F
S2140081D00CF089FD049B49463068AAF8043011F07B
S2140081E00DF8FFF755FC002842D0884B9BF802207C
S2140081F01B689B789A423BD19DF816313068002B5D
S21400820000F09C8008F1020844A9ADF8148110F033
S214008210F1FF002840F09280FFF758FA0023449AB6
S2140082209DF81DC1824228BF01F1FF319DF91EE174
S2140082309DF81F019A18BCF1000F61D0CAE904210D
S2140082408AF81DE08AF81E008AF8083001214FF4EB
S2140082508070FFF73BFC00210A20FFF737FCFFF792
S21400826025FC28B1039BD80642BF0122684B1A7032
S214008270FFF71CFC10B9306804F0D4F8A2014FF0E8
S21400828000080CD5624E41460420FFF71FFC3378E9
S2140082902BB15D4B186804F0C5F886F8008014F022
S2140082A0084F03D000210420FFF710FCA30003D5DD
S2140082B000210420FFF70AFCA60705D50820FFF7D3
S2140082C0D7FB08B1FFF78EFC78060DD50820FFF720
S2140082D0CFFB08B1FFF786FC0420FFF7C9FB18B1F7
S2140082E000210420FFF7F2FBF90561D5284610F0BF
S2140082F052FE06460220FFF7BBFB052E2FD1FEE7F7
S214008300444BDFF82081C3E90421DA7F83F81DE0BF
S21400831022F00302DA77404A88F800E01178DFF8A6
S21400832008E1926898778EF8000083F808C01977FD
S2140083309A618BE7049B042B7FF470AE4946306845
S21400834010F05CFF9AE7DFF8C89099F80030002B31
S21400835094D0306804F066F889F800808EE7442EE2
S21400836016D006F0EF03242B12D0032E0AD0022ECE
S2140083700DD0942E1CD17F22284B1A700222284B37
S2140083801A7015E020B9264B1B78012BF2E778B15E
S2140083900420FFF76DFB18B100210420FFF796FBC1
S2140083A00220FFF765FB18B14FF40070FFF78AFC58
S2140083B0BA0506D500222846114604F029FB00B16E
S2140083C0FEE7E30713D5284610F01EFF04462846AE
S2140083D004F028F814F5007F11D0002CB8BF033441
S2140083E044F3870402220D4B1C700D4B1A7017F0D5
S2140083F0C00F06D165B0BDE8F04F0CF0B0BC7F24CE
S214008400F0E765B0BDE8F08FD8370020E81400200C
S2140084108F4800203815002098370020AC490020EF
S214008420AD490020AA480020AB48002030B50C46D5
S214008430154A85B01068516802AB002C03C304F1DE
S214008440FF350DD1FEF792F82B46CDE9000102AAC2
S214008450073412F8011D03F8011FA342F9D110E0FA
S2140084602A460A4B0A4913F801098B4202F8010F03
S214008470F9D1082220460DEB020111F018FC002865
S214008480E0D005B030BD00BF20A501000900E00F18
S2140084900100E00F002310B50C461A4607480CF002
S2140084A0FBFD2146002000F003FC054B0022214680
S2140084B0186810F049FF00B1FEE710BD29A50100BD
S2140084C0D837002030B5134B87B001F1080414F8F4
S2140084D0012D8C4203F8012BF9D100256379A2798E
S2140084E0E17905952078049060780390A078029052
S2140084F0E07801902079009007480CF0CDFD074BFE
S2140085002A462146186810F02BFF00B1FEE707B098
S21400851030BD00BFA248002042A50100D837002089
S21400852010B50C46002206480CF0B6FD054B00229E
S2140085302146186810F00EFF00B1FEE710BD00BF20
S21400854064A50100D837002008B50120FFF790FA8F
S21400855010B902480CF0A0FD002008BD7AA5010065
S21400856008B50120FFF784FA10B102480CF094FD1C
S214008570002008BD95A5010010B50620FFF778FA83
S214008580044650B906480CF087FD20202146FFF728
S2140085909DFAFFF759FA204610BD0520FCE700BFFC
S2140085A07AA5010070B50F4C0D462379834217D883
S2140085B06379834214D30C4E3368A3420CD00B4B22
S2140085C001221868002110F0FCFC29462046FFF71F
S2140085D0ABFA3460002070BD0846FFF7F5FAF9E7FD
S2140085E00720F8E7E0370020DC370020D8370020E7
S2140085F030B5022085B00D46FFF73AFA48BB164B59
S2140086001B78012B25D0FFF77FFB01462846FFF796
S214008610C9FF044670B9FF23CDE901008DF8043088
S2140086200E4B03902946186801AA03F055FF04462E
S21400863018B10124204605B030BD09480CF02CFDC9
S21400864021462020FFF742FA064B9D71064B9D718E
S214008650F0E70D24EEE700BFAD490020D837002034
S214008660B3A501003815002010150020F0B589B01C
S2140086700D4617461E46FFF747FB01462846FFF7FE
S21400868091FF044600BBFF23CDE901008DF80430BE
S21400869040F2011303908DF814008DF81E000D486B
S2140086A0ADF81C302946006801AB04AA049706966C
S2140086B003F020FF044650B901212020FFF706FAF8
S2140086C0054B9D71054B9D71204609B0F0BD0124F8
S2140086D0FAE700BFD8370020381500201015002014
S2140086E0F0B5022089B0FFF7C3F900B9FEE72F4DB9
S2140086F02B6803B9FEE71020FFF7BAF92B682C4E5B
S2140087009B880DF10B018DF80B30012330681A465B
S21400871010F061FD9DF80B202968023A00230968D5
S21400872092B2306810F057FD224B05AC93E8070074
S21400873084E807002A6813681F78D369C7F34017D0
S21400874013BB1020FFF794F9B0B12A681A4B92F8C1
S2140087502010997019490978D970917900943A4691
S214008760306803F09BFE28B14FF48050FFF7AAFA5A
S2140087700CF0F5FA09B0F0BD296823463A46897927
S214008780306803F07DFEEEE791690B44A03B03934F
S2140087900023ADF810300A4B9179009301943A46C5
S2140087A0306803AB03F088FEDDE700BF78380020B2
S2140087B0D837002030A6010008120020C51200207D
S2140087C0FC1100202DE9F0410C460746FFF79CFA05
S2140087D00146A079FFF7E6FE054600285ED1022096
S2140087E0FFF746F900B1FEE72E4B9C4200D0FEE7AD
S2140087F022682D4B9A4200D0FEE729464FF4F850E7
S2140088002A4EFFF763F994F823103460284C1020A2
S214008810C1F38001FFF75AF9236863B1D6F80080E8
S214008820D8F81C303BB910F001FD40F6B83233687A
S214008830C8F81800DA61D4F80080B8F1000F10D03C
S214008840346894F82330DB070BD4D4E906031844C5
S214008850A030FFF76DF81FFA88F1024620460CF0AC
S214008860A2FB3068017AFFF785F80BF013FE04468A
S21400887000212020FFF72AF901210220FFF726F920
S214008880FFF72EFF20460BF00BFE4FF48050FFF74D
S214008890EFF818B1384603490DF061FE2846BDE8EA
S2140088A0F08100BFE8140020AC4800207838002093
S2140088B09437002000487047E814002038B5154B60
S2140088C002209D79FFF7D4F808B17F2038BD124CFE
S2140088D02378002BF9D110222946FFF7A7F90028A4
S2140088E0F3D110F0A3FC05462378012B05D110F038
S2140088F09DFC431BB3F5967FF6D32378022B0ABF65
S214008900064B7F2018784FF0000308BF40B2237054
S214008910DCE700BF38150020AD490020AC49002038
S214008920014B1878704700BF9048002008B5044BEC
S2140089301970044B186810F019FD00B1FEE708BD69
S21400894090480020D8370020014B1970704700BFB0
S214008950AA49002010B50C4649B1064B186804F029
S21400896041F80A2390FBF3F02070002010BD07208A
S214008970FCE700BFD837002008B5074B1970FFF793
S214008980C3F9064B00EB8000410009B2186810F0EE
S214008990D4FB00B1FEE708BD91480020D837002080
S2140089A008B5A1F10B030F2B09D8064B0B4403F8AF
S2140089B00B2CFFF7A9F9FFF707F9002008BD0720E1
S2140089C0FCE700BF9248002021B1034B00201B7833
S2140089D00B70704707207047C5120020014B00201F
S2140089E019707047C5120020054B1B782BB94FF441
S2140089F07A7301205A43FFF719B90520704700BF64
S214008A00AD490020F0B5DDE905540BB105B104B958
S214008A10FEE7134903F110074A7001F10C021646EF
S214008A2018685968083303C6BB423246F7D12B464E
S214008A300C4D03F110062A4618685968083303C21D
S214008A40B3421546F7D12346074C03F110052246DC
S214008A5018685968083303C2AB421446F7D1F0BD14
S214008A6098370020B4370020C437002010B50C46D5
S214008A700BF010FD024B5C60BDE810400BF010BD23
S214008A809837002010B50C460BF004FD044B5A68CE
S214008A90A24238BF5C60BDE810400BF001BD00BFCD
S214008AA098370020014B002019607047943700204B
S214008AB0014B1960704700BF903700202DE9F74F33
S214008AC00746DFF8D881684EFFF714F800283DD037
S214008AD04FF4F850FEF7CCFF08B34FF48070FEF763
S214008AE0C7FF0546002800F09780604B00211B68F2
S214008AF04FF480701B785E4D13F0200F08BF0025E2
S214008B000024FEF7E3FF5B4B2A461968002338462D
S214008B10C1E9063323460DF029FD0CF020F9564B2B
S214008B201B78012B40F09D80544B1A78022A40F0A7
S214008B30988000221A70524B3846197849B20DF0C8
S214008B4021FD03B0BDE8F04F0CF009B9FEF7D2FFE7
S214008B5000285FD198F800508C230C2213FB0522C6
S214008B60B15C9019C1F3800B4FEAD11A01F07B017A
S214008B70B15403FB05F17218424C92F801C0715CC7
S214008B8084F806C092F804900192A1802060FEF757
S214008B909DFD8C23019A03FB0565926895F90330C9
S214008BA08242394828BF01F1FF310370A8780025BA
S214008BB0AA18C4E904213C22A077344863770370DE
S214008BC0E37F84F8089002FB09F94AEA4B0A23F08F
S214008BD003034AEA030A2E4B2A4903EB090213F859
S214008BE009303846237793682A46A36184F81FA085
S214008BF00DF0AEFC0BF04EFC98F80030013303F09D
S214008C000F0388F80030234B1D700BF049FC0CF066
S214008C10A6F859E710259FE74FF40070FEF728FFE7
S214008C20044658B129464FF40070FEF74FFF0F2454
S214008C30214619480CF033FA002564E74FF48060AB
S214008C40FEF716FF014630B121464FF48060FEF76E
S214008C503DFF0E24ECE74FF48050FEF737FF0B2461
S214008C60E6E703B0BDE8F08F7C380020E81400206B
S214008C701015002078380020AB490020AD490020B0
S214008C80AC49002038150020AA480020AB48002038
S214008C90983700208E480020D0A501008C48002080
S214008CA0024B0146186810F0AABB00BFD837002058
S214008CB0034B0A461980034800210CF0EDB900BFAB
S214008CC0CA4700203CA6010000200A4B1B88194416
S214008CD0094B89B21A888A4201D19A783AB901308A
S214008CE00A2803F10403F5D14FF0FF30704700B2B5
S214008CF0704700BFCA470020A247002038B50D467F
S214008D000024114B13F82420CAB101340A2CF9D1DF
S214008D104FF0FF342B46224600210C480CF0BFF9DA
S214008D20A3B2092B0DD80A4A00201288094B154415
S214008D30012223F8245003EB84039A7038BD24B232
S214008D40E8E70320FAE700BFA44700205AA6010080
S214008D50CA470020A247002038B500200D46FFF77E
S214008D60B3FF044602462B46084800210CF097F94C
S214008D70A3B2092B9BBF0020054B0A2003EB8402FD
S214008D809CBF907023F8240038BD00BF87A6010062
S214008D90A247002008B5002104480CF080F9BDE881
S214008DA0084028220021024810F0ABBFB6A60100FA
S214008DB0A247002048880A880D4B024400201B88E2
S214008DC013448A8812FA83F3CA8812FA83F3094A8C
S214008DD09BB21188994201D1917839B901300A289D
S214008DE002F10402F5D14FF0FF30704700B2704731
S214008DF0CA4700207A47002038B50D460024154B98
S214008E0013F8242012B301340A2CF9D14FF0FF34A2
S214008E102B462246002110480CF041F9A3B2092B3C
S214008E2016D80E4B69881A882B8800200B441A44E3
S214008E30AB88E98813FA82F2094B11FA82F223F81A
S214008E402420012203EB84039A7038BD24B2DFE7A6
S214008E500320FAE77C470020D8A60100CA47002076
S214008E607A47002010B50020FFF7A4FF044602460C
S214008E70002108480CF013F9A3B2092B9BBF002071
S214008E80054B0A2003EB84029CBF907023F8240055
S214008E9010BD00BFFFA601007A47002008B50021DC
S214008EA004480CF0FCF8BDE80840282200210248DF
S214008EB010F027BF1FA701007A47002010B5044610
S214008EC0054B186000F082F82046FFF7F7FD2046B5
S214008ED0BDE81040FEF76EBC3C4100202DE9F0478F
S214008EE01D461A4EDFF86C901746B6F88020B6F886
S214008EF0823099F800A09BB2A3EB0A032B4492B2EF
S214008F0003F07F039A42804616D0B6F88200A5EB9F
S214008F100A0207EB0A0116FA80F010F005FF00239C
S214008F20B6F8824089F80030A4B2A4EB0A042C44B8
S214008F3004F07F04A6F882402A4639464046044B91
S214008F40FCF7AEFBBDE8F0470BF009BFCC470020AE
S214008F50DD8E0000AF4900200122024B1A700BF094
S214008F60FEBE00BFAE49002070B500240A4B0B4E73
S214008F700B4DA3F880408022A3F88240094933466F
S214008F802868FCF78DFB3346802207492868FCF7E3
S214008F9087FB204670BD00BFCC470020DD8E00005A
S214008FA0BC110020304A0020B04900200A46014685
S214008FB0044808B50068044BFCF70CFC003818BFE2
S214008FC0012008BDBC110020598F00002DE9FF418B
S214008FD00BF060FA07462B48DFF8B480006803AB56
S214008FE002AA01A90BF0B4F998F80060029D264C7D
S214008FF0AE4213D2B4F882000199AA1B314414FA87
S21400900080F010F091FEB4F8823088F8005015FA1F
S21400901083F39B1B03F07F03A4F8823038460BF0E3
S2140090203FFAB4F88250B4F88030ADB29BB29D429D
S2140090300DD2B4F88000B4F8801014FA80F0C1F1B4
S214009040800189B20BF0FBFE0023A4F88030B4F850
S21400905080309BB29D420BD0B4F88000B4F88010EC
S21400906014FA80F0691A89B20BF0E9FEA4F8805071
S214009070064B1A781AB100221A700BF0E2FE04B002
S214009080BDE8F081BC110020CC470020AE4900208E
S214009090AF490020034B1A780AB901221A7001481A
S2140090A0704700BF6015002008B500F0E1F9084AD7
S2140090B0536A43F470235362EFF308834FF0CD31C5
S2140090C0044A043B934200D208BD43F80419F9E76A
S2140090D000ED00E0000000202DE9F04F0024C3B0B2
S2140090E0FC22214603A80294264610F00AFEDFF86A
S2140090F070B01A4FDFF86C80DFF86C90DFF86CA069
S2140091009BF8003033B914B102A800F01BFD43B041
S214009110BDE8F08F06F00302032A14BF43464B4611
S214009120019357F8043B02A8009352465B464FF45F
S214009130807120440AF0CEFA1BF8013B002BFBD1CD
S214009140721C12F00305D6B203D02044C5B22C46DA
S214009150D6E702A800F0F6FCF9E700BF00100020F2
S21400916044AC01003FA70100ECBD010042A701008E
S21400917040F60522604B2DE9F0411B8893420ED83D
S214009180B3F5206F0DD840F20252934217D040F24A
S214009190017293421DD040F2015293420AD0BDE8BC
S2140091A0F081A3F60223554C032B1AD8DFE803F010
S2140091B03058869F5248BDE8F04100F0C3BC514885
S2140091C000F0C0FC4D4B196C4F48BDE8F04100F074
S2140091D0B9BC4A4B4D48D3E92412BDE8F04100F033
S2140091E0B1BC4B4800F0AEFC94F868309E0702D540
S2140091F0484800F0A7FC94F86B305D0602D5464858
S21400920000F0A0FC94F96B30002BC8DA4348D2E794
S214009210434800F097FC94F86430980703D0216C1C
S214009220394800F08FFC94F96430002B03DA216F84
S2140092303C4800F087FC002501263B4FDFF8F48011
S214009240626E06FA05F3134206D057F825100B781F
S21400925013B1404600F076FC0135082DF0D19EE7AC
S214009260324800F06FFC216C274800F06BFC94F845
S2140092706530590702D52E4800F064FC94F9653035
S214009280002B03DA216F274800F05CFC0825264EE9
S214009290284F636EEB40DA0706D556F825100B7894
S2140092A013B1384600F04EFC0135102DF1D194F87C
S2140092B06430002B7FF473AF1F487CE71F4800F034
S2140092C041FC216C104800F03DFC1025164E194F4D
S2140092D0636EEB40DB0706D556F825100B7813B106
S2140092E0384600F02FFC01351A2DF1D157E7144807
S2140092F000F028FC216C67E7504800200010002092
S21400930051A701008EA70100BEA70100D8A7010043
S214009310F3A701000BA8010045A8010078A80100EA
S214009320B4A80100D9A801004CB40100FEA80100B1
S21400933015A90100F6A801005BA901008BA9010090
S214009340A4A901002DE9F74F3B4CD4E90D3258078C
S21400935048BF0026D4E9121B4EBFB046D4F8508052
S2140093608B46D4F83CA05DBF344E9246DFF8F490AE
S214009370DFF8F49013F0080F314B324918BF194646
S214009380B6EB08071FBF64237D0803FB0B55B5FB30
S214009390F7F50CBF3D46ADB243464A462A48CDE9EE
S2140093A0006ABFB200F0CEFB4B462A46274800971D
S2140093B01FFA8BF100F0C6FBB24501D8C24503D2B6
S2140093C04946234800F0BEFBD4E9173213432DD09C
S2140093D0204800F0B7FB002501261F4FDFF88C80E1
S2140093E0E26D06FA05F3134206D057F825100B78FF
S2140093F013B1404600F0A6FB0135202DF0D1002524
S2140094000126164FDFF86480226E06FA05F3134233
S21400941006D057F825100B7813B1404600F092FBA3
S21400942001351D2DF0D103B0BDE8F08F0C4803B018
S214009430BDE8F04F00F086BB0010002000100020B2
S214009440D2A90100D9A90100E1A9010012AA0100D0
S2140094504BAA010069AA010058B30100D8B3010065
S2140094609CAA0100CDA90100C5A9010098AA010087
S21400947010B5FCF7FFFF04460BF04DF8E30721D4C8
S21400948001221046114600FA01F3234002F10102C0
S2140094901AD0214B33F811302049062B19D040F250
S2140094A00722934212D14FF000524FF20F00548819
S2140094B084420BD11088984208D14CF23C3353803A
S2140094C0088010BD0021E4E7102ADBD1134A138080
S2140094D012E04FF000534FF20F025888904218D116
S2140094E01B88B3F5406F28BF4FF4C0630B804CF267
S2140094F03C324FF000535A80084B1A8840F20173F2
S2140095009A4201BF064B074AD2E90001C3E90001AF
S214009510D7E74FF4C063E9E724AC010050480020C9
S2140095204041002090100020014B1888704700BF73
S21400953050480020014B1888000A70475048002009
S214009540044B05481B881A0AB3F5406F38BF00EB7A
S2140095508200704750480020F4AB0100044B188886
S214009560044B020A53F82230C0B203EB8000704767
S21400957050480020C4AB010010B504460AF086FF30
S2140095804FF000534FF20F021C805A80BFF35F8FDC
S214009590BFF34F8F0549064BCA6802F4E0621343D7
S2140095A0CB60BFF34F8F00BFFDE700BF00ED00E0CC
S2140095B00400FA056D4A2DE9F0416D4B55686D4C77
S2140095C05D65516A99656C49D1F80002D865D1F895
S2140095D00412586B1966916A10F0040F5966D16A26
S2140095E04FF000009966116BD966516B1967D26B04
S2140095F0D8645A67D3E90E1218BF11465F4A9142E3
S2140096001A655DD301F12000A04259D88869C5F3D8
S21400961008051864CE69062D5E6455D1584DA842DB
S21400962052D3584DA8424FD205884DF64260854227
S2140096304AD11868C3F890005868C3F8940040F2FE
S2140096400170A242154604D22E680432B6F1CD3F10
S214009650F7D00022C3E91E22C3E92022C3E9222252
S214009660641BDFF81CC1434DDFF818E19C648D4293
S2140096702DD8D3E91EC7D3E92065D3E922414FF0A0
S214009680000E013AD2B2FF2A3CD1BEF1000F05D03F
S214009690C3E91EC7C3E92065C3E92241B3F85430C5
S2140096A0C3F308030C2B3BD8022B54D9DA1E092A25
S2140096B051D8DFE802F03157404350505050504DDB
S2140096C00021C3E910112D494FF42060B9E755F881
S2140096D0044D6445CBD37445C9D2E607C7D50026EA
S2140096E0294F57F8048FA045C1D00136062EF8D171
S2140096F032B1013AD2B202F11E0643F82640B6E76E
S2140097000522F8E7E0464FF0010EBC4637462E46E7
S21400971025460C464146B4E740F60120BDE8F081F8
S2140097203B2B18D1194B9B6913F0020F40F20253E2
S21400973018BF1846F2E740F60320EFE740F2017242
S21400974040F60423B0F5206F14BF10461846E5E730
S21400975040F60520E2E740F60722013B4B2B98BF78
S2140097601046DBE740F60220D8E700BF00ED00E039
S214009770001000200010002000E100E000000020A3
S2140097803441000060A20100741000200080015ADD
S21400979010B50A46044619B1024B00211B689847CB
S2140097A010BD00BF1412002037B50B4D0C462B78A9
S2140097B07BB100230A460193014601AB281D0AF03F
S2140097C0FFFF20B9019BA34218BF6FF0930003B0C0
S2140097D030BD6FF08800FAE74841002008B500F079
S2140097E033F8064B5A7812B10022C3E90122BDE8CD
S2140097F008400C210148FFF7CBBF00BF48410020BE
S21400980070B50C4D2B7873B90AF0D1FF044668B9D1
S21400981002230126C5E90100AE706B7000F00CF85B
S214009820044618B92E700024204670BDFFF7D6FFF8
S214009830FAE700BF484100200122024B002083F8CF
S214009840DC2070475441002070B5094C00252646A0
S214009850042120460BF0C3FA013520460BF0A5FA8A
S214009860052D04F12C04F3D1002386F8DC3070BDFE
S2140098705441002010B50446FFF776FB2046BDE8AD
S2140098801040014901F050BA334E010038B5084D7A
S214009890D5E8AF3F13F0010408D128460BF04CFA88
S2140098A020B1044B28461C600BF04BFA014838BD2B
S2140098B0344200203842002070B51348D0E8AF4F3D
