S02300006E63702D756172742D68775F646F6E676C656D5F76382E302E322E302E7333372D
S31508006000001000203D6F0008ADB50008B1B50008C6
S315080060109F470308B5B50008BDB500089F470308A4
S315080060209F4703089F4703089F4703089F4703089E
S31508006030C1B50008F0D403089F4703089F47030823
S31508006040117400089F4703089F4703089F470308E2
S315080060509F4703089F4703089F4703089F4703086E
S315080060609F470308E96E0008674503089F4703082A
S315080060709F4703089F4703089F4703089F4703084E
S315080060809F4703089F4703089F4703089F4703083E
S315080060909F470308517A00089F4703089F4703084C
S315080060A09F4703089F4703089F4703089F4703081E
S315080060B09F4703080D8001089D8A0108E1830308AC
S315080060C0DD83030841820108ED830308E58303089D
S315080060D0718A0108E9830308DD8A0108498B0108EA
S315080060E09F4703089F4703089F4703089F470308DE
S315080060F0D15003089F4703089F4703089F47030893
S315080061009F4703089F4703089F4703089F470308BD
S315080061109F4703089F4703089F4703089F470308AD
S315080061209F4703089F4703089F4703089F4703089D
S315080061309F4703089F4703089F4703089F4703088D
S315080061409F4703089F4703089F470308EB58030820
S31508006150E56E01089F4703088383030889830308BC
S315080061609F4703089F4703089F4703089F4703085D
S31508006170F0B5114A114C124E00F00105E3695F07AC
S3150800618013D40DB9334213D103EA00078F4207D15E
S315080061900B4A1A40002A0CBF00206FF00100F0BD20
S315080061A0013AEBD16FF00200F9E74FF0FF30F6E75E
S315080061B06FF00100F3E700BF8096980000000350D7
S315080061C0020001000B4B70B5D96911F480310DD16D
S315080061D001244FF48072084E084DF46020462C6462
S315080061E01A61FFF7C5FF3464EC6070BD6FF00100FB
S315080061F0FBE700BF000003500010035000200350C7
S315080062004FF4803238B50E4B0E4C9A66E56941F666
S31508006210713315400122E3630B4B0021DA60022338
S31508006220606121202361FFF7A3FF10B92120FFF742
S315080062309FFF0122054BDA600DB10023E36338BDE9
S315080062400090005000000350001003500020035037
S3150800625070B5134C6061E3695B071ED40E4656F8A9
S31508006260043B8D18A361AE420BD1042300212120E3
S315080062702361FFF77DFF58B9BDE870402120FFF77D
S3150800628077BF08210846FFF773FF10B1042323617F
S3150800629070BD56F8043BA361E5E74FF0FF30F7E71A
S315080062A0000003502DE9F84315464FF48032184B89
S315080062B089469A6603F51C33DF690646174041F698
S315080062C07132DA63012203F58053DFF84C80DA6015
S315080062D055B9284601220F4BDA601FB10022A3F5F3
S315080062E00053DA63BDE8F88306F5005404EA0804A7
S315080062F0A41BAC4228BF2C46494622463046FFF727
S31508006300A7FF0028E6D12644A1442D1BE0E700BFDD
S31108006310009000500020035000E0FFFF42
S315080063202DE9F04F93B0CDE90A32DDE91C530E93FF
S3150800633053EC102BCDE90801104619468DED060BD6
S315080063401E9E2DF085FE80B1DDE906014FF0FF3275
S31508006350C54B2DF0A5FE40B9DDE906014FF0FF3229
S315080063606FF480132DF07EFE70B1DDE908019DED16
S31508006370060B0E9B1E96CDE91C53DDE90A3213B0B7
S31508006380BDE8F04F00F088B90022DDE906010023D8
S315080063902DF068FE002800F03381DDE906A303F13D
S315080063A0004BCBF30A5016F48063A0F2FF3008BF07
S315080063B006250F932DF07AFB9BA3D3E900232DF036
S315080063C0DFFB9BA3D3E900232DF024FACBF31304B8
S315080063D0894644F07F5180460022A44B504641F43A
S315080063E040112DF015FA94A3D3E900232DF0C8FB2C
S315080063F002460B46404649462DF00CFA2DF05AFE49
S3150800640004462DF053FB8EA3D3E900238046894624
S315080064102DF0B6FB0022964B2DF0FCF92DF04AFE26
S3150800642089A3D3E900230746494640462DF0A8FB31
S315080064308046384689462DF039FB85A3D3E90023E3
S315080064402DF09EFB02460B46404649462DF0E0F9E4
S3150800645002460B46CDE90C232DF092FBDDE90C2311
S3150800646080468946104619462DF0D4F90022CDE912
S315080064701001804B404649462DF0ACFC00227E4B6D
S315080064802DF0C8F902460B46404649462DF0A2FCB7
S3150800649000227A4B2DF0BEF902460B464046494685
S315080064A02DF098FCDDE90C238046894600204FF044
S315080064B080412DF0ADF902460B46404649462DF07F
S315080064C0A9F902460B46DDE910012DF083FC07F217
S315080064D0FF3700226A4B2DF09DF900223B052DF06F
S315080064E04FFB52465B46804689462DF0D9FD00286B
S315080064F040F08980CDE90C8904F16303C72B34BFCA
S315080065000427052731051BD553A3D3E90023504695
S3150800651059462DF0BBFD00287FD051A3D3E90023AF
S31508006520504659462DF09EFD002876D00027A542F4
S31508006530C6BF2C1B04F1FF3500253C4646F4806691
S315080065400E9B9F422CBF4FF00008A3EB070816F0DE
S31508006550020903D0002F18BF4FF000083CB1DDE94F
S315080065600C23504659462DF035FC82468B46DDE90C
S315080065700601002200232DF075FD10B10BF1004332
S315080065809B46DDE9080126F40063CDE90183DDE9D0
S315080065900A324BEC10AB009500F07EF802465FB36A
S315080065A0DDE9091316F0200F00F10105089E0CBF5E
S315080065B065204520B047DDE908010523002205933B
S315080065C00A23002CCDE9023207F1FF374FEAD473CC
S315080065D0B8BF64422A46019304970A9B009430F098
S315080065E0A1FD0246B9F1000F06D00B9BC41A0B9BFE
S315080065F01A190E9BA34245D8104613B0BDE8F08F72
S31508006600DDE906ABCDE60022404649461A4B2DF099
S31508006610E1FB013CCDE90C016EE7002D90D00F9B04
S31508006620002B8DD0013D8BE7FB799F501344D33F58
S31508006630B3C8608B288AC63F61436F63A787D23F7A
S3150800664071A379094F930A401655B5BBB16B024041
S31508006650EF39FAFE422EE63F2D431CEBE2361A3F8F
S315080066600000000080842E41FFFFEF7F0000F83F06
S315080066700000E03F00002C400000244000001840C5
S315080066800000F03F2020DDE90913089DA8470134E2
S31508006690ADE700BF000000002DE9F04F5BEC10AB42
S315080066A097B0CDE90501DDE92057CDE90723504626
S315080066B052465B465946229E2DF0CAFC70B9032302
S315080066C0CDE902760193B04B0093DDE90501DDE9DA
S315080066D0072330F047FC17B0BDE8F08F4FF0FF32C4
S315080066E06FF48013504659462DF0BCFC28B104239C
S315080066F0CDE902760193A54BE6E74FF0FF32504607
S315080067005946A34B2DF0CCFC68B1A24A06F0040307
S31508006710002B08BF0322A04B1CBF13460422CDE959
S3150800672002760192D0E7504693A3D3E9002359464F
S315080067302DF0B6FC38B992A3D3E900235046594642
S315080067402DF090FC68B1DDE90723DDE905014BEC86
S3150800675010ABCDE92176209517B0BDE8F04FFFF7CD
S31508006760DFBD00220023504659462DF07BFC002849
S3150800677000F09A805B465246002000212DF048F82A
S31508006780012382468B46099316F4806400F08E80B6
S31508006790092D40F28E80002430210EABA5F10902A6
S315080067A00134202C03F8011BA5EB040901D09442FF
S315080067B0F6D1594650462DF07DFC784B054603EB3D
S315080067C0C90393ED007B8DED0A7B2DF06FF9024628
S315080067D00B46504659462DF01BF8DDE90A232DF0E5
S315080067E0CFF902460B46CDE90C232DF08BFC8046EB
S315080067F02DF04CF902460B46DDE90C012DF008F8A0
S3150800680002460B46CDE90C230022654B2DF048FCC9
S31508006810002851D008F1010840462DF037F9024604
S315080068200B46DDE90A012DF027FC10B14FF00008F0
S315080068300135B9F1000F50D128462DF037F9024637
S315080068400B46504659462CF0E3FF0022544B80462F
S3150800685089462DF007FC30B1002240464946504B88
S315080068602DF01EFC10B1E80700D501350A210EAB44
S315080068701A19202C0AD095FBF1F001FB105530357A
S3150800688002F8015B013405460028F2D106F003023E
S31508006890012A57D1002F55D0099A12B916F00C0FB4
S315080068A000D0013F302245E009906DE74FF0060918
S315080068B07FE7A94600247CE70022DDE90C01384B76
S315080068C02DF0D0FB0028B4D1B8F1000F02D018F093
S315080068D0010FAED008F10108ABE70A210EAB23443D
S315080068E0202C0ED0B8FBF1F001FB1082B8F1090F8D
S315080068F002F1300209F1FF3904F1010403F8012B12
S3150800690011D83021A1440EAA202CAFD0A14504F1FC
S3150800691001030AD11C4609F158030DEB03092E237E
S3150800692009F8203CA2E78046DAE7A1541C46EBE7C3
S315080069301A550134A74205D9202CF9D1CDE902769A
S315080069400194C1E6202CF9D0099A3AB12D2104F117
S3150800695058026A4402F8201C0134EFE7710704D58F
S3150800696004F158022B216A44F4E73207E6D504F10C
S31508006970580220216A44EDE70000000065CDCD41AC
S315080069800000000065CDCDC13DEE030841EE0308C9
S31508006990FFFFEF7F34EE030839EE030848EE0308DD
S315080069A00000E03F0000000070B58EB02C220021E8
S315080069B003A836F04BFD64234FF002320893CDE965
S315080069C005230B2301218DF83430534B8DF8101015
S315080069D01B88D80700F19880084616F07BFA0A2229
S315080069E04E4B4F491A704FF428734E48ADF8123083
S315080069F012F068F94C4C206020B940F259214B48F6
S31508006A0004F0CEFC0521206831F06AFD20B140F281
S31508006A106921464804F0C4FC206800F077FA444B24
S31508006A202068196831F04AF90C2517F065F96843AA
S31508006A30099017F061F968430DEB05010790206886
S31508006A400CF070F820B140F27E21384804F0A8FC1A
S31508006A50256819F03BFD00220146284631F0B8F9B1
S31508006A6020B14FF42071314804F09AFC40F20353E8
S31508006A70304D314E2B80052396F90000AB707F28E8
S31508006A8001D116F08BFB3378EB7017F035F900EB74
S31508006A9080008000A88017F02FF90023C0004FF06F
S31508006AA0FF31E880AB604FF0FF3019A3D3E900232C
S31508006AB016F0ECFB2149206831F0C1FD206802A9D7
S31508006AC031F065F920B140F2B921184804F068FCA4
S31508006AD0042220680DEB020131F0A7F8042804D03F
S31508006AE04FF42F71114804F05BFC01A9012030F026
S31508006AF019FA04F09FFD012017F0E4FB2EF024F8A4
S31508006B0017F018FC16F06AFA0EB070BDAFF30080E5
S31508006B100A0020FF42030000F63B00201740002031
S31508006B20FDCE010858460020242B0020642F0408B7
S31508006B3098440020182B0020FB490020A9D0010802
S31508006B400348044B834202D0034B03B118477047EE
S31508006B50C8550020C855002000000000064B07490C
S31508006B60C91A891048BF0131491003D0044B0BB12B
S31508006B7001481847704700BFC8550020C85500206F
S31508006B800000000010B5064C237843B9FFF7D8FF7C
S31508006B90044B13B10448AFF300800123237010BDE2
S31508006BA0F63C002000000000D032040808B5054B6A
S31508006BB01BB105490548AFF30080BDE80840FFF75B
S31508006BC0CDBF00BF0000000050160020D0320408D8
S31508006BD0A3F5803A704700BF174B002B08BF134B2D
S31508006BE09D46FFF7F5FF00218B460F461348144ACA
S31508006BF0121A36F02BFC0E4B002B00D098470D4B83
S31508006C00002B00D098470020002104000D000D48F5
S31508006C10002802D00C48AFF300802DF03DFC200080
S31508006C2029002DF060FC2DF01DFC00BF00000800B7
S31508006C30000000000000000000100020A010002046
S31508006C40A4400020000000000000000008B504F081
S31508006C5021FD10220021144836F0F8FB10220021ED
S31508006C60124836F0F3FB1022FF21114836F0EEFBEE
S31508006C700D4807F01BFA10220D490B4836F0BCFBED
S31508006C8010B90C4807F01AFA084807F01FFA10223C
S31508006C900749064836F0B0FB20B9BDE80840064863
S31508006CA007F01CBA08BD00BF073D0020F73C0020CE
S31508006CB0173D0020B4490020A449002010B5284CEF
S31508006CC001F0FCFB01F0DAFD236F012023F0070336
S31508006CD043F0030323672DF064FE224B00209B6AD2
S31508006CE0DB015EBF4FF480321F4B9A62D4F8203125
S31508006CF023F0070343F00203C4F82031D4F82831FF
S31508006D0023F0070343F00203C4F82831D4F84031CE
S31508006D1023F0030343F00103C4F84031D4F860318B
S31508006D2023F0030343F00103C4F86031D4F840327A
S31508006D3023F0030343F00103C4F84032D4F80032C9
S31508006D4023F0070343F00103C4F80032D4F80832ED
S31508006D5023F0070343F00103C4F8083210BD00BF4F
S31508006D60008000500040005A0060005A07B501A88C
S31508006D7002F0BAF89DF80530012B14D19DF80430BD
S31508006D808BB94FF48012154B1549586E03F580538D
S31508006D905A664B6B23F0E05343F040634B63C302E0
S31508006DA05CBF104B5A6603F0F3FA03F08BF92EF02A
S31508006DB023F92EF08BF903F09BF9FFF77FFF30F0EC
S31508006DC06CFA05F05DFB00F0E5FA03F0DFFF00F072
S31508006DD079FE03B05DF804EB05F05CBE0080005058
S31508006DE00040005A00A0005030B5194D95B00DACC2
S31508006DF00FCD0FC495E80700292384E80700002172
S31508006E00144A0DF12600CDE90223134B0E22CDE9D3
S31508006E100431069136F01AFB4FF480210F4B0DAA68
S31508006E20CDE9071309238DF824300A238DF8253078
S31508006E300B4B07A90A9380230B9301238DF8313056
S31508006E40084B0948009302AB03F008FD15B030BDA6
S31508006E50D4D4030800C005500201020224C005501C
S31508006E60273D002068160020BC160020831E012B33
S31508006E7010B513D8012924D8124B0422D3F8A03010
S31508006E8001210220C3F3400301F0CCFE0E4B1B6820
S31508006E901868B0B1BDE81040436A18478B1E012B2D
S31508006EA00DD801280DD8BDE81040064B0022D3F8AE
S31508006EB0A03001210220C3F3400301F0B3BE01292B
S31508006EC0E4D910BD00C003501C44002008B504498D
S31508006ED0044805F0B5FEBDE80840FFF785BF00BFCA
S31508006EE020440020E016002001482EF0EEBA00BF2C
S31508006EF0BC160020014B1A6A18681047BC160020F9
S31508006F00014B1878704700BFA73D002008B50BF065
S31508006F1037FE0022014B1A7008BD00BFA73D0020AE
S31508006F200348044A0449121A92102DF039BC00BFCE
S31508006F30706100081C630008A440002008B500F032
S31508006F402FF8FFF7EDFF124B12498B4212D30020A0
S31508006F50114B12498B4218D3FFF73EFE186850F8BA
S31508006F602240586840F82240013298688242F5D398
S31508006F700C33EAE70022F8E71C6844F822000132DD
S31508006F805C68A242F8D30833E4E70022F8E700BFBA
S31508006F90D8320408E4320408E4320408E432040867
S31508006FA04FF48041124B134A70B59A60D3F8882083
S31508006FB0114D42F47002C3F88820104A05F50054B2
S31508006FC091664FF0FF3222660D4A62660222C3F8C6
S31508006FD0D020BFF34F8FBFF36F8F4FF4403600209A
S31508006FE003F026FA0020E66003F014FA2E6170BD5D
S31508006FF000ED00E0006000080080004400900050AA
S31508007000F7FF3700014B1868704700BF2C44002073
S31508007010084B1B6F03F00703022B04D0032B05D084
S31508007020012B05D0FEE7044B18687047034BFBE7B6
S3150800703003487047008000502C4400203444002048
S31508007040002D310108B5FFF7E3FF054B1B6FC3F3AE
S3150800705003330133B0FBF3F0024B186008BD00BFE1
S3150800706000800050284400200048704700B4C4043B
S31508007070014B1868704700BF34440020054B186060
S31508007080054B1B6F03F00703032B01D1FFF7DABF8C
S31508007090704700BF34440020008000500048704705
S315080070A0002D31014FF0B4439868C0F304400C2812
S315080070B00AD8DFE800F00B090909090907211909A7
S315080070C01B1D1F000F487047002070479B6803F080
S315080070D04073B3F1807F11D0B3F1007F10D00A4A14
S315080070E0002B08BF10467047084870470848704785
S315080070F00848704708487047084870470848704766
S3150800710008487047405DC60000093D00C0EA2101F5
S3150800711080BA8C010048E801005A62020024F40093
S3150800712080841E0040420F00014B1868704700BF5C
S31508007130304400204FF000639B6A03F17842B2F5B1
S31508007140C04F03D21968064A914203D00023037040
S3150800715083607047012202709A689B694260F7E76C
S3150800716007B0CD5E73B54F4B04461A781AB10222A2
S315080071701A7002B070BDCDE900220028F9D00126A8
S315080071801E702DF085FB484D484B18600EF054FCD8
S315080071902B785BB900F096FC40B945480823454A68
S315080071A0454900680BF07EF900B92E70434B5A6EBC
S315080071B062619B6E424AA3614FF480439366414BDA
S315080071C05968E16140499960196E2160596E61609C
S315080071D0D3F87011A160196CE160596C21613B49C3
S315080071E0086C1864496C5964012151661B6E9C042D
S315080071F041D5374AD368D807FCD4364B1A68531C8E
S315080072003ED04FF480139340334A13664FF400730D
S315080072100426314C266623662DF0FFFA01300DD080
S315080072202DF0FBFA40F20113984207D04FF40053B1
S3150800723023664FF480432366C4F870610823264CFE
S31508007240684623664FF4805323664FF0006323662F
S315080072504FF4002301A963662DF0C3FA009B236649
S31508007260019B63662B78002B83D0124B1A68226623
S315080072705B6863667DE7194AD368D907FCD4BCE71F
S31508007280174B1B78002BC1D14FF400720C4B5A6672
S3150800729003F5A6235B68002BB8D14FF480120E4B7A
S315080072A01A66B3E7A93D0020AA3D0020081700206A
S315080072B05C4400200C170020007108000080005074
S315080072C0009000500080004455CEAC0000C0005429
S315080072D00000044038440020009000440000045098
S315080072E0A83D002070B5224D04462E78012E02D006
S315080072F001232B7070BD0028FCD02DF08EFA0130CA
S315080073000BD02DF08AFA40F20113984205D0194B9A
S31508007310194A5E66D368DE07FCD42268174B1A66DC
S3150800732062685A66A268C3F87021E2681A6422691C
S315080073305A64E269D00744BF00229A60104B1A6863
S31508007340013207D10F4A127822B90F494968C9078D
S3150800735048BF1A6062690D4B5A66A2699A660EF0B2
S3150800736073FB0B4B18682DF099FA0023C1E700BF91
S31508007370A93D002000900040000004400080004421
S3150800738038440020A83D002000C005500080005069
S3150800739008170020F8B54FF00066B36A03F1784283
S315080073A0B2F5C04F26D21A68144B9A4222D1144D10
S315080073B02C7814F0FD0402D000242046F8BD4FF4C2
S315080073C080371048FFF7CEFE204603F031F80E4B03
S315080073D02046DF6003F01EF80C4B1F61B36ADB69B9
S315080073E0984704460748FFF77DFF002CE5D101239F
S315080073F02B70E1E74FF48174DFE700BF07B0CD5E7D
S31508007400A83D0020E816002000A000440090004493
S3150800741013B5214B1B7803B9FEE700231F4CCDE9B2
S3150800742000336A4608231E4920680BF03BF800BB68
S315080074301C4AD2F84031D2F840211F2B4FF00103E5
S3150800744012D9203A9340019A1A43019208236A46B0
S31508007450134920680AF0DCFF4FF00053124A1A60FD
S3150800746002F0B4FF02B010BD9340009A1A4300928E
S31508007470ECE70E4B9842EFD10A4AD2F84031D2F8DF
S3150800748040211F2B4FF0010385BF203A93409340BC
S31508007490019398BF0093D9E7A93D00205C440020DA
S315080074A000710800008000440B020FF00BE000F0AA
S315080074B0034B5868C0F30800003818BF012070470E
S315080074C000ED00E013B500243D4801942DF09BFD26
S315080074D0012304220321204601F0A4FB20462DF0B7
S315080074E08BFA0122374B3849C3F844244FF400225B
S315080074F0A3F550335A66354BD3F8FC20D20149D44C
S31508007500D1F8803023F0030343F00203C1F880303A
S31508007510052001A92DF072FD002839D12B4BD3F88F
S31508007520F02042F00102C3F8F020D3F8FC2042F024
S315080075308072C3F8FC20264AA3F55D431A60019BB6
S31508007540244A03F5D52303F2FC43B3FBF2F3224A9C
S31508007550013B13610223C2F8F0304FF48073C2F87E
S3150800756004334FF060431D4AC3F8B02F1C4AC3F8D2
S31508007570802ED3F8002E42F48072C3F8002EFF2224
S3150800758083F82020D3F8002E22F48072C3F8002E48
S3150800759002B010BDD3F8FC2022F08072C3F8FC209C
S315080075A0D1F8802022F0030242F00202C1F88020BE
S315080075B0D3F8FC2042F08072C3F8FC20A8E700BF8D
S315080075C028DC030800D003500080005000ED00E0DE
S315080075D0FF030040F8590D00000004E055CEACC585
S315080075E0090001004FF06043D3F8802E30B5D2076A
S315080075F015D501240B4D8440D5F8FC2042F0807245
S31508007600C5F8FC20D3F8002E2243C3F8002E53F801
S315080076102020002AF0D003F82010002030BD1120C9
S31508007620FCE700BF00ED00E02DE9F04F9A46564B07
S3150800763085B01B7806460F461546DDF83C909DF842
S3150800764044B0DDF85080002B00F09780072A00F23E
S3150800765096800E9B002B00F09280B9F1000F00F087
S315080076608E80129BB3F5006F00F38980012803D141
S31508007670109B002B00F08380444B03EB05131B7B08
S31508007680002B7ED0424C10220021684635F0DEFEE3
S3150800769004EB45141022A7BB3946204635F0D6FE22
S315080076A043F210036380BBF1000F03D1E37843F084
S315080076B00303E370364A0E9B02EB451CCCE90193A3
S315080076C0129B6901581E9DF84C30C0F30A0003F05E
S315080076D003039B0643EA001E53582E48012E00EA70
S315080076E003004EEA0003CDF800A0535017D0B8F1B6
S315080076F0000F2ED19CF8023068F304138CF8023080
S3150800770027E00021204635F0A1FE4FF4447363803C
S31508007710BBF1000FCED1E37843F03003C9E713235A
S315080077200CF1100ECCF80C309CE80F008EE80F0018
S315080077306FF00301DCF81C20109B61F39F02012FF8
S31508007740CCF81C20CCF8143003D1CCF81890CCF81F
S31508007750043000270D4A290102EB051342F801807F
S31508007760159A28465A60694622469F605E7301F05C
S31508007770EDFA384605B0BDE8F08F0748FAE707483E
S31508007780F8E70748F6E700BFAB3D002014180020CD
S31508007790141700200F80FFF3028000F0018000F02C
S315080077A0078000F038B5124B05461B78DBB1E0B10F
S315080077B02DF06EF80F4A00231146147B54B92B603E
S315080077C001251A0101EB03131D738C502DF066F881
S315080077D0204638BD0133082B02F11002EDD12DF0F9
S315080077E05DF80548F5E70548F3E70548F1E700BF02
S315080077F0AB3D002014180020048000F0028000F041
S31508007800018000F038B52DF043F8002305460B4AF1
S31508007810147B6CB90133082B02F11002F8D101F080
S3150800782041FA074B28461C702DF038F8204603E02D
S3150800783028462DF033F8034838BD00BF1418002039
S31508007840AB3D0020058000F00D4B10B51B780446B3
S3150800785093B1072812D82DF01BF80A4B03EB041333
S315080078601A7B2AB100241C732DF018F8204610BD87
S315080078702DF014F80448FAE70448F8E70448F6E750
S31508007880AB3D002014180020068000F0028000F0AE
S31508007890018000F0154B13B51868002301908DF888
S315080078A004302CF0F5FF124B1C7824B12CF0F6FFAF
S315080078B0104802B010BD01221A702CF0EFFF0E4BD3
S315080078C001A81C731C7783F82C4083F83C4083F886
S315080078D04C4083F85C4083F86C4083F87C4008236E
S315080078E08DF8073001F002FA2046E2E740D5030892
S315080078F0AB3D0020038000F0141800200A4A08B5A2
S3150800790012785AB107280BD8084A02EB00131B7BDA
S3150800791043B1002101F0DCF9002008BD0448FCE76A
S315080079200448FAE70448F8E7AB3D0020141800209D
S31508007930028000F0018000F0078000F00A4A08B5CE
S3150800794012785AB107280BD8084A02EB00131B7B9A
S3150800795043B1012101F0BCF9002008BD0448FCE749
S315080079600448FAE70448F8E7AB3D0020141800205D
S31508007970028000F0018000F0078000F00A4A08B58E
S31508007980127852B107280AD8084A02EB00131B7B63
S315080079903BB101F027FA002008BD0548FCE7054879
S315080079A0FAE70548F8E700BFAB3D002014180020A9
S315080079B0028000F0018000F0078000F00D4B1B7874
S315080079C093B1072812D889B10B4B03EB00131B7B25
S315080079D073B10A4B1A6D01238340134214BF012366
S315080079E0002300200B70704705487047054870470C
S315080079F005487047AB3D00201418002000000450CD
S31508007A00028000F0018000F0078000F00B4A10B5F4
S31508007A1012780C4662B107280CD859B1084A02EB0D
S31508007A2000131B7B43B101F0EFF92070002010BD55
S31508007A300448FCE70448FAE70448F8E7AB3D0020A9
S31508007A4014180020028000F0018000F0078000F082
S31508007A50184B2DE9F0411F6D5B6D1F4000D5FEE701
S31508007A6001260025144CDFF85880374218D02368C1
S31508007A70C8F85060A3B1A168284601316268A160C0
S31508007A809847637B012B0BD150B90C4B03EB45137D
S31508007A901A7B60F341021A731A7F60F341021A7760
S31508007AA00135082D4FEA460604F11004DDD1BDE87C
S31508007AB0F08100BF0000045014180020141700209D
S31508007AC000200450024B1968024B18680AF0C6BB1E
S31508007AD03C4400205C44002070B5940022460546CC
S31508007AE00E4635F0E9FC431C0AD058B92246314601
S31508007AF0284635F081FC0028034808BF002070BDE1
S31508007B000248FCE70248FAE710E000F021E000F03E
S31508007B1024E000F010B5044635F0D2FC431C10D022
S31508007B2088B901F0F3F9234620F00300204498426F
S31508007B3001D1002010BD53F8042B0132F7D00348B9
S31508007B40F8E70348F6E70348F4E700BF0EE000F05D
S31508007B5021E000F024E000F008B52CF08EFE014B81
S31508007B60186008BD841F0020014B18682CF089BED8
S31508007B70841F0020044BD3F88420D206FBD4D3F804
S31508007B808400C0F3811070470040005038B5104B90
S31508007B900546D3F880300C4603F00303022B0BD0BE
S31508007BA0032B0DD0012B0FD1FFF732FA0E2305B1A7
S31508007BB0286004B1236038BDFFF774FA0723F6E797
S31508007BC0FFF720FA0623F2E700231846EFE700BF7F
S31508007BD00080005038B5184B0546D3F820010C46EE
S31508007BE000F00700062823D8DFE800F0040A0E167E
S31508007BF0121A1E00012305B1286004B1236038BD9E
S31508007C00FFF700FA0523F6E7FFF732FA0323F2E750
S31508007C10FFF748FA0723EEE7FFF740FA0223EAE7F9
S31508007C20FFF7F0F90623E6E7FFF722FA0423E2E76F
S31508007C3000231846DFE700BF0080005038B5174B11
S31508007C400546D3F828310C4603F00703013B052BFC
S31508007C5020D8DFE803F003131B0F0B17FFF7D2F941
S31508007C60052305B1286004B1236038BDFFF7CAF9BA
S31508007C700623F6E7FFF716FA0723F2E7FFF7F8F900
S31508007C800323EEE7FFF7F4F90423EAE7FFF706FA1A
S31508007C900223E6E700231846E3E700BF008000500A
S31508007CA073B50D460021114B0191D3F88041064664
S31508007CB004F00304022C13D0032C0CD0012C13D18E
S31508007CC001A8FFF787FF10240EB1019B336005B1A9
S31508007CD02C6002B070BDFFF7E5F907240190F3E7C1
S31508007CE0FFF7DCF90190EFE70C46EDE7008000505E
S31508007CF0002337B50193164B0546D3F820320C46B8
S31508007D0003F00703042B21D8DFE803F0030B111651
S31508007D101B0001230DB1019A2A6004B1236003B048
S31508007D2030BD002101A8FFF789FF1223F2E7FFF70C
S31508007D30B9F907230190EDE72CF040FD0A230190DD
S31508007D40E8E7FFF7F1F909230190E3E70023E1E704
S31508007D500080005038B5104B0546D3F840310C4624
S31508007D6003F00303022B0BD0032B0DD0012B0FD1ED
S31508007D702CF024FD0A2305B1286004B1236038BD20
S31508007D80FFF7D2F90923F6E72CF01BFD0C23F2E7DF
S31508007D9001230020EFE700BF00800050002337B51D
S31508007DA00193164B0546D3F860320C4603F00703D9
S31508007DB0013B032B1FD8DFE803F0020E191400213C
S31508007DC001A8FFF707FF10230DB1019A2A6004B135
S31508007DD0236003B030BD002101A8FFF7BBFF1123C4
S31508007DE0F2E7FFF75FF907230190EDE7FFF756F98A
S31508007DF002230190E8E70023E6E700BF0080005071
S31508007E00002337B50193164B0546D3F894320C4632
S31508007E1003F00703013B032B1FD8DFE803F0020E2C
S31508007E201914002101A8FFF7D5FE10230DB1019AF8
S31508007E302A6004B1236003B030BD002101A8FFF712
S31508007E4089FF1123F2E7FFF72DF907230190EDE7E4
S31508007E50FFF724F902230190E8E70023E6E700BFCD
S31508007E600080005038B5144B0546D3F800020C467E
S31508007E7000F0070004281BD8DFE800F003090D11FD
S31508007E801500012305B1286004B1236038BD2CF024
S31508007E9095FC0A23F6E7FFF747F90923F2E72CF0E2
S31508007EA090FC0C23EEE7FFF7CDF80F23800AE9E7ED
S31508007EB000231846E6E700BF0080005038B5144B8B
S31508007EC00546D3F808020C4600F0070004281BD81C
S31508007ED0DFE800F003090D111500012305B128603C
S31508007EE004B1236038BD2CF069FC0A23F6E7FFF7D6
S31508007EF01BF90923F2E72CF064FC0C23EEE7FFF7E5
S31508007F00A1F80F23800AE9E700231846E6E700BF31
S31508007F100080005038B5104B0546D3F840320C4661
S31508007F2003F00303022B0BD0032B0DD0012B0FD12B
S31508007F302CF044FC0A2305B1286004B1236038BD3F
S31508007F40FFF7F2F80923F6E72CF03BFC0C23F2E7DF
S31508007F5001230020EFE700BF0080005038B5104B22
S31508007F600546D3F860310C4603F00303022B0BD009
S31508007F70032B0DD0012B0FD12CF020FC0A2305B1C1
S31508007F80286004B1236038BDFFF7CEF80923F6E769
S31508007F902CF017FC0C23F2E701230020EFE700BFC3
S31508007FA000800050B0F5207F1FD009D8B0F5007FBB
S31508007FB015D003D868B1B0F5C07F0AD000200CE010
S31508007FC0B0F5607FFAD10B4BD3F88000C0F30110EF
S31508007FD003E0084B186FC0F3033001307047054BB8
S31508007FE0D3F89000C0F30460F7E7024B186FC0F3AC
S31508007FF08020F2E70080005002464FF48030104B94
S3150800800010B598660020FFF7CDFF504341F6713250
S315080080100C4BDC69DA635A6804F4803422F44012A3
S3150800802059B90949884294BF002001200005024336
S315080080305A600CB10022DA6310BD0449F2E700BFAA
S315080080400090005000000350005A6202002D3101D2
S31508008050430905D0012B0CD0022B084B18BF00236F
S3150800806000F01F0039B103F58053012282401A60DF
S315080080707047034BF4E703F50053F6E768800050B2
S31508008080648000501FB5002180280446CDE9001100
S3150800809000F0998029D8002800F09980A0F12004E2
S315080080A03D2C35D83D2C33D8DFE804F091999199C9
S315080080B0A9A9A9A9A999B33CC9603C999999323249
S315080080C032323232323299999968D399323232320F
S315080080D0323232323232323232A9919191CE3C3C2E
S315080080E0D8774DAE323232323288B0F5B06F00F002
S315080080F090802DD8B0F5207F71D00CD8B0F5C07F10
S3150800810065D0B0F5007F65D0B0F5807F00F0868039
S31508008110009804B010BDB0F5607F6BD00DD8B0F5EF
S31508008120407FF5D1FEF78EFF02464FF42070FFF729
S3150800813039FFB2FBF0F252085AE0B0F5806F5ED014
S31508008140B0F5A06FE4D100216846FFF7D1FDDFE75F
S31508008150B0F5106F78D016D8B0F5E06F79D00AD898
S31508008160B0F5C06F6BD0B0F5D06FD1D1002168469D
S31508008170FFF778FECCE7B0F5F06FC9D10021684665
S31508008180FFF7ECFEC4E7B0F5406F3DD013D8B0F565
S31508008190206F63D0B0F5286FBAD10021324B039116
S315080081A0D3F8703203F00303012B02D103A8FFF7BB
S315080081B0D1FD039B3CE0B0F5486FA9D10021684684
S315080081C0FFF71EFEA4E7FEF723FF0090A0E7FEF7E1
S315080081D039FFFAE7FEF71CFF0246204604E0FEF7E1
S315080081E031FF02464FF42070FFF7DCFEB2FBF0F2D7
S315080081F000928DE701A8FFF7C9FC019AEDE7002177
S315080082006846FFF7E7FC83E700216846FFF716FD97
S315080082107EE700216846FFF743FD79E74FF0E02344
S3150800822002911B695B0705D5FEF70CFF0290029BBE
S3150800823000936DE703A902A8FFF78CFDF7E7002175
S315080082406846FFF787FD63E700216846FFF736FEB5
S315080082505EE700216846FFF75DFE59E7002168469C
S31508008260FFF79CFD54E700BF0080005008B580204A
S31508008270FFF708FF034B98429EBF4FF48032024B2C
S315080082801A6708BD005A620200A000501FB50346CF
S315080082900020B3F5807F019000F0C18064D85D2B83
S315080082A055D84C2B07D82D2B48D8232B2CD80198DA
S315080082B005B05DF804FB4D3B102BF8D801A252F827
S315080082C023F000BF15840008AF820008AF820008BB
S315080082D0AF820008CB830008AF820008AF8200088F
S315080082E099840008E98300088F8300088F840008B2
S315080082F0AF820008AF820008AF820008AF8200088C
S31508008300AF820008A3840008243B092BCFD801A21A
S3150800831052F823F01584000815840008158400080F
S315080083201584000815840008AF8200080B8400082D
S31508008330AF820008AB8300084B8400083D2B7FD032
S315080083403E2BB4D1002001A9FFF7E4FDAFE7802B4F
S31508008350ADD1594B1B6F03F00703013B032BA6D87E
S31508008360DFE803F0514E858DB3F5F06F68D021D85C
S31508008370B3F5B06F49D00FD8B3F5607F00F08380AE
S3150800838095D3B3F5806F45D0B3F5A06F8FD1002094
S3150800839001A9FFF7ADFC8AE7B3F5D06F55D0B3F561
S315080083A0E06FCFD0B3F5C06F81D1002001A9FFF7E8
S315080083B0D1FC7CE7B3F5206F6ED00BD8B3F5086F08
S315080083C048D0B3F5106F7FF472AF002001A9FFF70C
S315080083D075FD6CE7B3F5406F59D0B3F5486F60D0BB
S315080083E0B3F5286F7FF463AF334BD3F8703203F0DD
S315080083F00303012B5AD0022B0CBF1523002300E0E0
S315080084000523019353E70223FBE7002001A9FFF7A1
S3150800841047FC4CE7002001A9FFF7DCFB47E74FF0D4
S31508008420E02302901B695B0705D5FEF70BFE0D23BB
S315080084300393039BE5E703A902A8FFF78BFCF8E77C
S31508008440002001A9FFF78AFD31E7002001A9FFF7FF
S3150800845009FD2CE7184BD3F8003103F00303022B70
S3150800846007D0032B09D0012B0BD1FEF701FE0323FE
S31508008470C7E7FEF759FE0923C3E72CF09DF9082341
S31508008480BFE70123BDE701A9FFF780FB0FE700203F
S3150800849001A9FFF7D3FB0AE7002001A9FFF77EFC35
S315080084A005E7002001A9FFF7ABFC00E7002103A8B8
S315080084B0FFF750FC1123A4E7008000504FF4801208
S315080084C0034B5A664FF48032024B9A62704700BFDC
S315080084D0009000500050005A38B504468020FFF737
S315080084E0D5FE032800F083804FF48012524B4FF0DC
S315080084F0A0615A6645F60E02504BC3F88020504AD2
S3150800850091624FF4803102F5805291629A6DD203DE
S31508008510FCD4996D11F08041FBD1D4E90002120513
S3150800852042EA0062E07B0243207B42EA0042607B2B
S3150800853042EA0032A07B42EA80121A619869D4E9BD
S315080085400452120642EA856200F000400243A07E09
S31508008550E57E0243207E42EA0042607E42EA00222D
S315080085609A611A6AE06922F00F0242EA8502354DDD
S3150800857000283DD11A6294F82420996A94F82000BC
S31508008580D200294042EA40120A4394F8211042EAEE
S31508008590011242F480329A622B49284A936D31EAD5
S315080085A00303FBD14FF08071254881621369A568E2
S315080085B023F4700343EA055313614FF000438361C4
S315080085C094F822300BB9214B996294F823303BB9C1
S315080085D04FF480321D4B9A62184A936D5B00FCD4A7
S315080085E094F825301BB1154B194AC3F8802038BDBD
S315080085F0024342F0080202281A6208D119614FF4B0
S315080086000852996113484FF47F412CF0A8F90B4999
S3150800861094F822308A6A94F820001B062A4043EA16
S315080086204013134394F8242043EAC20394F8232002
S3150800863043EA02438B62D3E7009000500040005A99
S315080086400050005AC7FFFEFE030001000060005AF2
S31508008650F1A7FFFF3440005A70B5194CFF28A66AE7
S315080086602BD8A36D4FF0807113F4803F18BF4FF4D9
S315080086708032144B18BF9A629962134AA36992F919
S31508008680005023F47F03054423F47F4343EA002381
S3150800869085F3080543EA0543A36132460B482CF0E7
S315080086A05EF9A36DDB0301D4002070BD32464FF49A
S315080086B0803106482CF053F9F6E72120F5E700BF8C
S315080086C00040005A0050005AC44900202840005A69
S315080086D070B5104C4FF08071A66AA36D0E4813F45E
S315080086E0803F18BF4FF480320C4B18BF9A629962CC
S315080086F03246A5692CF033F9A36DC5F30725DB03CC
S3150800870005D532464FF4803103482CF028F928461F
S3150800871070BD00BF0040005A2840005A0050005A59
S31508008720014B93F900007047C44900204FF4803389
S3150800873011481249826A8B62836D03F00303032B87
S31508008740FAD14FF080730E488B620B4B996D30EA65
S315080087500101FBD1012009490865996D8907FCD4F7
S31508008760054B996D8807FCD5996D8907FCD5054990
S3150800877005482CF0F4B800BF0040005A0050005AD3
S3150800878003000100000001012840005A014B18802F
S31508008790704700BF64490020B0F5207F10B50C462D
S315080087A05DD008D8B0F5007F4ED003D8C0B1B0F57B
S315080087B0C07F15D010BDB0F5607FFBD12C4B4C1E89
S315080087C0D3F8FC202B4912F0807F4FEA041427D1F6
S315080087D0D1F8803023F030032343C1F88030E9E72D
S315080087E02CF0CCF82CF0D8F84FF48031224B214AE3
S315080087F01967136F013C23F4704343EA0433136784
S31508008800FEF720FC0446FFF7B5F9C0F10201204641
S315080088102CF0BCF800F042F8BDE81040FFF726BD82
S31508008820D3F8FC2022F08072C3F8FC20D1F880200F
S3150800883022F030022243C1F88020D3F8FC2042F00F
S315080088408072C3F8FC20B5E70A4A4C1ED2F890306D
S3150800885023F0F85343EA0463C2F89030AAE7054ABE
S315080088604C1E136F23F4806343EA84231367A1E73E
S3150800887000ED00E0008000500090005008B501218E
S31508008880022000F083F82CF079F82CF085F84FF4E4
S315080088908032014B1A6708BD0090005008B54FF4A6
S315080088A0C070FFF7EFFBBDE808400449884294BF53
S315080088B0012102214FF42070FFF76EBF80F0FA0203
S315080088C0024A536B0342FCD1704700BF004009506F
S315080088D0044A4178536F23F4407343EA01235367EC
S315080088E0704700BF004000500E4A10B51369044691
S315080088F043F00403136104F0EFFB2CF069F80A4B0C
S315080089005B6E5B0142BF094B094AC3F8202430BF9E
S315080089102CF05FF804F01AFC1CB9BDE81040FEF70D
S3150800892091BB10BD00ED00E00080005000E0035050
S315080089300000FF0F0C4A10B51369044643F0040300
S3150800894013610A4B5B6E5B0142BF094B094AC3F8C8
S31508008950202404F0C1FB30BF04F0F8FB1CB9BDE8C5
S315080089601040FEF76FBB10BD00ED00E00080005020
S3150800897000E003500000FF0F034A0179D36E23F08D
S3150800898030030B43D366704700400050F8B50446E1
S315080089901C4BD3F88420D106FBD4D3F88430C3F318
S315080089A081139C422CD0FEF733FB012C064602D1DC
S315080089B021462BF0EBFF2BF060FF4FF00072124BB5
S315080089C007465A6620462CF007F84FF480630D4D8B
S315080089D0621E93402B676B6E9A0103D4D5F88430D8
S315080089E09B060AD538462BF04CFF022C08D1304698
S315080089F0BDE8F84000212BF0C9BFD5F88430EAE776
S31508008A00F8BD00BF004000500060005010B50C468D
S31508008A1008B9FEF7FDFA074B21461B783BB1064B12
S31508008A20984204D80120BDE81040FFF7AFBF0220E6
S31508008A30F9E700BFAC3D0020005A62020278034BFA
S31508008A40012100201A70FFF7E1BF00BFAC3D0020EE
S31508008A504FF0004238B5244B244C5A664AF6CD33BB
S31508008A60656C014605F00105236428BB0120FFF764
S31508008A7027FF6368DB0715D51D4B586008461D4B55
S31508008A80226BD2070CD4984208D1072415B1174B8C
S31508008A90194A1A642FF0C7F8204638BD0130EFE7A7
S31508008AA09842F2D00024F1E70132236B13F0080351
S31508008AB005D08A42F8D1E8E700220E49F5E78A424E
S31508008AC0E3D020210A4A91620121A2F58052516021
S31508008AD00649084A886A800603D49342D5D00133EA
S31508008AE0F8E79342DDE700BF0090005000400950C8
S31508008AF00060095040420F003254FFFF4FF0004219
S31508008B0038B5164B01465A664AF6CD33144C154A03
S31508008B10656C236443780B205B0043F00103D36341
S31508008B20FFF7CEFE63688A7823F4F87343EA0213E4
S31508008B306360CA784B7943EA0223A3600A798B7982
S31508008B4043EA022323610878FFF782FFEB0744BF55
S31508008B50054B23642FF067F8012038BD00900050BC
S31508008B6000400950004000503254FFFF4FF00042C9
S31508008B70124B70B55D6E03F580535A664AF6CD33CF
S31508008B8004460F4980204E6C0B64FFF799FE0B6A6A
S31508008B9023F00F030F2C94BF234343F00F030B62FC
S31508008BA0F30744BF074B0B64002DA2BF4FF00042EA
S31508008BB0054B5A662FF037F870BD00BF008000508D
S31508008BC0004009503254FFFF00A000504FF0004209
S31508008BD0104B70B55D6E03F580535A664AF6CD3371
S31508008BE004460D4980204E6C0B64FFF769FE0B6A3C
S31508008BF023F4F85343EA04230B62F30744BF074BF5
S31508008C000B64002DA2BF4FF00042054B5A662FF0A9
S31508008C100AF870BD00800050004009503254FFFF2A
S31508008C2000A000502DE9F04105460F461E46904625
S31508008C304AB101233022194C8B4002FB004436B35B
S31508008C4004F5825423600F21072F05EB450388BFDF
S31508008C50A7F108044FEA0313114895BFBC00A40006
S31508008C6004330C3308FA04F2A14018442BF0B5FE7D
S31508008C70B8F1000F09D101233021084ABB4001FB96
S31508008C8005223EB102F582521360BDE8F08104F573
S31508008C900154D7E702F50152F6E700BF00C00350BA
S31508008CA030C0035010B5152001F0A2FB0024FF22A6
S31508008CB0064B21465C6520209A625C60FFF7C8F97E
S31508008CC02146BDE810402120FFF7C2B90000045034
S31508008CD0044A054B002908BF1346012282401A6040
S31508008CE0704700BF401004504020045010B50121C1
S31508008CF004462020FFF7ACF901212120FFF7A8F947
S31508008D000122114B15205A60227812069A60617862
S31508008D10A27842EA01429A61FF229A6200229A6385
S31508008D201A644FF000425A654FF0FF3203F50053BC
S31508008D301A6501F07DFB1520E17801F087FBBDE897
S31508008D401040152001F066BB00000450F8B5012557
S31508008D50C3B2D1F800E091F80AC00F7B0C469D40DB
S31508008D60CB7A1D491D4E0D65810001F1A04101F523
S31508008D708821C1F804E04FF0300E0EFB00601B0599
S31508008D80617B43EA0C4343EA475322F00302016638
S31508008D90C36502672BF07CFD114B5D65237A13B121
S31508008DA0336C2B433364637A13B1B36B2B43B363CE
S31508008DB02279A37943EA0243074A93616179E37901
S31508008DC043EA014306498B61044B55639D64BDE83C
S31508008DD0F8402BF063BD00BF00200450000004508B
S31508008DE00010045010B50124C0B284402BF050FD89
S31508008DF0044B5A6D22EA04025A659C62BDE810408B
S31508008E002BF04CBD0000045010B50124C0B28440BC
S31508008E102BF03EFD074BDA6A224208D15B6B9C4376
S31508008E200CBF012400242BF039FD204610BD002478
S31508008E30F9E700BF000004504FF48032054B9A66EC
S31508008E4041F6713203F51C33DA63012203F5005348
S31508008E50DA6070470090005041F671320121064BE6
S31508008E60DA6303F50052D1600022DA634FF48032E8
S31508008E70A3F518339A667047000003500138312865
S31508008E809ABF024B185C0020704700BF65D50308DF
S31508008E9038B5C2F30625044602F0070241B942EA8C
S31508008EA0052242F440220634074B43F8242038BDF5
S31508008EB0114628462BF0A1FD02462846FFF7DEFF9D
S31508008EC0163442EA0022EFE700800350044B186884
S31508008ED0421C02BF034AD2F894001860704700BFCC
S31508008EE060440020004000504FF48032064B5A661A
S31508008EF003F5E6239B69C3F38512827003F03F02EC
S31508008F001B0B427003707047009000500120034B02
S31508008F109B680A3303F01F03984070470080E00FF0
S31508008F2070B5054616461C4621B94FF42070FFF762
S31508008F30A9F80146402C1BD003D8DCB1202C1BD045
S31508008F4070BD602CFCD1042303FB06F2530803EB27
S31508008F504113B3FBF2F3094A203B02EAC303AA68AA
S31508008F6022F06002AA60AA681443AC60EB61E7E7E6
S31508008F700623E9E71023E7E70823E5E7F8FF7F007C
S31508008F80012100F5805310B5596040F6AA6341F2F5
S31508008F90050243610023094C8360C365C26000F57E
S31508008FA000520361C361C3649464054C8365A0429F
S31508008FB004BF03654365516010BD00BFFFFF010094
S31508008FC000C0055070B50D46FFF7DAFF012300F51E
S31508008FD080567360AB7C04461BB1836843F08043BC
S31508008FE08360EB7C5BB1244B9C4202BF2A7DA3F5D0
S31508008FF01033C3F8C821E36D43F08003E3652A8A7A
S315080090006B7B20461343EA891343E3602B7BD5E940
S315080090100112FFF785FF6B7D1BB1A36843F480330C
S31508009020A360AB7D1BB1A36843F40043A360EB7D4B
S315080090302A7E1B07120502F4E00203F0E0431343FD
S31508009040A3656B7E9A1E012A4FF0020209D80B49C6
S31508009050032BC1F8202709D10423F3652B78636114
S3150800906070BD0749012BC1F82027F4E7042204F54F
S315080090700053DA65F2E700BF00C0055000D0035080
S3150800908000E00350034B5A68D20702D5DA69002A72
S31508009090F9D1704700800A50054B9A689107FCD4AD
S315080090A05A689207F9D4DA69002AF6D1704700BFE0
S315080090B000800A5008B5FFF7E5FF0222014B1A6146
S315080090C008BD00BF00800A5008B5FFF7E5FF01227A
S315080090D0024B03F580514A601A6108BD00800A50A8
S315080090E008B5044B5968012903D1FFF7E3FF024B82
S315080090F0596008BD00800A5000A00A5010B5064CF9
S31508009100FFF7CAFF6368012B03D1FFF7E9FFFFF7F3
S31508009110C3FF0378E36010BD00800A50B8B94A68F7
S315080091200B7812B1127843EAC2034A7843EA42033B
S315080091308A6812B1127843EA82138A7843EA82036C
S31508009140CA6812B1127843EA4223014A9364704707
S3150800915000800A5008B9014B5964704700900A50BC
S3150800916008B9014B5964704700A00A5008B9014B69
S315080091701964704700A00A5010B9024B186C704762
S315080091800020704700800A5048B911B1012903D060
S315080091907047044BD86C7047024B186D7047002017
S315080091A0704700BF00800A5040B911B1012903D0A9
S315080091B07047034BDA647047014B1A65704700BF66
S315080091C000800A5010B9024B586D7047002070474E
S315080091D000800A5038B50446054D2EF080FD0FCCA8
S315080091E00FC594E8030085E80300002038BD00BFDA
S315080091F0881F002047F6FF739A42F0B56FD0022900
S315080092006FD8394B5B5C012B6BD8384DDF0005EB0B
S31508009210C30415F83330A178012B13D10025E07863
S31508009220401AA84202D80844C0B2F0BD431B66687B
S31508009230A0EB530336F913609642D4BF1D4603F1DB
S31508009240FF30EEE760680028EFD0B0F9004094429E
S3150800925004DBB0F902409442B8BF144683883D4403
S31508009260FF2B19BFC8224FF0280CB0F90620B0F919
S3150800927008C0A2EB04030CBF0126002693FBFCF3EF
S3150800928033446E781BB29E4201DD002B01DA731E51
S315080092901BB24FF47A7C01339BB2071D5D1E2DB2BB
S315080092A04FEAC50E00EBC505EA88AD689E4214FB79
S315080092B0025222EAE27202F15C02B2FBFCF204DD1F
S315080092C037F8335001339542E8D200EB0E039888FD
S315080092D0904228BF1046884238BF0846A4E7FF20B8
S315080092E0A3E70020A1E700BF97D50308881F002041
S315080092F00229F0B555D82C4B585C012851D82B4C6F
S3150800930004EBC00114F830004B6801280FD1C87867
S315080093108C78904294BFC4EB0001C4EB0201001B99
S31508009320CAB28242C8BF002233F91200F0BD002B30
S3150800933037D08878904202D3B3F90200F6E7CC78A2
S31508009340B3F900009442F1D94C789988013CA1F10F
S31508009350FF06714203F10405E4B2714103F10C07FB
S31508009360CEB2B44216D805EBC1014FF47A756A43FA
S31508009370B1F902404968521A04EBD47102EB610252
S3150800938092FBF4F29042D1DBB3F902009042CDDCB5
S3150800939010B2CBE737F831C04E1C9445E3D33146BB
S315080093A0DEE70348C2E700BF97D50308881F0020F9
S315080093B00080FFFF08B50448FFF70CFFBDE808402A
S315080093C001202EF0B1BC00BF9CD503087FB514223E
S315080093D0002101A834F03AF8044B01A94FF0FF30F8
S315080093E002932EF0E1FC07B05DF804FB006A180052
S315080093F008B5B0B14FF480620B4B9A662BF054FD5A
S315080094004FF098435A6CD202FCD54FF48062586DDF
S31508009410064B10F470209A6604D0BDE808402BF07D
S31508009420BEBB212008BD00BF0090005000A0005020
S315080094302DE9F0418CB08846DDE912761D460446D2
S31508009440002847D0002945D0002F43D0002E41D010
S3150800945013F00F033ED120482049A360002A08BF15
S315080094600146E361C4E90013404609A92BF022FC32
S3150800947068BB204609992BF00EFD294620462BF09D
S315080094800AFD694640462BF0C3FC00BB69462046E8
S315080094902BF0EDFC404603A92BF0C5FCB8B92046D5
S315080094A003A92BF0E4FC06970127204645F0005552
S315080094B006A9079708952BF0DAFC204609A909960C
S315080094C00A970B952BF0DDFC2046FFF791FF0CB0B1
S315080094D0BDE8F0812120FAE700010004000101043B
S315080094E02DE9F04F97B0894690461F460546DDF8A8
S315080094F080A0002800F0BB80002900F0B8803AB1AF
S31508009500229B002B00F0B380239B002B00F0AF803A
S31508009510BAF1000F00F0AB80219B002B00F0A7806A
S3150800952067B13C680026229B43440293464507D30D
S3150800953007B13C60002017B0BDE8F08F3C46F1E764
S315080095405CB1229B219A9B5D125D01345340239A9C
S3150800955004F00F0493550136E8E7A8EB060BBBF1B8
S315080095600F0F58D9434B4846C5E90034AC60EC6147
S3150800957013A92BF09FFB0028DDD1284613992BF061
S315080095800F0B2BF088FC594628462BF084FC4846DE
S3150800959004A92BF03DFC0028CDD1284604A92BF0C0
S315080095A066FC484607A92BF03EFC0028C3D128468E
S315080095B007A92BF05CFC012322992F4ACDF828A095
S315080095C00B930C928A190D9228464BF000520AA961
S315080095D00E9303920F922BF04AFC28460DA92BF006
S315080095E046FC239B039A9919012310911193129211
S315080095F0214A284610A9CDF84CA0149315922BF0B1
S3150800960040FC284613A92BF03CFC2846FFF7F0FE41
S315080096105E4400288FD1229B03EB060B239B1E4436
S31508009620029B5B4501D1464680E7ACB9219B2246A1
S31508009630CDE900A3494610232846FFF7F9FE00287E
S315080096407FF479AF0AF1100212F8013D0133DBB25B
S3150800965013700BB95245F7D1219A1BF8013B125DDD
S315080096600134534006F8013B04F00F04D8E72120E3
S3150800967061E700BF03030004100000202DE9F04F46
S3150800968097B0894615469A460446209FDDF8888095
S31508009690DDF890B0269E002800F09D80002900F095
S315080096A09A80002E40F08A80002B00F09480B8F152
S315080096B0000F0AD0219B002B00F08D80002A40F075
S315080096C09F80F10700F1878002E0002A40F085803C
S315080096D0FB1F062B7FD8524B0BEB05029A427AD812
S315080096E00023504A4846C4E90023A360E36113A94E
S315080096F02BF0E0FA00285ED1204613992BF0CBFB1D
S31508009700204646EA07412BF0C6FB414620462BF089
S31508009710C2FB294620462BF0BEFB484601A92BF082
S3150800972077FB002847D1204601A92BF0A0FB484625
S3150800973004A92BF078FB00283DD14FF001092046FB
S3150800974004A92BF094FB239B45F000550793219B16
S31508009750CDF82090204609950DA90A9347F00057A1
S3150800976048F00053CDF82C900C93CDF834A0CDF8E2
S3150800977038900F972BF07BFB20460AA92BF077FB36
S31508009780204607A92BF073FB259B204610A946F017
S315080097900056CDF840B0CDF8449012951393CDF805
S315080097A0509015962BF06DFB204613A92BF069FBFC
S315080097B02046FFF71DFE17B0BDE8F08F259B53B175
S315080097C0BAF1000F07D0B8F1000F01D0219B13B1F1
S315080097D0B5B9022E20D12120EDE7239B002BFAD024
S315080097E0BBF1000FF7D0C7F10F03DBB2032B3FF62F
S315080097F068AF0122DB0002FA03F3AB42EBD9E8E7D4
S31508009800239B002BE7D0BBF1000FE4D0C7F10F0371
S31508009810DBB2032BDDD8ECE7102E7FF652AFDAE782
S3150800982000000420000005042DE9F04F99B0884691
S3150800983015469B460446229FDDF89890289E60B1FF
S3150800984059B1279B4BB1BBF1000F06D0249B0BB136
S31508009850239B13B11DB9022E13D121239AE0259B10
S31508009860002BFAD0B9F1000FF7D0C7F10F03DBB21E
S31508009870032BF0D80122DB0002FA03F3AB42ECD942
S31508009880E9E7731E0F2BE8D816F0010AE5D1FB1F8E
S31508009890062BE2D8414B09EB05029A42DDD8404B2C
S315080098A04046C4E9003AC4F808A0C4F81CA015A9A3
S315080098B02BF000FA034600286CD1204615992BF0A8
S315080098C0EAFA204646EA07412BF0E5FA20462499AB
S315080098D02BF0E1FA294620462BF0DDFA404603A98B
S315080098E02BF096FA0346002854D1204603A92BF0FC
S315080098F0BEFA404606A92BF096FA0346002849D137
S315080099004FF00108204606A92BF0B1FA259B204600
S31508009910099345F00053CDF8288001930B93239BB8
S315080099200FA90C93249B47F0005743F00052CDF83B
S3150800993034800E92CDF83CB0CDF8408011972BF0CC
S3150800994096FA20460CA92BF092FA204609A92BF084
S315080099508EFA019B204612A9CDF84890CDF84C8086
S3150800996014932BF08EFA279B204615A946F000562D
S315080099701593CDF8588017962BF079FA2046FFF7FD
S3150800998037FD034630B101902A465146484633F022
S315080099905DFD019B184619B0BDE8F08F0000042054
S315080099A00000060430B5048804F4E043B3F5005F0C
S315080099B02ED1C4F30223042B2AD181F0AA6383F49F
S315080099C0807333F47E132AD081F0AA6383F400737C
S315080099D033F47E1323D00023144D21F47E11A942BB
S315080099E01AD1B4F5105F17D1418821F040008028BC
S315080099F002D0B1F5807F15D1191F0C2912D8DB07C3
S31508009A0010D4073A072A34BF00206FF0860030BD0D
S31508009A1042F204039C42DED16FF08500F7E7C1F3FA
S31508009A200543D9E76FF08600F1E700BF000140055E
S31508009A302DE9F04F9BB08146DDE928761D468B4619
S31508009A40DDF8A880DDF8BCA0099241B138B1249BA5
S31508009A502BB1269B0BB9279B0BB91FB94EB16FF0DB
S31508009A6086047FE02EB1B8F1000FF8D02B9B002BAF
S31508009A70F5D02C9B002BF2D0BAF1000FEFD02E9B1D
S31508009A80002BECD02D9B002BE9D0B9F8003003F45D
S31508009A90E042B2F5005F69D1C3F30222042A65D118
S31508009AA085F0AA6383F4807333F47E1306D085F0B9
S31508009AB0AA6383F4007333F47E1360D1C5F30543B8
S31508009AC029464846259ACAF80030FFF76BFF044630
S31508009AD0002847D1014620220AA833F0B7FC2022E5
S31508009AE0214612A833F0B2FC0AA82BF086F8002803
S31508009AF055D159464846099A12AB2BF037FA04460F
S31508009B0000282FD12B9B9E424CD8DAF800302E9A8B
S31508009B10934247D8474508D2BB19984505D23946D6
S31508009B203246404633F078FC4746204B25F47E15EE
S31508009B309D4226D1DAF80030324606932D9B0397CC
S31508009B40CDE90483279B12A90293269B0AA80193B1
S31508009B50259B0093249BFFF791FD212819D0D8B99E
S31508009B602C9B1E6020461BB0BDE8F08F42F2040213
S31508009B70934204D185F0052383F480139BE70023E1
S31508009B809EE76FF0880400232C9A1360CAF8003009
S31508009B90E8E76FF08604F6E76FF09204F3E76FF0F4
S31508009BA09204DFE76FF08904DCE700BF0001400597
S31508009BB02DE9F04F99B08A46DDE926659346984621
S31508009BC081462A9F28B96FF08604204619B0BDE859
S31508009BD0F08F0029F7D0229B002BF4D0249B13B9D1
S31508009BE0259B002BEFD10EB9002DECD117B92B9B75
S31508009BF0002BE8D12C9B002BE5D0289B002BE2D02C
S31508009C0041464846239AFFF7CDFE04460028DCD194
S31508009C10202201460DEB020033F018FC20222146D3
S31508009C2010A833F013FC08A82AF0E7FF10B16FF06C
S31508009C309204CAE75A465146484610AB2BF096F9A5
S31508009C4004460028C1D12B9B9D422AD8BE4208D281
S31508009C5073199F4205D231462A46384633F0DCFB53
S31508009C603E46144B28F47E1898451DD1299B2A4652
S31508009C700693289B0396CDE90473259B10A90293A6
S31508009C80249B08A80193239B0093229BFFF7CCFDF6
S31508009C90212898D02C280AD00028C8D12C9B1D60D2
S31508009CA093E76FF0890490E76FF088048DE76FF00B
S31508009CB094048AE700014005084B984202D0084BF5
S31508009CC0984207D10B88B3F5105F0CBF00206FF0E0
S31508009CD0850070476FF08500704700BF0044400458
S31508009CE00013C0042DE9F04F99460023A3B093460C
S31508009CF0DDE92E74DDE93068CDE90633CDE90833B0
S31508009D00CDE90A33CDE90C33DDF8C8A004900591F6
S31508009D1029B96FF08605284623B0BDE8F08F002ADA
S31508009D20F7D00FB9002CF4D12C9B13B92D9B002B1F
S31508009D30EFD116B9B8F1000FEBD1BAF1000FE8D0A0
S31508009D4048460499FFF7B8FF05460028E3D10146BF
S31508009D50202212A833F07AFB202229461AA833F0CB
S31508009D6075FB12A82AF049FF002878D1DDE904011D
S31508009D705A461AAB2BF0FAF805460028CBD11A98A2
S31508009D802BF0B1F805460028C5D114B9CAF8000069
S31508009D90C1E7B7420AD23B199E4207D24445B8D812
S31508009DA039462246304633F037FB37464E4B9945FF
S31508009DB058D003F54073994515D04C4B994540F05A
S31508009DC08C804445A5D814F00F02A2D12346CDE9CC
S31508009DD000761AA912A8FFF72BFB0746002834D1EC
S31508009DE0CAF8004097E700234445CDE90E33CDE98C
S31508009DF010338ED82D9B0D2B8BD101238DF838303F
S31508009E002C9B0DF1390203F10C0153F8040B8B421C
S31508009E1042F8040BF9D11B78137001238DF84730EB
S31508009E2014F00F0933D10F2CDAD906AB01930EAB18
S31508009E30CDE90276009324F00F0200231AA912A88E
S31508009E40FFF74EFB0746002843D04246002130461E
S31508009E5033F0FCFA0023012FCAF8003040D06FF027
S31508009E60920558E744453FF654AF2D9B102B7FF4D7
S31508009E7050AF2C9B0DF1380C03F1100E6246186892
S31508009E805968083303C273459446F7D1C8E724F0E6
S31508009E900F033B440DF1280C03F1100E62461868B7
S31508009EA05968083303C273459446F7D10F2CBCD8BA
S31508009EB024F00F03334403930AAB029306AB0193D2
S31508009EC00EAB00934A4600231AA912A8FFF708FB0F
S31508009ED083E7B9F1000F83D0EAE76FF085051AE743
S31508009EE06FF08B0517E700BF0010C004004440045C
S31508009EF02DE9F04F994600239FB09346DDE9286582
S31508009F00DDE92A788A46CDE90633CDE90833CDE975
S31508009F100A33CDE90C33059029B96FF0860420463B
S31508009F201FB0BDE8F08F002AF7D00EB9002DF4D186
S31508009F3017B9B8F1000FF0D12C9B002BEDD048468D
S31508009F400599FFF7B9FE04460028E8D10146202204
S31508009F500EA833F07BFA2022214616A833F076FAAB
S31508009F600EA82AF04AFE002844D15A4651460598BA
S31508009F7016AB2AF0FBFF04460028D0D116982AF023
S31508009F80B2FF04460028CAD115B92C9B1860C6E74B
S31508009F90BE420AD273199F4207D24545BDD83146FB
S31508009FA02A46384633F038FA3E46344B994549D066
S31508009FB003F54073994520D0314B994554D1454511
S31508009FC055D82B07A9D12B460122CDE9006716A93A
S31508009FD00EA8FFF72DFA2C9B06461D6000289ED07A
S31508009FE042460021384633F031FA00232C9A012ED6
S31508009FF013603FD06FF0920491E70D3D454536D882
S3150800A00001238DF8283033460DF1290206F10C019B
S3150800A01053F8040B8B4242F8040BF9D11B780D3622
S3150800A02013704FF48073ADF8363006AB01930AAB64
S3150800A03000932A460023CDE9026716A90EA8FFF762
S3150800A0404FFAC8E7103D454511D833460DF1280C9F
S3150800A05006F1100E624618685968083303C273453C
S3150800A0609446F7D11036E0E76FF0850457E76FF0AE
S3150800A070890454E76FF08B0451E700BF0010C00451
S3150800A08000444004B8B1036813F4E07F03F03F00CE
S3150800A090C3F382120AD0012A0DD1084B41B103F548
S3150800A0A08053012282401A6000207047044BF5E76E
S3150800A0B003F50053F5E70E20704700BF688000508F
S3150800A0C06480005007B5094B18689A889B790090F8
S3150800A0D06846ADF804208DF80630FEF70FFD092016
S3150800A0E0FEF744FD002003B05DF804FBECDB030833
S3150800A0F030B58BB06C46174D0FCD0FC40FCD0FC4BE
S3150800A10095E8030084E80300134BD3F84C211203A7
S3150800A1101CD5A3F5FE431C884FF6FF739C4208BF67
S3150800A1208C248DF81940FEF7FBFA204480F30800CA
S3150800A1308DF818000948FCF7A1FF6846FEF7CCF928
S3150800A1403220FEF723FB00200BB030BDD3F8504178
S3150800A150E4B2E6E7F4DB03080080E00F00F049020A
S3150800A16070B503F0B3F90446E8B903F011FC03F03F
S3150800A17097FA4FF4167343430C4A03F5742303F214
S3150800A1803F23B3FBF2F30A490A480B600A23026825
S3150800A190094D0E68013B45F8046B0E6813F0FF0382
S3150800A1A03244F6D10260204670BD00BF40420F001F
S3150800A1B0D41F0020A41F0020A81F0020012208B5D4
S3150800A1C0034B1A702BF063FB024B186008BD00BFE7
S3150800A1D0AD3D0020A01F002010B503F061FA04462B
S3150800A1E02AF0EFFA844207D92BF05DFB20B1012251
S3150800A1F0024B1860024B1A7010BD00BFA01F00204A
S3150800A200AD3D0020F8B51F4C2378E3B12BF03FFB9A
S3150800A2101D4B1E4D1B68C01A28602B68A3B12B68FE
S3150800A2202B6003F03DFA4FF416725043184A00F5B6
S3150800A230742000F23F20B0FBF2F02B682B688342B3
S3150800A24004D900232370F8BD0123E9E71148124E0B
S3150800A2500378296856F82320104F511A3A68521A7B
S3150800A26029683A6046F823100A210932B2FBF1F24E
S3150800A2700B4D0133DBB22A60B3FBF1F201FB12335B
S3150800A2800370DEE7AD3D0020A01F0020D01F002090
S3150800A29040420F00AE3D0020A81F0020A41F00204A
S3150800A2A0D41F0020014B1868704700BFD41F002038
S3150800A2B070B502212C2000F0C9F84FF4801204254D
S3150800A2C00E4C0F4B0F4E5A6604F500535E672C2052
S3150800A2D05D671E671D6700F0ABF82C2000F09AF842
S3150800A2E004F580535E675D67A36A23F00073A36273
S3150800A2F0A36A43F48053A36270BD00BF0040005AAE
S3150800A30000900050010000A0064B074A996D11F015
S3150800A310050F01D0117811B10028F7D17047012037
S3150800A320704700BF0040005AAF3D0020164B10B5DD
S3150800A3301C6F14F0040111D0144A116708219162A8
S3150800A3409B6DDA0701D4FFF747FF02F0F1FD02F033
S3150800A350D1FD012003F0C8FA2BF0A7FAE30706D5CA
S3150800A36001220A4B1A67FFF74DFF02F0C3FD14F0EE
S3150800A37000521CBF054B1A67002CBEBF4FF00042A7
S3150800A380024B1A6710BD00BF0040005A0060005A11
S3150800A3906FF00403502110B50A480B4C13F0800FD8
S3150800A3A003F1010206D123444C2A83F8001313460D
S3150800A3B0F4D110BD03F00F03043B0344197613468A
S3150800A3C0ECE700BF00ED00E000E100E0BFF34F8FCF
S3150800A3D00549064BCA6802F4E0621343CB60BFF333
S3150800A3E04F8F00BFFDE700BF00ED00E00400FA054F
S3150800A3F000280CDB01220649430900F01F008240B1
S3150800A400203341F82320BFF34F8FBFF36F8F704778
S3150800A41000E100E0002807DB01234109034A00F0B8
S3150800A4201F00834042F82130704700BF00E100E07A
S3150800A430002808DB01224309034900F01F00824077
S3150800A440603341F82320704700E100E00028ACBFE4
S3150800A45000F16040064B4FEA0111C9B2ABBF00F5E7
S3150800A460614000F00F0080F800131954704700BFD0
S3150800A47014ED00E010B504462AF0FFF9024B1C6003
S3150800A4802AF0FFF9002010BDD81F002010B52AF0C9
S3150800A490F4F9034B1C682AF0F4F9204610BD00BFF6
S3150800A4A0D81F002038B50C461546014610B9FFF7E7
S3150800A4B0EDFF01462B462246034806F0F5FC002828
S3150800A4C0D4BF3720002038BD3D51030810B50024FD
S3150800A4D000F024F80348044B84604360FFF7CAFF82
S3150800A4E0204610BDDC1F0020EDA4000813B5064C5D
S3150800A4F023780093054B1B882AF03DFE10B9237874
S3150800A5000133237002B010BDB03D0020664900201B
S3150800A510014B1880002070476649002008B5074B94
S3150800A5201A6842B9012208201A602AF0C2F90449B9
S3150800A530044802F085FB002008BD00BFF01F00207C
S3150800A54080440020E81F002030B51446054687B031
S3150800A55010462AF069FE6369024683423CBFD4E985
S3150800A56003315B181B1A7BB10F4904940391002130
S3150800A570CDE90131012300932846D4E900132AF0D6
S3150800A580A3F9002007B030BD0122627694F82D2089
S3150800A590002AF6D084F835301321E3692046984717
S3150800A5A02046636A9847ECE749A500082DE9F04775
S3150800A5B088B004460F46164698462AF069F9814639
S3150800A5C0002E7AD0237E03F0FF02002B00F0A28033
S3150800A5D020462AF029FE6569A84205D1637ED4E99A
S3150800A5E0033213445D1B01E0F9D9451BB54228BF68
S3150800A5F035462AF04DF994F82D308246002B6DD158
S3150800A6002A463846616932F033FF63692E462B4481
S3150800A610636121E0037803F0FD0111295BD1216B09
S3150800A620814205D1A3F111014B424B4184F83430E4
S3150800A630013E6369216B01328B4203F1010308BFB6
S3150800A6402363636195426069E4D1D4E90323216BEE
S3150800A6501344994200D122630025D4E90323616992
S3150800A6601344994208BF6261207A6576FDF746F978
S3150800A67020462AF0D9FD6369834232D1257694F8BB
S3150800A6802D30E568656103B125632046636A9847FE
S3150800A690214B049403930023029323692A460193CA
S3150800A6A00123009363682168207A2AF00DF9207A3D
S3150800A6B0FDF744F950462AF0F1F84846C8F8006014
S3150800A6C02AF0ECF8D8F80030002B0CBF1B2000202D
S3150800A6D008B0BDE8F08707F8013BAAE72E46002236
S3150800A6E0B0E70123207A23760DF11E01FDF78EF9D6
S3150800A6F09DF81E30002BDAD00DF11F01207AFDF7E8
S3150800A7005DF99DF81F100029D1D12246207AFFF75E
S3150800A7101BFFCCE71646D0E749A500082DE9F0410E
S3150800A7200C461546064686B04022002120461F469E
S3150800A73032F08CFE95E8030000232A692376EB683D
S3150800A74084E80300C4E904232A7DE36084F82C2006
S3150800A750AA7D2363012384F8343084F835300C9BB2
S3150800A76084F82D2023620D9BE76163620E9BA3622A
S3150800A7702B7A84F836306B7A84F837302D4B346070
S3150800A78073602D4BB3602D4B33612D4B73612D4B8D
S3150800A790F360FDF77FF838B12B4B984204D01024AC
S3150800A7A0204606B0BDE8F081002104F10800FCF758
S3150800A7B0F9FF07460028F2D14FF00108234B336210
S3150800A7C0234B84F83C80B361224BF3619DF84030FB
S3150800A7D084F8390084F83B309DF83C30204684F8EC
S3150800A7E03A30697D84F838802AF05BFD95F90900CE
S3150800A7F0FFF71EFE95F90900FFF70CFE164B0494A9
S3150800A800CDE902732369CDE900836368E2682168AC
S3150800A810207A2AF059F804460028C0D195F908008C
S3150800A820FFF706FE95F90800FFF7F4FD3046FFF737
S3150800A83021FEB5E7F3520308ADA500081752030831
S3150800A8401D52030849520308038000F0F15103081A
S3150800A850A35203082352030849A500082DE9F0412D
S3150800A86001271C465B4B86B002935B4B0C9D0193FC
S3150800A8705A4B904600930A46CDE903772946584B2A
S3150800A880FFF74CFF0646002840F09B8023683946B0
S3150800A8902B6463683A206B64637A85F84930237AB7
S3150800A8A085F84830E37A85F84B30A37A85F84A303C
S3150800A8B0637B85F84D30237B85F84C30E37B85F840
S3150800A8C04F30A37B85F84E30FDF7C2FB3B4604228A
S3150800A8D0617A207AFEF7A6F93B460222E17AA07A47
S3150800A8E0FEF7A0F939466068FDF7B2FB88F8006004
S3150800A8F041462068FEF766FB1420617C394B01F15E
S3150800A900390252019850607A227A03EB411342EADF
S3150800A9100042C3F83827E17AA27A42EA0142C3F82C
S3150800A920302785F8506098F81930032B4FD8DFE8A0
S3150800A93003F0394C021C022385F850300023042208
S3150800A940E17BA07BFEF76EF90220617C254B01F1C5
S3150800A950B9025201985003EB411341F22C71E07B86
S3150800A960A27B42EA00425A501CE0012785F8503083
S3150800A97002220023617B207BFEF754F9617B227B50
S3150800A980637C42EA014241F228715B0103F1A0436C
S3150800A99003F570335A500422236803F58053DA65A9
S3150800A9A0002FCBD1237A2A6C85F84830637A0521A3
S3150800A9B085F84930D36C206843F00403D3642AF041
S3150800A9C03FF8304606B0BDE8F0810027CEE72326DB
S3150800A9D0F7E700BF2154030815540308AD540308CC
S3150800A9E0A154030800C0035013B5064C23780093FE
S3150800A9F011232AF0C0FB10B923780133237002B063
S3150800AA0010BD00BFB13D002037B5FFF787FD012512
S3150800AA100E4C0F4A0F49206020230095082006F0A7
S3150800AA20D3FA0D4B204663600C4BA360FFF722FD5B
S3150800AA3029F023FF04462946284602F06DF82046E9
S3150800AA4029F01FFF002003B030BD00BFF41F00200F
S3150800AA50B23D00203EDC0308E9A900085F5503085B
S3150800AA601A2812D8102814D940F28523A0F1110209
S3150800AA70D2B2D340DB070CD50122064B80F020006A
S3150800AA801A70054B18707D2003E0A0F17D03012B99
S3150800AA90F2D97047D93D0020D83D0020F8B50E46BA
S3150800AAA01446204B00B3204A2049107000221A7021
S3150800AAB022700A704FF6FF721D4B1A801B4D2B78B9
S3150800AAC0EBB91B4F304639882AF0B7FD164A38804D
S3150800AAD01378013BDBB213706BB901232B70304638
S3150800AAE0BDE8F840FFF7BCBF1A78002AE6D0187010
S3150800AAF0104B1878F8BD237801332370EFE7012B44
S3150800AB0005D102232B700A4B1888000AE8E7022BA6
S3150800AB1004D103232B70064B1878E1E7FF237E2028
S3150800AB202370E7E7D93D0020D63D0020D73D002019
S3150800AB30922E0020D83D00202DE9F047394E884650
S3150800AB40337817465BB9384A1370384A1370384A4F
S3150800AB501370384A13704FF6FF72374B1A807D28E8
S3150800AB6050D02DD8182851D01A2852D0314B2E4DF6
S3150800AB701A78DFF8BC9080EA020400221A702B7853
S3150800AB80CD2B9CBF01332B702B78022B12D9DFF803
S3150800AB90A8A099F80000BAF800102AF04EFD2B7804
S3150800ABA0AAF80000CD2B9FBF99F80020023B88F831
S3150800ABB000203B701D4B1A781C7089F8002006E0AF
S3150800ABC07E28D3D1184B1B781BB91A4A137020203C
S3150800ABD011E0FF2B1FD0184A1188154A1078134A1E
S3150800ABE0127802EB0022914217D1022B17D9CE2BED
S3150800ABF034BF00207A20A0F120025342534133701B
S3150800AC00BDE8F08720220B4B1A70E0E7FF22064BBF
S3150800AC10FAE77420EFE77720EDE77620EBE779206F
S3150800AC20E9E700BFDA3D0020D53D0020D33D0020EE
S3150800AC30D23D0020D43D0020902E002008B52AF0F1
S3150800AC40AEFC4FF6FF73002818BF0346014A13806F
S3150800AC5008BD00BF962E002010B5074C208850B1BD
S3150800AC602AF09DFC2388C01A044B00B21B88984220
S3150800AC70B4BF0020012010BD962E0020942E00207F
S3150800AC804FF07E624FF6FF732DE9F041B2F8467039
S3150800AC90B2F84460154D9F4208BF4FF448679E427C
S3150800ACA008BF4FF4C8762C88DFF8448050B164009A
S3150800ACB02C802B88BB4215D92F800023A8F800309A
S3150800ACC0BDE8F081B8F80030002BF2D02AF067FC16
S3150800ACD0B8F80030C4EBC404C01A80B204EB800490
S3150800ACE0E408E5E7B34238BF2E80E6E7942E002055
S3150800ACF0962E002008B52AF052FC4FF07E634FF6D8
S3150800AD00FF72B3F85430934208BF4FF47A73034482
S3150800AD1013F47F6FC3F3071208BFFF22014B1A70A3
S3150800AD2008BD00BFDB3D002010B5084C237843B1B1
S3150800AD302AF035FC2378C3EB10131B065CBF0023EF
S3150800AD4023702078B0FA80F0400910BDDB3D002062
S3150800AD5007B502F08BFC6A4602F0EEFC18B14521F5
S3150800AD60034800F01DFBDDE9000103B05DF804FBB4
S3150800AD7054DC030808B502F0A9FB18B16D21024896
S3150800AD8000F00EFB002008BD54DC030808B500F0EF
S3150800AD9053FA0D4A536A43F470235362EFF3088358
S3150800ADA04FF0CD31094A043B93420AD22AF01AFDE4
S3150800ADB000F08CFCFFF7DEFFBDE808400448FEF70C
S3150800ADC009BA43F80419EFE700ED00E00000002097
S3150800ADD09CD5030807B5042200200DEB02012CF0D0
S3150800ADE024FF042803D0F621044800F0D9FA019874
S3150800ADF000F020FC03B05DF804FB00BF54DC030838
S3150800AE001028034670B535D020D8032815D9002058
S3150800AE1070BD032202231A491A4D0C680021C8B2D4
S3150800AE208442F4D955F8200028B1067A9E4202D108
S3150800AE30467A9642ECD00131F1E7421E022A19D829
S3150800AE40DFE802F0021B16000022E3E7A0F1200269
S3150800AE50032ADCD8213B022BF6D801A252F823F0AC
S3150800AE606DAE000871AE000813AE00080122D1E7E6
S3150800AE700222CFE700220323CDE70122CBE700BF5A
S3150800AE80C8D4030800440020082310B50A0A414024
S3150800AE900648C9B201F00104490804B14140013B22
S3150800AEA013F0FF03F6D181EA020010BD2083B8ED46
S3150800AEB02DE9F8430025134C134EDFF85480134F41
S3150800AEC0DFF8509023780BB9BDE8F883224641464F
S3150800AED0002056F8043B2AF03AF922782346013432
S3150800AEE0002AFAD15B7853B105F00303032B0CBF94
S3150800AEF03946494600202AF02AF90135E2E739465B
S3150800AF00F8E700BFDCE103080010002034E003087E
S3150800AF10A5DC0308A2DC030840F605226A4B2DE9E6
S3150800AF20F0411B8893420ED8B3F5206F0DD840F236
S3150800AF300252934218D040F20172934220D040F256
S3150800AF40015293420AD0BDE8F081A3F602235F4C72
S3150800AF50032B1ED8DFE803F0376396B25C4900205E
S3150800AF60BDE8F0412AF0F3B800205A492AF0EFF874
S3150800AF70564B1A6C0020BDE8F04157492AF0E7B84D
S3150800AF80524A0020D2E92523BDE8F04153492AF068
S3150800AF90DEB8002052492AF0DAF894F86C309E0799
S3150800AFA003D500204F492AF0D2F894F86F305D0691
S3150800AFB003D500204C492AF0CAF894F96F30002BC3
S3150800AFC0C1DA4A49CBE7002049492AF0C0F894F883
S3150800AFD06830980704D00020226C3F492AF0B7F859
S3150800AFE094F96830002B04DA0020626F41492AF090
S3150800AFF0AEF800250126404FDFF80881A26E06FA52
S3150800B00005F3134207D057F8252013781BB141469C
S3150800B01000202AF09CF80135082DEFD193E737492F
S3150800B02000202AF094F82C490020226C2AF08FF888
S3150800B03094F86930590703D5002031492AF087F872
S3150800B04094F96930002B04DA0020626F29492AF046
S3150800B0507EF80825284E2B4FA36EEB40DA0707D556
S3150800B06056F8252013781BB1394600202AF06FF8C8
S3150800B0700135102DF0D194F8680000287FF463AFED
S3150800B08021496DE7214900202AF061F80020226C49
S3150800B09011492AF05CF81025174E1A4FA36EEB409B
S3150800B0A0DB0707D556F8252013781BB1394600204B
S3150800B0B02AF04DF801351A2DF0D144E7002014493D
S3150800B0C02AF045F8226C55E7982E0020001000203B
S3150800B0D0AFDC0308EDDC03081EDD030839DD0308D1
S3150800B0E055DD03086EDD0308A9DD0308DDDD030869
S3150800B0F01ADE030840DE03082CE6030867DE0308A9
S3150800B1007FDE03085EDE0308C6DE0308F7DE0308F3
S3150800B11011DF03082DE9F04F3A4D85B0D5E90D3218
S3150800B120580748BF0026D5E9121B48BFB046D5F8D0
S3150800B1303CA05FBFD5F850808B469246324E54BF2E
S3150800B140DFF8E890DFF8E89013F0080F2F4B304A45
S3150800B15018BF1A46B6EB08071FBF64237C0803FB13
S3150800B1600B44B4FBF7F40CBF3C46A4B24B46294942
S3150800B1700020CDE9016ACDF80080BFB229F0E7FFCB
S3150800B18023460020CDE9009723491FFA8BF229F0C0
S3150800B190DEFFB24501D8C24504D24A4600201F49FF
S3150800B1A029F0D5FFD5E9170318436B6E184309D163
S3150800B1B01B4929F0CCFF00201A4905B0BDE8F04F1D
S3150800B1C029F0C5BF0020184929F0C1FF002501272D
S3150800B1D00C4EDFF860800024F26D07FA04F3134280
S3150800B1E004D0414600202A1929F0B1FF0134202C49
S3150800B1F0F2D12035602D06F10406ECD1002009496C
S3150800B200D7E700BF001000200010002040DF030829
S3150800B21047DF03084FDF030881DF0308BBDF0308A6
S3150800B220DADF030835E00308F0DF03083BDF03082D
S3150800B23033DF030820E0030837B5FDF747FE054668
S3150800B24029F0F8FBEB072ED4012319461A4601FA12
S3150800B25002F42C4003F1010327D0214B33F81240A6
S3150800B26029F0B2FA062C83B21E4A4FEA104022D1C0
S3150800B2704FF20F0188421BD1B3F5406F28BF4FF438
S3150800B280C06313804CF23C314FF00053598040F2B2
S3150800B290017312889A4201BF134B144AD2E900017E
S3150800B2A0C3E9000117E00022D7E7102BCED1D7E774
S3150800B2B04FF4C063E5E740F207218C420DD14FF207
S3150800B2C00F01884209D1A34207D14FF000534CF22F
S3150800B2D03C315980148003B030BD1480D7E700BFD5
S3150800B2E0BCE10308982E00200020002094100020BE
S3150800B2F0014B1888704700BF982E0020014B18880C
S3150800B300000A7047982E0020164B1888020A10F07B
S3150800B310FF00134604D1012A23D143F08000704769
S3150800B320072BFAD801A252F823F000BF51B3000840
S3150800B3301BB300084DB3000861B3000861B30008E9
S3150800B34055B3000859B300085DB3000809207047D3
S3150800B35018467047032070470B2070470620704731
S3150800B36002207047982E0020044B05481B881A0AAD
S3150800B370B3F5406F38BF00EB82007047982E002067
S3150800B3808CE10308044B1888044B020A53F8223050
S3150800B390C0B203EB80007047982E00205CE10308DA
S3150800B3A038B504460D460B4602460749002029F0E3
S3150800B3B0CEFE00F0B7F929F067FA29462046BDE81F
S3150800B3C038402AF049B900BF24E003086E4A2DE93F
S3150800B3D0F0416E4B55686E4C5D65516A99656D49CD
S3150800B3E0D1F80002D865D1F804021866D1F8081217
S3150800B3F0586B5966916A10F0040F9966D16A4FF036
S3150800B4000000D966116B1967516B5967D26BD864FE
S3150800B4109A67D3E90E1218BF11465F4A91421A6518
S3150800B4205DD301F12000A04259D88869C5F3080503
S3150800B4301864CE69062D5E6455D1584DA84252D37C
S3150800B440574DA8424FD205884DF6426085424AD1EB
S3150800B4501868C3F894005868C3F8980040F2017059
S3150800B460A242154604D22E680432B6F1CD3FF7D073
S3150800B4700022C3E91F22C3E92122C3E92322641B50
S3150800B480DFF818C1424DDFF818E19C648D422DD8CB
S3150800B490D3E91FC7D3E92165D3E923414FF0000E4D
S3150800B4A0013AD2B2FF2A3BD1BEF1000F05D0C3E95B
S3150800B4B01FC7C3E92165C3E92341B3F85430C3F371
S3150800B4C008030C2B3AD8022B53D9DA1E092A50D86E
S3150800B4D0DFE802F030563F424F4F4F4F4F4C0021A6
S3150800B4E0C3E910112C494FF42060B9E755F8044D0B
S3150800B4F06445CBD37445C9D2E607C7D50026294F7C
