S01E00006F742D7263705F646F6E676C65655F76322E362E312E302E7333371C
S21400400008100020E5480000E5800000E980000078
S214004010174A0100ED800000F580000043370100DC
S214004020433701004337010043370100433701009F
S214004030F980000034B30100433701004337010024
S214004040433701004337010043370100B54C0000F9
S214004050433701004337010043370100433701006F
S2140040604337010043370100A58B0000BD48000020
S2140040703137010043370100433701004337010061
S214004080433701004337010043370100433701003F
S21400409043370100ED52000043370100433701006B
S2140040A043370100314F0000154F00004337010031
S2140040B0433701004337010043370100B5270100AD
S2140040C0ED970100E99701001D1F0100039801000C
S2140040D0F197010075270100F5970100ED04010036
S2140040E0F52701004337010043370100433701003D
S2140040F043370100433701004337010043370100CF
S21400410043370100433701004337010043370100BE
S21400411043370100433701004337010043370100AE
S214004120433701004337010043370100433701009E
S208004130433701000B
S214004134F0B5114A114C124E00F00105E3695F0711
S21400414413D40DB9334213D103EA00078F4207D1C3
S2140041540B4A1A40002A0CBF00206FF00100F0BD85
S214004164013AEBD16FF00200F9E74FF0FF30F6E7C3
S2140041746FF00100F3E700BF80969800000003503C
S214004184020001000B4B70B5D96911F480310DD1D2
S21400419401244FF48072084E084DF46020462C64C7
S2140041A41A61FFF7C5FF3464EC6070BD6FF0010060
S2140041B4FBE700BF0000035000100350002003502C
S2140041C438B541F6713301220C4C0021E569E363EE
S2140041D40B4B05F48035DA600223606121202361ED
S2140041E4FFF7A6FF10B92120FFF7A2FF0122054B17
S2140041F4DA600DB10023E36338BD00BF000003504E
S214004204001003500020035070B5134C6061E3693E
S2140042145B071ED40E4656F8043B8D18A361AE42C7
S2140042240BD10423002121202361FFF781FF58B915
S214004234BDE870402120FFF77BBF08210846FFF742
S21400424477FF10B10423236170BD56F8043BA361C5
S214004254E5E74FF0FF30F7E7000003502DE9F84399
S214004264154641F67132164B8946DF69DA63012238
S214004274064603F58053DFF8508007F48037DA608B
S21400428455B9284601220F4BDA601FB10022A3F568
S2140042940053DA63BDE8F88306F5005404EA08041C
S2140042A4A41BAC4228BF2C46494622463046FFF79C
S2140042B4ABFF0028E6D12644A1442D1BE0E700BF4F
S2140042C4000003500020035000E0FFFF0000000041
S2140042D82DE9F84F40220021294815F09DFB302291
S2140042E80021284815F098FB00209FED237B264BDD
S2140042F8264E274ADFF888B0DFF8ACA0DFF8AC9087
S214004308DFF8AC80DFF8ACE01E4FA3F1180C2425CC
S214004318002145430BEB401443E9054A0CEB050422
S21400432843E9039843F8181C43F804EC2177216204
S214004338182404FB007442F8144C164C42F8181C57
S21400434842F8104C144CA6EC027B42F80C4C134C6A
S21400435843F8241B42F8084C114C42F8044C114C04
S2140043682C442177216242F8241B08B1BDE8F88F57
S2140043780120CCE7AFF3008000000000000000003A
S2140043886433002034330020043300205810002003
S214004398BC320020D98B0000674A0100854A01001C
S2140043A8D14A0100A4320020018C0000894A01008D
S2140043B84F4A01008D4A0100F7B5012016F0B0F902
S2140043C80446002840F0A980574E584B584DC6E979
S2140043D8003041F60B23B0602860AB8005F074FA15
S2140043E82146304607F0DCFC044600B9FEE7514992
S2140043F807F0F8FF00B1FEE70221204614F00FFC94
S21400440800B1FEE720464C4908F00CFA00B1FEE77A
S2140044180121204614F003FE00B1FEE701212046E4
S21400442814F00BFE074600B1FEE701463C2243485F
S21400443815F0F2FA80233A46204606F1100114F0E9
S214004448F8FC802800D0FEE73D4E012014F048FB1B
S21400445833A3D3E9002334602046CDE900234FF088
S214004468FF324FF0FF3314F04AFC014600B1FEE776
S214004478284604F00DFD0121084616F03DF90121F5
S214004488306814F015FB00B1FEE700242D4B2E4AC9
S2140044989C801C602D4B6FF063001A60FF229C8086
S2140044A82B4B83F828202B4A9C801A602A4ADA600D
S2140044B806F03EF82B790B2B11D86B790A2B0ED900
S2140044C8264B1D6003F07EFA204605F0EFF9082219
S2140044D83068114614F018FC044608B1FEE7FEE7FB
S2140044E805F0DCF91E4B10211E481C7010F0CDFD9F
S2140044F800B9FEE71C491B4810F0D9FD00B9FEE7D5
S21400450810218C20194A10F021FA00B1FEE718484D
S21400451803B0BDE8F04011F008B803B0F0BD00BF26
S2140045280AE020FF2202000000340020D5A901007E
S214004538F83300200700110008B60100B033002049
S214004548F0330020D8100020B43C0020A81000202B
S21400455878100020343C002068100020F433002037
S214004568363D0020A4340020A1B201009434002077
S214004578FBB501000348044B834202D0034B03B14A
S214004588184770470C4100200C410020000000002E
S214004598064B0749C91A891048BF0131491003D08C
S2140045A8044B0BB101481847704700BF0C41002068
S2140045B80C4100200000000010B5064C237843B9D3
S2140045C8FFF7D8FF044B13B10448AFF3008001236C
S2140045D8237010BDCA3B00200000000060EF0100F9
S2140045E808B5054B1BB105490548AFF30080BDE883
S2140045F80840FFF7CDBF00BF00000000A02700203E
S21400460860EF0100A3F5803A704700BF174B002BF8
S21400461808BF134B9D46FFF7F5FF00218B460F4654
S2140046281348144A121A15F0F7F90E4B002B00D04F
S21400463898470D4B002B00D0984700200021040017
S2140046480D000D48002802D00C48AFF300800EF08D
S21400465835FC200029000FF02CF80EF0DFFA00BF1A
S21400466800000800000000000000000008100020FD
S21400467808100020803D0020000000000000000018
S21400468808B510F0F6FE054B186028B96A21044BE9
S214004698044A05480EF0A4FA08BD00BFB827002053
S2140046A8E8B20100FBB20100F2B20100014B186843
S2140046B805F0B2BEB827002010B5044C206810F0EC
S2140046C83AFF2068BDE8104005F07CBAB8270020FD
S2140046D810B51F4C02F008FC236F012023F00703D7
S2140046E843F00203236702F00DFCD4F820310020C3
S2140046F823F0070343F00103C4F82031D4F840310F
S21400470823F0030343F00103C4F84031D4F86031C2
S21400471823F0030343F00103C4F86031D4F84032B1
S21400472823F0030343F00103C4F84032D4F8003200
S21400473823F0070343F00103C4F80032D4F8083224
S21400474823F0070343F00103C4F8083210BD00BF86
S2140047580080005007B501A802F0CAFE9DF8053093
S214004768012B27D1214A936DDB0313D4536B23F413
S214004778FF0323F4FE4343F4BC1343F4A0635363DC
S214004788136B23F4704343F440431363136B43F4EF
S214004798E06313639DF8043063B94FF000531B6859
S2140047A8134B1B68134B1B68134B1B68134B1B6878
S2140047B8134B1B68134AD2F8803043F00303C2F841
S2140047C8803003F055FA0FF03FFE03F0FDF903F0D2
S2140047D803FAFFF77DFF03F0E5F900F02DFA05F080
S2140047E803FA03B05DF804EB01F038BF00C00050D0
S2140047F8004000200080002000C0002000000120AB
S2140048080040012000800050064B1B681A7A022AD6
S21400481804D812B11B68044A13607047032AF9D0FB
S214004828704700BFCC3F0020BC27002030B51A4D8B
S21400483895B00DAC0FCD0FC495E807004FF4E123F3
S21400484884E807000F931549154B0E22CDE903138C
S21400485800210DF12600CDE9051115F0DDF84FF41D
S2140048688020104B0DAACDE907030B238DF82430C2
S2140048780C238DF825300C4B07A90A9320230B939D
S21400488801238DF83130094B0948009303AB03F038
S21400489873FB15B030BD00BF18B30100008005508B
S2140048A82101010124800550CB3B0020C0270020B1
S2140048B82028002001480FF0CEBF00BF2028002087
S2140048C80348044A0449121A92100EF037BF00BF74
S2140048D834410000D4420000203E002008B500F015
S2140048E82FF8FFF7EDFF124B12498B4212D3002028
S2140048F8114B12498B4218D3FFF788FE186850F8F8
S2140049082240586840F82240013298688242F5D31F
S2140049180C33EAE70022F8E71C6844F82200013264
S2140049285C68A242F8D30833E4E70022F8E700BF41
S21400493868EF010074EF010074EF010074EF0100E6
S214004948124B134A70B59A60D3F88820114D42F47A
S2140049587002C3F888206FF0010205F5005422663D
S21400496841F2FF7262660222C3F8D020BFF34F8F6F
S214004978BFF36F8F4FF44036032003F0C1F90320CE
S214004988E66003F0A1F92E6170BD00BF00ED00E0FF
S2140049980040000000800044014B1860704700BFCC
S2140049A8E83F0020054B1860054B1B6F03F0070314
S2140049B8032B01D115F0F8BA704700BFF03F00206E
S2140049C80080005000239B6AB3F5804F03D2196815
S2140049D8064A914203D00023037083607047012281
S2140049E802709A689B694260F7E700BF07B0CD5E21
S2140049F80020054B82B01B689AB262F30F001B0CAE
S214004A0863F31F4002B0704700000020024B034AC1
S214004A181A600FF022BD00BF0000002002020FF04F
S214004A2873B5494B04461A781AB102221A7002B0B6
S214004A3870BDCDE900220028F9D001261E7016F0B8
S214004A48EBFA424D424B18600AF0D4FC2B785BB95F
S214004A5801F004FE40B93F4808233F4A3F49006832
S214004A6801F04CFD00B92E703D4B5A68E2603D4A95
S214004A789A601A6E22605A6E6260D3F87021A2603D
S214004A881B6E5C0440D5384AD368D807FCD4374B2D
S214004A981A68531C3DD04FF480139340344A13666B
S214004AA80423334C23664FF4806323660EF06BFEB4
S214004AB801300ED00EF067FE40F20113984208D07F
S214004AC84FF4804323664FF4004323661023C4F84C
S214004AD870311023264C4FF0804223664FF4005363
S214004AE86846236601A9226663660EF034FE009BBC
S214004AF82366019B63662B78002B98D0164B1A68A2
S214004B0822665B68636692E71A4AD368D907FCD4BC
S214004B18BDE7194B1B78002BC2D1184B5A68144BAB
S214004B2812B94FF480121A66154A526812B94FF431
S214004B3800121A66134B5B68002BB1D14FF4800243
S214004B480B4B1A66ACE700BFEC3B0020ED3B0020A1
S214004B5848280020184000204C2800200071080033
S214004B680080004455CEAC0000000440F43F00200E
S214004B780090004400000450EB3B002000800550E5
S214004B8800C005500000065038B5224D04462B7864
S214004B98012B02D001232B7038BD0028FCD00EF064
S214004BA8F2FD013009D00EF0EEFD40F201139842F6
S214004BB803D0194AD368DB07FCD42268174B1A6659
S214004BC862685A66A268C3F87021E268D40744BFD0
S214004BD800229A60124B1A68013213D1114A1278D1
S214004BE882B911494968C80748BF1A600F4A52680F
S214004BF8D10744BF01221A600D4A5268D20744BF43
S214004C0802221A600AF0FEFB0A4B186816F0FFF933
S214004C180023C0E7EC3B002000000440008000446E
S214004C28F43F0020EB3B00200080055000C00550F4
S214004C38000006504828002000239B6A70B5B3F58C
S214004C48804F26D21A68144B9A4222D1134D2B78DD
S214004C5813F0FD0402D00024204670BD4FF48036C1
S214004C680F48FFF7DDFE032003F04AF80D4B03203C
S214004C78DE6003F029F80C4B1E61A36ADB699847CF
S214004C8804460748FFF780FF002CE5D101232B7068
S214004C98E1E74FF48174DFE707B0CD5EEB3B002019
S214004CA83828002000A000440090004413B5204B8C
S214004CB81B7803B9FEE700231E4CCDE900336A468D
S214004CC808231D49206801F019FCF8B91B4AD2F8D8
S214004CD84031D2F840211F2B4FF0010311D9203A5A
S214004CE89340019A1A43019208236A46124920689B
S214004CF801F0C0FB124B134A1A600FF0AEFB02B06D
S214004D0810BD9340009A1A430092EDE72D28F1D182
S214004D180A4AD2F84031D2F840211F2B4FF001033F
S214004D2885BF203A93409340019398BF0093DBE7F2
S214004D38EC3B00201840002000710800008000446A
S214004D48000000200B020FF0BFF34F8F0549064BFB
S214004D58CA6802F4E0621343CB60BFF34F8F00BF0C
S214004D68FDE700BF00ED00E00400FA052DE9F0417C
S214004D7804460C254FF00108124E0CB314F001003F
S214004D880BD0002024F0010405FB00625768002FB2
S214004D98F3D09168C0B2B847EFE722460130202822
S214004DA84FEA520201D0D307F8D508FA00F20F28C6
S214004DB824EA0204E8D9103805FB0062B432E5E7B5
S214004DC8BDE8F0815428002008B50C480FF03EFBDB
S214004DD8192002F087FF28B1192002F091FF192048
S214004DE802F072FF1A2002F07DFF28B11A2002F0A6
S214004DF887FF1A2002F068FF002008BD00B50100F2
S214004E082DE9F0410E461746054608B30F2921D866
S214004E180378DBB1013BDBB2022B1BD80F4AD35C0D
S214004E286A78D340DB0715D50D4BD3F810439CB9E9
S214004E3816F0F2F880463A462846314602F07CFCE0
S214004E48404616F0E4F82046BDE8F0817F23E7E701
S214004E582224F8E72124F6E70224F4E784B30100C5
S214004E6800C0035010B5044600B30378E3B1013B15
S214004E78DBB2022B1CD80F4AD35C6278D340DB0720
S214004E8816D516F0C9F80122617823788A403021B1
S214004E984B4341F2100103F1A04303F570335A5017
S214004EA816F0B5F8002010BD7F23E6E72220FAE7C3
S214004EB82120F8E784B3010010B5044600B3037850
S214004EC8E3B1013BDBB2022B1CD80F4AD35C6278F5
S214004ED8D340DB0716D516F09FF8012261782378B1
S214004EE88A4030214B4342F2100103F1A04303F5F8
S214004EF870335A5016F08BF8002010BD7F23E6E773
S214004F082220FAE72120F8E784B3010008B502F06A
S214004F1809FC044B00F05530C3F82004BDE80840EF
S214004F28FFF724BF00E0035008B502F0FBFB044B74
S214004F3800F0AA30C3F82004BDE80840FFF716BF03
S214004F4800E003502DE9F04F9A46564B85B01B7883
S214004F5806460F461546DDF83C909DF844B0DDF849
S214004F685080002B00F09780072A00F296800E9B50
S214004F78002B00F09280B9F1000F00F08E80129B93
S214004F88B3F5006F00F38980012803D1109B002B2E
S214004F9800F08380444B03EB05131B7B002B7ED06D
S214004FA8424C10220021684614F036FD04EB4514E6
S214004FB81022A7BB3946204614F02EFD43F21003F4
S214004FC86380BBF1000F03D1E37843F00303E3707B
S214004FD8364A0E9B02EB451CCCE90193129B6901ED
S214004FE8581E9DF84C30C0F30A0003F003039B06D6
S214004FF843EA001E53582E48012E00EA03004EEAE4
S2140050080003CDF800A0535017D0B8F1000F2ED1EA
S2140050189CF8023068F304138CF8023027E000216D
S214005028204614F0F9FC4FF444736380BBF1000F7C
S214005038CED1E37843F03003C9E713230CF1100E02
S214005048CCF80C309CE80F008EE80F006FF00301D8
S214005058DCF81C20109B61F39F02012FCCF81C2063
S214005068CCF8143003D1CCF81890CCF804300027CC
S2140050780D4A290102EB051342F80180159A2846C5
S2140050885A60694622469F605E7302F0CFF838463B
S21400509805B0BDE8F08F0748FAE70748F8E707487D
S2140050A8F6E700BFEE3B0020BC2A0020BC29002003
S2140050B80F80FFF3028000F0018000F0078000F008
S2140050C838B5124B05461B78DBB1E0B115F0A4FFE6
S2140050D80F4A00231146147B54B92B6001251A0188
S2140050E801EB03131D738C5015F091FF204638BD55
S2140050F80133082B02F11002EDD115F088FF0548A0
S214005108F5E70548F3E70548F1E700BFEE3B002062
S214005118BC2A0020048000F0028000F0018000F025
S21400512838B515F079FF002305460B4A147B6CB991
S2140051380133082B02F11002F8D102F033F8074BBE
S21400514828461C7015F063FF204603E0284615F035
S2140051585EFF034838BD00BFBC2A0020EE3B002097
S214005168058000F00D4B10B51B78044693B1072850
S21400517812D815F051FF0A4B03EB04131A7B2AB119
S21400518800241C7315F043FF204610BD15F03FFFA2
S2140051980448FAE70448F8E70448F6E7EE3B002038
S2140051A8BC2A0020068000F0028000F0018000F093
S2140051B8154B13B51868002301908DF8043015F0C8
S2140051C82BFF124B1C7824B115F021FF104802B0B3
S2140051D810BD01221A7015F01AFF0E4B01A81C7399
S2140051E81C7783F82C4083F83C4083F84C4083F8BF
S2140051F85C4083F86C4083F87C4008238DF80730C1
S21400520801F0ECFF2046E2E787B30100EE3B002002
S214005218038000F0BC2A0020F8B50D4D2D7885B126
S214005228072810DC0B4D060105EB0014277B67B139
S214005238AB510025069BA560636001F0F7FF284682
S214005248F8BD0548FCE70548FAE70548F8E700BF53
S214005258EE3B0020BC2A0020028000F0018000F00F
S214005268078000F00A4A08B512785AB107280BD802
S214005278084A02EB00131B7B43B1002101F0A0FF94
S214005288002008BD0448FCE70448FAE70448F8E7A5
S214005298EE3B0020BC2A0020028000F0018000F0CF
S2140052A8078000F00A4A08B512785AB107280BD8C2
S2140052B8084A02EB00131B7B43B1012101F080FF73
S2140052C8002008BD0448FCE70448FAE70448F8E765
S2140052D8EE3B0020BC2A0020028000F0018000F08F
S2140052E8078000F0184B2DE9F0411F6D5B6D1F40DD
S2140052F800D5FEE701260025144CDFF85880374213
S21400530818D02368C8F85060A3B1A16828460131B0
S2140053186268A1609847637B012B0BD150B90C4B90
S21400532803EB45131A7B60F341021A731A7F60F386
S21400533841021A770135082D4FEA460604F1100493
S214005348DDD1BDE8F08100BF00000450BC2A002073
S214005358BC290020002004502DE9F04F14460646CC
S2140053680D469B46C36B87B001225B6902A960683D
S2140053789847F36B01225B6903A92846984702A859
S2140053880EF01FFE074648B10023A37563754FF05D
S214005398FF33A360002007B0BDE8F08F03A80EF027
S2140053A81DFE0123A375237E04EBC303DD611F8462
S2140053B86368AB420ED1206003A80EF031FE4FF0B2
S2140053C8FF332075A360237D043B022B26D80023D9
S2140053D8A375DFE723681A1A53425341A37503A837
S2140053E80EF01EFE237D834218BFA77503A80EF095
S2140053F8F9FD074602A80EF0F5FD874218BF002300
S21400540803A818BFA3750EF0F5FD074602A80EF010
S214005418F1FD87421CBF0023A375D4E703A80EF04E
S214005428E1FD80B1F36B022228465B6904A9984720
S21400543804A80EF0E6FD0346207D032839D8DFE8E9
S21400544800F03838040903A8F3E7CC22237E04EBDF
S214005458C3031A8401F07AF9109B187003A8277EF4
S2140054680EF0B4FD04EBC70787F82200237E03A8D6
S21400547804EBC303B3F8209093F822700EF0B2FD45
S214005488804603A80EF0B6FD8246B8F1000F15D088
S214005498F36B022228465B6904A9984704A80EF015
S2140054A875FD6075637D6BB90023A3754FF0000822
S2140054B838E0227E04EBC2021384CBE703A80EF082
S2140054C850FDEEE794F81680B8F1000FEED0B9F16B
S2140054D8000F09D1DFB10123627EE375002A44D1AB
S2140054E89F4218D1677614E0736C05EB0A0259429E
S2140054F885EA020008421CBF0021A175591E0A4011
S2140055089B1A9945D0D8A37D002BE3D1CEE7E37D3F
S21400551843B94FF000084B465246294630460EF02F
S214005528BBFAA060A27D12B123694B4423611449DB
S214005538237E097899421ED901332376BBF1000FE2
S2140055481BD0D2B1E37DC3B1B8F1000F15D1032F3C
S21400555813D0A1684B1C10D0109B224600933046EF
S2140055680123FFF7F9FEA07507E0012FDAD0032F15
S21400557808BFA376CDE70023A375A07D0BE700BF81
S214005588ACB301002DE9F04F0E46984600238BB0C9
S21400559804464FF0FF31104617468DF8133001F0D9
S2140055A8BFF8B6F5801F3BD3B21C53D1E56A6B1C17
S2140055B857D12046616A0EF0B5F90546B31C18BFE8
S2140055C80123DFF810910193636A626C02932368E3
S2140055D805A902FB053AE36B05225B695046984726
S2140055E805A80EF089FD0EF0ACFD50460EF0B4FD91
S2140055F84FF0000B824601464B1C05D0636C81EACF
S2140056080A025B42134232D0294620460EF08AF937
S214005618029BAB424DD0BBF1000F4DD10546D3E7F8
S214005628314605AA04F108000EF019FC0146481C8C
S21400563810D0384601F074F80122394620460DF19C
S21400564813030EF07BFA28B19DF8133088F8003063
S214005658002003E0237C002BA8D12D200BB0BDE84A
S214005668F08F2368ED1A636CB5FBF3F5A6E748469A
S21400567801F056F80DF1130349462046019A0EF03C
S2140056885DFA034690B1B21C03D0D9F80020B242A6
S2140056980CD19DF8132003930D4B88F8002049463B
S2140056A81A68384614F0CBF9039B9B46D9F80810BD
S2140056B8A2E7BBF1000FD0D0B6F5801FC8D231469E
S2140056C898F800307A6804F1080000F057FFBFE742
S2140056D8A8B30100B03100202DE9F341044617466F
S2140056E898460E46194D816AE36A8B422AD04B1CAF
S2140056F818E0284601F014F80122294620460DF144
S21400570807030EF01BFA30B14346294620469DF89B
S2140057180720B847B0B1A9684A1C05D0012E0AD0A0
S214005728E36A9942E5D10DE0696820460EF087F9EC
S214005738012E0146D8D16B6881EA0302636C5B428E
S2140057481A42D1D002B0BDE8F08100BF84310020F3
S2140057582DE9F041036B9046826B07689A4288BF32
S2140057688363426C436A90B002FB0377C36B0E46B2
S214005778052201A95B6904463846984701A80EF039
S214005788BBFC01280146307057D0656CE26B236875
S214005798606AD2F814C005FB0030052206A9E04767
S2140057A806A80EF0A9FC01284FF0000523D0D4E97E
S2140057B80A3201219342CDE90B458DF834800E95C7
S2140057C88DF83C102AD1194620460EF038F9236B7E
S2140057D8626C14339B1AE06223630C9B53B99DF8E2
S2140057E83C303BB1626A616C2368E06B01FB0231B6
S2140057F80EF03AFC0C9DE36B05225B6901A938465E
S214005808984701A80EF078FC30702846236BA26BE8
S2140058189A4288BFA36310B0BDE8F081237C33B9F1
S2140058281C490BAA04F1080000F0F6FED5E720464E
S214005838194A0BABFFF750FFCFE7237C23BB224662
S214005848164904F1080000F0E7FE616A20460EF0EB
S2140058588AF8616A421C20460EF053F8054620B9BD
S214005868236B626C1344143B23632046A16A0EF034
S214005878E6F82368A062C01A636CB0FBF3F06062B7
S21400588820460EF01FF9B6E700232046044AFFF725
S21400589823FFDAE7895F0000055F0000973B0100F9
S2140058A8693B01002DE9F04F9A468BB09DF85030C1
S2140058B8DFF850B10293DBF81030804653450D46AA
S2140058C81646C0F09980D146DBF804300193B9F14A
S2140058D8000F00F08D80D8F83C3001225B6907A9DC
S2140058E80198984707A80EF079FBDBF80030984235
S2140058F840F0858007A80EF07DFB0428074614D1E3
S21400590807A80EF07EFB019B029A04463B44002A39
S2140059183FD1864212D91446361A404601990EF0EF
S2140059288EF8A9EB04090190D1E7D8F83C3002229A
S2140059385B69019808A9984708A8E2E7841B5445BC
S21400594828BF5446032C03EB0607AAEB040A4FEAC3
S21400595894021CD9D8F83C30294638465B699847E3
S21400596824F0030304F003061F441D44002ED4D07D
S214005978D8F83C3001225B6908A938469847324671
S214005988284608A9354414F05AF80026C5E72646DE
S214005998ECE7074600F00302039203442A18049231
S2140059A80593049BDD1B059BD81B039B9F420FD1C9
S2140059B8002FB2D0D8F83C30012208A95B69984776
S2140059C83A46284608A913F0FDFF78B93D44A4E7EF
S2140059D8D8F83C30012208A95B6998470422284673
S2140059E808A913F0EFFF08B9043FDAE74FF03609C5
S2140059F848460BB0BDE8F08F4FF06309F8E74FF064
S214005A086F09F5E7083200202DE9F04F99B00F46E8
S214005A1809920A69416C0E931439D31DB3FBF1F34E
S214005A28013302EBC302036B04469342C0F00D82B7
S214005A380023DFF820940D93E36A48461946079337
S214005A4800F06EFED7E9033604930E9B022B4ED168
S214005A58CC2E40F08A81099B002B42D0394620463E
S214005A680EF001F9656C079A6B1E13401490ED1A38
S214005A78E36B01225B6916A97868984716A80EF0AA
S214005A88B1FA00280CBF04230823782E06933DD9C4
S214005A98012300254FF0080A05933B6805990E98E0
S214005AA8C9F80030C9F810600EF0BEFA4FEA9A033B
S214005AB810930023DDF81CB089F814000B930F939D
S214005AC808930C93616C4A1E0BEA02028B1A002E8E
S214005AD838D05544AB4240D8236B5B1A1344236333
S214005AE8ABE0049B1B68149308230693D0E7656C09
S214005AF8079A6B1E1340782EA5EB030516D8FB7D78
S214005B087BB9099B002BB3D104230693331DAB4204
S214005B1810D9A6B1082DBBD804250023AA4605939C
S214005B28BBE7099B002BA3D10823EEE7099B002BB4
S214005B389ED1D9E7002505954FF0040AADE7042560
S214005B480596F9E75345C7D3B0460BEB0A0303930C
S214005B58089B002B18BF032313E0A3EB0A039E42FF
S214005B68B0460BEB0A0228BF98469E420392EFD92E
S214005B780123D9F8102089F81730964271D1C9F850
S214005B8804B0089399F81730002B6CD099F81820B1
S214005B980899D31C09EBC3030132C3F804B0A3F871
S214005BA80880997289F81820B8F1000F14D00E9B57
S214005BB8022B5BD10B9B7BB90F9B4344032B0BD962
S214005BC8E36B01229B69039814A9984705460028A9
S214005BD840F03D8101230B93089B16A80193059B73
S214005BE8009399F814204346396800F04FFDE36B9C
S214005BF858469B69109A16A99847051E0D9B18BF0C
S214005C085B4652460D935946434620460DF044FFE0
S214005C18236B08F10302A3EB0A0322F003029B1A84
S214005C28C9F808002363002D40F011810F9BDDF8AA
S214005C380CB04344A6EB08060F93594620460DF0D1
S214005C48FEFE00258346002E7FF43CAF814A396865
S214005C58936804F10800E36252680E9B00F08EFC1D
S214005C68DEE002238DE7C9F804B09DE7099B002B08
S214005C7830D1049BB8F1030F43440A9327D9DDE9D2
S214005C880301E36B4FEA98029B699847054600288C
S214005C9865D118F003025FD0049B28F003052B4457
S214005CA80493039B1D444FF0FF33049915A81593DE
S214005CB813F0C5FEE36B28469B69012215A9984791
S214005CC805460A9B0493002D86D0039B99E7424617
S214005CD8039DE8E7039B0A9307F120031193FB7DD6
S214005CE878689BB100233D7E0C9AD9B28D4211D9B3
S214005CF8119903F1010C31F83310914226D906990F
S214005D0807EBC303D8690A44104403E00C9B069AC1
S214005D1813441844E36B01225B6915A99847159B41
S214005D28012213930C9B0A9804330C93E36B13A974
S214005D389B699847039B0A9A43449B1A042B05467B
S214005D4807D978B9134604330A93C8E76346521A44
S214005D58CBE70A9B0393B6E70A9B04933CE70A9BA8
S214005D680493B2E70A9B0393AFE7702604F108038F
S214005D7803932368079A606CA2EB030ABAFBF0FA4F
S214005D8800FB0A300EF0E8F9E16A804620460DF07E
S214005D9856FEA26A82424AD0626CD9F80830511E72
S214005DA80B40216B2568891A0B4423630D9BE06220
S214005DB85D1BB5FBF2F5AA4536D1079BB3EB080A7F
S214005DC812D0E36B4FEA9A0241469B69984783468E
S214005DD8E36A079A5344E362236B03989B1A434487
S214005DE823630EF00DF8DA462368616CE06B01FB5E
S214005DF805310EF026F920460DF064FD20460DF01C
S214005E0861FE2063BAF1000F11D03A69616CD31DA8
S214005E181439B3FBF1F3013302EBC3029042A8D264
S214005E28304619B0BDE8F08F4FF0000ADCE73A6953
S214005E38616CD31D1439B3FBF1F3013302EBC302D3
S214005E48236B9342BFF4F8ADEAE71C26E8E72E4634
S214005E588CE700BFB03100202DE9F3471E464369A2
S214005E680446B342884617469DF828903DD3002539
S214005E788DF8075020460DF0F1FCD4F830A0824586
S214005E880AD2236AB5EB430F06D2002220460DF14C
S214005E980701FFF75DFC30B39DF80730012B05D1ED
S214005EA8002220460DF10701FFF752FCB9F1030F57
S214005EB806D0314620460DF0BCFC256B854218D32B
S214005EC80D4D4FF0FF31284600F02AFC4B460022C5
S214005ED829462046C5E90376C5F8008002B0BDE825
S214005EE8F047FFF791BD0135C4E7622002B0BDE870
S214005EF8F0871C20FAE700BFDC310020032A2DE9D2
S214005F08F34106460D4617461C4606D1237A012B52
S214005F1823D0012002B0BDE8F081DFF86080096870
S214005F2842460DF10703FFF72DFB60600028EDD110
S214005F389DF80720237A032AE8D0D8F804106A6860
S214005F489142E3D1012B2969D4F80CC007D17269B4
S214005F580CEB0103934202D92074207CDAE708315F
S214005F686144E1603B46012229463046FFF74CFD76
S214005F7860600028CAD00020CCE700BFDC310020D3
S214005F882DE9F341089C032A1746266806D1237A8A
S214005F98012B24D0012002B0BDE8F081DFF8908004
S214005FA8304642460DF10703FFF7ECFA606000281A
S214005FB8EDD12568D8F80400A96AD5F844C0484049
S214005FC8CCF100031840227AE1D1012A09D1E2680F
S214005FD8D8F8103013447269934202D92074207C92
S214005FE8D9E72868EB6A1B1A081AB3FBFCF3B0FB60
S214005FF8FCF083420BD1706CF36A421E1340326B7E
S214006008121A1344284633630DF019FDE862D8F8CF
S2140060181020E36808321344E36001223B46044933
S2140060282068FFF7F1FC60600028B0D00020B2E7D7
S214006038DC3100202DE9F04F4FF0FF334FF6FF72AA
S2140060480025044600F10806C0E909238BB0C362A0
S2140060580562056330460F460DF0D2FE20460DF069
S21400606831FC20BB204639460DF0ACFC20460DF02E
S21400607829FC20BB5E200BB0BDE8F08FE26B2368DE
S214006088606CD2F814C000FB0530052205A9E0476D
S21400609805A80EF031F8012828D1294620460DF02B
S2140060A862FC421C294620460DF02BFC0135E369AC
S2140060B89D42E3D320460DF005FC0028D2D00025EB
S2140060C84FF0FF394FF6FF73CA46A846C4E908538F
S2140060D8E369984514D3A5EB0905012D36D84FF684
S2140060E8FF72636A934246D16720C4E70EF02EF823
S2140060F80028DBD0294620460DF035FC0246D1E7BD
S2140061082368E26B606C576900FB0830052205A916
S214006118B84705A80DF0F0FF834605A80DF0C3FFA5
S214006128074658460EF00DF868B1574538BFC4F80C
S2140061382480B94528BFB946BD4238BF3D46BA4651
S214006148236A0133236208F10108C1E74FF6FF739B
S21400615800256362E3699D42C1D2676C2068E36BE1
S214006168052207FB05005B6905A9984705A80DF0F9
S2140061789AFF0135EEE7E26B676C2068694607FB15
S214006188030055690522A84768460DF08CFF626A29
S2140061982368606C504D00FB02300DF0DDFF4FF0B9
S2140061A8FF33A062E3622A466FF00101204605AB82
S2140061B8FFF7E8F900284FD1AD6829462046E56282
S2140061C80DF05CFB206320B92046E16A0DF037FC31
S2140061D8E062294620460DF032FC0546A36A9D4239
S2140061E83CD16569626CE91C143AB1FBF2F14FF0D8
S2140061F8000805EBC1050335B5FBF2F5C1460235C7
S214006208E36999453CD3A8455AD22046616A0DF001
S21400621889FB0027064604F1400AB84512D8626C86
S2140062282368694602FB0639E36B05225B69484624
S214006238984768460DF037FF534602464946E06BD6
S2140062480DF08CFF314620460DF06CFB0137AF424F
S2140062580646E2D364200EE7A56AAEE7294620463E
S2140062680DF00CFB236B29460344074623632046A0
S2140062780DF0E5FB0546002FB0D1C4E90B07ADE7E6
S214006288636C2768052203FB0977E36B05A95B693E
S2140062983846984705A80DF02FFF0DF052FF60B15D
S2140062A838460DF059FF014620460DF0E7FA636CB4
S2140062B8143B984208BF08F1010809F101099FE755
S2140062C830460DF09DFD002320461946034AFFF789
S2140062D803FA0020CFE600BFDC310020333B010084
S2140062E80023624A2DE9F04117680E4604461360FB
S2140062F818B921252846BDE8F08190F834500DB32A
S21400630809680268914240F0A98071684268914223
S21400631840F0A480B1688268914240F09F80F1689E
S214006328C268914240F09A8031694269914240F0D1
S2140063389580B169C26B914240F0908072691D46A3
S2140063488261D7E750222946D0F8388013F064FBDC
S214006358D6E90212336804F1080023607368C4F8AB
S21400636838806360336963617369A3610DF05AFD11
S214006378B36904F14000E3639B68984794F84320A8
S21400638820B1E561002AB4D05B25B3E7656C002D23
S214006398F7D06668B6FBF5F3E361002AA9D0B542E4
S2140063A8F2D82268B2FBF5F105FB1122002A57D174
S2140063B805FB1363002B53D120460DF04FFAA36953
S2140063C8043303449E424DD340F634726369CC3B93
S2140063D8934249D8B5F5805FD6D3032120460DF001
S2140063E866FAD4E90001E36B1B6898470546E36B39
S2140063F80220DB6898471DB1002384F834301DE07E
S21400640839462046FFF716FE6428054604D1394665
S2140064182046FFF70FFE0546636C143B002DEBD1B4
S214006428226A204602FB03F60DF018FAA369043325
S21400643803449E4206D284F834505A25E06B0DF089
S214006448B4FB57E70123D4E90001094A84F834303D
S2140064581368013313600DF07FFDEFE75D2549E70C
S214006468592547E75A2545E75F2543E7402B00208F
S2140064783C2B00202DE9FF410F4690461E46054658
S21400648898B390F8343093B3B1F5801F31D21A4CD4
S21400649802210DF00CFA2246394628460DF10F0364
S2140064A8FFF770F8024678B1012342460093394652
S2140064B833462846FFF7D0FC0446E86B0DF075FB1C
S2140064C8204604B0BDE8F0819DF80F30012BEBD1D3
S2140064D82169B142E8D10093414633462846FFF782
S2140064E8E1F904460028DFD1E7E72124E8E711248C
S2140064F8E6E72924E4E700BF083200202DE9FF413B
S2140065080C4616461F46054680B390F834307BB3D3
S214006518B1F5801F2ED2DFF8608001210DF0C7F993
S2140065282146424628460DF10F03FFF72BF804468E
S21400653870B99DF80F30012B11D1D8F81030BB4236
S21400654812D10246009031462846FFF7ABF90446BA
S214006558E86B0DF02AFB204604B0BDE8F081022B5C
S21400656814BF2D246024F3E76324F1E72124F2E71F
S2140065781124F0E72924EEE7083200202DE9F0433D
S214006588466886B3056898464FF0000CA946AE469E
S21400659855F83C400CF1010CC4F31307013401D044
S2140065A8B94217D066450EF1080EF1D12F460024E1
S2140065B803E0A64207F1080712D055F83430013434
S2140065C80133F6D1C1F3130141EA0851C7E90012B5
S2140065D8BDE8F08341EA0851CEE90012BDE8F08331
S2140065E8B8F1030F03D101230372BDE8F08300233B
S2140065F803E09E4209F10809F5D055F83340013307
S214006608C4F30754032CF4D1C1F3130343EA085325
S214006618C9E90032BDE8F0832DE9F0410646406836
S21400662882B0C0B10F4690460024336853F8345001
S21400663803EBC403C5F30752C5F31301013504F190
S214006648010406D05B683046CDF80080B84710B124
S21400665870688442E9D302B0BDE8F081024B19683D
S214006668024B1868FFF73CBEF83F00201840002091
S21400667808B514F0C4FC014B186008BD343200207D
S214006688014B186814F0B6BC3432002073B50446C3
S2140066982248012A00EAC1119DF8185023F07C40D0
S2140066A807D9961E012E28D9073303F07F0319430E
S2140066B808E09DF81C300A43DB0603F0C05313437A
S2140066C843F060410023C4E900108DF80730B5B1E7
S2140066D8202221460DF107000DF05AFD1A220DF171
S2140066E80700211D0DF054FD082063689DF807205B
S2140066F843EA8263636002B070BD1143E2E71B227F
S2140067080DF1070021460DF043FD23689DF807208C
S214006718042043EAC2632360EDE700BF80FFFF075B
S21400672838B5094B0D461A680021044613F074F96B
S21400673800234FF0FF322383C4E900252361A260BB
S214006748E382A37638BD00BFA8B301000138C0B203
S21400675805289ABF014B185C01207047ADB30100AD
S2140067682DE9F0410746154600240E46596888B0BC
S214006778490A012922464FEA510104F10104F8D8D2
S214006788DC78997824031B88C90201F4006104F4B4
S21400679880540C43C3F30A035203234492B24FF0C7
S2140067A800089C18274B6FEA0444039325F07843A7
S2140067B8ED4302A90DF107001B2202938DF807800E
S2140067C80DF0E6FC9DF80720029B02A943EAC26387
S2140067D80DF107001B2225F07845049302958DF8E5
S2140067E807800DF0D5FC9DF80720029B6FEA14443D
S2140067F843EAC26305934FF0FF330794069307A94D
S214006808BB69012206F110009847BB6905A9044632
S214006818012206F108009847BB69404518BF0446A0
S21400682804A90122301D98470122404518BF044696
S214006838BB69304603A99847404508BF204608B0BC
S214006848BDE8F08101009AB238B5104B0546D3F87A
S21400685800310C4603F00303022B0BD0032B0DD09C
S214006868012B0FD113F0BAFB032305B1286004B13E
S214006878236038BD13F0FCFB0723F6E714F0B2FBE1
S2140068880623F2E701230020EFE700BF0080005050
S21400689838B5134B0546D3F820010C4600F0070020
S2140068A804281AD8DFE800F003090D1115000123A3
S2140068B805B1286004B1236038BD13F055FB0423E6
S2140068C8F6E713F08BFB0323F2E713F08DFB0523A3
S2140068D8EEE713F07FFB0223EAE700231846E7E714
S2140068E80080005038B5104B0546D3F840310C46AA
S2140068F803F00303022B0BD0032B0DD0012B0FD173
S21400690814F072FB082305B1286004B1236038BD73
S21400691813F0AEFB0723F6E714F069FB0923F2E74A
S21400692801230020EFE700BF0080005038B5104B69
S2140069380546D3F860310C4603F00303022B0BD050
S214006948032B0DD0012B0FD114F04EFB082305B1F5
S214006958286004B1236038BD13F08AFB0723F6E7E6
S21400696814F045FB0923F2E701230020EFE700BFF8
S2140069780080005041F67133124A30B5D469124D82
S214006988D3639368A84204F4803423F4401306D8EB
S21400699893600E4AD2F8183223F002030AE043F452
S2140069A8801393600A4B9842F3D9084AD2F81832F3
S2140069B843F00203C2F8183214B10022014BDA631E
S2140069C830BD00BF00000350005A620200C00750E6
S2140069D880F0FA022E4B98424AD022D82D4B984285
S2140069E840D014D82C4B984239D00AD82B4B984212
S2140069F832D02B4B98422FD02A4B98422CD00020CE
S214006A087047294B9842FAD1284B186F7047284B85
S214006A1898422AD0274B9842F1D1244BD3F88000CD
S214006A287047254B98422BD009D8244B984223D040
S214006A38234B9842E3D11D4BD3F88C007047214B6B
S214006A48984221D003F5740303F510539842D6D123
S214006A58164BD3F898007047144B986D7047134B35
S214006A68586E7047114B586F7047104B986F7047A9
S214006A780E4BD3F8840070470C4BD3F88800704749
S214006A880A4BD3F890007047084BD3F89400704729
S214006A980048E8010024F400C0CF6A0080841E0085
S214006AA800093D0040420F00405DC6000080E00F30
S214006AB8C0EA210180BA8C01007E560380D54302C5
S214006AC8006CDC020090D00337B50C460021114B51
S214006AD80191D3F88031054603F00303022B0ED04C
S214006AE8032B11D0012B03D101A8FFF7D1FE0D21EE
S214006AF80DB1019B2B6004B1216003B030BD13F0CB
S214006B0873FA05210190F3E713F064FA0221019065
S214006B18EEE700BF0080005038B5104B0546D3F8A6
S214006B2840320C4603F00303022B0BD0032B0DD088
S214006B38012B0FD114F058FA082305B1286004B1C8
S214006B48236038BD13F094FA0723F6E714F04FFADB
S214006B580923F2E700231846EFE700BF008000503D
S214006B6838B5144B0546D3F800020C4600F007006B
S214006B7804281BD8DFE800F003090D1115000123CF
S214006B8805B1286004B1236038BD14F02DFA082337
S214006B98F6E713F06DFA0723F2E714F028FA09234C
S214006BA8EEE713F001FA0C23800AE9E700231846FB
S214006BB8E6E700BF0080005038B5144B0546D3F80A
S214006BC808020C4600F0070004281BD8DFE800F08F
S214006BD803090D111500012305B1286004B12360CF
S214006BE838BD14F001FA0823F6E713F041FA072334
S214006BF8F2E714F0FCF90923EEE713F0D5F90C23B5
S214006C08800AE9E700231846E6E700BF0080005040
S214006C18032814D005D8012805D0022809D000205A
S214006C2805E00F28FBD1084B186FC0F30130013080
S214006C387047054BD3F89000C0F30460F7E7024BA3
S214006C48186FC0F38020F2E7008000501FB50023BD
S214006C580193252817D8DFE800F0131A1D272C36CD
S214006C683B51565B60656A78161A401616561A2700
S214006C782C27361A5127783B3B3B3B2727275B6058
S214006C8813F078F90190019805B05DF804FB13F04D
S214006C988BF9F7E713F06EF902460220FFF7B8FF04
S214006CA8B2FBF0F20192EEE713F07EF902460320FB
S214006CB8F4E713F079F902460320FFF7A9FFB2FBC1
S214006CC8F0F25208EEE7002101A8FFF7FDFEDAE72A
S214006CD8002101A8FFF7DCFDD5E702934FF0E0237B
S214006CE81B695B0705D513F05FF90290029B0193B9
S214006CF8C9E703A902A8FFF7F5FDF7E7002101A8F1
S214006D08FFF7F0FDBFE7002101A8FFF70FFEBAE77F
S214006D18002101A8FFF724FFB5E7002101A8FFF727
S214006D284BFFB0E7002101A8FFF78EFDABE7094B44
S214006D38D3F8803003F00303022BA8D0032B01D02E
S214006D4800209FE713F050F99CE7002101A8FFF701
S214006D58E3FE98E70080005008B50120FFF776FFAD
S214006D68BDE808400349884294BF01210221032058
S214006D7800F002B880F0FA02032810B50C4627D0B7
S214006D8804D8012804D0022817D010BD0F28FCD13B
S214006D980DF01CFA0DF022FA124A013C136F23F488
S214006DA8405343EA0433136713F0FEF80021FFF755
S214006DB8E1FDBDE81040FFF7CFBF0A4A4C1ED2F8E7
S214006DC8903023F0F85343EA0463C2F89030DCE7C7
S214006DD8044A4C1E136F23F4806343EA8423136724
S214006DE8D3E700BF008000501FB500230193252875
S214006DF821D8DFE800F013202020202A2F454A4F0C
S214006E0854595E7120203420204A202020202A2031
S214006E184520712F2F2F2F2020204F54314B1B6FCA
S214006E2803F00703013B032B05D8DFE803F00C0249
S214006E38080A04230193019805B05DF804FB0323B0
S214006E48F8E70623F6E70223F4E7002001A9FFF790
S214006E583BFEF0E7002001A9FFF71AFDEBE70293D7
S214006E684FF0E0231B695B0705D513F09DF80B234D
S214006E780393039BDEE703A902A8FFF733FDF8E7B1
S214006E88002001A9FFF72EFDD5E7002001A9FFF78E
S214006E984DFDD0E7002001A9FFF762FECBE70020F2
S214006EA801A9FFF789FEC6E7002001A9FFF7CCFC79
S214006EB8C1E70C4BD3F8803003F00303022B03D052
S214006EC8032B05D00023B5E713F06EF80B23B1E7C4
S214006ED813F08AF80523ADE7002001A9FFF71CFE8A
S214006EE8A9E700BF0080005008B50320FFF790FE12
S214006EF8034B18700DF06AF9BDE808400DF06EB93E
S214006F08EF3B002010B5044613F04EF80021FFF7BB
S214006F1831FD1CB1BDE81040FFF71EBF034B032030
S214006F28BDE810401978FFF727BF00BFEF3B0020E9
S214006F3838B50546FFF74EFD204B04465A68012A29
S214006F4804D11F494A609A699207FCD10020FFF7CE
S214006F584BFF042803D10DF039F90DF03FF9194A13
S214006F6824F0407395421FD0174A95421FD0174AFF
S214006F78D16811F0060FFBD19068936091684B407A
S214006F8813F4F81F16D12846FDF706FD0020FFF774
S214006F982BFF042810D113F007F80021FFF7EAFCAE
S214006FA8BDE83840FFF7D8BE43F00073DFE743F08C
S214006FB88073DCE79060E9E738BD00BF00C0015089
S214006FC800E0015040420F0080841E00000001507F
S214006FD8F8B504460020FFF707FF032800F0818075
S214006FE845F60E0302213F4AC2F880303E4B9962AE
S214006FF8012103F580539962936DD903FCD4D4E933
S21400700800131B0543EA0163E17B94F820500B4309
S214007018217BE77E43EA0143617B6D0143EA013346
S214007028A17B43EA811313619169D4E904031B0623
S21400703843EA806301F000410B43A17E94F82300E5
S2140070480B43217E43EA0143617E43EA01239361B1
S214007058136AE66923F00D0394F8221043EA8703BF
S21400706866BB1362966A94F8213045EA031326F045
S21400707833052B4343F0010393621C4D194A936D65
S21400708835EA0303FBD10225174B9D62936D5B001F
S214007098FCD41369A56823F4700343EA0553136107
S2140070A84FF00042104B9A6119B9022203F580533B
S2140070B89A6278B901220E4B9A620BE0334343F08A
S2140070C808031362936A23F0330303432B4343EA0C
S2140070D84103936294F824301BB1024B054AC3F867
S2140070E88020F8BD00C0005000D0005003000140CA
S2140070F800E00050F1A7FFFF014B93F9000070472E
S214007108F03B0020014B1880704700BFE04000208D
S214007118034A0179D36E23F030030B43D3667047D6
S21400712800400050F8B504460D461F4616464AB1BC
S21400713801238B403021184A01FB0022F7B141F2A7
S2140071481001535004EB4403072D4FF00F014FEA8C
S214007158031316D8A80006FA00F281400F48184410
S2140071680DF040F84EB9012330210B4AAB4001FB25
S214007178042277B141F210015350F8BD42F21001D3
S214007188DFE7A5F10800800006FA00F2814004480F
S214007198E5E742F21001EFE700C0035004C00350D1
S2140071A80CC0035008B5152000F07CFD0022FF2116
S2140071B8024B5A6599625A6008BD00BF0000045029
S2140071C8044A054B002908BF1346012282401A606C
S2140071D8704700BF4010045040200450012110B5ED
S2140071E80278114B120659609A60417882780446F4
S2140071F842EA01429A61FF229A6200229A631A645E
S2140072084FF000425A654FF0FF3203F50053152041
S2140072181A6500F075FD1520E1780DF020F9BDE837
S2140072281040152000F050BD00000450F8B50125A8
S214007238C3B2DFF88CC0D1F800E09D408F7ACB7AD5
S2140072480C46097BCCF850500CF5005C4CF820E056
S2140072584FF0300E184E1B050EFB006094F80DC05C
S21400726843EA074343EA415322F00302C0F860C0EA
S214007278C365026713F0D0FE104B5D65237A13B121
S214007288336C2B433364637A13B1B36B2B43B3630A
S2140072982279A37943EA0243094A93616179E3793B
S2140072A843EA014305498B61034B55639D64BDE87A
S2140072B8F84013F0ACBE00BF0000045000100450A5
S2140072C80020045010B50124C0B2844013F0A4FE78
S2140072D8044B5A6D22EA04025A659C62BDE81040C7
S2140072E813F095BE0000045010B50124C0B28440C7
S2140072F813F092FE074BDA6A224208D15B6B9C4376
S2140073080CBF0124002413F082FE204610BD002482
S214007318F9E700BF0000045070B5054613F07CFE80
S2140073283022084B5E6B02FB05335C6E13F06FFE73
S2140073380123EDB2AB4033420ABFC4F30A10002063
S214007348013070BD0000045041F67132034BDA6319
S214007358012203F50053DA60704700BF00000350AF
S21400736841F671320121044BDA6303F50052D1600D
S2140073780022DA63704700BF000003500138252852
S2140073889ABF024B185C0020704700BFB3B30100D9
S214007398021E30B54FF000000CBF0C25042547F63A
S2140073A80774084952B9831D51F82330234023B186
S2140073B801308542F6D14FF0FF3030BD00F11203A0
S2140073C8F2E700BF0080035038B5C2F3062504462E
S2140073D802F0070241B942EA052242F44022063486
S2140073E8074B43F8242038BD114628460CF009FF01
S2140073F802462846FFF7C2FF123442EA0022EFE7A9
S21400740800800350044B1868421C02BF034AD2F897
S21400741894001860704700BF1C40002000400050D1
S214007428CB784A7810B55B010C7843EA82030A7970
S214007438234343EA02130C22424302F1B042136389
S214007448012C02BF8A78024B43F8202010BD00BFEB
S214007458D080035008B54FF0B0435A686AB958B19F
S2140074685B680BB10CF0FCFE01210D4B59600CF06B
S214007478F7FE4FF0B043D96008BD5B680BB10CF05F
S214007488EFFE0028F0D10CF0EBFE4FF0B0430222DE
S214007498DA600CF0E5FE0122024B5A60ECE700BF0A
S2140074A800100058002000584FF0B0414B6810B547
S2140074B80BB10CF0D5FE01220B4BC4785A608378CA
S2140074C8934043EA840344782343047943EA041345
S2140074D8447943EAC4038B60044B5A600378C3F1CB
S2140074E80203CB6010BD00BF0020005800100058F3
S2140074F8054B5B69C3F38512827003F03F021B0BD2
S21400750842700370704700BF00C00750014B986C6C
S214007518D96C70470080E00F0120034B9B680A3344
S21400752803F01F03984070470080E00F0D4B984209
S21400753808D1A3F50033C3F88411C36D43F0800364
S214007548C3657047084B984204D1A3F51033C3F8B7
S2140075589411F2E7054B984204BFA3F52033C3F80D
S214007568A411EAE70080055000C005500000065048
S21400757870B5054616461C4619B90320FFF766FB84
S2140075880146402C1BD003D8DCB1202C1BD070BD84
S214007598602CFCD1042303FB06F2530803EB4113CB
S2140075A8B3FBF2F3094A203B02EAC303AA6822F0B7
S2140075B86002AA60AA681443AC60EB61E7E706239A
S2140075C8E9E71023E7E70823E5E700BFF8FF7F00B1
S2140075D8012200F580535A6040F6AA6341F205027C
S2140075E8436100230D498360C365C26000F50052FD
S2140075F80361C361C364916409498365884203D102
S21400760803650023436506E006498842F8D001F57D
S21400761880418842F4D0012353607047FFFF010081
S2140076280080055000C0055070B50D46FFF7D0FF26
S214007638012300F580567360AB7C04461BB1836853
S21400764843F080438360EB7C1BB12046297DFFF71F
S2140076586DFF2A8A6B7B20461343EA891343E3604F
S2140076682B7BD5E90112FFF783FF6B7D1BB1A3685F
S21400767843F48033A360AB7D1BB1A36843F4004397
S214007688A360EB7D2A7E1B07120502F4E00203F0D6
S214007698E0431343A365697E1F4A8B1E012B1F4BCD
S2140076A81DD8944217D002F58042944215D002F5B0
S2140076B8804294420CBF02224FF0FF3203EB421383
S2140076C8022041F2AC520329985020D10423F365D6
S2140076D82B78636170BD0022F0E70122EEE7944242
S2140076E811D00F4A944210D002F5804294420CBF43
S2140076F802224FF0FF3203EB4213022042F2AC5252
S21400770801299850E1E70022F5E70122F3E7042271
S21400771804F50053DA65DBE70080055000C0035027
S21400772800C00550034BD3F82424D3F82004104097
S214007738704700BF00C003502DE9F8431E4B0546AE
S214007748D3F810334B1E0E2B0E46174690F80090B3
S21400775844781DD909B34FF000082846D7B113F06E
S21400776861FC09EB4903072C4FF00F014FEA03139E
S21400777815D8A400114808FA04F2A14018440CF0E1
S2140077888BFDBEB928468FB1BDE8F84313F04ABC56
S2140077988846E2E70CF08FFDE3E78846E1E7083C19
S2140077A8A400074808FA04F2A140E7E7BDE8F84352
S2140077B80CF081BDBDE8F88300C0035004C0035038
S2140077C80CC0035070B5044611F0F6FA064630B9F8
S2140077D80FCC044D0FC594E80F0085E80F0030461F
S2140077E870BD00BF3832002047F6FF739A42F0B5E6
S2140077F872D0022972D83A4B5B5C022B6ED8394D90
S214007808DF0005EBC304A17815F83330012938BF2B
S2140078180121012B13D10025E078401AA84202D88E
S2140078280844C0B2F0BD431B6668A0EB530336F9A4
S21400783813609642D4BF1D4603F1FF30EEE760683A
S2140078480028EFD0B0F90040944204DBB0F90240BB
S2140078589442B8BF144683883D44FF2B19BFC822FC
S2140078684FF0280CB0F90620B0F908C0A2EB0403C4
S2140078780CBF0126002693FBFCF333446E781BB23C
S2140078889E4201DD002B01DA731E1BB24FF47A7C90
S21400789801339BB2071D5D1E2DB24FEAC50E00EBE5
S2140078A8C505EA88AD689E4214FB025222EAE272D7
S2140078B802F15C02B2FBFCF204DD37F83350013308
S2140078C89542E8D200EB0E039888904228BF1046EF
S2140078D8884238BF0846A4E7FF20A3E70020A1E7B0
S2140078E8D9B30100383200200229F0B560D8314BF0
S2140078F8595C02295CD8304B13F83100012816D1A0
S21400790803EBC1039C78D878012C214638BF0121A7
S214007918904294BFC1EB0001C1EB0201001BCAB242
S2140079288242C8BF00225B6833F91200F0BD002A05
S2140079383CD003EBC1035968002939D098789042A7
S21400794802D3B1F90200F1E7DC78B1F900009442FD
S214007958ECD95C788B88013CA3F1FF06734201F1F1
S2140079680405E4B2734101F10C07DEB2B44216D83E
S21400797805EBC3034FF47A756A43B3F902405B68B4
S214007988D21A04EBD47302EB630292FBF4F2904231
S214007998CCDBB1F902009042C8DC10B2C6E737F873
S2140079A833C05E1C9445E3D33346DEE70348BDE7A1
S2140079B80348BBE7D9B30100383200200CFEFFFFAE
S2140079C80080FFFF08B50448FFF7FCFEBDE8084046
S2140079D8012011F0F5B900BFDCB30100004870477C
S2140079E8E24000207FB51422002101A812F014F806
S2140079F8044B01A94FF0FF30029311F03DFA07B08F
S214007A085DF804FB006A18002DE9FF474FF00008F0
S214007A180E4617460446CDF80080002859D022B9ED
S214007A280025284604B0BDE8F087002951D032F07A
S214007A38030902F0030A1FD04FF0E063C0E90038DC
S214007A4801230191C0F808800293C0F81C8049F011
S214007A58005301A903930CF097FC4946204613F0FF
S214007A6806FB204613F0F0FA054628B14A4641467A
S214007A78304611F0D1FFD4E7BAF1000FD0D04FF05E
S214007A8800084FF0E063C4E900380123CDF804D0BD
S214007A980293114B204601A9C4F80880C4F81C803C
S214007AA803930CF071FC0421204613F0E0FA2046FC
S214007AB813F0CAFA054608B13A46D8E7009A4E4483
S214007AC8EB00013522FA03F3AA4506F8013BF7D185
S214007AD8A6E72125A5E700BF040000202DE9F04110
S214007AE8012905460E4690461F4692B04AD80468B5
S214007AF824F04003802B02D0B4F5807F45D11C22A9
S214007B0800210BA811F088FF234A244B0121012EDF
S214007B1808BF13460A932B1D0193E408204B44F034
S214007B28005402910AA80394CDF810800591069394
S214007B380797089101A909930CF01CFC04A90AA848
S214007B480CF018FC07A90AA80CF01EFC29680AA85D
S214007B58C90813F08CFA10210AA813F088FA13F053
S214007B686FFAA8B90AA813F08BFA4FF098435A6C24
S214007B78D202FCD55C6D13F065FA04F4702012B0DE
S214007B88BDE8F0816FF02000F9E76FF07100F6E7C6
S214007B984FF0FF30F3E700BF0001000400010104C6
S214007BA81000002013B50024064A6846536F43F0B9
S214007BB80103536700948DF80440FFF7A9FA20469E
S214007BC802B010BD0040005008B50248FFF7B0F9F3
S214007BD8002008BD00B4C40430B58BB06C46174D01
S214007BE80FCD0FC40FCD0FC495E8030084E803003B
S214007BF8134BD3F84C2112031CD5A3F5FE431C885F
S214007C084FF6FF739C4208BF8C248DF81940FFF787
S214007C1873FA204480F308008DF818000948FCF72A
S214007C28C1FE6846FFF7D4F93220FFF76BFA00204A
S214007C380BB030BDD3F85041E4B2E6E7C8B4010053
S214007C480080E00F00F049020028ACBF00F1604059
S214007C58064B4FEA0111C9B2ABBF00F5614000F010
S214007C680F0080F800131954704700BF14ED00E0A9
S214007C7808B513F0D1F90A4B1A786AB901221A70B6
S214007C8813F0C5F96FF00402104605210132FFF71C
S214007C98DBFF3D2AF8D108BDBDE8084013F0B7B9A8
S214007CA8F13B002000280CDB01220649430900F0BE
S214007CB81F008240203341F82320BFF34F8FBFF3C5
S214007CC86F8F704700E100E0002807DB01234109B9
S214007CD8034A00F01F00834042F82130704700BF77
S214007CE800E100E0054B421153F8223000F01F0077
S214007CF823FA00F0C04300F00100704700E100E0FE
S214007D08002808DB01224309034900F01F008240CF
S214007D18603341F82320704700E100E010B50446C0
S214007D2813F06DF9024B1C6013F064F9002010BDC7
S214007D385C32002010B513F062F9034B1C6813F090
S214007D4859F9204610BD00BF5C3200203021037A66
S214007D5802464B4303F1A04303F58023D86E074938
S214007D681B6F884208D113F0020006D05069536B87
S214007D781B1A58425841704700207047F23B0020B3
S214007D8810222DE9F04188B0044600210DEB0200D0
S214007D9811F042FE4FF44473ADF81230344B207A9B
S214007DA8CDE90533FDF75EFA2046FFF7CFFF054617
S214007DB8207A25B1FDF776FA08B0BDE8F0810DF116
S214007DC80B0112F07BF99DF80B70002F48D1204666
S214007DD80CF076FB03A90646207A12F091F9039B6D
S214007DE83946013B9DB204F10C03102218461F4683
S214007DF8D4F8048011F010FEE2681E4BC5F30A059D
S214007E08134030222D0145F040751D43237AC4E9FE
S214007E180358534303F1A043666103F580231A6FA2
S214007E28217E520862F341012176196F227E27F0DF
S214007E38030761F3000222761B6FA2699B0863F3AF
S214007E489F0247F00207A261079723680A4904AA17
S214007E580B600094094B207AFDF7DEF9207AA9E733
S214007E689DF81C3065F341038DF81C30EDE700BF24
S214007E78F23B00200F80FFFC603200200145010025
S214007E88F0B50C461546064687B050220021204617
S214007E981F4611F0C1FD95E80300EB682A69E36206
S214007EA8C4E90C232A7D84E8030084F84420AA7DCC
S214007EB8A364012384F84C3084F84D300C9B84F876
S214007EC84520E3630D9BA76323642B7A84F84E3022
S214007ED8234B34607360234BB360234B3361234BCF
S214007EE87361234BF360FDF763F930B1214B984279
S214007EF803D01027384607B0F0BD002104F108006B
S214007F08FDF7DEF80028F4D1CDE903000290236BD4
S214007F180193012300936368E26A2168207A0BF0D4
S214007F286EFC07460028E4D13022237A4FF48011ED
S214007F38534342F2640203F1A04303F580239950A9
S214007F4895F90800FFF7DCFE95F90800FFF7BCFE78
S214007F583046FFF7E3FE2046FFF712FFCAE700BFEA
S214007F684F45010007460100BD440100C344010017
S214007F7805450100038000F02DE9FF411C46534BE0
S214007F884FF00108019300230A9D00931746CDE998
S214007F9802880A464E4B2946FFF772FF0646002817
S214007FA840F08B80236804222B65237985F85430AB
S214007FB8A17985F85610607985F85500237A85F8F2
S214007FC85830E37985F85730A37A85F85A30637ABB
S214007FD885F85930237B85F85C30E37A85F85B3082
S214007FE84346FFF79FF843460222217AE079FFF7D7
S214007FF899F83E7039462068FFF716FB1421A27BD5
S214008008344B03EB4210C0F8AC1594F806C06179FF
S2140080182E3203EB421341EA0C415960227AE37987
S21400802843EA0243C0F8BC3585F85D607B7E032BC7
S21400803849D8DFE803F03A46021D022385F85D308A
S21400804800230422217BE07AFFF76CF841F2AC5259
S2140080580221A37B5B0103F1A04303F5703399501B
S214008068217BE27A42EA014241F2B8515A501CE0BA
S214008078012785F85D3002220023A17A607AFFF78F
S21400808851F8A17A627AA37B42EA014241F2B451DE
S2140080985B0103F1A04303F570335A5004222368AA
S2140080A803F58053DA65002FCAD120680A4A00F51E
S2140080B8005305219A640CF0DBF8304604B0BDE89E
S2140080C8F0810027D5E72326F7E700BFEB47010036
S2140080D85348010000C00350FFFF010000F00CB831
S2140080E800F00AB800F008B800F006B800F004B8C7
S2140080F800F002B800F000B872B61EF0080F09D0FB
S2140081081EF0040F0DD0DFF850E0AEE8FF1F6FF04A
S21400811802000CE0DFF840E0AEE8FF1F6FF00E004C
S21400812805E0DFF834E0AEE8FF1F6FF006006946AA
S214008138EFF309828EE8070086460848084C85450E
S21400814801D3A54501D384F3088801F0C9FF84F359
S21400815808880CF08AFF0000803D002048000020B8
S2140081680810002073B50024684600F0FBFA0C4B94
S21400817800981C600B4B0C4D1C600C4E0C4B306072
S21400818818602C600CF03DFC2046019B3268013BD1
S214008198DB0853802B6801332B6002B070BD00BF2C
S2140081A8743200207032002078320020803200209E
S2140081B87C3200202DE9F04F0E460027984689B0FD
S2140081C8054606A81446059700F0CCFA731C14BF9B
S2140081D8B3464FF0080BB8F1000F00F0BC80C8F8A3
S2140081E80070002D00F0B980079BAB4240F2B580C6
S2140081F812F012FF073505AB25F007053146009348
S21400820881463B462246284600F0B6FA059E0746B3
S21400821806B130B9484612F0FAFE192009B0BDE892
S214008228F08FDFF84CA17388DAF80010DA00C0EB9C
S214008238C3030139272BCAF8001074D9002C50D173
S214008248854205F1080347D05946304602930CF09C
S21400825803FB0446029B0590059A02EB030B58465F
S2140082680CF0CFFB059905F10F034A88C3F3CF033B
S214008278D21AABF80220CA88ABF8043072B3D31A05
S2140082889BB201EBC202ABF8063093808B88ED08F0
S214008298A380BBF804300022314658466580E38048
S2140082A800F0E2FA237843F001032370DAF800308E
S2140082B80133CAF800302C4A4846136808343B4451
S2140082C813602A4A11688B4288BF136012F09FFE1B
S2140082D80020C8F80040A1E73446BDE7ABF8062002
S2140082E8D4E7F4182046029303920CF08AFB029B0C
S2140082F8F91DC90805986180D91DC908A180C188DB
S21400830879B1C900039ACD1DAA1A3A44C2F3CF021E
S2140083180144E2808A80013BDB084380A388C3804F
S214008328C0E7E180F7E7012C19D106F10803B3FB93
S214008338FBF20BFB1233A3B1594630460CF08CFA0D
S21400834804462378012243F0010331462046237071
S21400835800F08AFAAFE7222060E721205EE7854230
S214008368EAD13446EDE700BF7432002070320020B0
S214008378783200202DE9F3470446684600F0F2F903
S214008388002C00F0AB8012F047FE14F8086CF307D8
S21400839804D534F806ECBEF1000F05D112F037FE0E
S2140083A8012002B0BDE8F0874D494E4D0A68D5F861
S2140083B80080A2EBCE020A6034F8041C0EF101031A
S2140083C808F10102A4F1080C9BB22A60B9B3ACEB21
S2140083D8C10292F800A0B2F806901AF0010F57886A
S2140083E806F002061FD1FEB9A9EB0701012926D817
S2140083F80EF102031F44BBB2C5F8008034F8026CC5
S214008408FEB9013B9BB214F8081C6FF3000104F890
S214008418081C002124F8061C53801378D18061F3C9
S2140084280003137031E056B119448BB214F8081CD7
S2140084386FF3410104F8081C00219180DEE76246CC
S214008448DCE70CEBC608DDE900710F44B845D8D266
S2140084581CF83670414617F001072AD0013B9BB23C
S21400846814F8085C6FF3000504F8085C002524F887
S214008478065C5380137865F300031370C2F1070394
S2140084880B44C3F3CF03D3808B8017490B681BB10B
S214008498934201D85B8803B90A6014490B681BB17C
S2140084A8934201D35B8803B90A6012F0B0FD00203E
S2140084B877E7A6EB0E06012ED0D8B8F80260A8F823
S2140084C802703344B8F806702E689BB2013E1FB19E
S2140084D808EBC7012E60C3E72E6094E7222060E70A
S2140084E87432002078320020803200207C3200204F
S2140084F82DE9F74F9146044668460D4600F032F9D6
S214008508B9F1000F00F024810023C9F80030019B60
S214008518AB4240F21F8154B9002D00F01B814A4639
S2140085282146284603B0BDE8F04F0CF0D5B92DB962
S214008538204603B0BDE8F04FFFF71CBF12F06CFDF5
S21400854834F8063C07354FEAC30825F00705A84562
S2140085580746A4F1080080F0888034F8022C002A28
S21400856866D000EBC20A10F83220D20760D4BAF8F8
S2140085780210A8EB050616EBC10659D41F2E3DDDE2
S214008588C5F3CF0304EB050B24F8063C013324F8A7
S214008598023C58460CF035FA34F8023CC6F3CF06CF
S2140085A8ABF80430BAF80630ABF8026013B3BAF882
S2140085B802209A1A1644B6B20AEBC303ABF8066052
S2140085C89E8000225146584600F04EF950460CF060
S2140085D818FA614AC9F8004013682B44A3EB08034D
S2140085E813605E4A11688B423DD8384612F00FFD7C
S2140085F8002527E00023ABF80630E2E7584E0B4488
S21400860832689BB2013A32605A1C24F8062CBAF833
S21400861806204AB102339BB20AEBC20224F8023C97
S214008628938001225146CFE7002324F8023CF8E75E
S21400863828464A4600210CF04FF9054630B1384620
S21400864812F0E5FC284603B0BDE8F08F4246214606
S214008658D9F8000011F0F3F92046FFF78BFE05461F
S2140086680028C2D0EBE71360BFE76ED934F8023CA7
S214008678A8EB0506002B3AD000EBC30A10F83330F7
S214008688DB0735D4C5F3CF0304EB050B24F8063C0B
S214008698013324F8023C58460CF0B3F9BAF8023015
S2140086A834F8022C03EBD603ABF80420BAF80620FD
S2140086B89BB2ABF80230BAB101339BB20AEBC202E6
S2140086C8ABF80630938058460022514600F0CCF8A6
S2140086D850460CF096F9204BC9F800401A68154425
S2140086E8A5EB08051D6080E7ABF80620EBE79A4681
S2140086F8272EF0D9C5F3CF0304EB050B24F8063C68
S214008708013324F8023C58460CF07BF9013E34F855
S214008718023CC6F3CF06ABF80260ABF80430BAF1F9
S214008728000F0FD00136B6B2ABF80660AAF80460A0
S2140087380B4A58461368013313600022114600F0AE
S21400874893F8C8E7ABF806A0F2E7C9F800404CE78C
S214008758222577E7212575E774320020703200203D
S214008768783200200249034A0160521A4260704774
S2140087781041002000000120F0B506460020059FA5
S2140087884C1C08BF08213860BAB91F480568002D78
S21400879838D0B5F802E0DB0003EBCE0EC1F1000CD2
S2140087A82878C0070BD52ABBE888B0B105EBC0050A
S2140087B8B5F802E003EBCE0EF2E71448E6E7B64556
S2140087C8F1D35AB905F10804B4FBF1F001FB1044E3
S2140087D8A0190CB17045E7D83D60F0BD08290FD048
S2140087E86C88013405EBC404A01B00EA0C00201AB0
S2140087F88645F1D2A8880028EFD0A5EBC005D7E7B4
S2140088083046E9E72846E8E7803200207C32002038
S214008818134B13B51B6804460846FBB121B96846D6
S214008828FFF7A0FF6CB900980378D90707D55CB99D
S214008838C3889BB100EBC3000378DA07F8D402B00C
S21400884810BD084B1868EFE7012C07D183882BB1B9
S214008858A0EBC3000378DB07F8D4F0E70020EEE7C8
S214008868783200207C320020F8B5154F05460C46B5
S2140088783B68144EB2B1994209D041B13368994267
S21400888804D129460120FFF7C3FF3060F8BD29460A
S2140088980020FFF7BDFF33683860A342F1D0002CF4
S2140088A8EFD0F3E7994205D13D603368A34204D17F
S2140088B83560EBE79842F7D3F7E7AB42F8D3E5E73E
S2140088C8803200207C320020BFF35F8F074B5A6A45
S2140088D822F480325A62D3F8942022F00102C3F8B8
S2140088E89420BFF34F8FBFF36F8F704700ED00E003
S2140088F838B5FFF7E9FF264A2648D2F8C030264D95
S21400890823F0FF0343F0A003C2F8C030234B0468EB
S2140089189D4204F101011BD1214BC2F89840C2F8D0
S2140089289C30204BC2F8A0300160BFF35F8F052251
S214008938174BC3F894205A6A42F480325A62BFF33F
S2140089484F8FBFF36F8FBFF34F8FBFF36F8F38BD57
S21400895823F01F03203BB3F1005F09D3C2F8984009
S2140089680F4C43F00103C2F89C40C2F8A0300160E7
S2140089780D4B0168064A23F01F0343F00303C2F8B1
S2140089889810C2F89C30094B0131C2F8A030CBE7EA
S21400899800ED00E084320020C03F0020203E00208A
S2140089A80300002001000120DF3F0020E1FF002037
S2140089B82DE9F0410D461146DFF8E080D8F8004072
S2140089C8B4F5807F34BF00271A27FFF77DFF1F29DD
S2140089D82ED90021C2061CBF20F01F0020302E4EC4
S2140089E8EB0618BF25F01F05CBB29C4235D8D6F843
S2140089F8C03020F01F0023F47F4343F48073C6F88A
S214008A08C03040F0030412F007FBD8F8003025F019
S214008A181F0141F00301C6F89830C6F89C40C6F816
S214008A28A01012F0F4FAD8F800300133C8F8003075
S214008A38BFF35F8F0522184BC3F894205A6A42F496
S214008A4880325A62BFF34F8FBFF36F8FBFF34F8FDB
S214008A58BFF36F8F3846BDE8F081C6F89830D6F871
S214008A689C30D6F8A02023F01F03984222F01F025D
S214008A7801D195420BD0904201D89D4209D2D6F832
S214008A889830013123F0FF03C6F89830ACE700278A
S214008A98CEE72827CCE700BF00ED00E084320020B0
S214008AA870B512F0B9FA144E05463478FCB9134B73
S214008AB81C60134B1C60134B1C6000F031F801203F
S214008AC812F0D8FB11F0ECFD0F4B0246186020B9E7
S214008AD8284612F09CFA232070BD234640F2E73160
S214008AE80A4809F0EDFE0A4B186001233370284641
S214008AF812F08DFA0020EFE7F53B002090320020B8
S214008B088C320020983200209432002018FCFFFF98
S214008B1888320020014B1868704700BF8832002052
S214008B281FB500241A4B18689A880290D3F80600D6
S214008B389B7A00901748ADF80C208DF804300BF09F
S214008B4885FC02A88DF808408DF80C40FEF7ACFCB2
S214008B58694601208DF80040FEF762FC4FF0B043EE
S214008B681F219A6922F01F029A610B4A51619A6A7C
S214008B7812F00802FBD11A620120FEF76BFC0A20ED
S214008B88FFF7BEF80A20FFF79FF804B010BD00BF35
S214008B9804B50100FCB401000020005810B512F01E
S214008BA83BFA4FF0B04304465B691A07074A03F0DE
S214008BB8010003F00D0348BF40F00200536111F0B6
S214008BC8A9FC2046BDE8104012F021BA0020005843
S214008BD807B500B9FEE7037F03B1FEE70090012260
S214008BE8044B40680FF086FF00B1FEE703B05DF85F
S214008BF804FB00BF95B2010030B5044685B00846B0
S214008C0804B9FEE7237F03B1FEE703A9656811F000
S214008C1831FC48B90123064ACDE9000303992346E7
S214008C28284612F0EDFA00B1FEE705B030BD00BFE9
S214008C389BB20100154910B5A1F148000BF012FFD0
S214008C48A0B11249A1F148000BF00CFF0446A8B9E0
S214008C580F49A1F148000BF005FF044668B120460D
S214008C680C490BF014FF20460949F4E70849A1F11E
S214008C7848000BF0F7FE0028E3D110BD2046064951
S214008C880BF005FF20460149DEE700BF343300201D
S214008C98EC32002061A8000019A80000014B1B69EF
S214008CA8184700BFEC3200200C4B70B515461A6802
S214008CB80C4602B9186000236119094A5B41C2E9EB
S214008CC8001312F0A9F906462A46214603480BF077
S214008CD81EFF3046BDE8704012F099B9EC3200200D
S214008CE85810002010B512F097F9044603480BF008
S214008CF8E0FE2046BDE8104012F089B9EC320020AC
S214008D08014B1B69184700BFA432002070B512F04B
S214008D1876F9054610F0C3F8044608490B6808605B
S214008D288342074B284682BF1A6801321A601E68BB
S214008D3812F060F92046314670BD00BFA032002010
S214008D489C320020094B70B516461A680D4602B9C3
S214008D58186012F061F904463246294603480BF0BB
S214008D68D6FE2046BDE8704012F051B9A432002065
S214008D7810B512F051F9044603480BF09AFE204647
S214008D88BDE8104012F043B9A4320020064B10B5D7
S214008D981A783AB100241C700CF077FA0CF064F9D3
S214008DA8204610BD0D20FCE7F73B0020012337B511
S214008DB800250F4C019523702378A3B1202229465D
S214008DC80C4810F029FE0C4820220A49006801AB1E
S214008DD80BF058FB257020B9BDF8041005480CF0B8
S214008DE852FA0CF041F903B0BDE83040FFF7CEBFA9
S214008DF8F63B0020F83B0020E03F002070B50D460B
S214008E08044698B191B10A4E33780BB1FFF7BEFF0E
S214008E18084B21462A4618680BF023FB012408B99C
S214008E28347004460CF020F9204670BD0124FBE798
S214008E38F73B0020E03F002008B5FEF7E3FA034BB7
S214008E481860BDE808400BF005BA00BFA433002040
S214008E580E4B1B68D9070FD45A060FD413F0180FF9
S214008E680ED199070ED49A060ED440F28472134295
S214008E7814BF06200720704700207047022070475E
S214008E88082070470120704703207047A43300204D
S214008E9870B50446184E23680D46306823B39721EC
S214008EA810F089F8024600B1FEE72168306803F042
S214008EB80BFA2379834200D0FEE701223068114678
S214008EC810F0ABF800B1FEE70BF003FA03220446F5
S214008ED81146306810F091F87F2D0CD029462046B0
S214008EE8BDE8704000F0FEBC03F0CAFC00B1FEE727
S214008EF8FEF774FDEAE770BDF03300201FB50023C7
S214008F08CDE901330393FF238DF80430074B014660
S214008F1801AA18680FF00BFE044628B904480CF09E
S214008F2804FB204604B010BD0120FBE7F033002008
S214008F380FB5010008B5074B18680FF081FE30B171
S214008F48054BB3FBF0F083B20BB1184608BD012001
S214008F58FCE700BFF033002040420F0013B5084C72
S214008F6820460FF0D5FDFFF7E5FF0023C10000936C
S214008F7801222046034B0FF0BDFD02B010BD00BF16
S214008F88F034002059A901002DE9F8439046012243
S214008F980C46254B254F264E264D1870002138685E
S214008FA832700FF098FD2B79E4B2A34239D86B796A
S214008FB8A34236D3DFF88C90D9F80030AB4205D000
S214008FC87F212846FFF764FFC9F80050DFF878903D
S214008FD8D9F80030B3B98025174B1D70FFF7AAFFE4
S214008FE8C000B8FBF0F0154AC9F800001060294622
S214008FF82A4638680FF088FE40B17F22104B1A7058
S2140090080223337001242046BDE8F8832046FFF784
S21400901875FF04460028F5D1FFF7A0FF0028F2D018
S214009028EBE70724EFE700BF343D0020F0330020CD
S214009038363D0020F8330020F54000200835002093
S214009048353D0020F43300200C35002030B50C46A2
S214009058154A85B01068516802AB002C03C304F1AA
S214009068FF350DD1FEF752FA2B46CDE9000102AACC
S214009078073412F8011D03F8011FA342F9D110E0C6
S2140090882A460A4B0A4913F801098B4202F8010FCF
S214009098F9D1082220460DEB020110F093FC0028B7
S2140090A8E0D005B030BD00BF4BB501000900E00FA9
S2140090B80100E00F002310B50C461A4607480CF0CE
S2140090C834FA2146002000F06FFC054B00222146AA
S2140090D818680FF072FF00B1FEE710BD54B5010026
S2140090E8F033002030B5134B87B001F1080414F8AC
S2140090F8012D8C4203F8012BF9D100256379A2795A
S214009108E17905952078049060780390A07802901D
S214009118E07801902079009007480CF006FA074B93
S2140091282A46214618680FF054FF00B1FEE707B03C
S21400913830BD00BF2A3C00206DB50100F03300208A
S21400914810B50C46002206480CF0EFF9054B002235
S214009158214618680FF037FF00B1FEE710BD00BFC4
S2140091688FB50100F033002008B5012011F0D8FAB9
S21400917810B902480CF0D9F9002008BDA5B50100C1
S21400918808B5012011F0CCFA20B103480CF0CDF94F
S214009198002008BD0D20FCE7C0B5010010B5022070
S2140091A811F0BEFA044650B906480CF0BEF9202065
S2140091B8214611F0A1FA11F06DFB204610BD0520DE
S2140091C8FCE700BFA5B5010070B50F4C0D46237926
S2140091D8834217D86379834214D30C4E3368A3426C
S2140091E80CD00B4B0122002118680FF074FC29469E
S2140091F82046FFF74DFE3460002070BD084600F09C
S21400920855FBF9E70720F8E7F8330020F433002089
S214009218F033002038B5044602200D4611F080FAD7
S214009228D8B9104B1B78012B17D0204600F07AFBD4
S21400923801462846FFF7C8FF044660B92846FFF7E8
S2140092485DFE044658B90146202011F055FA064B33
S2140092589D71064B9D71204638BD0D24FBE7012401
S214009268F9E700BF363D0020D8100020A8100020DF
S214009278F0B589B00D4617461E4600F053FB044667
S2140092884FF4803011F04CFA40BB21462846FFF7D1
S2140092989BFF0446F8B9FF23CDE901008DF804309A
S2140092A840F2011303908DF814008DF81E000C4848
S2140092B8ADF81C302946006801AB04AA0497069648
S2140092C80FF037FC50B90121202011F015FA054B94
S2140092D89D71054B9D71204609B0F0BD0124FAE743
S2140092E8F0330020D8100020A8100020F0B5022087
S2140092F889B011F015FA00B9FEE7344C236803B9B3
S214009308FEE7102011F00CFA2368314D9B880DF10A
S2140093180B018DF80B30012328681A460FF087FDDD
S2140093289DF80B202168023A0023096892B2286843
S2140093380FF07DFD2368274993F8292020208DF813
S21400934814200022CDE906121B681E7811F0E8F9F1
S21400935838B14FF4805011F0D7FA0BF085FE09B0FB
S214009368F0BD2368C6F34016596905AFD9B9102071
S21400937811F0D6F978B12268174B117E9970174903
S2140093880978D97091790097324628680FF0CBFB98
S2140093980028DED1E3E721683B463246897928680B
S2140093A80FF0BFFBF4E7ADF8100096201A691144D9
S2140093B80B4AA1F59B71908003919979CDE9002716
S2140093C803AB324628680FF0B0FBE1E79034002084
S2140093D8F033002020A107002C400020F340002096
S2140093E8204000202DE9F0410D46074600F09AFA85
S2140093F83C4C0146A54200D0FEE72A683A4B9A4202
S21400940800D0FEE7237F9A070DD4642384F829301A
S214009418A079FFF7D9FE054600285FD1022011F093
S2140094287FF968B1FEE794F82930022B84BF023B27
S21400943884F8293094F829304F2BE9D85023E5E7EB
S21400944829464FF4F850294E11F056F9217F84F832
S21400945828503460264C1020C1F3800111F04CF9D6
S214009468236863B1D6F80080D8F814303BB90FF0FB
S21400947816FD40F6B8323368C8F810005A61D4F8BA
S2140094880080B8F1000F0FD03468237FDB070BD4B9
S214009498D4E904031844A03011F072F91FFA88F1D1
S2140094A8024620460BF0BAFF306890F8281011F0F4
S2140094B889F911F0B1FD04460121022011F01CF9CA
S2140094C8FFF714FF204611F0A2FD4FF4805011F06C
S2140094D827F918B1384603490DF077FA2846BDE84B
S2140094E8F08100BF78100020343C00209034002023
S2140094F8AC330020004870477810002038B5154B6C
S21400950802209D7911F00CF908B17F2038BD124C65
S2140095182378002BF9D110222946FFF735FD0028BD
S214009528F3D10FF0BCFC05462378012B05D10FF0CC
S214009538B6FC431BB3F5967FF6D32378022B0ABFF7
S214009548064B7F2018784FF0000308BF40B2237000
S214009558DCE700BFD8100020363D0020353D00204F
S214009568014B1878704700BF293C002008B5044B0B
S2140095781970044B18680FF032FD00B1FEE708BDFD
S214009588293C0020F0330020014B1970704700BFBB
S214009598333D002010B50C4649B1064B186802F05A
S2140095A8A9FE0A2390FBF3F02070002010BD0720C8
S2140095B8FCE700BFF033002021B1034B00201B78E6
S2140095C80B70704707207047F3400020014B0020BF
S2140095D819707047F34000200020064B1870064BA1
S2140095E81B782BB94FF47A7301205A43FFF7CCBC8B
S2140095F805207047F4400020363D0020F0B5DDE930
S21400960805540BB105B104B9FEE7134903F1100779
S2140096184A7001F10C02164618685968083303C6E2
S214009628BB423246F7D12B460C4D03F110062A46AC
S21400963818685968083303C2B3421546F7D123465B
S214009648074C03F11005224618685968083303C208
S214009658AB421446F7D1F0BDB0330020CC3300201F
S214009668DC33002010B50C4611F0D6FC024B5C60CB
S214009678BDE8104011F0CBBCB033002010B50C4646
S21400968811F0CAFC044B5A68A24238BF5C60BDE8B9
S214009698104011F0BCBC00BFB0330020014B0020C6
S2140096A819607047AC330020014B1960704700BF43
S2140096B8A83300202DE9F04706466A4FDFF8D88120
S2140096C838460BF049FD002838D04FF4F85011F012
S2140096D827F808B34FF4807011F022F8624F054659
S2140096E8002800F08B803B6800211B684FF48070D0
S2140096F81B785E4D13F0200F08BF0025002410F0DD
S214009708FBFF002339682A46C1E90433304623465E
S2140097180DF062F90BF0A8FC554B1B78012B40F0B6
S2140097289E80544B1A78022A40F099800022524CA8
S2140097381A702378FF2B40F08680FEE788F8000032
S21400974838460BF0EEFC054600B9FEE74B4C037BAB
S214009758E27DC3F3800363F34102E275037B3C2199
S21400976803F0FB030373E27DDB0963F30002E27593
S214009778037B03F07F0303734378A371034613F850
S2140097880C2BA280236090F903303D4A6375137052
S21400979883783C4AA375137003793B4A84F82830CB
S2140097A84B43D118D35CD0F8089023758B68236197
S2140097B8FFF7ACFA814528BF01F1FF31C4E90291F1
S2140097C89EB194F82890DFF8B4A050460BF01EFC23
S2140097D858B95146304698F800200DF0EFF894F83E
S2140097E8283013B9B9F1FF0F06D0294627480BF0E1
S2140097F8EEF80BF039FC63E79946E6E74FF400709D
S21400980810F08EFF044658B129464FF4007010F049
S21400981873FF0F2421461E480BF08AFE002570E7CA
S2140098284FF4806010F07CFF014630B121464FF4BB
S214009838806010F061FF0E24ECE74FF4805010F0C3
S2140098485BFF0B24E6E7134B3046197849B20DF058
S214009858CFF8FF232370BDE8F0470BF005BCBDE842
S214009868F08700BFA434002090340020A810002001
S214009878343D0020363D0020F4400020D81000205B
S214009888323C0020333C0020B033002094340020C3
S214009898DEB50100353D0020B33C0020024B0146F2
S2140098A818680FF0E7BB00BFF033002008B5054B7B
S2140098B800EB8000410018680FF054FA00B1FEE78C
