S02B00007263702D756172742D3830323135342D626C656863695F646F6E676C65705F76342E362E302E7333CA
S31508006000C80A0020416D000809D500080DD500080A
S3150800601049C9020811D5000819D50008679C020865
S31508006020679C0208679C0208679C0208E18E0308C1
S315080060301DD50008ECC70308718E0308ADBD03081B
S3150800604035710008679C0208679C0208679C02086D
S31508006050B58C0008679C0208679C0208679C0208C2
S31508006060679C0208679C0208D1CC0008679C020856
S31508006070679C0208679C0208679C0208679C0208DE
S31508006080679C0208679C0208679C0208679C0208CE
S31508006090679C020815770008679C0208679C020837
S315080060A0679C020815750008F5740008679C0208C5
S315080060B0679C020851720208897D0208ED80030870
S315080060C0E98003081975020803810308F1800308AB
S315080060D0597D0208F5800308C97D0208357E020845
S315080060E0679C0208679C0208679C0208679C02086E
S315080060F0679C0208679C0208679C0208679C02085E
S31508006100679C0208679C0208679C0208679C02084D
S31508006110679C0208679C0208679C0208679C02083D
S31508006120679C0208679C0208679C0208679C02082D
S31508006130679C0208679C0208679C0208679C02081D
S31508006140679C020859AD0008679C02084DBD030804
S3150800615019570208679C0208CF800308D5800308F0
S31508006160679C0208679C0208679C0208679C0208ED
S31508006170F0B5114A114C124E00F00105E3695F07AC
S3150800618013D40DB9334213D103EA00078F4207D15E
S315080061900B4A1A40002A0CBF00206FF00100F0BD20
S315080061A0013AEBD16FF00200F9E74FF0FF30F6E75E
S315080061B06FF00100F3E700BF8096980000000350D7
S315080061C0020001000B4B70B5D96911F480310DD16D
S315080061D001244FF48072084E084DF46020462C6462
S315080061E01A61FFF7C5FF3464EC6070BD6FF00100FB
S315080061F0FBE700BF000003500010035000200350C7
S315080062004FF4803238B50E4B0E4C9A66E56941F666
S31508006210713315400122E3630B4B0021DA60022338
S31508006220606121202361FFF7A3FF10B92120FFF742
S315080062309FFF0122054BDA600DB10023E36338BDE9
S315080062400090005000000350001003500020035037
S3150800625070B5134C6061E3695B071ED40E4656F8A9
S31508006260043B8D18A361AE420BD1042300212120E3
S315080062702361FFF77DFF58B9BDE870402120FFF77D
S3150800628077BF08210846FFF773FF10B1042323617F
S3150800629070BD56F8043BA361E5E74FF0FF30F7E71A
S315080062A0000003502DE9F84315464FF48032184B89
S315080062B089469A6603F51C33DF690646174041F698
S315080062C07132DA63012203F58053DFF84C80DA6015
S315080062D055B9284601220F4BDA601FB10022A3F5F3
S315080062E00053DA63BDE8F88306F5005404EA0804A7
S315080062F0A41BAC4228BF2C46494622463046FFF727
S31508006300A7FF0028E6D12644A1442D1BE0E700BFDD
S31508006310009000500020035000E0FFFF000000003E
S31508006320000000000000000000000000000000005F
S315080063302DE9F84F40220021294832F0AAFA3022E6
S315080063400021284832F0A5FA00209FED237B264B32
S31508006350264E274ADFF888B0DFF8ACA0DFF8AC9005
S31508006360DFF8AC80DFF8ACE01E4FA3F1180C24254B
S31508006370002145430BEB401443E9054A0CEB0504A1
S3150800638043E9039843F8181C43F804EC2177216283
S31508006390182404FB007442F8144C164C42F8181CD6
S315080063A042F8104C144CA6EC027B42F80C4C134CE9
S315080063B043F8241B42F8084C114C42F8044C114C83
S315080063C02C442177216242F8241B08B1BDE8F88FD6
S315080063D00120CCE7AFF300800000000000000000B9
S315080063E02C6D0020FC6C0020CC6C0020E8120020EC
S315080063F0846C0020EDE20008B7C90208D5C9020876
S3150800640029CA02086C6C002015E30008D9C90208DD
S315080064109FC90208FBC902082DE9F043022089B08A
S3150800642033F0A2FB00B9FEE7DFF8E091D9F80030B7
S3150800643003B9FEE7102033F097FB014600B10121AE
S31508006440222033F093FDD9F800306B4C9B880DF170
S315080064500B018DF80B30012320681A4630F0EEFF49
S315080064609DF80B20D9F80010023A0023096892B269
S31508006470206830F0E3FFD9F80030604993F8292006
S315080064808DF814200022CDE906121B681D7805F048
S315080064902005954214BF4FF0010890461FD020688A
S315080064A030F0FEFC00286DD0206830F0F9FC21F0B1
S315080064B0DDFE02460B464CA1D1E9000122F07AF82E
S315080064C0064607980F4621F0D1FE02460B4630468F
S315080064D0394621F08FFD22F055F9012507902068ED
S315080064E030F0ECFC9DF80B3000284ED0981DC0000B
S315080064F021F0CCFE3EA3D3E9002321F031FF064666
S3150800650020680F4630F0DAFC21F0B0FE02460B4652
S315080065103046394622F04EF8064607980F4621F0CF
S31508006520A5FE02460B463046394621F063FD22F0A9
S3150800653029F90790202033F017FB002846D1D9F80F
S31508006540003005AE5A6972BB102033F00DFB08B354
S31508006550079BD9F8002003F5FA73117E0793284B99
S31508006560997028490978D970917900962A46206841
S3150800657030F0C0FA014648BB252033F0F7FC09B0D5
S31508006580BDE8F0830798C030A7E70798063300EB05
S315080065904310CEE7D9F8001033462A468979206891
S315080065A030F092FAE6E71969ADF810000A44962128
S315080065B01548A2F59B7281809979CDE90006039268
S315080065C020682A4603AB30F0A0FAD3E741462620D6
S315080065D033F0CCFC4FF4805033F06CFB09F00EFD21
S315080065E0CDE700BFAFF300800000000060E366411E
S315080065F00000000080842E41486E002020A107007C
S31508006600C0BA0020E5BB0020B4BA0020C47100203F
S31508006610F8B5012033F0A8FA0446002840F0ED80CA
S31508006620794F7A4B7A4DC7E9003007F11003BB6002
S3150800663041F60B232860AB8009F03CF82146384622
S3150800664017F0DAF8044600B9FEE7724918F050F870
S3150800665000B1FEE70221204630F003FC00B1FEE758
S3150800666020466D4918F0F6FA00B1FEE701212046EA
S3150800667031F0F0F800B1FEE70121204631F000F9CB
S31508006680064600B1FEE70146B422644832F001F935
S3150800669080233246204607F1140130F0E5FE8028B3
S315080066A000D0FEE75E4F012030F009FA54A3D3E983
S315080066B000234FF0FF304FF0FF313C6008F0CCF874
S315080066C03146284608F0ECF80121084633F038FA36
S315080066D00121386830F0E3FA00B1FEE7514B524A1F
S315080066E098801860514B0221988051481A6027F00B
S315080066F0F2F900B9FEE74F494D4827F0FEF9C0B157
S31508006700FF2000244C4B4D494D4A83F82800196058
S31508006710DA6083F858007F3110326FF063009C808E
S315080067209C861963DA630AF047FA2B790B2B01D991
S31508006730FEE7FEE76B790A2BFAD9424B1D6004F097
S315080067407FFA204608F0A8FF08223868114630F07C
S315080067505FFC00B1FEE708F05DFF24F014FA04467A
S3150800676024F02DFA08B144F40034204624F00DFA3A
S3150800677008F0CCF824F01AFA80F00102D2B2082107
S315080067803868D20030F044FC00B1FEE72E4B1B7887
S31508006790CBB90022002341F20D012C4808F05CF821
S315080067A0002008F019FF0022294B10211A70294BE6
S315080067B0294A2A481A602A4A5A60FF221A8127F06B
S315080067C08AF940B9FEE724F0F1F90028E1D041F250
S315080067D00D031E4ADFE72349204827F08EF900B942
S315080067E0FEE710218C20204A26F044F800B1FEE787
S315080067F01E48BDE8F84027F01BBCF8BDAFF3008083
S315080068000AE020FFE20300003071002021A00308FF
S315080068102871002007001100F8EB0308786D0020A6
S31508006820486E0020B0130020B79300208013002084
S31508006830D870002011D0020820130020B89200203A
S315080068400013002024710020E3BB0020C00D0300C4
S3150800685039940020CC7000204C6E0020D87100209E
S315080068608002FF008DBD0308C8710020D9EB03081C
S31508006870002370B5424C05468AB0E36318B1008818
S3150800688023600BF093FF0CF0A3F93E4830F0A3FA0F
S315080068903D4E3E4B304633603D4B73600CF08AFBF1
S315080068A00021304616F0A8FF33A3D3E90023A062DF
S315080068B0C4E9062324F061F9D4E9062319431043F1
S315080068C0C4E90601CDE900014FF0FF334FF0FF326E
S315080068D0A06A30F086FB02224FF0FF31A06A30F042
S315080068E097FB01200BF026FC4FF400730022294980
S315080068F0A06A30F0B9FDB0F5007F39D100239422A3
S31508006900079309933C23CDE903320593962306930F
S315080069105023A06A03A9089317F038FC35B3287CDE
S315080069200CF068F90546F0B9A06A31F001F80CF0E8
S31508006930F9F90BF0E1FB20B14FF48070002111F05A
S3150800694057FF0BF0E9FB20B14FF40060002111F06E
S315080069504FFF2FF0D8FE012030F0B1F80E4A0F494C
S31508006960A06A03F07BFF28460AB070BDFF20D7E770
S315080069700725F8E7AFF300800DD501552000000084
S31508006980F0570020690345EC48830020791F010869
S315080069905883002030810020A31E0308E31E030845
S315080069A00348044B834202D0034B03B11847704790
S315080069B014BC002014BC002000000000064B074948
S315080069C0C91A891048BF0131491003D0044B0BB1CD
S315080069D001481847704700BF14BC002014BC0020AB
S315080069E00000000010B5064C237843B9FFF7D8FF1E
S315080069F0044B13B10448AFF300800123237010BD84
S31508006A007692002000000000F04A040808B5054BFD
S31508006A101BB105490548AFF30080BDE80840FFF7FC
S31508006A20CDBF00BF00000000C85D0020F04A040882
S31508006A30A3F5803A704700BF174B002B08BF134BCE
S31508006A409D46FFF7F5FF00218B460F461348144A6B
S31508006A50121A31F01EFF0E4B002B00D098470D4B33
S31508006A60002B00D098470020002104000D000D4897
S31508006A70002802D00C48AFF3008022F09BFC2000CF
S31508006A80290023F092F822F0A7FA00BF00000800B8
S31508006A900000000000000000C80A0020C80A002004
S31508006AA0A09500200000000000000000014B1868B7
S31508006AB0704700BFE05D002010B5002026F0CCFD31
S31508006AC00B4C206060B1012026F0C6FD606038B12D
S31508006AD02368084A13604BB96A21074B074A02E044
S31508006AE05821074B054A074822F050FA10BD00BF47
S31508006AF0E45D0020E05D0020BFC70308C9C703089E
S31508006B00A8C70308B6C703080221014809F07EB9D9
S31508006B10E45D002010B504460A4B1868204001D0F1
S31508006B2003F062FF084B1868204001D024F046F8AD
S31508006B30064B1868204003D0BDE8104024F04EB834
S31508006B4010BD00BF64BA002068BA0020C4680020DF
S31508006B5013B50CF087FA044690BB4FF400500CF0BE
S31508006B605BFA03200DF09EFD2BF05DFA23F026F864
S31508006B702BF0C1FC13F07AF82DF01BF92EF0F1FB7F
S31508006B802CF040F913F0ACFE0CF004FA6B460D4AF3
S31508006B9092E8030083E80300184603F039FF2BF058
S31508006BA0AAF92246032104202BF03BFA03210420EC
S31508006BB010F090FD0A2002B0BDE810400CF0F2BAC1
S31508006BC002B010BDE0C7030810B52A4C02F0A8FDB4
S31508006BD002F0F2FE236F012023F0070343F00303BC
S31508006BE0236702F013FF244B01219B6A3E20DB0139
S31508006BF05EBF4FF48032214B9A62D4F8203123F0DD
S31508006C00070343F00203C4F82031D4F8283123F0EF
S31508006C10070343F00203C4F82831D4F8403123F0BF
S31508006C20030343F00103C4F84031D4F8603123F07C
S31508006C30030343F00103C4F8603102F0DFFAD4F825
S31508006C404032002023F0030343F00103C4F8403226
S31508006C50D4F8003223F0070343F00103C4F80032E6
S31508006C60D4F8083223F0070343F00103C4F80832C6
S31508006C7010BD00BF008000500040005A0060005A56
S31508006C8007B501A803F0F8F99DF80530012B14D1D2
S31508006C909DF804308BB94FF48012134B1349586E84
S31508006CA003F580535A664B6B23F0E05343F0406379
S31508006CB04B63C3025CBF0E4B5A6606F0E1FB06F057
S31508006CC06BFB24F061F806F08FFBFFF77DFF06F0FB
S31508006CD079FB00F0F1F909F023FA33F035FC03B03B
S31508006CE05DF804EB01F0F0BE008000500040005A49
S31508006CF000A00050014B1878704700BF779200201B
S31508006D0038B5054623F03DFF044630B9284617F046
S31508006D10D9FF2346024A137038BD02231846F9E7FD
S31508006D20779200200348044A0449121A921022F066
S31508006D309BBF00BF706100083063000840960020C2
S31508006D4008B500F02FF8FFF7EDFF124B12498B42FA
S31508006D5012D30020114B12498B4218D3FFF76CFE51
S31508006D60186850F82240586840F82240013298685E
S31508006D708242F5D30C33EAE70022F8E71C6844F8A8
S31508006D80220001325C68A242F8D30833E4E7002205
S31508006D90F8E700BFF84A0408044B0408044B040843
S31508006DA0044B04084FF48041124B134A70B59A609D
S31508006DB0D3F88820114D42F47002C3F88820104A8F
S31508006DC005F5005491664FF0FF3222660D4A626659
S31508006DD00222C3F8D020BFF34F8FBFF36F8F4FF453
S31508006DE04036002006F082FB0020E66006F062FBD3
S31508006DF02E6170BD00ED00E00060000800800044D0
S31508006E0000900050F7FF3700054B1860054B1B6FC5
S31508006E1003F00703032B01D132F094B8704700BF83
S31508006E2034BA0020008000504FF000639B6A03F1DB
S31508006E307842B2F5C04F03D21968064A914203D088
S31508006E400023037083607047012202709A689B6969
S31508006E504260F7E707B0CD5E0020054B82B01B689D
S31508006E609AB262F30F001B0C63F31F4002B070471F
S31508006E7000000020024B034A1A6025F076BC00BFCA
S31508006E800000002002020FF073B54F4B04461A7833
S31508006E901AB102221A7002B070BDCDE9002200288C
S31508006EA0F9D001261E7034F02CFD484D484B186069
S31508006EB01CF006FE2B785BB901F006FE40B9454882
S31508006EC00823454A4549006801F04EFD00B92E7071
S31508006ED0434B5A6E62619B6E424AA3614FF48043EC
S31508006EE09366414B5968E16140499960196E216082
S31508006EF0596E6160D3F87011A160196CE160596C24
S31508006F0021613B49086C1864496C59640121516632
S31508006F101B6E9C0441D5374AD368D807FCD4364B38
S31508006F201A68531C3ED04FF480139340334A1366B5
S31508006F304FF400730426314C2666236622F0BDFE04
S31508006F4001300DD022F0B9FE40F20113984207D065
S31508006F504FF4005323664FF480432366C4F87061E8
S31508006F600823264C684623664FF4805323664FF061
S31508006F70006323664FF4002301A9636622F081FEAD
S31508006F80009B2366019B63662B78002B83D0124BEC
S31508006F901A6822665B6863667DE7194AD368D9076B
S31508006FA0FCD4BCE7174B1B78002BC1D14FF40072F9
S31508006FB00C4B5A6603F5A6235B68002BB8D14FF431
S31508006FC080120E4B1A66B3E7799200207A92002057
S31508006FD00C5E00205CBA0020105E002000710800DC
S31508006FE000800050009000500080004455CEAC0050
S31508006FF000C000540000044038BA00200090004445
S31508007000000004507892002070B5224D04462E7870
S31508007010012E02D001232B7070BD0028FCD022F06F
S315080070204CFE01300BD022F048FE40F20113984284
S3150800703005D0194B194A5E66D368DE07FCD4226868
S31508007040174B1A6662685A66A268C3F87021E26826
S315080070501A6422695A64E269D00744BF00229A601A
S31508007060104B1A68013207D10F4A127822B90F4914
S315080070704968C90748BF1A6062690D4B5A66A26912
S315080070809A661CF025FD0B4B186834F035FC002376
S31508007090C1E700BF7992002000900040000004403C
S315080070A00080004438BA00207892002000C00550BD
S315080070B0008000500C5E0020F8B54FF00066B36AF9
S315080070C003F17842B2F5C04F26D21A68144B9A4299
S315080070D022D1144D2C7814F0FD0402D00024204649
S315080070E0F8BD4FF480371048FFF7CEFE204606F06D
S315080070F0FDF90E4B2046DF6006F0DCF90C4B1F61EC
S31508007100B36ADB69984704460748FFF77DFF002CFA
S31508007110E5D101232B70E1E74FF48174DFE700BF67
S3150800712007B0CD5E78920020EC5D002000A00044F8
S315080071300090004413B5204B1B7803B9FEE70023E3
S315080071401E4CCDE900336A4608231D49206801F024
S315080071500BFCF8B91B4AD2F84031D2F840211F2B54
S315080071604FF0010311D9203A9340019A1A4301922C
S3150800717008236A461249206801F0B2FB124B134AEB
S315080071801A6025F0F2FA02B010BD9340009A1A432D
S315080071900092EDE72D28F1D10A4AD2F84031D2F80B
S315080071A040211F2B4FF0010385BF203A934093409F
S315080071B0019398BF0093DBE7799200205CBA002020
S315080071C00071080000800044000000200B020FF048
S315080071D0BFF34F8F0549064BCA6802F4E0621343B2
S315080071E0CB60BFF34F8F00BFFDE700BF00ED00E0A7
S315080071F00400FA052DE9F04104460C254FF0010874
S31508007200124E0CB314F001000BD0002024F0010438
S3150800721005FB00625768002FF3D09168C0B2B847E3
S31508007220EFE72246013020284FEA520201D0D30761
S31508007230F8D508FA00F20F2824EA0204E8D910382B
S3150800724005FB0062B432E5E7BDE8F081185E002070
S3150800725008B50C4823F09AFD192006F039F928B12B
S31508007260192006F043F9192006F024F91A2006F029
S315080072702FF928B11A2006F039F91A2006F01AF95A
S31508007280002008BDE8E803082DE9F0410E469046BF
S31508007290054618B30F2923D80378E3B1012B03D089
S315080072A0022B18D0032B1BD13F236A78D340DB0768
S315080072B016D50D4BD3F81043A4B934F022FB074674
S315080072C042462846314602F0D1FF384634F014FBD0
S315080072D02046BDE8F08140F2FF33E6E72224F7E7CF
S315080072E02124F5E70224F3E700C0035010B504464D
S315080072F0E8B10378C3B1012B03D0022B14D0032BBA
S3150800730017D13F236278D340DB0712D534F0F9FA58
S315080073100122637821789A4030235943064B5A5004
S3150800732034F0EAFA002010BD40F2FF33EAE72220E3
S31508007330F9E72120F7E700BF40D0035010B504460F
S31508007340E8B10378C3B1012B03D0022B14D0032B69
S3150800735017D13F236278D340DB0712D534F0D1FA30
S315080073600122637821789A4030235943064B5A50B4
S3150800737034F0C2FA002010BD40F2FF33EAE72220BB
S31508007380F9E72120F7E700BF40E003502DE9F04177
S315080073900D46164698460446002851D000294FD077
S315080073A002784AB1012A42D0022A05D0032A3ED0E1
S315080073B0FF2A07D0212041E040F2FF336278D3400C
S315080073C0DA07F7D5022E01D9042EF3D134F099FA4B
S315080073D023780746FF2B05D032462046296802F057
S315080073E0A7FF28602B68013309D12378FF2B06D124
S315080073F0144B6078D3F8241423F0D1FA286029684E
S315080074004B1C17D00C23104A03FB0122069BC2F81B
S31508007410048093602378FF2B04D001230B4A8B400A
S31508007420C2F82434384634F067FA002006E03F23D1
S315080074306278C4E7384634F05FFA2D20BDE8F0815B
S315080074402220FBE700C00350185E002000D003503E
S315080074502DE9F0410D4690461F460446002842D0C5
S31508007460002940D0017849B1012933D0022905D035
S3150800747003292FD0FF2907D0212032E040F2FF331D
S315080074806278D340DA07F7D534F03BFA2378064614
S31508007490FF2B05D042462046296802F0CFFF286018
S315080074A02A68531C19D00C23104903FB0211069BAA
S315080074B0C1F8B870C1F8BC302378FF2B05D001237A
S315080074C0103293400A4AC2F82434304634F014FA8B
S315080074D0002006E03F236278D3E7304634F00CFA02
S315080074E02D20BDE8F0812220FBE700BF185E0020B2
S315080074F000D0035008B502F09FFE054B00F055304A
S3150800750020F05020C3F82004BDE80840FFF772BEFB
S3150800751000E0035008B502F08FFE054B00F0AA30D4
S3150800752020F0A020C3F82004BDE80840FFF762BE9B
S3150800753000E0035038B5124B05461B78DBB1E0B1C5
S3150800754034F0DFF90F4A00231146147B54B92B6037
S3150800755001251A0101EB03131D738C5034F0CCF985
S31508007560204638BD0133082B02F11002EDD134F064
S31508007570C3F90548F5E70548F3E70548F1E700BF0D
S315080075807B92002080600020048000F0028000F0DA
S31508007590018000F00D4B10B51B78044693B10728FF
S315080075A012D834F0AEF90A4B03EB04131A7B2AB14E
S315080075B000241C7334F0A0F9204610BD34F09CF961
S315080075C00448FAE70448F8E70448F6E77B920020FF
S315080075D080600020068000F0028000F0018000F044
S315080075E0154B13B51868002301908DF8043034F054
S315080075F088F9124B1C7824B134F07EF9104802B091
S3150800760010BD01221A7034F077F90E4B01A81C73CD
S315080076101C7783F82C4083F83C4083F84C4083F869
S315080076205C4083F86C4083F87C4008238DF807306B
S3150800763002F008FC2046E2E73CC803087B920020DB
S31508007640038000F080600020F8B50D4D2D7885B1D7
S31508007650072810DC0B4D060105EB0014277B67B1E4
S31508007660AB510025069BA560636002F01BFC28460B
S31508007670F8BD0548FCE70548FAE70548F8E700BFFE
S315080076807B92002080600020028000F0018000F0DC
S31508007690078000F00A4A08B512785AB107280BD8AD
S315080076A0084A02EB00131B7B43B1002102F0BCFB26
S315080076B0002008BD0448FCE70448FAE70448F8E750
S315080076C07B92002080600020028000F0018000F09C
S315080076D0078000F00A4A08B512785AB107280BD86D
S315080076E0084A02EB00131B7B43B1012102F09CFB05
S315080076F0002008BD0448FCE70448FAE70448F8E710
S315080077007B92002080600020028000F0018000F05B
S31508007710078000F0184B2DE9F0411F6D5B6D1F4087
S3150800772000D5FEE701260025144CDFF858803742BD
S3150800773018D02368C8F85060A3B1A168284601315B
S315080077406268A1609847637B012B0BD150B90C4B3B
S3150800775003EB45131A7B60F341021A731A7F60F331
S3150800776041021A770135082D4FEA460604F110043E
S31508007770DDD1BDE8F08100BF000004508060002024
S31508007780805F0020002004501FB54FF6FF730F28B6
S31508007790ADF80830039009DC00910022084B03A9D4
S315080077A002A8FFF7F3FD05B05DF804FB1038039057
S315080077B000910022024B03A902A8FFF749FEF2E74F
S315080077C0DF9E02082DE9F04F144606460D469B46F5
S315080077D0C36B87B001225B6902A960689847F36B9F
S315080077E001225B6903A92846984702A822F05AFF96
S315080077F0074648B10023A37563754FF0FF33A360AE
S31508007800002007B0BDE8F08F03A822F058FF012337
S31508007810A375237E04EBC303DD611F846368AB4253
S315080078200ED1206003A822F06CFF4FF0FF332075BD
S31508007830A360237D043B022B26D80023A375DFE72C
S3150800784023681A1A53425341A37503A822F059FF15
S31508007850237D834218BFA77503A822F034FF074685
S3150800786002A822F030FF874218BF002303A818BFDA
S31508007870A37522F030FF074602A822F02CFF8742A4
S315080078801CBF0023A375D4E703A822F01CFF80B110
S31508007890F36B022228465B6904A9984704A822F0DC
S315080078A021FF0346207D032839D8DFE800F0383861
S315080078B0040903A8F3E7CC22237E04EBC3031A8446
S315080078C001F07AF9109B187003A8277E22F0EFFEC4
S315080078D004EBC70787F82200237E03A804EBC3033B
S315080078E0B3F8209093F8227022F0EDFE804603A8A4
S315080078F022F0F1FE8246B8F1000F15D0F36B022292
S3150800790028465B6904A9984704A822F0B0FE60756A
S31508007910637D6BB90023A3754FF0000838E0227E1B
S3150800792004EBC2021384CBE703A822F08BFEEEE732
S3150800793094F81680B8F1000FEED0B9F1000F09D10E
S31508007940DFB10123627EE375002A44D19F4218D134
S31508007950677614E0736C05EB0A02594285EA020061
S3150800796008421CBF0021A175591E0A409B1A994559
S31508007970D0D8A37D002BE3D1CEE7E37D43B94FF002
S3150800798000084B4652462946304622F0F6FBA060D0
S31508007990A27D12B123694B4423611449237E0978D9
S315080079A099421ED901332376BBF1000F1BD0D2B101
S315080079B0E37DC3B1B8F1000F15D1032F13D0A16829
S315080079C04B1C10D0109B2246009330460123FFF72C
S315080079D0F9FEA07507E0012FDAD0032F08BFA376BA
S315080079E0CDE70023A375A07D0BE700BF60C8030899
S315080079F02DE9F04F0E46984600238BB004464FF00B
S31508007A00FF31104617468DF8133001F0BFF8B6F56A
S31508007A10801F3BD3B21C53D1E56A6B1C57D1204655
S31508007A20616A22F0F0FA0546B31C18BF0123DFF895
S31508007A3010910193636A626C0293236805A902FB9D
S31508007A40053AE36B05225B695046984705A822F07C
S31508007A50C4FE22F0E7FE504622F0EFFE4FF0000B80
S31508007A60824601464B1C05D0636C81EA0A025B42DA
S31508007A70134232D02946204622F0C5FA029BAB4271
S31508007A804DD0BBF1000F4DD10546D3E7314605AAC7
S31508007A9004F1080022F054FD0146481C10D038466F
S31508007AA001F074F80122394620460DF1130322F03D
S31508007AB0B6FB28B19DF8133088F80030002003E0A3
S31508007AC0237C002BA8D12D200BB0BDE8F08F2368AE
S31508007AD0ED1A636CB5FBF3F5A6E7484601F056F8D0
S31508007AE00DF1130349462046019A22F098FB0346F6
S31508007AF090B1B21C03D0D9F80020B2420CD19DF83F
S31508007B00132003930D4B88F8002049461A68384617
S31508007B1030F0DCFE039B9B46D9F80810A2E7BBF1C0
S31508007B20000FD0D0B6F5801FC8D2314698F800307D
S31508007B307A6804F1080000F057FFBFE75CC803083D
S31508007B40746700202DE9F3410446174698460E4609
S31508007B50194D816AE36A8B422AD04B1C18E02846E5
S31508007B6001F014F80122294620460DF1070322F0F8
S31508007B7056FB30B14346294620469DF80720B847AC
S31508007B80B0B1A9684A1C05D0012E0AD0E36A994209
S31508007B90E5D10DE06968204622F0C2FA012E0146B9
S31508007BA0D8D16B6881EA0302636C5B421A42D1D072
S31508007BB002B0BDE8F08100BF486700202DE9F0411A
S31508007BC0036B9046826B07689A4288BF8363426C50
S31508007BD0436A90B002FB0377C36B0E46052201A9E0
S31508007BE05B6904463846984701A822F0F6FD012845
S31508007BF00146307057D0656CE26B2368606AD2F82C
S31508007C0014C005FB0030052206A9E04706A822F0A5
S31508007C10E4FD01284FF0000523D0D4E90A320121FA
S31508007C209342CDE90B458DF834800E958DF83C10BE
S31508007C302AD11946204622F073FA236B626C143354
S31508007C409B1AE06223630C9B53B99DF83C303BB109
S31508007C50626A616C2368E06B01FB023122F075FDF4
S31508007C600C9DE36B05225B6901A93846984701A874
S31508007C7022F0B3FD30702846236BA26B9A4288BF68
S31508007C80A36310B0BDE8F081237C33B91C490BAA65
S31508007C9004F1080000F0F6FED5E72046194A0BABBA
S31508007CA0FFF750FFCFE7237C23BB2246164904F192
S31508007CB0080000F0E7FE616A204622F0C5F9616A0D
S31508007CC0421C204622F08EF9054620B9236B626CC9
S31508007CD01344143B23632046A16A22F021FA236841
S31508007CE0A062C01A636CB0FBF3F06062204622F013
S31508007CF05AFAB6E700232046044AFFF723FFDAE7D5
S31508007D00ED8300086983000871A2020843A20208ED
S31508007D102DE9F04F9A468BB09DF85030DFF850B1F8
S31508007D200293DBF81030804653450D461646C0F0E0
S31508007D309980D146DBF804300193B9F1000F00F0C1
S31508007D408D80D8F83C3001225B6907A901989847CD
S31508007D5007A822F0B4FCDBF80030984240F0858092
S31508007D6007A822F0B8FC0428074614D107A822F071
S31508007D70B9FC019B029A04463B44002A3FD186423D
S31508007D8012D91446361A4046019922F0C9F9A9EBC8
S31508007D9004090190D1E7D8F83C3002225B690198C2
S31508007DA008A9984708A8E2E7841B544528BF544603
S31508007DB0032C03EB0607AAEB040A4FEA94021CD924
S31508007DC0D8F83C30294638465B69984724F00303BF
S31508007DD004F003061F441D44002ED4D0D8F83C30C6
S31508007DE001225B6908A9384698473246284608A9F9
S31508007DF0354430F06BFD0026C5E72646ECE7074616
S31508007E0000F00302039203442A1804920593049B84
S31508007E10DD1B059BD81B039B9F420FD1002FB2D0B9
S31508007E20D8F83C30012208A95B6998473A462846A3
S31508007E3008A930F004FD78B93D44A4E7D8F83C30E9
S31508007E40012208A95B6998470422284608A930F048
S31508007E50F6FC08B9043FDAE74FF0360948460BB096
S31508007E60BDE8F08F4FF06309F8E74FF06F09F5E7C3
S31508007E70CC6700202DE9F04F99B00F4609920A69A0
S31508007E80416C0E931439D31DB3FBF1F3013302EBA6
S31508007E90C302036B04469342C0F00D820023DFF849
S31508007EA020940D93E36A48461946079300F06EFE40
S31508007EB0D7E9033604930E9B022B4ED1CC2E40F005
S31508007EC08A81099B002B42D03946204622F03CFA8B
S31508007ED0656C079A6B1E13401490ED1AE36B01222A
S31508007EE05B6916A97868984716A822F0ECFB002863
S31508007EF00CBF04230823782E06933DD901230025B9
S31508007F004FF0080A05933B6805990E98C9F80030A2
S31508007F10C9F8106022F0F9FB4FEA9A031093002380
S31508007F20DDF81CB089F814000B930F9308930C9393
S31508007F30616C4A1E0BEA02028B1A002E38D0554491
S31508007F40AB4240D8236B5B1A13442363ABE0049B14
S31508007F501B68149308230693D0E7656C079A6B1E73
S31508007F601340782EA5EB030516D8FB7D7BB9099B34
S31508007F70002BB3D104230693331DAB4210D9A6B107
S31508007F80082DBBD804250023AA460593BBE7099B01
S31508007F90002BA3D10823EEE7099B002B9ED1D9E736
S31508007FA0002505954FF0040AADE704250596F9E77F
S31508007FB05345C7D3B0460BEB0A030393089B002B24
S31508007FC018BF032313E0A3EB0A039E42B0460BEB4C
S31508007FD00A0228BF98469E420392EFD90123D9F890
S31508007FE0102089F81730964271D1C9F804B0089361
S31508007FF099F81730002B6CD099F818200899D31CDB
S3150800800009EBC3030132C3F804B0A3F808809972D8
S3150800801089F81820B8F1000F14D00E9B022B5BD1FB
S315080080200B9B7BB90F9B4344032B0BD9E36B0122B4
S315080080309B69039814A998470546002840F03D8196
S3150800804001230B93089B16A80193059B009399F8A7
S3150800805014204346396800F04FFDE36B58469B6988
S31508008060109A16A99847051E0D9B18BF5B465246DF
S315080080700D9359464346204622F07FF8236B08F1B4
S315080080800302A3EB0A0322F003029B1AC9F80800AD
S315080080902363002D40F011810F9BDDF80CB043449B
S315080080A0A6EB08060F935946204622F039F8002514
S315080080B08346002E7FF43CAF814A3968936804F101
S315080080C00800E36252680E9B00F08EFCDEE0022395
S315080080D08DE7C9F804B09DE7099B002B30D1049BB6
S315080080E0B8F1030F43440A9327D9DDE90301E36B8B
S315080080F04FEA98029B6998470546002865D118F00B
S3150800810003025FD0049B28F003052B440493039BCA
S315080081101D444FF0FF33049915A8159330F0D6FB8C
S31508008120E36B28469B69012215A9984705460A9BD1
S315080081300493002D86D0039B99E74246039DE8E702
S31508008140039B0A9307F120031193FB7D78689BB183
S3150800815000233D7E0C9AD9B28D4211D9119903F1AB
S31508008160010C31F83310914226D9069907EBC3035F
S31508008170D8690A44104403E00C9B069A1344184431
S31508008180E36B01225B6915A99847159B0122139396
S315080081900C9B0A9804330C93E36B13A99B699847C5
S315080081A0039B0A9A43449B1A042B054607D978B9B8
S315080081B0134604330A93C8E76346521ACBE70A9B69
S315080081C00393B6E70A9B04933CE70A9B0493B2E73A
S315080081D00A9B0393AFE7702604F108030393236809
S315080081E0079A606CA2EB030ABAFBF0FA00FB0A30A6
S315080081F022F023FBE16A8046204621F091FFA26A1D
S3150800820082424AD0626CD9F80830511E0B40216B65
S315080082102568891A0B4423630D9BE0625D1BB5FB39
S31508008220F2F5AA4536D1079BB3EB080A12D0E36BE1
S315080082304FEA9A0241469B6998478346E36A079A3A
S315080082405344E362236B03989B1A4344236322F047
S3150800825048F9DA462368616CE06B01FB053122F0C8
S3150800826061FA204621F09FFE204621F09CFF2063FC
S31508008270BAF1000F11D03A69616CD31D1439B3FBFA
S31508008280F1F3013302EBC3029042A8D2304619B08B
S31508008290BDE8F08F4FF0000ADCE73A69616CD31D40
S315080082A01439B3FBF1F3013302EBC302236B934298
S315080082B0BFF4F8ADEAE71C26E8E72E468CE700BFD0
S315080082C0746700202DE9F3471E4643690446B34206
S315080082D0884617469DF828903DD300258DF8075007
S315080082E0204621F02CFED4F830A082450AD2236A13
S315080082F0B5EB430F06D2002220460DF10701FFF722
S315080083005DFC30B39DF80730012B05D100222046CD
S315080083100DF10701FFF752FCB9F1030F06D03146FC
S31508008320204621F0F7FD256B854218D30D4D4FF0F9
S31508008330FF31284600F02AFC4B46002229462046F3
S31508008340C5E90376C5F8008002B0BDE8F047FFF737
S3150800835091BD0135C4E7622002B0BDE8F0871C2054
S31508008360FAE700BFA0670020032A2DE9F341064675
S315080083700D4617461C4606D1237A012B23D0012029
S3150800838002B0BDE8F081DFF86080096842460DF169
S315080083900703FFF72DFB60600028EDD19DF8072045
S315080083A0237A032AE8D0D8F804106A689142E3D100
S315080083B0012B2969D4F80CC007D172690CEB0103AB
S315080083C0934202D92074207CDAE708316144E160DF
S315080083D03B46012229463046FFF74CFD60600028DF
S315080083E0CAD00020CCE700BFA06700202DE9F341E2
S315080083F0089C032A1746266806D1237A012B24D01F
S31508008400012002B0BDE8F081DFF890803046424690
S315080084100DF10703FFF7ECFA60600028EDD1256837
S31508008420D8F80400A96AD5F844C04840CCF100033E
S315080084301840227AE1D1012A09D1E268D8F8103029
S3150800844013447269934202D92074207CD9E72868BC
S31508008450EB6A1B1A081AB3FBFCF3B0FBFCF0834269
S315080084600BD1706CF36A421E1340326B121A134416
S315080084702846336321F054FEE862D8F81020E368F2
S3150800848008321344E36001223B4604492068FFF79B
S31508008490F1FC60600028B0D00020B2E7A067002099
S315080084A02DE9F04F4FF0FF334FF6FF7200250446D3
S315080084B000F10806C0E909238BB0C36205620563AB
S315080084C030460F4622F00DF8204621F06CFD20BB01
S315080084D02046394621F0E7FD204621F064FD20BB01
S315080084E05E200BB0BDE8F08FE26B2368606CD2F8B3
S315080084F014C000FB0530052205A9E04705A822F0AF
S315080085006CF9012828D12946204621F09DFD421CF8
S315080085102946204621F066FD0135E3699D42E3D3ED
S31508008520204621F040FD0028D2D000254FF0FF3923
S315080085304FF6FF73CA46A846C4E90853E369984547
S3150800854014D3A5EB0905012D36D84FF6FF72636AD9
S31508008550934246D16720C4E722F069F90028DBD0A8
S315080085602946204621F070FD0246D1E72368E26BD2
S31508008570606C576900FB0830052205A9B84705A8AD
S3150800858022F02BF9834605A822F0FEF8074658463E
S3150800859022F048F968B1574538BFC4F82480B94570
S315080085A028BFB946BD4238BF3D46BA46236A01339D
S315080085B0236208F10108C1E74FF6FF7300256362DD
S315080085C0E3699D42C1D2676C2068E36B052207FB0D
S315080085D005005B6905A9984705A822F0D5F8013575
S315080085E0EEE7E26B676C2068694607FB030055698E
S315080085F00522A847684622F0C7F8626A2368606CB5
S31508008600504D00FB023022F018F94FF0FF33A062FC
S31508008610E3622A466FF00101204605ABFFF7E8F949
S3150800862000284FD1AD6829462046E56221F097FC1F
S31508008630206320B92046E16A21F072FDE0622946EE
S31508008640204621F06DFD0546A36A9D423CD1656929
S31508008650626CE91C143AB1FBF2F14FF0000805EB25
S31508008660C1050335B5FBF2F5C1460235E3699945FF
S315080086703CD3A8455AD22046616A21F0C4FC00279B
S31508008680064604F1400AB84512D8626C2368694662
S3150800869002FB0639E36B05225B694846984768463C
S315080086A022F072F8534602464946E06B22F0C7F8B4
S315080086B03146204621F0A7FC0137AF420646E2D3F1
S315080086C064200EE7A56AAEE72946204621F047FC56
S315080086D0236B2946034407462363204621F020FDE1
S315080086E00546002FB0D1C4E90B07ADE7636C2768D0
S315080086F0052203FB0977E36B05A95B6938469847AA
S3150800870005A822F06AF822F08DF860B1384622F002
S3150800871094F80146204621F022FC636C143B9842EB
S3150800872008BF08F1010809F101099FE7304621F061
S31508008730D8FE002320461946034AFFF703FA00200D
S31508008740CFE600BFA06700200DA202080023624AF8
S315080087502DE9F04117680E460446136018B921251D
S315080087602846BDE8F08190F834500DB309680268D0
S31508008770914240F0A98071684268914240F0A48015
S31508008780B1688268914240F09F80F168C268914260
S3150800879040F09A8031694269914240F09580B1690A
S315080087A0C26B914240F0908072691D468261D7E79C
S315080087B050222946D0F8388030F06BF8D6E90212F4
S315080087C0336804F1080023607368C4F8388063606E
S315080087D0336963617369A36121F095FEB36904F196
S315080087E04000E3639B68984794F8432020B1E5610D
S315080087F0002AB4D05B25B3E7656C002DF7D0666810
S31508008800B6FBF5F3E361002AA9D0B542F2D822688F
S31508008810B2FBF5F105FB1122002A57D105FB1363BC
S31508008820002B53D1204621F08AFBA3690433034465
S315080088309E424DD340F634726369CC3B934249D885
S31508008840B5F5805FD6D30321204621F0A1FBD4E9F4
S315080088500001E36B1B6898470546E36B0220DB685B
S3150800886098471DB1002384F834301DE03946204668
S31508008870FFF716FE6428054604D139462046FFF759
S315080088800FFE0546636C143B002DEBD1226A204689
S3150800889002FB03F621F053FBA369043303449E420B
S315080088A006D284F834505A25E06B21F0EFFC57E7DE
S315080088B00123D4E90001094A84F8343013680133E6
S315080088C0136021F0BAFEEFE75D2549E7592547E72A
S315080088D05A2545E75F2543E704610020006100202B
S315080088E02DE9FF410F4690461E46054698B390F877
S315080088F0343093B3B1F5801F31D21A4C022121F0DE
S3150800890047FB2246394628460DF10F03FFF770F854
S31508008910024678B101234246009339463346284633
S31508008920FFF7D0FC0446E86B21F0B0FC204604B003
S31508008930BDE8F0819DF80F30012BEBD12169B142DA
S31508008940E8D10093414633462846FFF7E1F9044645
S315080089500028DFD1E7E72124E8E71124E6E7292400
S31508008960E4E700BFCC6700202DE9FF410C46164618
S315080089701F46054680B390F834307BB3B1F5801FA7
S315080089802ED2DFF86080012121F002FB2146424603
S3150800899028460DF10F03FFF72BF8044670B99DF82A
S315080089A00F30012B11D1D8F81030BB4212D1024634
S315080089B0009031462846FFF7ABF90446E86B21F0EC
S315080089C065FC204604B0BDE8F081022B14BF2D24B7
S315080089D06024F3E76324F1E72124F2E71124F0E7A2
S315080089E02924EEE7CC6700202DE9F043466886B3D4
S315080089F0056898464FF0000CA946AE4655F83C4027
S31508008A000CF1010CC4F31307013401D0B94217D095
S31508008A1066450EF1080EF1D12F46002403E0A64262
S31508008A2007F1080712D055F8343001340133F6D16E
S31508008A30C1F3130141EA0851C7E90012BDE8F08302
S31508008A4041EA0851CEE90012BDE8F083B8F1030FF8
S31508008A5003D101230372BDE8F083002303E09E429D
S31508008A6009F10809F5D055F833400133C4F3075422
S31508008A70032CF4D1C1F3130343EA0853C9E90032BE
S31508008A80BDE8F0832DE9F0410646406882B0C0B1E2
S31508008A900F4690460024336853F8345003EBC4035A
S31508008AA0C5F30752C5F31301013504F1010406D0D5
S31508008AB05B683046CDF80080B84710B170688442CC
S31508008AC0E9D302B0BDE8F081024B1968024B186879
S31508008AD0FFF73CBE3CBA00205CBA002008B532F06D
S31508008AE003FF014B186008BDF8670020014B1868A2
S31508008AF032F0F5BEF867002073B504462248012A0D
S31508008B0000EAC1119DF8185023F07C4007D9961E3B
S31508008B10012E28D9073303F07F03194308E09DF88F
S31508008B201C300A43DB0603F0C053134343F060418D
S31508008B300023C4E900108DF80730B5B1202221467C
S31508008B400DF1070021F095FE1A220DF10700211DEF
S31508008B5021F08FFE082063689DF8072043EA8263A8
S31508008B60636002B070BD1143E2E71B220DF10700F6
S31508008B70214621F07EFE23689DF80720042043EA5B
S31508008B80C2632360EDE700BF80FFFF0738B5094BD6
S31508008B900D461A68002104462FF07BFE00234FF08D
S31508008BA0FF322383C4E900252361A260E382A3760A
S31508008BB038BD00BF5CC803080138C0B205289ABF93
S31508008BC0014B185C0120704761C803082DE9F04184
S31508008BD00746154600240E46596888B0490A0129F1
S31508008BE022464FEA510104F10104F8D8DC78997855
S31508008BF024031B88C90201F4006104F480540C4361
S31508008C00C3F30A035203234492B24FF000089C1898
S31508008C10274B6FEA0444039325F07843ED4302A9F2
S31508008C200DF107001B2202938DF8078021F021FE23
S31508008C309DF80720029B02A943EAC2630DF10700CB
S31508008C401B2225F07845049302958DF8078021F0BC
S31508008C5010FE9DF80720029B6FEA144443EAC2639C
S31508008C6005934FF0FF330794069307A9BB690122C2
S31508008C7006F110009847BB6905A90446012206F1CA
S31508008C8008009847BB69404518BF044604A9012255
S31508008C90301D98470122404518BF0446BB69304637
S31508008CA003A99847404508BF204608B0BDE8F081AB
S31508008CB001009AB2054B5B69DB0605D51022044B09
S31508008CC05A610122034B1A70704700BF0080045096
S31508008CD000A004507C920020044BD3F88420D206CE
S31508008CE0FBD4D3F88400C0F38110704700400050CD
S31508008CF038B5174B0546D3F828310C4603F0070359
S31508008D00013B052B20D8DFE803F003131B0F0B17D5
S31508008D1030F0F8F8052305B1286004B1236038BDA2
S31508008D2030F0F0F80623F6E730F02CF90723F2E7DF
S31508008D3030F022F90323EEE730F01EF90423EAE7C0
S31508008D4030F016F90223E6E700231846E3E700BFEA
S31508008D5000800050002337B50193164B0546D3F81B
S31508008D6020320C4603F00703042B21D8DFE803F072
S31508008D70030B11161B0001230DB1019A2A6004B1D9
S31508008D80236003B030BD002101A8FFF7B1FF12230D
S31508008D90F2E730F0F7F807230190EDE732F099FD96
S31508008DA00A230190E8E730F035F909230190E3E753
S31508008DB00023E1E70080005038B5104B0546D3F88C
S31508008DC080300C4603F00303022B0BD0032B0DD087
S31508008DD0012B0FD130F09CF80E2305B1286004B1A1
S31508008DE0236038BD30F0CEF80723F6E730F08AF86E
S31508008DF00623F2E700231846EFE700BF008000507D
S31508008E0038B5104B0546D3F800310C4603F003037A
S31508008E10022B0BD0032B0DD0012B0FD130F0ACF861
S31508008E20032305B1286004B1236038BD30F0F2F899
S31508008E300923F6E732F04BFD0823F2E70123002069
S31508008E40EFE700BF0080005038B5184B0546D3F849
S31508008E5020010C4600F00700062823D8DFE800F0BA
S31508008E60040A0E16121A1E00012305B1286004B161
S31508008E70236038BD30F046F80523F6E730F07CF875
S31508008E800323F2E730F07EF80723EEE730F070F8B8
S31508008E900223EAE730F036F80623E6E730F06CF806
S31508008EA00423E2E700231846DFE700BF00800050EE
S31508008EB038B5104B0546D3F840310C4603F003038A
S31508008EC0022B0BD0032B0DD0012B0FD132F001FD55
S31508008ED00A2305B1286004B1236038BD30F09AF83A
S31508008EE00923F6E732F0F8FC0C23F2E70123002009
S31508008EF0EFE700BF00800050002337B50193164BFB
S31508008F000546D3F860320C4603F00703013B032BF2
S31508008F101FD8DFE803F0020E1914002101A8FFF795
S31508008F2093FF10230DB1019A2A6004B1236003B0A0
S31508008F3030BD002101A8FFF7BBFF1123F2E730F08F
S31508008F4021F807230190EDE730F012F8022301908B
S31508008F50E8E70023E6E700BF00800050002337B5A6
S31508008F600193164B0546D3F894320C4603F00703D3
S31508008F70013B032B1FD8DFE803F0020E191400216A
S31508008F8001A8FFF761FF10230DB1019A2A6004B109
S31508008F90236003B030BD002101A8FFF789FF112324
S31508008FA0F2E72FF0EFFF07230190EDE72FF0E0FF40
S31508008FB002230190E8E70023E6E700BF008000509F
S31508008FC038B5104B0546D3F860310C4603F0030359
S31508008FD0022B0BD0032B0DD0012B0FD132F079FCCD
S31508008FE00A2305B1286004B1236038BD30F012F8B1
S31508008FF00923F6E732F070FC0C23F2E70123002080
S31508009000EFE700BF0080005073B50D460021114BF5
S315080090100191D3F88041064604F00304022C13D0CC
S31508009020032C0CD0012C13D101A8FFF70DFF102437
S315080090300EB1019B336005B12C6002B070BD2FF0F4
S31508009040A1FF07240190F3E72FF092FF0190EFE7C5
S315080090500C46EDE70080005038B5104B0546D3F8AE
S3150800906040320C4603F00303022B0BD0032B0DD022
S31508009070012B0FD132F02DFC0A2305B1286004B16B
S31508009080236038BD2FF0C6FF0923F6E732F024FC2B
S315080090900C23F2E701230020EFE700BF0080005011
S315080090A038B5144B0546D3F800020C4600F0070005
S315080090B004281BD8DFE800F003090D111500012369
S315080090C005B1286004B1236038BD32F002FC0A23DA
S315080090D0F6E72FF09FFF0923F2E732F0FDFB0C239A
S315080090E0EEE72FF02FFF0F23800AE9E70023184643
S315080090F0E6E700BF0080005038B5144B0546D3F8A4
S3150800910008020C4600F0070004281BD8DFE800F028
S3150800911003090D111500012305B1286004B1236068
S3150800912038BD32F0D6FB0A23F6E72FF073FF092382
S31508009130F2E732F0D1FB0C23EEE72FF003FF0F2303
S31508009140800AE9E700231846E6E700BF00800050DA
S31508009150B0F5207F1FD009D8B0F5007F15D003D809
S3150800916068B1B0F5C07F0AD000200CE0B0F5607F8A
S31508009170FAD10B4BD3F88000C0F3011003E0084B7B
S31508009180186FC0F3033001307047054BD3F89000D1
S31508009190C0F30460F7E7024B186FC0F38020F2E7CC
S315080091A00080005002464FF48030104B10B5986688
S315080091B00020FFF7CDFF504341F671320C4BDC69B6
S315080091C0DA635A6804F4803422F4401259B909491A
S315080091D0884294BF00200120000502435A600CB162
S315080091E00022DA6310BD0449F2E700BF0090005080
S315080091F000000350005A6202002D3101430905D0D0
S31508009200012B0CD0022B084B18BF002300F01F00BF
S3150800921039B103F58053012282401A607047034B27
S31508009220F4E703F50053F6E76880005064800050C1
S315080092301FB50021B0F5807F0446CDE9001100F086
S315080092402B8100F294805D2800F28C801F2805D8B7
S31508009250002840F089802FF075FEF7E0A0F1200481
S315080092603D2C00F2818001A353F824F057920008A0
S315080092705B940008579200085B9400087B940008EA
S315080092807B9400087B9400087B9400087B94000874
S315080092905B9400088F9400089F930008D9930008F0
S315080092A0BB9400089F9300085B9400085B94000831
S315080092B05B9400086993000869930008699300089D
S315080092C06993000869930008699300086993000880
S315080092D0699300085B9400085B9400085B94000897
S315080092E0FF930008CF9400085B9400086993000870
S315080092F06993000869930008699300086993000850
S31508009300699300086993000869930008699300083F
S31508009310699300086993000869930008699300082F
S315080093207B94000857920008579200085792000845
S31508009330C59400089F9300089F930008D9940008D5
S315080093401D940008C99300088594000869930008CD
S3150800935069930008699300086993000869930008EF
S315080093603F94000880286FD0009804B010BDB0F56F
S31508009370D06F00F0A28034D8B0F5607F78D019D8C5
S31508009380B0F5007F64D004D8B0F5C07F3FF463AF72
S31508009390EAE7B0F5207F60D0B0F5407FE4D12FF042
S315080093A0D1FD02464FF42070FFF7D2FEB2FBF0F271
S315080093B052085BE0B0F5B06F69D00AD8B0F5806F97
S315080093C05BD0B0F5A06FCFD100216846FFF7C2FC8D
S315080093D0CAE7B0F5C06FC7D100216846FFF768FD38
S315080093E0C2E7B0F5106F6DD00ED8B0F5086F78D01B
S315080093F0BAD8B0F5E06F6AD0B0F5F06FB4D10021F5
S315080094006846FFF7DDFDAFE7B0F5406F3AD013D8F1
S31508009410B0F5206F60D0B0F5286FA5D10021334B89
S315080094200391D3F8703203F00303012B02D103A88A
S31508009430FFF73EFD039B39E0B0F5486F94D1002154
S315080094406846FFF78BFD8FE72FF062FD00908BE7EC
S315080094502FF05EFD0246204604E02FF073FD02461B
S315080094604FF42070FFF774FEB2FBF0F200927BE730
S3150800947001A8FFF7A1FC019AEDE700216846FFF76E
S31508009480E3FC71E700216846FFF732FC6CE7002130
S315080094906846FFF7B9FD67E74FF0E02302911B69BD
S315080094A05B0705D52FF04EFD0290029B00935BE704
S315080094B003A902A8FFF7FCFCF7E700216846FFF7B7
S315080094C0EFFD51E700216846FFF716FE4CE700213D
S315080094D06846FFF7C1FD47E700216846FFF70CFD20
S315080094E042E76846FFF78CFC3EE700BF0080005065
S315080094F008B58020FFF79CFE034B98429EBF4FF4A9
S315080095008032024B1A6708BD005A620200A000505A
S315080095101FB503460020B3F5807F019000F0C58093
S3150800952065D85D2B56D84C2B07D82D2B48D8232B1E
S315080095302CD8019805B05DF804FB4D3B102BF8D8E4
S3150800954001A252F823F000BFA1960008339500083F
S3150800955033950008339500084F96000833950008A0
S3150800956033950008FB9600086D96000813960008C8
S31508009570F1960008339500083395000833950008DE
S31508009580339500083395000805970008243B092BF6
S31508009590CFD801A252F823F0A1960008A196000898
S315080095A0A1960008A1960008A19600083395000820
S315080095B097960008339500082F960008D796000856
S315080095C03D2B00F083803E2BB3D1002001A9FFF785
S315080095D043FDAEE7802BACD1504B1B6F03F007035E
S315080095E0013B032BA5D8DFE803F0544D5052B3F5E1
S315080095F0F06F6BD020D8B3F5B06F4CD00ED8B3F55A
S31508009600607F71D095D3B3F5806F49D0B3F5A06F5D
S315080096108FD1002001A9FFF79DFB8AE7B3F5D06F2C
S3150800962059D0B3F5E06FD0D0B3F5C06F81D1002023
S3150800963001A9FFF73DFC7CE7B3F5206F5DD00BD899
S31508009640B3F5086F4CD0B3F5106F7FF472AF0020F6
S3150800965001A9FFF751FD6CE7B3F5406F48D0B3F5A4
S31508009660486F4FD0B3F5286F7FF463AF2B4BD3F811
S31508009670703203F00303012B49D0022B0CBF1523CC
S31508009680002300E00523019353E70323FBE70823A0
S31508009690F9E70223F7E7002001A9FFF7B5FC48E739
S315080096A0002001A9FFF7D0FB43E74FF0E023029023
S315080096B01B695B0705D52FF045FC0D230393039B18
S315080096C0E1E703A902A8FFF7F3FBF8E7002001A9E1
S315080096D0FFF776FC2DE7002001A9FFF7E1FC28E754
S315080096E001A9FFF78DFB24E701A9FFF765FB20E732
S315080096F0002001A9FFF7FCFA1BE7002001A9FFF7E4
S31508009700FBFB16E7002001A9FFF728FC11E700215B
S3150800971003A8FFF7CDFB1123B5E700BF0080005073
S315080097204FF48012034B5A664FF48032024B9A620A
S31508009730704700BF009000500050005A38B50446E4
S315080097408020FFF7E5FE032800F083804FF480129F
S31508009750524B4FF0A0615A6645F60E02504BC3F8BD
S315080097608020504A91624FF4803102F5805291620E
S315080097709A6DD203FCD4996D11F08041FBD1D4E9DE
S315080097800002120542EA0062E07B0243207B42EABD
S315080097900042607B42EA0032A07B42EA80121A61EC
S315080097A09869D4E90452120642EA856200F000403C
S315080097B00243A07EE57E0243207E42EA0042607EA6
S315080097C042EA00229A611A6AE06922F00F0242EA26
S315080097D08502354D00283DD11A6294F82420996AED
S315080097E094F82000D200294042EA40120A4394F82D
S315080097F0211042EA011242F480329A622B49284A21
S31508009800936D31EA0303FBD14FF0807125488162DD
S315080098101369A56823F4700343EA055313614FF0EF
S315080098200043836194F822300BB9214B996294F86E
S3150800983023303BB94FF480321D4B9A62184A936D18
S315080098405B00FCD494F825301BB1154B194AC3F8B4
S31508009850802038BD024342F0080202281A6208D165
S3150800986019614FF40852996113484FF47F4121F06A
S315080098701EF80B4994F822308A6A94F820001B06D1
S315080098802A4043EA4013134394F8242043EAC203C8
S3150800989094F8232043EA02438B62D3E700900050F2
S315080098A00040005A0050005AC7FFFEFE03000100A0
S315080098B00060005AF1A7FFFF3440005A014B93F9A4
S315080098C000007047DEBB0020014B1880704700BFC0
S315080098D0CCBB0020B0F5207F10B50C465DD008D86B
S315080098E0B0F5007F4ED003D8C0B1B0F5C07F15D013
S315080098F010BDB0F5607FFBD12C4B4C1ED3F8FC2075
S315080099002B4912F0807F4FEA041427D1D1F8803012
S3150800991023F030032343C1F88030E9E720F0D6FF6F
S3150800992020F0E2FF4FF48031224B214A1967136F6A
S31508009930013C23F4704343EA043313672FF002FB18
S315080099400446FFF7C9F9C0F10201204620F0C6FF18
S3150800995000F04AF8BDE81040FFF7CABDD3F8FC206E
S3150800996022F08072C3F8FC20D1F8802022F0300261
S315080099702243C1F88020D3F8FC2042F08072C3F855
S31508009980FC20B5E70A4A4C1ED2F8903023F0F8536B
S3150800999043EA0463C2F89030AAE7054A4C1E136FDF
S315080099A023F4806343EA84231367A1E700ED00E00C
S315080099B0008000500090005008B50121022000F0F8
S315080099C057F84FF42070FFF7C3FB054B187020F0CB
S315080099D07DFF20F089FF4FF48032024B1A6708BDDD
S315080099E07D9200200090005008B54FF4C070FFF734
S315080099F01FFCBDE808400449884294BF01210221A2
S31508009A004FF42070FFF766BF80F0FA0238B50446B7
S31508009A102FF098FA0546FFF75FF9C0F102012846CC
S31508009A2020F05CFF0121002000F062F82CB1FFF75E
S31508009A30DBFFBDE83840FFF75BBD034B4FF42070F2
S31508009A401978FFF747FFF4E77D920020024A536B27
S31508009A500342FCD1704700BF00400950034A017910
S31508009A60D36E23F030030B43D36670470040005093
S31508009A70F8B504461C4BD3F88420D106FBD4D3F89A
S31508009A808430C3F381139C422CD02FF041FA012C69
S31508009A90064602D1214620F021FF31F025FF4FF07E
S31508009AA00072124B07465A66204620F022FF4FF4F2
S31508009AB080630D4D621E93402B676B6E9A0103D42B
S31508009AC0D5F884309B060AD5384631F008FF022CB3
S31508009AD008D13046BDE8F840002120F0FFBED5F891
S31508009AE08430EAE7F8BD00BF00400050006000502F
S31508009AF010B50C4608B92FF00BFA074B21461B7810
S31508009B003BB1064B984204D80120BDE81040FFF748
S31508009B10AFBF0220F9E700BF7E920020005A62021A
S31508009B204FF0004238B5244B244C5A664AF6CD33DA
S31508009B30656C014605F00105236428BB0120FFF783
S31508009B4085FF6368DB0715D51D4B586008461D4B16
S31508009B50226BD2070CD4984208D1072415B1174BAB
S31508009B60194A1A642DF090FA204638BD0130EFE7FD
S31508009B709842F2D00024F1E70132236B13F0080370
S31508009B8005D08A42F8D1E8E700220E49F5E78A426D
S31508009B90E3D020210A4A91620121A2F58052516040
S31508009BA00649084A886A800603D49342D5D0013309
S31508009BB0F8E79342DDE700BF0090005000400950E7
S31508009BC00060095040420F003254FFFF4FF0004238
S31508009BD038B5164B01465A664AF6CD33144C154A23
S31508009BE0656C236443780B205B0043F00103D36361
S31508009BF0FFF72CFF63688A7823F4F87343EA0213A5
S31508009C006360CA784B7943EA0223A3600A798B79A1
S31508009C1043EA022323610878FFF782FFEB0744BF74
S31508009C20054B23642DF030FA012038BD0090005012
S31508009C3000400950004000503254FFFF4FF00042E8
S31508009C40124B70B55D6E03F580535A664AF6CD33EE
S31508009C5004460F4980204E6C0B64FFF7F7FE0B6A2B
S31508009C6023F00F030F2C94BF234343F00F030B621B
S31508009C70F30744BF074B0B64002DA2BF4FF0004209
S31508009C80054B5A662DF000FA70BD00BF00800050E3
S31508009C90004009503254FFFF00A000504FF0004228
S31508009CA0104B70B55D6E03F580535A664AF6CD3390
S31508009CB004460D4980204E6C0B64FFF7C7FE0B6AFD
S31508009CC023F4F85343EA04230B62F30744BF074B14
S31508009CD00B64002DA2BF4FF00042054B5A662DF0CB
S31508009CE0D3F970BD00800050004009503254FFFF80
S31508009CF000A00050072A2DE9F041154698464FF076
S31508009D00030401F003072DD89600B44000FA06F2C2
S31508009D1021461C4820F0EEFD21461B4807FA06F2AC
S31508009D2020F0E8FD194B1A499DF81800B8F1000F04
S31508009D3018BF1946012303FA05F50D60154B164998
S31508009D40002818BF0B461D60144B9DF81C00C3F86D
S31508009D502054103103F22443002818BF0B461D6017
S31508009D60BDE8F081A2F10806B600B44000FA06F292
S31508009D7021460B4820F0BEFD21460A4807FA06F29E
S31508009D80CEE700BF00C4035008C4035010D40350E4
S31508009D9010E4035014E4035014D4035000E00350B5
S31508009DA004C403500CC403502DE9F04105460F4680
S31508009DB01E4690464AB101233022194C8B4002FBBD
S31508009DC0004436B304F5825423600F21072F05EBB0
S31508009DD0450388BFA7F108044FEA0313114895BF46
S31508009DE0BC00A40004330C3308FA04F2A14018445A
S31508009DF020F080FDB8F1000F09D101233021084A6F
S31508009E00BB4001FB05223EB102F582521360BDE854
S31508009E10F08104F50154D7E702F50152F6E700BFD1
S31508009E2000C0035030C00350044A054B002908BF40
S31508009E301346012282401A60704700BF4010045042
S31508009E404020045010B5012104462020FFF7D6F91A
S31508009E5001212120FFF7D2F90122114B15205A6062
S31508009E60227812069A606178A27842EA01429A61DB
S31508009E70FF229A6200229A631A644FF000425A65DA
S31508009E804FF0FF3203F500531A6503F02FFB152038
S31508009E90E17822F06CFCBDE81040152003F00ABBFF
S31508009EA000000450F8B50125C3B2D1F800E091F8D6
S31508009EB00AC00F7B0C469D40CB7A1D491D4E0D6589
S31508009EC0810001F1A04101F58821C1F804E04FF0B5
S31508009ED0300E0EFB00601B05617B43EA0C4343EA28
S31508009EE0475322F003020166C365026731F009FD94
S31508009EF0114B5D65237A13B1336C2B433364637A54
S31508009F0013B1B36B2B43B3632279A37943EA0243B4
S31508009F10074A93616179E37943EA014306498B610C
S31508009F20044B55639D64BDE8F84031F0E5BC00BFBD
S31508009F3000200450000004500010045010B50124FD
S31508009F40C0B2844031F0DDFC044B5A6D22EA0402AB
S31508009F505A659C62BDE8104031F0CEBC0000045042
S31508009F6010B50124C0B2844031F0CBFC074BDA6A45
S31508009F70224208D15B6B9C430CBF0124002431F0BC
S31508009F80BBFC204610BD0024F9E700BF00000450C2
S31508009F904FF48032054B9A6641F6713203F51C334D
S31508009FA0DA63012203F50053DA6070470090005027
S31508009FB041F671320121064BDA6303F50052D1608E
S31508009FC00022DA634FF48032A3F518339A66704795
S31508009FD000000350013831289ABF024B185C002054
S31508009FE0704700BF67C80308021E30B54FF000006F
S31508009FF00CBF1025042547F60774084952B9831D76
S3150800A00051F82330234023B101308542F6D14FF071
S3150800A010FF3030BD00F11603F2E700BF00800350A1
S3150800A02038B5C2F30625044602F0070241B942EAEA
S3150800A030052242F440220634074B43F8242038BD53
S3150800A0401146284620F065FC02462846FFF7C2FF5F
S3150800A050163442EA0022EFE700800350044B1868E2
S3150800A060421C02BF034AD2F894001860704700BF2A
S3150800A07060BA0020004000504FF48032064B5A6602
S3150800A08003F5E6239B69C3F38512827003F03F024A
S3150800A0901B0B42700370704700900050014B986C80
S3150800A0A0D96C70470080E00F0120034B9B680A3388
S3150800A0B003F01F03984070470080E00F70B505460F
S3150800A0C016461C4621B94FF42070FFF7B1F8014631
S3150800A0D0402C1BD003D8DCB1202C1BD070BD602CC3
S3150800A0E0FCD1042303FB06F2530803EB4113B3FB2D
S3150800A0F0F2F3094A203B02EAC303AA6822F0600287
S3150800A100AA60AA681443AC60EB61E7E70623E9E7AF
S3150800A1101023E7E70823E5E7F8FF7F00012100F5AC
S3150800A120805310B5596040F6AA6341F205024361AF
S3150800A1300023094C8360C365C26000F500520361C1
S3150800A140C361C3649464054C8365A04204BF036578
S3150800A1504365516010BD00BFFFFF010000C00550F8
S3150800A16070B50D46FFF7DAFF012300F580567360D8
S3150800A170AB7C04461BB1836843F080438360EB7C69
S3150800A1805BB1244B9C4202BF2A7DA3F51033C3F86A
S3150800A190C821E36D43F08003E3652A8A6B7B20467A
S3150800A1A01343EA891343E3602B7BD5E90112FFF7D2
S3150800A1B085FF6B7D1BB1A36843F48033A360AB7D39
S3150800A1C01BB1A36843F40043A360EB7D2A7E1B07FB
S3150800A1D0120502F4E00203F0E0431343A3656B7E25
S3150800A1E09A1E012A4FF0020209D80B49032BC1F81F
S3150800A1F0202709D10423F3652B78636170BD0749CD
S3150800A200012BC1F82027F4E7042204F50053DA6588
S3150800A210F2E700BF00C0055000D0035000E003502D
S3150800A2200122437801789A4030235943014B5A500A
S3150800A230704700BF40E00350034BD3F82424D3F8FB
S3150800A24020041040704700BF00C00350064BDA6E6A
S3150800A25002F03002202A06D0DA6E22F0300208B167
S3150800A26042F01002DA667047004000502DE9F843C4
S3150800A2701F4B0546D3F810334B1E0E2B0E461746BA
S3150800A280047890F8018026D951B34FF00009284682
S3150800A2901FB32EF007FF0F21B8F1070F04EB440494
S3150800A2A088BFA8F108084FEA0414124895BF4FEA78
S3150800A2B088084FEA880804340C3409FA08F201FAC7
S3150800A2C008F1204420F05CFB86B9284657B1BDE862
S3150800A2D0F8432EF0E7BE8946D9E7FFF7A1FFDAE78C
S3150800A2E08946D8E7BDE8F843FFF79ABFBDE8F88383
S3150800A2F000C0035030C00350302143780078072B44
S3150800A3000A4A97BF00FB011101FB00225218506848
S3150800A31084BFD06B083B9B00D84000F00F00431E5B
S3150800A320DBB20F2B28BF0020704700BF00C00350C8
S3150800A3302DE9F0412B4B1746D3F810234A1C064645
S3150800A3400C46407804D1D3F8241420F028FB0446A0
S3150800A350002C2FDB072C4FF0030532782DDC4FEA53
S3150800A360840805FA08F529461F4802FA08F220F07B
S3150800A37007FB294672781D4802F0030202FA08F222
S3150800A38020F0FEFA012317F0050F194A18BF1949DC
S3150800A39003FA04F30CBFC2F81034C1F8103417F0EE
S3150800A3A0060F18BF134AC2F814340123104AA340F3
S3150800A3B0C2F820342046BDE8F081A4F108084FEA27
S3150800A3C0880805FA08F529460B4802FA08F220F02B
S3150800A3D0D7FA7278294602F00302084802FA08F208
S3150800A3E0CEE700BF00C0035000C4035008C40350A2
S3150800A3F000E0035000D0035004C403500CC40350BB
S3150800A40038B505460C4C0140D4F8303423EA00032D
S3150800A410C4F83034D4F830341943C4F83014D4F8B6
S3150800A4202C340343C4F82C34012004F50054FFF7F8
S3150800A4300DFFC4F8205438BD00C00350124B70B548
S3150800A440D3F81033064620F0C4FA0446481C1546CD
S3150800A45003D1621C05D1204670BD631CFBD08C421B
S3150800A4600ED13046032185F00102FFF7FFFE0120D9
S3150800A47004F1100305FA03F19840FFF7C1FFEAE774
S3150800A4804FF0FF34E7E700BF00C00350054B9A685A
S3150800A4909107FCD45A689207F9D4DA69002AF6D1EA
S3150800A4A0704700BF00800A5008B52EF007FE02224A
S3150800A4B0014B1A6108BD00BF00800A5008B5FFF7B6
S3150800A4C0E5FF0122024B03F580514A601A6108BD77
S3150800A4D000800A5008B5044B5968012903D1FFF7D3
S3150800A4E0E3FF024B596008BD00800A5000A00A50DD
S3150800A4F010B5064CFFF7CAFF6368012B03D1FFF7B7
S3150800A500E9FFFFF7C3FF0378E36010BD00800A5038
S3150800A510B8B94A680B7812B1127843EAC2034A7886
S3150800A52043EA42038A6812B1127843EA82138A78A8
S3150800A53043EA8203CA6812B1127843EA4223014AFF
S3150800A5409364704700800A5073B50F4D04462B7804
S3150800A550ABB100210D4B1E680D4B0E481A6800F072
S3150800A56079F82B78012283F001032B7000233146FA
S3150800A57000932046084B2CF0A3FA02B070BD074B97
S3150800A5801978074B1E68E7E782920020FC670020CF
S3150800A590046800202068002049A500087F92002052
S3150800A5A000680020642A70B50D4614462FD8194E47
S3150800A5B07270B37030700BB102B148B916482CF0FE
S3150800A5C081FA2A460021154800F044F8012070BD9A
S3150800A5D0642A05D110482CF075FA2A463178F2E734
S3150800A5E00F4A1048116000220F490A7014FB03F144
S3150800A5F0C4F16404634301EB810101600B4903EB79
S3150800A60083030B6004481146FFF79EFFDEE7002030
S3150800A610DDE700BF7F920020086800202068002040
S3150800A620046800200068002082920020FC67002051
S3150800A630014B1860704700BF48680020014B18603E
S3150800A640704700BF40680020014B1860704700BF84
S3150800A650446800201FB503460848006840B153B156
S3150800A6608DF8081001A90193039220F06CFA0120D5
S3150800A67005B05DF804FB1846FAE700BF4C680020F1
S3150800A6800E4908B58B688860434003F480629B05D1
S3150800A69004D47AB10A4B186848B908BD094B1B6837
S3150800A6A053B132B1064A10680028F6D09847044BD1
S3150800A6B01B6898470120F0E71846EEE73468002043
S3150800A6C0306800202C680020014B9868704700BF4E
S3150800A6D03468002040B1827AFF2A05D001239340CE
S3150800A6E019B1034AC2F820347047024AFAE700BF94
S3150800A6F000D0035000E0035073B50E46044670B30D
S3150800A700057E827A69B3FF2A06D00023CDE9003395
S3150800A710417A007AFFF7EEFA21690022607A1FF083
S3150800A720E3FB0123C2B2174903FA02F0A272C1F889
S3150800A73020044FF48061616002F007012160207AED
S3150800A740617AE47AC5F34006C5F3800514B1344648
S3150800A7502E462546CDE900632B46FFF7CBFA02B015
S3150800A76070BDFF2AFBD0012306489340C0F8243465
S3150800A770C0F820341046FDF707F8FF23C4E9006641
S3150800A780A372ECE700E003500F4A104B117821B989
S3150800A7900F49096C198001211170B3F90020188836
S3150800A7A0002AB8BF80F06200B3F9021042001A808E
S3150800A7B05A880029BCBF82F4805282F00B025100ED
S3150800A7C059805040704700BF849200204491002071
S3150800A7D00080E00F0C4B10B51A789AB901240B4883
S3150800A7E01C70FFF725FF20F029F91FF07BFB204698
S3150800A7F02CF065F90648FFF721FFBDE8104005482B
S3150800A800FFF722BF10BD00BF839200209CC8030833
S3150800A81035AB0208156B0008054B1A7E0AB10130E4
S3150800A820C0B253F82020013243F82020704700BFF9
S3150800A8305068002008B5084B5B7E5BB150B94FF0F5
S3150800A840FF3013F079F8052804D1BDE80840042044
S3150800A850FFF7E2BF08BD00BF50680020064B70B581
S3150800A86006460D4614460021582218462EF011F8C1
S3150800A870C0E90965C46270BD6C68002038B51D461C
S3150800A8805306144610D5104A1079917880079379A3
S3150800A89015D552798A4212D3994294BF03210021D1
S3150800A8A000220A48FFF7D6FE094B1C4204D00022B4
S3150800A8B006481146FFF7CEFE2046294638BD99427E
S3150800A8C08CBF00210121EBE76C680020AC680020F2
S3150800A8D00950010038B50C46C105054607D5FFF7EE
S3150800A8E0F3FEC4F3002340EA8320FFF7C9FEAA0556
S3150800A8F008D5FFF7E9FE04F4007220F4007010434F
S3150800A900FFF7BEFE6B0506D5274AC4F38023D17828
S3150800A91063F30001D170280506D5234AC4F3C02382
S3150800A920117963F341011171E90406D51E4AC4F38E
S3150800A9300033117963F300011171AA0406D51A4A86
S3150800A940C4F34033D17863F30411D1706B0419D57D
S3150800A950154AC4F38031D37861F3C30313F00800B2
S3150800A960D37018BF13794FF000011EBF5B0003F0C8
S3150800A970020343F08000D379127A5B0003F0FE03EA
S3150800A980FFF710FEEBB213B1074B83F83240B5F56B
S3150800A990803F28BF044A4FF0010022BF138E03EB05
S3150800A9A01443138038BD00BF6C68002070B5064696
S3150800A9B020F0DBF804460B4DFFF73CFF84F001015D
S3150800A9C0686AC9B22CF094FC56B14CB9AB6A984780
S3150800A9D02246214605F14000BDE87040FFF73ABE21
S3150800A9E070BD00BF6C680020084B10B55A6A044653
S3150800A9F052B1820504D5D87800F00100FFF7D6FFDA
S3150800AA00A30601D520F0ACF810BD00BF6C68002085
S3150800AA1037B50546104CC3882386FFF7DBFEEA8860
S3150800AA20AB884FF6FF7013442380AF23637142F25D
S3150800AA30FF73E380142323722968FFF74BFF4FF453
S3150800AA400070FFF7D1FF40220023CDE90023606A9A
S3150800AA502CF0C7FA03B030BD6C68002070B5044608
S3150800AA602CF032FC064630B90FCC044D0FC594E8DD
S3150800AA70030085E80300304670BD00BFC8680020A3
S3150800AA8047F6FF739A42F0B56FD002296FD8394B53
S3150800AA905B5C012B6BD8384DDF0005EBC30415F85A
S3150800AAA03330A178012B13D10025E078401AA8424B
S3150800AAB002D80844C0B2F0BD431B6668A0EB530336
S3150800AAC036F913609642D4BF1D4603F1FF30EEE710
S3150800AAD060680028EFD0B0F90040944204DBB0F972
S3150800AAE002409442B8BF144683883D44FF2B19BFE1
S3150800AAF0C8224FF0280CB0F90620B0F908C0A2EB1E
S3150800AB0004030CBF0126002693FBFCF333446E783E
S3150800AB101BB29E4201DD002B01DA731E1BB24FF4F5
S3150800AB207A7C01339BB2071D5D1E2DB24FEAC50E16
S3150800AB3000EBC505EA88AD689E4214FB025222EA7C
S3150800AB40E27202F15C02B2FBFCF204DD37F8335024
S3150800AB5001339542E8D200EB0E039888904228BF4D
S3150800AB601046884238BF0846A4E7FF20A3E700201E
S3150800AB70A1E700BFB4C80308C86800200229F0B5D9
S3150800AB8055D82C4B585C012851D82B4C04EBC001E6
S3150800AB9014F830004B6801280FD1C8788C78904299
S3150800ABA094BFC4EB0001C4EB0201001BCAB2824287
S3150800ABB0C8BF002233F91200F0BD002B37D08878C1
S3150800ABC0904202D3B3F90200F6E7CC78B3F9000055
S3150800ABD09442F1D94C789988013CA1F1FF0671425B
S3150800ABE003F10405E4B2714103F10C07CEB2B44295
S3150800ABF016D805EBC1014FF47A756A43B1F90240DC
S3150800AC004968521A04EBD47102EB610292FBF4F222
S3150800AC109042D1DBB3F902009042CDDC10B2CBE70B
S3150800AC2037F831C04E1C9445E3D33146DEE7034876
S3150800AC30C2E700BFB4C80308C86800200080FFFF49
S3150800AC4008B50448FFF70AFFBDE8084001202CF0C4
S3150800AC504DBB00BFB8C8030800487047CEBB0020EC
S3150800AC6007B5FCF7BDFC084B984200D040B9002157
S3150800AC7001A8FCF75FFC18B99DF804002CF0B2F89F
S3150800AC8003B05DF804FB00BF038000F07FB5142213
S3150800AC90002101A82DF0FDFD044B01A94FF0FF305E
S3150800ACA002932CF0B5FC07B05DF804FB006A1800A7
S3150800ACB02DE9F0412FF062FC0128074620D92FF034
S3150800ACC091FC051E03DA01242046BDE8F0811F4BDE
S3150800ACD01B78002B37D14FF050081D4C04EB0800A9
S3150800ACE0A465C4F85C802FF05DFD206680B9012458
S3150800ACF0012FE9D928462FF097FC0028E4DAE2E785
S3150800AD00124B1B7803F0FF05002BE4D00024DBE789
S3150800AD100024104E214606F1100332460120C6E9EA
S3150800AD200044C6E902382FF021FE30660028DED03E
S3150800AD300321412021F01BFD412002F0BBFB01222B
S3150800AD40024B1A70D4E70024D4E700BF859200208E
S3150800AD5044690020E068002008B54FF098435B6C12
S3150800AD60D90208D52FF00AFC0238012803D8094B66
S3150800AD70186E2FF089FE4FF098435A6CD202FCD514
S3150800AD805B6D054A03F4702313604120BDE8084053
S3150800AD9002F0ACBBE068002084BA00202DE9FF472A
S3150800ADA04FF000080E4617460446CDF800800028E6
S3150800ADB059D022B90025284604B0BDE8F0870029F5
S3150800ADC051D032F0030902F0030A1FD04FF0E063B6
S3150800ADD0C0E9003801230191C0F808800293C0F841
S3150800ADE01C8049F0005301A903931FF045FF49460B
S3150800ADF0204630F099FD20462EF0C0F9054628B1C8
S3150800AE004A46414630462DF044FDD4E7BAF1000FD4
S3150800AE10D0D04FF000084FF0E063C4E900380123B2
S3150800AE20CDF804D00293114B204601A9C4F8088036
S3150800AE30C4F81C8003931FF01FFF0421204630F03E
S3150800AE4073FD20462EF09AF9054608B13A46D8E72A
S3150800AE50009A4E44EB00013522FA03F3AA4506F898
S3150800AE60013BF7D1A6E72125A5E700BF040000208E
S3150800AE702DE9F041012905460E4690461F4692B037
S3150800AE804AD8046824F04003802B02D0B4F5807FAA
S3150800AE9045D11C2200210BA82DF0FBFC234A244B8C
S3150800AEA00121012E08BF13460A932B1D0193E408BE
S3150800AEB0204B44F0005402910AA80394CDF8108060
S3150800AEC0059106930797089101A909931FF0CAFEF1
S3150800AED004A90AA81FF0C6FE07A90AA81FF0CCFEF7
S3150800AEE029680AA8C90830F01FFD10210AA830F001
S3150800AEF01BFD2EF025F9A8B90AA830F01EFD4FF063
S3150800AF0098435A6CD202FCD55C6D2EF02BF904F4EA
S3150800AF10702012B0BDE8F0816FF02000F9E76FF0FD
S3150800AF207100F6E74FF0FF30F3E700BF00010004B9
S3150800AF30000101041000002038B5134DFFF7B8FED4
S3150800AF40124B134A1349144805F094FD2B7803F065
S3150800AF50FF04BBB92FF012FB012802D92FF042FBE0
S3150800AF6004462B782BB90D4B0D481B6898470123CF
S3150800AF702B702FF003FB012804D92046BDE8384082
S3150800AF802FF052BB38BD00BF8692002005AD0208DF
S3150800AF90E7AC02081FAD020829AD0208E4BA002092
S3150800AFA014800020F8B5184F3B7803F0FF0413B15E
S3150800AFB000242046F8BD2FF0E1FA012806461AD9E2
S3150800AFC02FF010FB051E1CDB3B786BB950230F4C8A
S3150800AFD0E018A465E3652FF0E5FB2066012408B1B7
S3150800AFE03C700024012EE4D928462FF01DFB0028CA
S3150800AFF0B8BF0224DDE73B7803F0FF05002BD7D165
S3150800B000E4E70D24D5E700BF87920020AC6900204D
S3150800B010B8B1036813F4E07F03F03F00C3F382126C
S3150800B0200AD0012A0DD1084B41B103F580530122FC
S3150800B03082401A6000207047044BF5E703F5005379
S3150800B040F5E70E20704700BF688000506480005006
S3150800B05070B541620569044630F053FC0646D5F8DA
S3150800B060FC002146103021F043FA304630F044FC0B
S3150800B070D5F8FC20074902F1180020F0DDFE4FF64E
S3150800B080FF72B5F8683093421CBF0133A5F86830E3
S3150800B09070BD00BF03B102082DE9F04387B007462B
S3150800B0A00C46904699462FF069FA022807D104F50E
S3150800B0B000534FF0FF31D3F898012FF0BDFB4146FE
S3150800B0C0206820F00BF80190002870D1204601A9CD
S3150800B0D021F0E0F9054690BB40F20113019EB381C9
S3150800B0E0022386F809907081F07386F85030306034
S3150800B0F086F8088064202EF08FFB4FF0FF337061CE
S3150800B100019E4FF00109C6E926332A4BC6F8FC40D2
S3150800B110029306F1A0030493502302A80593CDF8E1
S3150800B1200C902FF03FFB0199C6F8F000D1F8F030EB
S3150800B1309BB981F85050204621F0BCF91A252FF00A
S3150800B1401DFA022805D104F50054D4F898012FF009
S3150800B150A3FB284607B0BDE8F08301F184001EF082
S3150800B160DCFD019888301EF0D8FD01988C301EF061
S3150800B170D4FD019890301EF0D0FD019894301EF051
S3150800B180CCFD204601991EF0CBFD20460A491EF04B
S3150800B190E6FD019BC3F8F45030F0B3FB019B87F83A
S3150800B1A00480C7F808903B6030F0A6FBC7E7122575
S3150800B1B0C5E700BF54E8030897AD020870B50D4609
S3150800B1C030F09FFB06462C6904F18C0021F075F9D6
S3150800B1D004F130002EF0BCFAD4F8FC0029461430ED
S3150800B1E021F086F9D4F8FC20044902F12C0020F05D
S3150800B1F023FE3046BDE8704030F07EBB4BB40208F3
S3150800B20070B500240C4B0D4E1D78E3B29D4206D84E
S3150800B21000242046094EE3B29D4206D870BD56F872
S3150800B220230020F009FF0134EFE756F8040B01F07C
S3150800B23089FD0134EFE700BFE8C7030824BA0020F8
S3150800B2402DE9F041344C0646002914BF0D46254623
S3150800B250294617469DF81880FFF71EFF0446002862
S3150800B2603CD0122806D01A2814BF044619242046B2
S3150800B270BDE8F0812FF082F9022807D105F50053C1
S3150800B2804FF0FF31D3F898012FF0D6FA39462868DF
S3150800B2901FF024FF04462FF071F9022805D14FF05C
S3150800B2A0FF31D4F8F0002FF0C7FA94F850602FF069
S3150800B2B065F9022803D1D4F8F0002FF0EDFA2FF043
S3150800B2C05DF9022805D105F50055D5F898012FF046
S3150800B2D0E3FA012E14BF04242E24C8E73568304645
S3150800B2E0012185F80C8085F80D8020F0FDF90646C9
S3150800B2F008B1052804D16B7A43F010036B72B6E7E0
S3150800B300D5F8F0002FF00EFB2946D5F8FC0021F001
S3150800B310D1F83446ABE700BF0098002038B504687A
S3150800B320054694BB2FF02AF9022806D1204B4FF088
S3150800B330FF31D3F898012FF07FFA1E4B2979186848
S3150800B3401FF0CCFE0446F0B12FF018F9022805D1FB
S3150800B3504FF0FF31D4F8F0002FF06EFA94F8505001
S3150800B3602FF00CF9022803D1D4F8F0002FF094FA44
S3150800B3702FF004F9022804D10D4BD3F898012FF0C9
S3150800B3808BFA284638BD0546F2E72FF0F7F802286B
S3150800B39005D14FF0FF31D4F8F0002FF04DFA94F8AC
S3150800B3A050502FF0EBF80228EBD1D4F8F000E6E77E
S3150800B3B000B8002000980020F7B5036805461B79F9
S3150800B3C07F2B4FEA931706D830F09BFA2C6906466E
S3150800B3D064B9304640E030F094FA2C6906469CBBC6
S3150800B3E0022FF6D1284620F09AFFF2E795F820704A
S3150800B3F037B1002185F820102846FFF729FE12E00C
S3150800B40094F850001FF045FEC8B1284620F087FF83
S3150800B410042808D1CDE900772B461B4A616904F157
S3150800B420300030F026FCD4F8FC309A68002AD0D0D8
S3150800B43003F50053D3F894012FF026FBC9E7637B85
S3150800B440332101336373D7E7032F03D0284620F04F
S3150800B45066FFE8E7A37B23B903B0BDE8F04030F008
S3150800B4604BBA00212846A173FFF7F2FDD4F89430B1
S3150800B470002BD8D004F1940021F01FF801220146D0
S3150800B48020461FF0F9FCCEE7BDB100082DE9F04FC4
S3150800B4908FB0064620F096FD002859D106F50058CB
S3150800B4A04FF0FF31D8F894012FF0B8FAD8F8A00178
S3150800B4B00AA903699847079098B90A9B186898F8E3
S3150800B4C0A431002B46D10521B0F8052020F09FFCB9
S3150800B4D020B10A9B1B681B78142B3BD00A9820F0D6
S3150800B4E01EFF06F50750143021F073F8D8F8A001AE
