S01F00005A334C696768745F646F6E676C656D5F76382E302E322E302E733337E2
S31508006000001000200D78000845C6000849C600089B
S3150800601003CC03084DC6000855C6000803CC030880
S3150800602003CC030803CC030803CC030803CC0308FA
S3150800603059C600080CDB040803CC030803CC030884
S31508006040E17C000803CC030803CC030803CC03084F
S3150800605003CC030803CC030803CC030803CC0308CA
S3150800606003CC03085D740008C3C2030803CC030805
S3150800607003CC030803CC030803CC030803CC0308AA
S3150800608003CC030803CC030803CC030803CC03089A
S3150800609003CC0308E983000803CC030803CC0308F0
S315080060A003CC0308B98500089585000803CC0308C6
S315080060B003CC0308953E0208254902083F34040824
S315080060C03B340408C94002084B3404084334040826
S315080060D0F94802084734040865490208D149020804
S315080060E003CC030803CC030803CC030803CC03083A
S315080060F035DD030803CC030803CC030803CC0308E7
S3150800610003CC030803CC030803CC030803CC030819
S3150800611003CC030803CC030803CC030803CC030809
S3150800612003CC030803CC030803CC030803CC0308F9
S3150800613003CC030803CC030803CC030803CC0308E9
S3150800614003CC030803CC030803CC0308D7E30308EE
S315080061506D2D020803CC0308E9330408EF3304085D
S3150800616003CC030803CC030803CC030803CC0308B9
S31508006170F0B5114A114C124E00F00105E3695F07AC
S3150800618013D40DB9334213D103EA00078F4207D15E
S315080061900B4A1A40002A0CBF00206FF00100F0BD20
S315080061A0013AEBD16FF00200F9E74FF0FF30F6E75E
S315080061B06FF00100F3E700BF8096980000000350D7
S315080061C0020001000B4B70B5D96911F480310DD16D
S315080061D001244FF48072084E084DF46020462C6462
S315080061E01A61FFF7C5FF3464EC6070BD6FF00100FB
S315080061F0FBE700BF000003500010035000200350C7
S315080062004FF4803238B50E4B0E4C9A66E56941F666
S31508006210713315400122E3630B4B0021DA60022338
S31508006220606121202361FFF7A3FF10B92120FFF742
S315080062309FFF0122054BDA600DB10023E36338BDE9
S315080062400090005000000350001003500020035037
S3150800625070B5134C6061E3695B071ED40E4656F8A9
S31508006260043B8D18A361AE420BD1042300212120E3
S315080062702361FFF77DFF58B9BDE870402120FFF77D
S3150800628077BF08210846FFF773FF10B1042323617F
S3150800629070BD56F8043BA361E5E74FF0FF30F7E71A
S315080062A0000003502DE9F84315464FF48032184B89
S315080062B089469A6603F51C33DF690646174041F698
S315080062C07132DA63012203F58053DFF84C80DA6015
S315080062D055B9284601220F4BDA601FB10022A3F5F3
S315080062E00053DA63BDE8F88306F5005404EA0804A7
S315080062F0A41BAC4228BF2C46494622463046FFF727
S31508006300A7FF0028E6D12644A1442D1BE0E700BFDD
S31108006310009000500020035000E0FFFF42
S315080063202DE9F04F4FF0FD0BC9B09A460DF11B0948
S315080063309DF8503108AFCDF80C90CDF808B001970C
S31508006340059303890446009383790E46904641884F
S315080063508288407814F00EF9054650B10090A3885B
S31508006360002062883A4914F06BFC284649B0BDE81B
S31508006370F08F99F8000039F08AFF38B12846A388CB
S315080063806288344914F05CFC8D25EEE75A46394696
S3150800639099F8000039F04AFF8346002851D0529BED
S315080063A01BB1BDF84C3198424BD8002399F80090A0
S315080063B00793A9F14102012A5FFA8BF123D83846DF
S315080063C00139254ADFF898C05FFA81FE734513DB69
S315080063D0059B04210792C3B907AF18221F489FEDF2
S315080063E01A7B02FB060420460A460830394684ED25
S315080063F0027B40F0C1FB11E010F8011F0133514048
S315080064000CFB01F2E2E7059B33B123464A463846C0
S3150800641000960FF0F7FCA8E70829DED9B8F1000FB7
S3150800642001D088F80090BAF1000F01D0AAF800B0A0
S31508006430529B002B99D05A46184608A940F09CFB57
S3150800644093E7012591E700BF000000000000000067
S31508006450C31A0508F41A0508C59D1C81F01000200A
S3150800646093010001000000002DE9F04F93B0CDE93B
S315080064700A32DDE91C530E9353EC102BCDE90801C3
S31508006480104619468DED060B1E9E35F0E3FA80B1CF
S31508006490DDE906014FF0FF32C54B35F003FB40B985
S315080064A0DDE906014FF0FF326FF4801335F0DCFAB0
S315080064B070B1DDE908019DED060B0E9B1E96CDE930
S315080064C01C53DDE90A3213B0BDE8F04F00F088B975
S315080064D00022DDE90601002335F0C6FA002800F09F
S315080064E03381DDE906A303F1004BCBF30A5016F41A
S315080064F08063A0F2FF3008BF06250F9334F0D8FF5B
S315080065009BA3D3E9002335F03DF89BA3D3E90023E9
S3150800651034F082FECBF31304894644F07F5180465B
S315080065200022A44B504641F4401134F073FE94A364
S31508006530D3E9002335F026F802460B46404649467D
S3150800654034F06AFE35F0B8FA044634F0B1FF8EA38B
S31508006550D3E900238046894635F014F80022964B85
S3150800656034F05AFE35F0A8FA89A3D3E90023074682
S315080065704946404635F006F880463846894634F09E
S3150800658097FF85A3D3E9002334F0FCFF02460B46A8
S315080065904046494634F03EFE02460B46CDE90C23FA
S315080065A034F0F0FFDDE90C2380468946104619468B
S315080065B034F032FE0022CDE91001804B40464946B0
S315080065C035F00AF900227E4B34F026FE02460B46C9
S315080065D04046494635F000F900227A4B34F01CFE55
S315080065E002460B464046494635F0F6F8DDE90C23E7
S315080065F08046894600204FF0804134F00BFE024663
S315080066000B464046494634F007FE02460B46DDE98E
S31508006610100135F0E1F807F2FF3700226A4B34F033
S31508006620FBFD00223B0534F0ADFF52465B46804633
S31508006630894635F037FA002840F08980CDE90C897B
S3150800664004F16303C72B34BF0427052731051BD57F
S3150800665053A3D3E900235046594635F019FA0028C2
S315080066607FD051A3D3E900235046594635F0FCF9AB
S31508006670002876D00027A542C6BF2C1B04F1FF359B
S3150800668000253C4646F480660E9B9F422CBF4FF081
S315080066900008A3EB070816F0020903D0002F18BF5D
S315080066A04FF000083CB1DDE90C235046594635F059
S315080066B093F882468B46DDE906010022002335F071
S315080066C0D3F910B10BF100439B46DDE9080126F426
S315080066D00063CDE90183DDE90A324BEC10AB009586
S315080066E000F07EF802465FB3DDE9091316F0200FC5
S315080066F000F10105089E0CBF65204520B047DDE97D
S3150800670008010523002205930A23002CCDE902324D
S3150800671007F1FF374FEAD473B8BF64422A4601939C
S3150800672004970A9B00943BF095FD0246B9F1000FC9
S3150800673006D00B9BC41A0B9B1A190E9BA34245D86D
S31508006740104613B0BDE8F08FDDE906ABCDE60022B2
S31508006750404649461A4B35F03FF8013CCDE90C0155
S315080067606EE7002D90D00F9B002B8DD0013D8BE757
S31508006770FB799F501344D33FB3C8608B288AC63F22
S3150800678061436F63A787D23F71A379094F930A4084
S315080067901655B5BBB16B0240EF39FAFE422EE63FFD
S315080067A02D431CEBE2361A3F0000000080842E4180
S315080067B0FFFFEF7F0000F83F0000E03F00002C409D
S315080067C000002440000018400000F03F2020DDE9CA
S315080067D00913089DA8470134ADE700BF0000000073
S315080067E02DE9F04F5BEC10AB97B0CDE90501DDE97B
S315080067F02057CDE90723504652465B465946229E06
S3150800680035F028F970B90323CDE902760193B04B28
S315080068100093DDE90501DDE907233BF03BFC17B0F2
S31508006820BDE8F08F4FF0FF326FF48013504659469B
S3150800683035F01AF928B10423CDE902760193A54B60
S31508006840E6E74FF0FF3250465946A34B35F02AF992
S3150800685068B1A24A06F00403002B08BF0322A04B26
S315080068601CBF13460422CDE902760192D0E75046B2
S3150800687093A3D3E90023594635F014F938B992A3FE
S31508006880D3E900235046594635F0EEF868B1DDE9FC
S315080068900723DDE905014BEC10ABCDE92176209500
S315080068A017B0BDE8F04FFFF7DFBD002200235046C2
S315080068B0594635F0D9F8002800F09A805B465246CA
S315080068C00020002134F0A6FC012382468B4609935A
S315080068D016F4806400F08E80092D40F28E80002424
S315080068E030210EABA5F109020134202C03F8011B57
S315080068F0A5EB040901D09442F6D15946504635F025
S31508006900DBF8784B054603EBC90393ED007B8DED69
S315080069100A7B34F0CDFD02460B465046594634F004
S3150800692079FCDDE90A2334F02DFE02460B46CDE953
S315080069300C2335F0E9F8804634F0AAFD02460B46EA
S31508006940DDE90C0134F066FC02460B46CDE90C2362
S315080069500022654B35F0A6F8002851D008F1010849
S31508006960404634F095FD02460B46DDE90A0135F04E
S3150800697085F810B14FF000080135B9F1000F50D174
S31508006980284634F095FD02460B465046594634F0E3
S3150800699041FC0022544B8046894635F065F830B1F3
S315080069A0002240464946504B35F07CF810B1E807BE
S315080069B000D501350A210EAB1A19202C0AD095FBF1
S315080069C0F1F001FB1055303502F8015B013405463C
S315080069D00028F2D106F00302012A57D1002F55D01C
S315080069E0099A12B916F00C0F00D0013F302245E083
S315080069F009906DE74FF006097FE7A94600247CE772
S31508006A000022DDE90C01384B35F02EF80028B4D108
S31508006A10B8F1000F02D018F0010FAED008F1010846
S31508006A20ABE70A210EAB2344202C0ED0B8FBF1F0BD
S31508006A3001FB1082B8F1090F02F1300209F1FF39A2
S31508006A4004F1010403F8012B11D83021A1440EAA40
S31508006A50202CAFD0A14504F101030AD11C4609F147
S31508006A6058030DEB03092E2309F8203CA2E78046BC
S31508006A70DAE7A1541C46EBE71A550134A74205D9B3
S31508006A80202CF9D1CDE902760194C1E6202CF9D063
S31508006A90099A3AB12D2104F158026A4402F8201CD9
S31508006AA00134EFE7710704D504F158022B216A4433
S31508006AB0F4E73207E6D504F1580220216A44EDE7E7
S31508006AC00000000065CDCD410000000065CDCDC1B8
S31508006AD07C45050880450508FFFFEF7F73450508D7
S31508006AE078450508884505080000E03F00000000D5
S31508006AF070B58EB02C22002103A840F019F8642343
S31508006B004FF002320893CDE905230B2301218DF8B6
S31508006B103430534B8DF810101B88D80700F1988035
S31508006B2008461FF0CFFC0A224E4B4F491A704FF405
S31508006B3028734E48ADF812301EF008F84C4C206009
S31508006B4020B940F259214B4805F076FC052120680A
S31508006B503CF0EEFC20B140F26921464805F06CFC99
S31508006B60206800F087FC444B206819683CF0F7F869
S31508006B700C2520F085FB6843099020F081FB6843CB
S31508006B800DEB05010790206818F040F820B140F297
S31508006B907E21384805F050FC256822F0E3FE0022E5
S31508006BA0014628463CF066F920B14FF42071314879
S31508006BB005F042FC40F20353304D314E2B8005233D
S31508006BC096F90000AB707F2801D11FF0DFFD3378FE
S31508006BD0EB7020F055FB00EB80008000A88020F0C9
S31508006BE04FFB0023C0004FF0FF31E880AB604FF049
S31508006BF0FF3019A3D3E900231FF026FE2149206898
S31508006C003CF045FD206802A93CF00EF920B140F29F
S31508006C10B921184805F010FC042220680DEB020182
S31508006C203CF08BF8042804D04FF42F71114805F076
S31508006C3003FC01A901203BF00DFA05F047FD0120F0
S31508006C4020F0BCFD36F023FA20F0E2FD1FF0BEFC72
S31508006C500EB070BDAFF300800A0020FF42030000AB
S31508006C6064440020AD4F0020ED640208185400204B
S31508006C70D83400208685050854520020CC340020DC
S31508006C80A7570020996602080348044B834202D09E
S31508006C90034B03B118477047E0570020E057002020
S31508006CA000000000064B0749C91A891048BF013180
S31508006CB0491003D0044B0BB101481847704700BF71
S31508006CC0E0570020E05700200000000010B5064CF1
S31508006CD0237843B9FFF7D8FF044B13B10448AFF341
S31508006CE000800123237010BD5245002000000000DB
S31508006CF08C89050808B5054B1BB105490548AFF34E
S31508006D000080BDE80840FFF7CDBF00BF00000000C7
S31508006D10F81600208C890508A3F5803A704700BF4D
S31508006D20174B002B08BF134B9D46FFF7F5FF0021B5
S31508006D308B460F461348144A121A3FF0F9FE0E4BBB
S31508006D40002B00D098470D4B002B00D09847002009
S31508006D50002104000D000D48002802D00C48AFF3AE
S31508006D60008035F043FA2000290035F06FFA35F037
S31508006D707BF800BF000008000000000000000000CB
S31508006D8000100020A01000202C5000200000000059
S31508006D900000000008B50E4B1A78042A0FD100200F
S31508006DA018703AF020FB012103460A4A02200BF02C
S31508006DB035F940F6B832FF21074837F03DFCBDE803
S31508006DC008404FF47A72FF21044837F035BC00BFFB
S31508006DD053450020E86B04083C1700201C170020C8
S31508006DE008B501210220034A0BF018F9BDE808404E
S31508006DF037F0B8B9126C040808B50B4835F0F5FF3A
S31508006E000A4A13680133B3F5B47F136007DABDE89D
S31508006E1008404FF4FA72FF21054837F00DBC0122ED
S31508006E20044B1A7008BD00BFE0C5040818170020F7
S31508006E305C1700205445002010B539F0C2F9022825
S31508006E400ED00121074A04200BF0E8F80EF058F995
S31508006E50BDE81040034601210420034A0BF0DEB8C2
S31508006E6010BD00BF1E6C0408336C040810B539F059
S31508006E70A8F902280ED1FF21074837F0EEFB0120BA
S31508006E800BF030F9BDE81040034601210420034AFF
S31508006E900BF0C4B810BD00BF9C1700205C6C04083A
S31508006EA07FB539F08EF9022818D1184835F097FFC2
S31508006EB03AF0E5FA04463AF0DEFA05463AF0D9FA27
S31508006EC006463AF0E0FA2346CDE90160012104209E
S31508006ED00F4A00950BF0A2F804B070BD01210420FA
S31508006EE00C4A0BF09BF800220B4BFF210B481A604B
S31508006EF037F0ABFB0EF004F9012103460420084ADB
S31508006F0004B0BDE870400BF089B800BFE0C50408BE
S31508006F107D6C04081E6C0408181700205C170020F6
S31508006F20D86C04081FB501230022009306210DF131
S31508006F300F0339F0BFFC28B99DF80F30044823B178
S31508006F4035F04DFF05B05DF804FB35F04BFFF9E76A
S31508006F50E0C50408162808B504D1BDE80840074866
S31508006F6035F040BF152808D1044835F038FFBDE88C
S31508006F700840FF21024837F068BB08BDE0C5040891
S31508006F809C17002073B505F035FA044605F038FA63
S31508006F90224603462449002013F052FE3AF06FFABF
S31508006FA004463AF068FA05463AF063FA2346FF249F
S31508006FB01E4ECDE90050012102201D4A0BF02EF885
S31508006FC0234630461B4A0021009409F085FC1A49DD
S31508006FD01A4809F005FD23460021194A1948009464
S31508006FE009F07AFC184D23460021184A18480094DF
S31508006FF009F072FC23460021164A1748009409F046
S315080070006BFC23462846154A0021009409F064FCC7
S315080070102146304637F019FB2146284602B0BDE81E
S31508007020704037F012BB00BF096D0408BC1700207A
S315080070301F6D0408A16E00086D6E00089C170020DD
S31508007040396E00087C1700201C170020F96D00080F
S315080070505C170020E16D00083C170020956D0008BC
S3150800706037B50446034601210420224A0AF0D6FF12
S31508007070214D74B310F0B0FF044628B10346012130
S3150800708004201E4A0AF0CAFF1D4B1A7872B94FF43B
S315080070907A72FF211B4837F0CFFA009401210420A9
S315080070A02B68194A0AF0BAFF03B030BD0022FF2147
S315080070B014482A601A7037F0D0FAFF21134837F0BF
S315080070C0CCFAFF21124837F0C8FA124835F08AFE82
S315080070D0E3E7FF210B482C6037F0BFFAFF210C4885
S315080070E037F0BBFAFF21094803B0BDE8304037F056
S315080070F0B4BA00BF5E6D0408181700207A6D04083C
S31508007100544500207C170020A66D0408BC170020F3
S315080071105C170020E0C5040837B5054635F033FE90
S31508007120012804460BD137F028F91F4B2146186071
S3150800713004201E4A03B0BDE830400AF06FBF284657
S3150800714035F021FE50BB0121194A04200AF066FFDA
S3150800715037F013F9144B174C1B68C01A2060FA2035
S3150800716006F0CEFD236898421AD84FF47A7006F0D6
S31508007170C7FD2368984215D841F2883006F0C0FD4D
S31508007180236898428CBF032304230B4A01211370FA
S31508007190226804200092094A0AF040FF03B030BD75
S315080071A00123F2E70223F0E710170020CF6D040849
S315080071B0FB6D04081417002053450020276E0408A9
S315080071C030B50A4C0A4B22680A4D1A600A4B85B03C
S315080071D02B600A4B019304F00BFC2B68029001A963
S315080071E02068039336F0B3F905B030BDE4510020AA
S315080071F0D4250020D0250020D8510020CDC404086D
S31508007200014B186836F0B7B9E451002038B504F0D8
S31508007210EFFB0446064D2B68D3F8B00204F0DCFBFE
S31508007220286836F0BBF92046BDE8384004F0D4BBE0
S31508007230E451002010B5284C01F0CCFE02F016F8F7
S31508007240236F012023F0070343F00303236735F078
S3150800725054FE224B00209B6ADB015EBF4FF480324E
S315080072601F4B9A62D4F8203123F0070343F0020338
S31508007270C4F82031D4F8283123F0070343F0020379
S31508007280C4F82831D4F8403123F0030343F001034E
S31508007290C4F84031D4F8603123F0030343F0010306
S315080072A0C4F86031D4F8403223F0030343F00103F5
S315080072B0C4F84032D4F8003223F0070343F0010340
S315080072C0C4F80032D4F8083223F0070343F0010368
S315080072D0C4F8083210BD00BF008000500040005AB4
S315080072E00060005A07B501A802F096FB9DF8053024
S315080072F0012B14D19DF804308BB94FF48012144B2E
S315080073001449586E03F580535A664B6B23F0E053C5
S3150800731043F040634B63C3025CBF0F4B5A6604F0ED
S31508007320DBFA04F073F936F099FC36F001FD04F047
S3150800733083F9FFF77FFF05F0CDFB00F093FC04F01F
S31508007340E5FD01F04BF903B05DF804EB05F0CCBEA2
S31508007350008000500040005A00A0005030B5194D7A
S3150800736095B00DAC0FCD0FC495E80700292384E826
S3150800737007000021144A0DF12600CDE90223134B1C
S315080073800E22CDE9043106913FF0D2FB4FF480215D
S315080073900F4B0DAACDE9071309238DF824300A23CC
S315080073A08DF825300B4B07A90A9320230B9301234D
S315080073B08DF83130084B0948009302AB04F0C2FC43
S315080073C015B030BDACC5040800C005500201020264
S315080073D024C0055055450020981A0020EC1A0020B4
S315080073E0831E012B10B513D8012924D8124B042269
S315080073F0D3F8A03001210220C3F3400302F064F958
S315080074000E4B1B681868B0B1BDE81040436A1847B0
S315080074108B1E012B0DD801280DD8BDE81040064B50
S315080074200022D3F8A03001210220C3F3400302F062
S315080074304BB90129E4D910BD00C00350E85100201A
S3150800744008B50449044805F025FFBDE80840FFF7DC
S3150800745085BF00BFEC510020101B0020014836F004
S3150800746022BE00BFEC1A0020014B1A6A18681047A2
S31508007470EC1A002008B517F0F7FB0022014B1A702A
S3150800748008BD00BF75450020014835F077BC00BF30
S31508007490C8C50408014835F09FBC00BFE0C504080C
S315080074A01FB5084903460868097902AA02908DF8AB
S315080074B00C10009205210022012008F0A3FB05B05C
S315080074C05DF804FBF8C504081FB5084903460868B3
S315080074D0097902AA02908DF80C1000920521422221
S315080074E0012008F08FFB05B05DF804FBFEC5040813
S315080074F01FB5084903460868097902AA02908DF85B
S315080075000C10009205214022012008F07BFB05B0F3
S315080075105DF804FBF8C504081FB5064A034603923E
S3150800752003AA009201220821104608F06BFB05B059
S315080075305DF804FB010121211FB5064A03460392A3
S3150800754003AA009208210022012008F05BFB05B07F
S315080075505DF804FB010221211FB509490346088885
S31508007560897803AAADF80C008DF80E100092062152
S315080075704222012008F046FB05B05DF804FB00BF77
S3150800758004C604081FB503AA009205220749034644
S3150800759008888978ADF80C008DF80E100120114680
S315080075A008F030FB05B05DF804FB00BF08C6040808
S315080075B01FB5084903460868097902AA02908DF89A
S315080075C00C10009208210222012008F01BFB05B0CE
S315080075D05DF804FB0CC604081FB50949034608886C
S315080075E0897803AAADF80C008DF80E1000920821D0
S315080075F00622012008F006FB05B05DF804FB00BF73
S3150800760012C604080A46014935F030B803DB0408F7
S315080076100A46014935F02AB8F8DA04080A46014943
S3150800762035F024B8F3DA04080A46014935F01EB8DD
S31508007630EEDA04080A46014935F018B8E9DA04080A
S315080076400A46014935F012B8DCDA04080A46014947
S3150800765035F00CB8CDDA04080A46014935F006B803
S31508007660C8DA04080A46014935F000B8BFDA040842
S315080076700A46014934F0FABFB6DA04080A4601494F
S3150800768034F0F4BFADDA04080A46014934F0EEBF17
S31508007690A6DA04080A46014934F0E8BF9BDA04086A
S315080076A00A46014934F0E2BF90DA04080A4601495D
S315080076B034F0DCBF85DA04080A46014934F0D6BF3F
S315080076C07CDA04080A46014934F0D0BF71DA0408A6
S315080076D00A46014934F0CABF6EDA04080A46014967
S315080076E034F0C4BF6BDA04080A46014934F0BEBF59
S315080076F068DA04080A46014934F0B8BF65DA0408AE
S315080077000A46014934F0B2BF62DA04080A4601495A
S3150800771034F0ACBF5DDA04080A46014934F0A6BF66
S3150800772058DA04080A46014934F0A0BF4FDA0408BB
S315080077300A46014934F09ABF44DA04080A46014960
S3150800774034F094BF3FDA04080A46014934F08EBF84
S315080077503ADA04080A46014934F088BF35DA0408DB
S315080077600A46014934F082BF30DA04080A4601495C
S3150800777034F07CBF25DA04080A46014934F076BF9E
S315080077801ADA04080A46014934F070BF13DA040805
S315080077900A46014934F06ABF10DA04080A46014964
S315080077A034F064BF0DDA04080A46014934F05EBFB6
S315080077B002DA04080A46014934F058BFFDD904081C
S315080077C00A46014934F052BFF4D904080A46014969
S315080077D034F04CBFEBD904080A46014934F046BFD9
S315080077E0E6D904080A46014934F040BFDBD9040843
S315080077F00348044A0449121A921035F003BA00BF26
S31508007800706100081C6300082C50002008B500F0C1
S315080078102FF8FFF7EDFF124B12498B4212D30020C7
S31508007820114B12498B4218D3FFF77AFA186850F8A9
S315080078302240586840F82240013298688242F5D3BF
S315080078400C33EAE70022F8E71C6844F82200013204
S315080078505C68A242F8D30833E4E70022F8E700BFE1
S3150800786094890508A0890508A0890508A08905083E
S315080078704FF48041124B134A70B59A60D3F88820AA
S31508007880114D42F47002C3F88820104A05F50054D9
S3150800789091664FF0FF3222660D4A62660222C3F8ED
S315080078A0D020BFF34F8FBFF36F8F4FF440360020C1
S315080078B004F070F80020E66004F050F82E6170BD00
S315080078C000ED00E0006000080080004400900050D1
S315080078D0F7FF3700014B1868704700BF14520020A5
S315080078E0084B1B6F03F00703022B04D0032B05D0AC
S315080078F0012B05D0FEE7044B18687047034BFBE7DE
S315080079000348704700800050145200201C52002083
S31508007910002D310108B5FFF7E3FF054B1B6FC3F3D5
S3150800792003330133B0FBF3F0024B186008BD00BF08
S3150800793000800050105200200048704700B4C4046C
S31508007940014B1868704700BF1C520020054B186091
S31508007950054B1B6F03F00703032B01D1FFF7DABFB3
S31508007960704700BF1C520020008000500048704736
S31508007970002D31014FF0B4439868C0F304400C2839
S315080079800AD8DFE800F00B090909090907211909CE
S315080079901B1D1F000F487047002070479B6803F0A7
S315080079A04073B3F1807F11D0B3F1007F10D00A4A3B
S315080079B0002B08BF104670470848704708487047AC
S315080079C0084870470848704708487047084870478D
S315080079D008487047405DC60000093D00C0EA21011D
S315080079E080BA8C010048E801005A62020024F400BB
S315080079F080841E0040420F00014B1868704700BF84
S31508007A00185200204FF000639B6A03F17842B2F5E2
S31508007A10C04F03D21968064A914203D00023037067
S31508007A2083607047012202709A689B694260F7E793
S31508007A3007B0CD5E73B54F4B04461A781AB10222C9
S31508007A401A7002B070BDCDE900220028F9D00126CF
S31508007A501E7035F04FF9484D484B18601AF01EF85D
S31508007A602B785BB900F0BAFD40B945480823454A6A
S31508007A704549006816F08AFD00B92E70434B5A6EC8
S31508007A8062619B6E424AA3614FF480439366414B01
S31508007A905968E16140499960196E2160596E6160C3
S31508007AA0D3F87011A160196CE160596C21613B49EA
S31508007AB0086C1864496C5964012151661B6E9C0454
S31508007AC041D5374AD368D807FCD4364B1A68531CB5
S31508007AD03ED04FF480139340334A13664FF4007335
S31508007AE00426314C2666236635F0C9F801300DD0D8
S31508007AF035F0C5F840F20113984207D04FF4005309
S31508007B0023664FF480432366C4F870610823264C25
S31508007B10684623664FF4805323664FF00063236656
S31508007B204FF4002301A9636635F08DF8009B2366A0
S31508007B30019B63662B78002B83D0124B1A6822664A
S31508007B405B6863667DE7194AD368D907FCD4BCE746
S31508007B50174B1B78002BC1D14FF400720C4B5A6699
S31508007B6003F5A6235B68002BB8D14FF480120E4BA1
S31508007B701A66B3E77745002078450020381B0020B1
S31508007B80445200203C1B0020007108000080005071
S31508007B90009000500080004455CEAC0000C0005450
S31508007BA000000440205200200090004400000450C9
S31508007BB07645002070B5224D04462E78012E02D057
S31508007BC001232B7070BD0028FCD035F058F8013021
S31508007BD00BD035F054F840F20113984205D0194BF2
S31508007BE0194A5E66D368DE07FCD42268174B1A6604
S31508007BF062685A66A268C3F87021E2681A64226944
S31508007C005A64E269D00744BF00229A60104B1A688A
S31508007C10013207D10F4A127822B90F494968C907B4
S31508007C2048BF1A6062690D4B5A66A2699A6619F0CE
S31508007C303DFF0B4B186835F063F80023C1E700BF1A
S31508007C407745002000900040000004400080004472
S31508007C50205200207645002000C0055000800050C4
S31508007C60381B0020F8B54FF00066B36A03F1784276
S31508007C70B2F5C04F26D21A68144B9A4222D1144D37
S31508007C802C7814F0FD0402D000242046F8BD4FF4E9
S31508007C9080371048FFF7CEFE204603F07BFE0E4BDA
S31508007CA02046DF6003F05AFE0C4B1F61B36ADB699E
S31508007CB0984704460748FFF77DFF002CE5D10123C6
S31508007CC02B70E1E74FF48174DFE700BF07B0CD5EA4
S31508007CD076450020181B002000A0004400900044B0
S31508007CE013B5214B1B7803B9FEE700231F4CCDE9DA
S31508007CF000336A4608231E49206816F047FC00BB75
S31508007D001C4AD2F84031D2F840211F2B4FF001030C
S31508007D1012D9203A9340019A1A43019208236A46D7
S31508007D201349206816F0E8FB4FF00053124A1A6010
S31508007D3003F0F0FD02B010BD9340009A1A4300927A
S31508007D40ECE70E4B9842EFD10A4AD2F84031D2F806
S31508007D5040211F2B4FF0010385BF203A93409340E3
S31508007D60019398BF0093D9E7774500204452002035
S31508007D7000710800008000440B020FF00BE000F0D1
S31508007D80034B5868C0F30800003818BF0120704735
S31508007D9000ED00E070B5D0B1C9B10E4E431E0139F1
S31508007DA013F8014F2046325D02F00302012A11F84A
S31508007DB0012F08BF04F12000B55C05F00305012D6D
S31508007DC008BF2032801A01D1002CE9D170BD0120EC
S31508007DD0FCE700BF8B88050810B40A6808461378C4
S31508007DE0022B10D014213023147913FB04130749EE
S31508007DF05B585179CB40DB4303F0010313705DF800
S31508007E00044BFFF789B95DF8044B704730C003503F
S31508007E10F7B504680546244835F027FF00230122F4
S31508007E206179207901F050FC14223023217913FB63
S31508007E3001231E4A99586379D940C943A37901F0A9
S31508007E400101022B217017D134F0ECFF184A2B469A
S31508007E506179207900F030FBFF28024660790ED15F
S31508007E602A46134900F064FB01230246617920790A
S31508007E70CDE9003301F0CEFB002003B0F0BD0126AA
S31508007E802779002301460096384601F085FC2A46E4
S31508007E900749607900F04CFB002361790246207996
S31508007EA0009301963346E5E734E4040830C00350EE
S31508007EB0D97D000802681378022B24D014213023B8
S31508007EC0107913FB001310495B585179CB4091790F
S31508007ED003F00103012912D1508843EA40034FF603
S31508007EE0E07063F03F039BB2834202D11170538066
S31508007EF070474FF6DF718B42F9D10021F6E711B9C9
S31508007F0083F001031370704730C0035010B5044660
S31508007F10064835F0AAFEA3782078B3FA83F304223C
S31508007F2061785B0901F0D0FB002010BD34E4040839
S31508007F3010B5012243780178847830209A40054BA1
S31508007F4000FB01331CB903F501531A6010BD03F594
S31508007F508253FAE700C0035010B50122437801782E
S31508007F60847830209A40054B00FB01331CB903F591
S31508007F7082531A6010BD03F50153FAE700C0035097
S31508007F800122437801789A4030235943014B5A50CD
S31508007F90704700BF40F00350102130230246007896
S31508007FA013FB001305495B585178CB4003F00100D9
S31508007FB093780BB980F00100704700BF30C00350BA
S31508007FC02DE9F04F9A46564B85B01B7806460F4664
S31508007FD01546DDF83C909DF844B0DDF85080002B3E
S31508007FE000F09780072A00F296800E9B002B00F07F
S31508007FF09280B9F1000F00F08E80129BB3F5006FE6
S3150800800000F38980012803D1109B002B00F08380A0
S31508008010444B03EB05131B7B002B7ED0424C1022EE
S31508008020002168463EF084FD04EB45141022A7BBE8
S31508008030394620463EF07CFD43F210036380BBF1CF
S31508008040000F03D1E37843F00303E370364A0E9B2F
S3150800805002EB451CCCE90193129B6901581E9DF859
S315080080604C30C0F30A0003F003039B0643EA001EE4
S3150800807053582E48012E00EA03004EEA0003CDF8B5
S3150800808000A0535017D0B8F1000F2ED19CF802303B
S3150800809068F304138CF8023027E0002120463EF0EE
S315080080A047FD4FF444736380BBF1000FCED1E378EC
S315080080B043F03003C9E713230CF1100ECCF80C304B
S315080080C09CE80F008EE80F006FF00301DCF81C2017
S315080080D0109B61F39F02012FCCF81C20CCF81430BA
S315080080E003D1CCF81890CCF8043000270D4A2901A2
S315080080F002EB051342F80180159A28465A6069462C
S3150800810022469F605E7301F0B9FB384605B0BDE8AC
S31508008110F08F0748FAE70748F8E70748F6E700BF89
S3150800812079450020441C0020441B00200F80FFF3E3
S31508008130028000F0018000F0078000F038B5124B8D
S3150800814005461B78DBB1E0B134F0D4FD0F4A0023B5
S315080081501146147B54B92B6001251A0101EB031350
S315080081601D738C5034F0CCFD204638BD0133082BE6
S3150800817002F11002EDD134F0C3FD0548F5E70548D4
S31508008180F3E70548F1E700BF79450020441C0020C5
S31508008190048000F0028000F0018000F038B534F069
S315080081A0A9FD002305460B4A147B6CB90133082B3D
S315080081B002F11002F8D101F00DFB074B28461C709E
S315080081C034F09EFD204603E0284634F099FD034826
S315080081D038BD00BF441C002079450020058000F00A
S315080081E00D4B10B51B78044693B1072812D834F006
S315080081F081FD0A4B03EB04131A7B2AB100241C7376
S3150800820034F07EFD204610BD34F07AFD0448FAE7C6
S315080082100448F8E70448F6E779450020441C00209E
S31508008220068000F0028000F0018000F0154B13B5BF
S315080082301868002301908DF8043034F05BFD124B6A
S315080082401C7824B134F05CFD104802B010BD012240
S315080082501A7034F055FD0E4B01A81C731C7783F871
S315080082602C4083F83C4083F84C4083F85C4083F804
S315080082706C4083F87C4008238DF8073001F0CEFA6D
S315080082802046E2E75CDB040879450020038000F01D
S31508008290441C00200A4A08B512785AB107280BD898
S315080082A0084A02EB00131B7B43B1002101F0A8FA30
S315080082B0002008BD0448FCE70448FAE70448F8E744
S315080082C079450020441C0020028000F0018000F05F
S315080082D0078000F00A4A08B512785AB107280BD861
S315080082E0084A02EB00131B7B43B1012101F088FA0F
S315080082F0002008BD0448FCE70448FAE70448F8E704
S3150800830079450020441C0020028000F0018000F01E
S31508008310078000F00A4A08B5127852B107280AD829
S31508008320084A02EB00131B7B3BB101F0F3FA00206D
S3150800833008BD0548FCE70548FAE70548F8E700BF21
S3150800834079450020441C0020028000F0018000F0DE
S31508008350078000F00D4B1B7893B1072812D889B116
S315080083600B4B03EB00131B7B73B10A4B1A6D0123EE
S315080083708340134214BF0123002300200B7070476B
S3150800838005487047054870470548704779450020F5
S31508008390441C002000000450028000F0018000F018
S315080083A0078000F00B4A10B512780C4662B1072810
S315080083B00CD859B1084A02EB00131B7B43B101F0F4
S315080083C0BBFA2070002010BD0448FCE70448FAE711
S315080083D00448F8E779450020441C0020028000F094
S315080083E0018000F0078000F0184B2DE9F0411F6D61
S315080083F05B6D1F4000D5FEE701260025144CDFF80B
S315080084005880374218D02368C8F85060A3B1A168CD
S31508008410284601316268A1609847637B012B0BD11E
S3150800842050B90C4B03EB45131A7B60F341021A73E0
S315080084301A7F60F341021A770135082D4FEA46067E
S3150800844004F11004DDD1BDE8F08100BF000004503E
S31508008450441C0020441B00200020045070B504462C
S3150800846001250B4E04B970BD94FAA4F0B0FA80F059
S3150800847005FA00F306EB001224EA03045368002BFE
S31508008480F0D0117B11B191689847EBE79847E9E777
S31508008490C41C002038B505460C4634F02BFC0022D7
S315080084A0044B03EB05135C601A73BDE8384034F0DF
S315080084B027BC00BFC41C0020F8B504460D46174665
S315080084C01E4634F017FC1CB9052D1AD0FF2421E0EE
S315080084D0012C05D1012D21D0032DF7D1042410E05C
S315080084E0022C07D1052D1BD0072D1BD0002DEDD151
S315080084F0062406E0032CE9D1022D15D0052DE5D179
S315080085000A240A4904F1100301EB03110123C1E906
S3150800851001760B7334F0F4FB2046F8BD0324F0E72C
S315080085200724EEE70824ECE70924EAE7C41C002040
S31508008530F8B505460E46174634F0DCFB134B2C46B9
S31508008540D3F8242405F0FC0122FA05F3DB0712D53B
S3150800855000230133DBB2042B04D1FF2434F0D0FB13
S315080085602046F8BDEC1804F003040C4422FA04FC77
S315080085701CF0010FEDD1FF2CF0D00122044B03EBC8
S315080085800413C3E901671A73E8E700BF00C0035084
S31508008590C41C0020074BD3F82404D3F8202403F581
S315080085A00053104000F0553020F05020C3F8200446
S315080085B0FFF754BF00C00350074BD3F82404D3F881
S315080085C0202403F50053104000F0AA3020F0A02024
S315080085D0C3F82004FFF742BF00C00350024B1968D6
S315080085E0024B186815F0AEBE2452002044520020F3
S315080085F070B59400224605460E463EF0EDFA431C39
S315080086000AD058B92246314628463EF067FA00286D
S31508008610034808BF002070BD0248FCE70248FAE795
S3150800862010E000F021E000F024E000F010B5044668
S315080086303EF0D6FA431C10D088B901F0FFF923465C
S3150800864020F003002044984201D1002010BD53F8C1
S31508008650042B0132F7D00348F8E70348F6E7034846
S31508008660F4E700BF0EE000F021E000F024E000F09F
S3150800867008B534F034FB014B186008BDB42500205A
S31508008680014B186834F02FBBB4250020044BD3F8EF
S315080086908420D206FBD4D3F88400C0F38110704737
S315080086A00040005038B5104B0546D3F880300C46CC
S315080086B003F00303022B0BD0032B0DD0012B0FD194
S315080086C0FFF70EF90E2305B1286004B1236038BD03
S315080086D0FFF750F90723F6E7FFF7FCF80623F2E75A
S315080086E000231846EFE700BF0080005038B5184B46
S315080086F00546D3F820010C4600F00700062823D8C3
S31508008700DFE800F0040A0E16121A1E00012305B14E
S31508008710286004B1236038BDFFF7DCF80523F6E7C7
S31508008720FFF70EF90323F2E7FFF724F90723EEE72D
S31508008730FFF71CF90223EAE7FFF7CCF80623E6E77A
S31508008740FFF7FEF80423E2E700231846DFE700BF39
S315080087500080005038B5174B0546D3F828310C462B
S3150800876003F00703013B052B20D8DFE803F00313CA
S315080087701B0F0B17FFF7AEF8052305B1286004B1E8
S31508008780236038BDFFF7A6F80623F6E7FFF7F2F8E9
S315080087900723F2E7FFF7D4F80323EEE7FFF7D0F84D
S315080087A00423EAE7FFF7E2F80223E6E70023184680
S315080087B0E3E700BF0080005073B50D460021114B5A
S315080087C00191D3F88041064604F00304022C13D025
S315080087D0032C0CD0012C13D101A8FFF787FF102416
S315080087E00EB1019B336005B12C6002B070BDFFF776
S315080087F0C1F807240190F3E7FFF7B8F80190EFE70F
S315080088000C46EDE700800050002337B50193164B60
S315080088100546D3F820320C4603F00703042B21D86B
S31508008820DFE803F0030B11161B0001230DB1019AB3
S315080088302A6004B1236003B030BD002101A8FFF708
S3150800884089FF1223F2E7FFF795F807230190EDE772
S3150800885034F0E6F90A230190E8E7FFF7CDF8092393
S315080088600190E3E70023E1E70080005038B5104B9C
S315080088700546D3F840310C4603F00303022B0BD010
S31508008880032B0DD0012B0FD134F0CAF90A2305B1F9
S31508008890286004B1236038BDFFF7AEF80923F6E770
S315080088A034F0C1F90C23F2E701230020EFE700BFFB
S315080088B000800050002337B50193164B0546D3F8C0
S315080088C060320C4603F00703013B032B1FD8DFE891
S315080088D003F0020E1914002101A8FFF707FF102361
S315080088E00DB1019A2A6004B1236003B030BD00219E
S315080088F001A8FFF7BBFF1123F2E7FFF73BF80723B1
S315080089000190EDE7FFF732F802230190E8E700232C
S31508008910E6E700BF00800050002337B50193164BE9
S315080089200546D3F894320C4603F00703013B032BA4
S315080089301FD8DFE803F0020E1914002101A8FFF77B
S31508008940D5FE10230DB1019A2A6004B1236003B045
S3150800895030BD002101A8FFF789FF1123F2E7FFF7D1
S3150800896009F807230190EDE7FFF700F802230190C5
S31508008970E8E70023E6E700BF0080005038B5144B4F
S315080089800546D3F800020C4600F0070004281BD859
S31508008990DFE800F003090D111500012305B1286071
S315080089A004B1236038BD34F03BF90A23F6E7FFF734
S315080089B023F80923F2E734F036F90C23EEE7FEF73D
S315080089C0A9FF0F23800AE9E700231846E6E700BF58
S315080089D00080005038B5144B0546D3F808020C46FB
S315080089E000F0070004281BD8DFE800F003090D1182
S315080089F01500012305B1286004B1236038BD34F0A1
S31508008A000FF90A23F6E7FEF7F7FF0923F2E734F032
S31508008A100AF90C23EEE7FEF77DFF0F23800AE9E744
S31508008A2000231846E6E700BF0080005038B5104B13
S31508008A300546D3F840320C4603F00303022B0BD04D
S31508008A40032B0DD0012B0FD134F0EAF80A2305B118
S31508008A50286004B1236038BDFEF7CEFF0923F6E788
S31508008A6034F0E1F80C23F2E701230020EFE700BF1A
S31508008A700080005038B5104B0546D3F860310C46D7
S31508008A8003F00303022B0BD0032B0DD0012B0FD1C0
S31508008A9034F0C6F80A2305B1286004B1236038BD4E
S31508008AA0FEF7AAFF0923F6E734F0BDF80C23F2E730
S31508008AB001230020EFE700BF00800050B0F5207FBB
S31508008AC01FD009D8B0F5007F15D003D868B1B0F526
S31508008AD0C07F0AD000200CE0B0F5607FFAD10B4BBE
S31508008AE0D3F88000C0F3011003E0084B186FC0F3F9
S31508008AF0033001307047054BD3F89000C0F304608B
S31508008B00F7E7024B186FC0F38020F2E700800050A9
S31508008B1002464FF48030104B10B598660020FFF7D8
S31508008B20CDFF504341F671320C4BDC69DA635A6863
S31508008B3004F4803422F4401259B90949884294BF92
S31508008B4000200120000502435A600CB10022DA63B6
S31508008B5010BD0449F2E700BF009000500000035022
S31508008B60005A6202002D3101430905D0012B0CD0B1
S31508008B70022B084B18BF002300F01F0039B103F57C
S31508008B808053012282401A607047034BF4E703F5CD
S31508008B900053F6E768800050648000501FB5002136
S31508008BA080280446CDE9001100F0998029D80028CC
S31508008BB000F09980A0F120043D2C35D83D2C33D8FF
S31508008BC0DFE804F091999199A9A9A9A9A999B33CB3
S31508008BD0C9603C9999993232323232323232999995
S31508008BE09968D399323232323232323232323232B2
S31508008BF032A9919191CE3C3CD8774DAE3232323281
S31508008C003288B0F5B06F00F090802DD8B0F5207F8F
S31508008C1071D00CD8B0F5C07F65D0B0F5007F65D0AF
S31508008C20B0F5807F00F08680009804B010BDB0F5DE
S31508008C30607F6BD00DD8B0F5407FF5D1FEF76AFEA0
S31508008C4002464FF42070FFF739FFB2FBF0F25208E4
S31508008C505AE0B0F5806F5ED0B0F5A06FE4D1002180
S31508008C606846FFF7D1FDDFE7B0F5106F78D016D864
S31508008C70B0F5E06F79D00AD8B0F5C06F6BD0B0F513
S31508008C80D06FD1D100216846FFF778FECCE7B0F562
S31508008C90F06FC9D100216846FFF7ECFEC4E7B0F5CE
S31508008CA0406F3DD013D8B0F5206F63D0B0F5286F6C
S31508008CB0BAD10021324B0391D3F8703203F0030383
S31508008CC0012B02D103A8FFF7D1FD039B3CE0B0F5C9
S31508008CD0486FA9D100216846FFF71EFEA4E7FEF7F4
S31508008CE0FFFD0090A0E7FEF715FEFAE7FEF7F8FD90
S31508008CF00246204604E0FEF70DFE02464FF42070B9
S31508008D00FFF7DCFEB2FBF0F200928DE701A8FFF751
S31508008D10C9FC019AEDE700216846FFF7E7FC83E7FF
S31508008D2000216846FFF716FD7EE700216846FFF733
S31508008D3043FD79E74FF0E02302911B695B0705D5F0
S31508008D40FEF7E8FD0290029B00936DE703A902A8CF
S31508008D50FFF78CFDF7E700216846FFF787FD63E715
S31508008D6000216846FFF736FE5EE700216846FFF7F2
S31508008D705DFE59E700216846FFF79CFD54E700BFF2
S31508008D800080005008B58020FFF708FF034B984283
S31508008D909EBF4FF48032024B1A6708BD005A620222
S31508008DA000A000501FB503460020B3F5807F019050
S31508008DB000F0C18064D85D2B55D84C2B07D82D2BD5
S31508008DC048D8232B2CD8019805B05DF804FB4D3BF9
S31508008DD0102BF8D801A252F823F000BF2D8F0008F7
S31508008DE0C78D0008C78D0008C78D0008E38E0008E8
S31508008DF0C78D0008C78D0008B18F0008018F0008CD
S31508008E00A78E0008A78F0008C78D0008C78D000821
S31508008E10C78D0008C78D0008C78D0008BB8F0008DE
S31508008E20243B092BCFD801A252F823F02D8F000836
S31508008E302D8F00082D8F00082D8F00082D8F000814
S31508008E40C78D0008238F0008C78D0008C38E000849
S31508008E50638F00083D2B7FD03E2BB4D1002001A99B
S31508008E60FFF7E4FDAFE7802BADD1594B1B6F03F03D
S31508008E700703013B032BA6D8DFE803F0514E858D87
S31508008E80B3F5F06F68D021D8B3F5B06F49D00FD8D5
S31508008E90B3F5607F00F0838095D3B3F5806F45D036
S31508008EA0B3F5A06F8FD1002001A9FFF7ADFC8AE7C3
S31508008EB0B3F5D06F55D0B3F5E06FCFD0B3F5C06F2B
S31508008EC081D1002001A9FFF7D1FC7CE7B3F5206F1B
S31508008ED06ED00BD8B3F5086F48D0B3F5106F7FF492
S31508008EE072AF002001A9FFF775FD6CE7B3F5406F77
S31508008EF059D0B3F5486F60D0B3F5286F7FF463AFE8
S31508008F00334BD3F8703203F00303012B5AD0022BEC
S31508008F100CBF1523002300E00523019353E7022322
S31508008F20FBE7002001A9FFF747FC4CE7002001A951
S31508008F30FFF7DCFB47E74FF0E02302901B695B076E
S31508008F4005D5FEF7E7FC0D230393039BE5E703A985
S31508008F5002A8FFF78BFCF8E7002001A9FFF78AFDB6
S31508008F6031E7002001A9FFF709FD2CE7184BD3F8D4
S31508008F70003103F00303022B07D0032B09D0012B82
S31508008F800BD1FEF7DDFC0323C7E7FEF735FD092302
S31508008F90C3E733F043FE0823BFE70123BDE701A972
S31508008FA0FFF780FB0FE7002001A9FFF7D3FB0AE7CD
S31508008FB0002001A9FFF77EFC05E7002001A9FFF7BD
S31508008FC0ABFC00E7002103A8FFF750FC1123A4E738
S31508008FD0008000504FF48012034B5A664FF48032DB
S31508008FE0024B9A62704700BF009000500050005A2A
S31508008FF038B504468020FFF7D5FE032800F08380A5
S315080090004FF48012524B4FF0A0615A6645F60E0295
S31508009010504BC3F88020504A91624FF4803102F5D4
S31508009020805291629A6DD203FCD4996D11F08041F9
S31508009030FBD1D4E90002120542EA0062E07B024352
S31508009040207B42EA0042607B42EA0032A07B42EA89
S3150800905080121A619869D4E90452120642EA8562B6
S3150800906000F000400243A07EE57E0243207E42EAED
S315080090700042607E42EA00229A611A6AE06922F09A
S315080090800F0242EA8502354D00283DD11A6294F84E
S315080090902420996A94F82000D200294042EA401216
S315080090A00A4394F8211042EA011242F480329A6285
S315080090B02B49284A936D31EA0303FBD14FF080719F
S315080090C0254881621369A56823F4700343EA0553AA
S315080090D013614FF00043836194F822300BB9214B9A
S315080090E0996294F823303BB94FF480321D4B9A624B
S315080090F0184A936D5B00FCD494F825301BB1154BC8
S31508009100194AC3F8802038BD024342F008020228F3
S315080091101A6208D119614FF40852996113484FF43D
S315080091207F4133F0C8FE0B4994F822308A6A94F8D6
S3150800913020001B062A4043EA4013134394F82420D0
S3150800914043EAC20394F8232043EA02438B62D3E737
S31508009150009000500040005A0050005AC7FFFEFE1B
S31508009160030001000060005AF1A7FFFF3440005ACF
S31508009170014B93F90000704751570020014B1880A6
S31508009180704700BF0C570020B0F5207F10B50C467D
S315080091905DD008D8B0F5007F4ED003D8C0B1B0F581
S315080091A0C07F15D010BDB0F5607FFBD12C4B4C1E8F
S315080091B0D3F8FC202B4912F0807F4FEA041427D1FC
S315080091C0D1F8803023F030032343C1F88030E9E733
S315080091D033F080FE33F08CFE4FF48031224B214A67
S315080091E01967136F013C23F4704343EA043313678A
S315080091F0FEF790FB0446FFF749FAC0F10201204644
S3150800920033F070FE00F042F8BDE81040FFF7BABD33
S31508009210D3F8FC2022F08072C3F8FC20D1F8802015
S3150800922022F030022243C1F88020D3F8FC2042F015
S315080092308072C3F8FC20B5E70A4A4C1ED2F8903073
S3150800924023F0F85343EA0463C2F89030AAE7054AC4
S315080092504C1E136F23F4806343EA84231367A1E744
S3150800926000ED00E0008000500090005008B5012194
S31508009270022000F083F833F02DFE33F039FE4FF468
S315080092808032014B1A6708BD0090005008B54FF4AC
S31508009290C070FFF783FCBDE808400449884294BFC4
S315080092A0012102214FF42070FFF76EBF80F0FA0209
S315080092B0024A536B0342FCD1704700BF0040095075
S315080092C0044A4178536F23F4407343EA01235367F2
S315080092D0704700BF004000500E4A10B51369044697
S315080092E043F00403136104F021FA33F01DFE0A4B20
S315080092F05B6E5B0142BF094B094AC3F8202430BFA5
S3150800930033F013FE04F04CFA1CB9BDE81040FEF722
S3150800931001BB10BD00ED00E00080005000E00350E6
S315080093200000FF0F0C4A10B51369044643F0040306
S3150800933013610A4B5B6E5B0142BF094B094AC3F8CE
S31508009340202404F0F3F930BF04F02AFA1CB9BDE86A
S315080093501040FEF7DFBA10BD00ED00E000800050B7
S3150800936000E003500000FF0F034A0179D36E23F093
S3150800937030030B43D366704700400050F8B50446E7
S315080093801C4BD3F88420D106FBD4D3F88430C3F31E
S3150800939081139C422CD0FEF7A3FA012C064602D173
S315080093A0214633F09FFD33F09AFC4FF00072124BC2
S315080093B007465A66204633F0BBFD4FF480630D4DD1
S315080093C0621E93402B676B6E9A0103D4D5F88430DE
S315080093D09B060AD5384633F086FC022C08D130465F
S315080093E0BDE8F840002133F07DBDD5F88430EAE7C2
S315080093F0F8BD00BF004000500060005010B50C4694
S3150800940008B9FEF76DFA074B21461B783BB1064BA8
S31508009410984204D80120BDE81040FFF7AFBF0220EC
S31508009420F9E700BF7A450020005A62020278034B2A
S31508009430012100201A70FFF7E1BF00BF7A4500201E
S315080094404FF0004238B5244B244C5A664AF6CD33C1
S31508009450656C014605F00105236428BB0120FFF76A
S3150800946027FF6368DB0715D51D4B586008461D4B5B
S31508009470226BD2070CD4984208D1072415B1174B92
S31508009480194A1A6439F057FC204638BD0130EFE70F
S315080094909842F2D00024F1E70132236B13F0080357
S315080094A005D08A42F8D1E8E700220E49F5E78A4254
S315080094B0E3D020210A4A91620121A2F58052516027
S315080094C00649084A886A800603D49342D5D00133F0
S315080094D0F8E79342DDE700BF0090005000400950CE
S315080094E00060095040420F003254FFFF4FF000421F
S315080094F038B5164B01465A664AF6CD33144C154A0A
S31508009500656C236443780B205B0043F00103D36347
S31508009510FFF7CEFE63688A7823F4F87343EA0213EA
S315080095206360CA784B7943EA0223A3600A798B7988
S3150800953043EA022323610878FFF782FFEB0744BF5B
S31508009540054B236439F0F7FB012038BD0090005025
S3150800955000400950004000503254FFFF4FF00042CF
S31508009560124B70B55D6E03F580535A664AF6CD33D5
S3150800957004460F4980204E6C0B64FFF799FE0B6A70
S3150800958023F00F030F2C94BF234343F00F030B6202
S31508009590F30744BF074B0B64002DA2BF4FF00042F0
S315080095A0054B5A6639F0C7FB70BD00BF00800050F6
S315080095B0004009503254FFFF00A000504FF000420F
S315080095C0104B70B55D6E03F580535A664AF6CD3377
S315080095D004460D4980204E6C0B64FFF769FE0B6A42
S315080095E023F4F85343EA04230B62F30744BF074BFB
S315080095F00B64002DA2BF4FF00042054B5A6639F0A6
S315080096009AFB70BD00800050004009503254FFFF9D
S3150800961000A00050072A2DE9F041154698464FF05C
S31508009620030401F003072DD89600B44000FA06F2A9
S3150800963021461C4833F07DFC21461B4807FA06F2F2
S3150800964033F077FC194B1A499DF81800B8F1000F4A
S3150800965018BF1946012303FA05F50D60154B16497F
S31508009660002818BF0B461D60144B9DF81C00C3F854
S315080096702054103103F22443002818BF0B461D60FE
S31508009680BDE8F081A2F10806B600B44000FA06F279
S3150800969021460B4833F04DFC21460A4807FA06F2E4
S315080096A0CEE700BF00C4035008C4035010D40350CB
S315080096B010E4035014E4035014D4035000E003509C
S315080096C004C403500CC403502DE9F04105460F4667
S315080096D01E4690464AB101233022194C8B4002FBA4
S315080096E0004436B304F5825423600F21072F05EB97
S315080096F0450388BFA7F108044FEA0313114895BF2D
S31508009700BC00A40004330C3308FA04F2A140184440
S3150800971033F00FFCB8F1000F09D101233021084AB4
S31508009720BB4001FB05223EB102F582521360BDE83B
S31508009730F08104F50154D7E702F50152F6E700BFB8
S3150800974000C0035030C00350104B0140D3F83024FA
S3150800975022EA0002C3F83024D3F830241143C3F8B0
S315080097603014D3F82C240243C3F82C24084AD36EA9
S3150800977003F03003202B1FBFD36E23F0300343F0D2
S315080097801003D366034BC3F82004704700C0035088
S315080097900040005000E0035038B514461D46032229
S315080097A083F00103FFF790FF012004F110018840C0
S315080097B005FA01F1FFF7C8FF9DF81010034B044A9C
S315080097C0002918BF1346186038BD00BF24E40350AB
S315080097D024D4035010B5152002F0AEF80024FF2259
S315080097E0064B21465C6520209A625C60FFF7BCF94F
S315080097F02146BDE810402120FFF7B6B90000045005
S31508009800044A054B002908BF1346012282401A6004
S31508009810704700BF401004504020045010B5012185
S3150800982004462020FFF7A0F901212120FFF79CF923
S315080098300122114B15205A60227812069A60617827
S31508009840A27842EA01429A61FF229A6200229A634A
S315080098501A644FF000425A654FF0FF3203F5005381
S315080098601A6502F097F81520E17802F0A1F8BDE82C
S315080098701040152002F072B800000450F8B5012512
S31508009880C3B2D1F800E091F80AC00F7B0C469D40A0
S31508009890CB7A1D491D4E0D65810001F1A04101F5E8
S315080098A08821C1F804E04FF0300E0EFB00601B055E
S315080098B0617B43EA0C4343EA475322F003020166FD
S315080098C0C365026733F016FA114B5D65237A13B147
S315080098D0336C2B433364637A13B1B36B2B43B36393
S315080098E02279A37943EA0243074A93616179E379C6
S315080098F043EA014306498B61044B55639D64BDE801
S31508009900F84033F0FDB900BF0020045000000450B1
S315080099100010045010B50124C0B2844033F0EAF9AF
S31508009920044B5A6D22EA04025A659C62BDE810404F
S3150800993033F0E6B90000045010B50124C0B28440E3
S3150800994033F0D8F9074BDA6A224208D15B6B9C439D
S315080099500CBF0124002433F0D3F9204610BD00249F
S31508009960F9E700BF000004504FF48032054B9A66B1
S3150800997041F6713203F51C33DA63012203F500530D
S31508009980DA6070470090005041F671320121064BAB
S31508009990DA6303F50052D1600022DA634FF48032AD
S315080099A0A3F518339A66704700000350013831282A
S315080099B09ABF024B185C0020704700BF81DB040881
S315080099C038B5C2F30625044602F0070241B942EA51
S315080099D0052242F440220634074B43F8242038BDBA
S315080099E01146284633F0B4FA02462846FFF7DEFF4A
S315080099F0163442EA0022EFE700800350044B186849
S31508009A00421C02BF034AD2F894001860704700BF90
S31508009A1048520020004000504FF48032064B5A66E8
S31508009A2003F5E6239B69C3F38512827003F03F02B0
S31508009A301B0B427003707047009000500120034BC7
S31508009A409B680A3303F01F03984070470080E00FB5
S31508009A5070B5054616461C4621B94FF42070FFF727
S31508009A609DF80146402C1BD003D8DCB1202C1BD016
S31508009A7070BD602CFCD1042303FB06F2530803EBEC
S31508009A804113B3FBF2F3094A203B02EAC303AA686F
S31508009A9022F06002AA60AA681443AC60EB61E7E7AB
S31508009AA00623E9E71023E7E70823E5E7F8FF7F0041
S31508009AB0012100F5805310B5596040F6AA6341F2BA
S31508009AC0050243610023094C8360C365C26000F543
S31508009AD000520361C361C3649464054C8365A04264
S31508009AE004BF03654365516010BD00BFFFFF010059
S31508009AF000C0055070B50D46FFF7DAFF012300F5E3
S31508009B0080567360AB7C04461BB1836843F0804380
S31508009B108360EB7C5BB1244B9C4202BF2A7DA3F594
S31508009B201033C3F8C821E36D43F08003E3652A8A3E
S31508009B306B7B20461343EA891343E3602B7BD5E905
S31508009B400112FFF785FF6B7D1BB1A36843F48033D1
S31508009B50A360AB7D1BB1A36843F40043A360EB7D10
S31508009B602A7E1B07120502F4E00203F0E0431343C2
S31508009B70A3656B7E9A1E012A4FF0020209D80B498B
S31508009B80032BC1F8202709D10423F3652B786361D9
S31508009B9070BD0749012BC1F82027F4E7042204F514
S31508009BA00053DA65F2E700BF00C0055000D0035045
S31508009BB000E00350034B5A68D20702D5DA69002A37
S31508009BC0F9D1704700800A50054B9A689107FCD472
S31508009BD05A689207F9D4DA69002AF6D1704700BFA5
S31508009BE000800A5008B5FFF7E5FF0222014B1A610B
S31508009BF008BD00BF00800A5008B5FFF7E5FF01223F
S31508009C00024B03F580514A601A6108BD00800A506C
S31508009C1008B5044B5968012903D1FFF7E3FF024B46
S31508009C20596008BD00800A5000A00A5010B5064CBD
S31508009C30FFF7CAFF6368012B03D1FFF7E9FFFFF7B8
S31508009C40C3FF0378E36010BD00800A50B8B94A68BC
S31508009C500B7812B1127843EAC2034A7843EA420300
S31508009C608A6812B1127843EA82138A7843EA820331
S31508009C70CA6812B1127843EA4223014A93647047CC
S31508009C8000800A5008B9014B5964704700900A5081
S31508009C9008B9014B5964704700A00A5008B9014B2E
S31508009CA01964704700A00A5010B9024B186C704727
S31508009CB00020704700800A5048B911B1012903D025
S31508009CC07047044BD86C7047024B186D70470020DC
S31508009CD0704700BF00800A5040B911B1012903D06E
S31508009CE07047034BDA647047014B1A65704700BF2B
S31508009CF000800A5010B9024B586D70470020704713
S31508009D0000800A5038B50446054D39F039F80FCCAD
S31508009D100FC594E8030085E80300002038BD00BF9E
S31508009D20B825002047F6FF739A42F0B56FD002298E
S31508009D306FD8394B5B5C012B6BD8384DDF0005EBD0
S31508009D40C30415F83330A178012B13D10025E07828
S31508009D50401AA84202D80844C0B2F0BD431B666840
S31508009D60A0EB530336F913609642D4BF1D4603F1A0
S31508009D70FF30EEE760680028EFD0B0F90040944263
S31508009D8004DBB0F902409442B8BF144683883D44C8
S31508009D90FF2B19BFC8224FF0280CB0F90620B0F9DE
S31508009DA008C0A2EB04030CBF0126002693FBFCF3B4
S31508009DB033446E781BB29E4201DD002B01DA731E16
S31508009DC01BB24FF47A7C01339BB2071D5D1E2DB280
S31508009DD04FEAC50E00EBC505EA88AD689E4214FB3E
S31508009DE0025222EAE27202F15C02B2FBFCF204DDE4
S31508009DF037F8335001339542E8D200EB0E039888C2
S31508009E00904228BF1046884238BF0846A4E7FF207C
S31508009E10A3E70020A1E700BFB3DB0408B8250020AC
S31508009E200229F0B555D82C4B585C012851D82B4C33
S31508009E3004EBC00114F830004B6801280FD1C8782C
S31508009E408C78904294BFC4EB0001C4EB0201001B5E
S31508009E50CAB28242C8BF002233F91200F0BD002BF5
S31508009E6037D08878904202D3B3F90200F6E7CC7867
S31508009E70B3F900009442F1D94C789988013CA1F1D4
S31508009E80FF06714203F10405E4B2714103F10C07C0
S31508009E90CEB2B44216D805EBC1014FF47A756A43BF
S31508009EA0B1F902404968521A04EBD47102EB610217
S31508009EB092FBF4F29042D1DBB3F902009042CDDC7A
S31508009EC010B2CBE737F831C04E1C9445E3D3314680
S31508009ED0DEE70348C2E700BFB3DB0408B825002065
S31508009EE00080FFFF08B50448FFF70CFFBDE80840EF
S31508009EF0012038F06ABF00BFB8DB04087FB514221A
S31508009F00002101A83CF014FE044B01A94FF0FF30D4
S31508009F10029338F096FF07B05DF804FB006A180054
S31508009F2008B5B0B14FF480620B4B9A6633F046FA27
S31508009F304FF098435A6CD202FCD54FF48062586DA4
S31508009F40064B10F470209A6604D0BDE8084033F03A
S31508009F50B0B8212008BD00BF0090005000A00050F6
S31508009F602DE9F0418CB08846DDE912761D46044697
S31508009F70002847D0002945D0002F43D0002E41D0D5
S31508009F8013F00F033ED120482049A360002A08BFDA
S31508009F900146E361C4E90013404609A933F014F900
S31508009FA068BB2046099933F000FA2946204633F063
S31508009FB0FCF96946404633F0B5F900BB69462046C8
S31508009FC033F0DFF9404603A933F0B7F9B8B92046AC
S31508009FD003A933F0D6F906970127204645F0005520
S31508009FE006A90797089533F0CCF9204609A90996DA
S31508009FF00A970B9533F0CFF92046FFF791FF0CB07F
S3150800A000BDE8F0812120FAE70001000400010104FF
S3150800A0102DE9F04F97B0894690461F460546DDF86C
S3150800A02080A0002800F0BB80002900F0B8803AB173
S3150800A030229B002B00F0B380239B002B00F0AF80FF
S3150800A040BAF1000F00F0AB80219B002B00F0A7802F
S3150800A05067B13C680026229B43440293464507D3D2
S3150800A06007B13C60002017B0BDE8F08F3C46F1E729
S3150800A0705CB1229B219A9B5D125D01345340239A61
S3150800A08004F00F0493550136E8E7A8EB060BBBF17D
S3150800A0900F0F58D9434B4846C5E90034AC60EC610C
S3150800A0A013A933F091F80028DDD1284613992BF02F
S3150800A0B00F0B33F07AF95946284633F076F94846B5
S3150800A0C004A933F02FF90028CDD1284604A933F086
S3150800A0D058F9484607A933F030F90028C3D128466D
S3150800A0E007A933F04EF9012322992F4ACDF828A063
S3150800A0F00B930C928A190D9228464BF000520AA926
S3150800A1000E9303920F9233F03CF928460DA933F0CB
S3150800A11038F9239B039A99190123109111931292E6
S3150800A120214A284610A9CDF84CA01493159233F06D
S3150800A13032F9284613A933F02EF92846FFF7F0FE20
S3150800A1405E4400288FD1229B03EB060B239B1E44FB
S3150800A150029B5B4501D1464680E7ACB9219B224666
S3150800A160CDE900A3494610232846FFF7F9FE002843
S3150800A1707FF479AF0AF1100212F8013D0133DBB220
S3150800A18013700BB95245F7D1219A1BF8013B125DA2
S3150800A1900134534006F8013B04F00F04D8E72120A8
S3150800A1A061E700BF03030004100000202DE9F04F0B
S3150800A1B097B0894615469A460446209FDDF888805A
S3150800A1C0DDF890B0269E002800F09D80002900F05A
S3150800A1D09A80002E40F08A80002B00F09480B8F117
S3150800A1E0000F0AD0219B002B00F08D80002A40F03A
S3150800A1F09F80F10700F1878002E0002A40F0858001
S3150800A200FB1F062B7FD8524B0BEB05029A427AD8D6
S3150800A2100023504A4846C4E90023A360E36113A912
S3150800A22032F0D2FF00285ED12046139933F0BDF8EC
S3150800A230204646EA074133F0B8F84146204633F04F
S3150800A240B4F82946204633F0B0F8484601A933F059
S3150800A25069F8002847D1204601A933F092F8484604
S3150800A26004A933F06AF800283DD14FF001092046C9
S3150800A27004A933F086F8239B45F000550793219BE4
S3150800A280CDF82090204609950DA90A9347F0005766
S3150800A29048F00053CDF82C900C93CDF834A0CDF8A7
S3150800A2A038900F9733F06DF820460AA933F069F80D
S3150800A2B0204607A933F065F8259B204610A946F0E5
S3150800A2C00056CDF840B0CDF8449012951393CDF8CA
S3150800A2D05090159633F05FF8204613A933F05BF8D3
S3150800A2E02046FFF71DFE17B0BDE8F08F259B53B13A
S3150800A2F0BAF1000F07D0B8F1000F01D0219B13B1B6
S3150800A300B5B9022E20D12120EDE7239B002BFAD0E8
S3150800A310BBF1000FF7D0C7F10F03DBB2032B3FF6F3
S3150800A32068AF0122DB0002FA03F3AB42EBD9E8E798
S3150800A330239B002BE7D0BBF1000FE4D0C7F10F0336
S3150800A340DBB2032BDDD8ECE7102E7FF652AFDAE747
S3150800A35000000420000005042DE9F04F99B0884656
S3150800A36015469B460446229FDDF89890289E60B1C4
S3150800A37059B1279B4BB1BBF1000F06D0249B0BB1FB
S3150800A380239B13B11DB9022E13D121239AE0259BD5
S3150800A390002BFAD0B9F1000FF7D0C7F10F03DBB2E3
S3150800A3A0032BF0D80122DB0002FA03F3AB42ECD907
S3150800A3B0E9E7731E0F2BE8D816F0010AE5D1FB1F53
S3150800A3C0062BE2D8414B09EB05029A42DDD8404BF1
S3150800A3D04046C4E9003AC4F808A0C4F81CA015A968
S3150800A3E032F0F2FE034600286CD12046159932F069
S3150800A3F0DCFF204646EA074132F0D7FF204624997B
S3150800A40032F0D3FF2946204632F0CFFF404603A953
S3150800A41032F088FF0346002854D1204603A932F0BB
S3150800A420B0FF404606A932F088FF0346002849D106
S3150800A4304FF00108204606A932F0A3FF259B2046C7
S3150800A440099345F00053CDF8288001930B93239B7D
S3150800A4500FA90C93249B47F0005743F00052CDF800
S3150800A46034800E92CDF83CB0CDF84080119732F08A
S3150800A47088FF20460CA932F084FF204609A932F04D
S3150800A48080FF019B204612A9CDF84890CDF84C8054
S3150800A490149332F080FF279B204615A946F00056F4
S3150800A4A01593CDF85880179632F06BFF2046FFF7C4
S3150800A4B037FD034630B101902A46514648463CF0DE
S3150800A4C037FB019B184619B0BDE8F08F0000042041
S3150800A4D00000060430B5048804F4E043B3F5005FD1
S3150800A4E02ED1C4F30223042B2AD181F0AA6383F464
S3150800A4F0807333F47E132AD081F0AA6383F4007341
S3150800A50033F47E1323D00023144D21F47E11A9427F
S3150800A5101AD1B4F5105F17D1418821F04000802880
S3150800A52002D0B1F5807F15D1191F0C2912D8DB0787
S3150800A53010D4073A072A34BF00206FF0860030BDD2
S3150800A54042F204039C42DED16FF08500F7E7C1F3BF
S3150800A5500543D9E76FF08600F1E700BF0001400523
S3150800A5602DE9F04F9BB08146DDE928761D468B46DE
S3150800A570DDF8A880DDF8BCA0099241B138B1249B6A
S3150800A5802BB1269B0BB9279B0BB91FB94EB16FF0A0
S3150800A59086047FE02EB1B8F1000FF8D02B9B002B74
S3150800A5A0F5D02C9B002BF2D0BAF1000FEFD02E9BE2
S3150800A5B0002BECD02D9B002BE9D0B9F8003003F422
S3150800A5C0E042B2F5005F69D1C3F30222042A65D1DD
S3150800A5D085F0AA6383F4807333F47E1306D085F07E
S3150800A5E0AA6383F4007333F47E1360D1C5F305437D
S3150800A5F029464846259ACAF80030FFF76BFF0446F5
S3150800A600002847D1014620220AA83CF091FA2022C8
S3150800A610214612A83CF08CFA0AA832F078FD0028E8
S3150800A62055D159464846099A12AB32F029FF0446D5
S3150800A63000282FD12B9B9E424CD8DAF800302E9A50
S3150800A640934247D8474508D2BB19984505D239469B
S3150800A650324640463CF052FA4746204B25F47E15D2
S3150800A6609D4226D1DAF80030324606932D9B039791
S3150800A670CDE90483279B12A90293269B0AA8019376
S3150800A680259B0093249BFFF791FD212819D0D8B963
S3150800A6902C9B1E6020461BB0BDE8F08F42F20402D8
S3150800A6A0934204D185F0052383F480139BE70023A6
S3150800A6B09EE76FF0880400232C9A1360CAF80030CE
S3150800A6C0E8E76FF08604F6E76FF09204F3E76FF0B9
S3150800A6D09204DFE76FF08904DCE700BF000140055C
S3150800A6E02DE9F04F99B08A46DDE9266593469846E6
S3150800A6F081462A9F28B96FF08604204619B0BDE81E
S3150800A700F08F0029F7D0229B002BF4D0249B13B995
S3150800A710259B002BEFD10EB9002DECD117B92B9B39
S3150800A720002BE8D12C9B002BE5D0289B002BE2D0F0
S3150800A73041464846239AFFF7CDFE04460028DCD159
S3150800A740202201460DEB02003CF0F2F920222146B8
S3150800A75010A83CF0EDF908A832F0D9FC10B16FF05A
S3150800A7609204CAE75A465146484610AB32F088FE6C
S3150800A77004460028C1D12B9B9D422AD8BE4208D246
S3150800A78073199F4205D231462A4638463CF0B6F937
S3150800A7903E46144B28F47E1898451DD1299B2A4617
S3150800A7A00693289B0396CDE90473259B10A902936B
S3150800A7B0249B08A80193239B0093229BFFF7CCFDBB
S3150800A7C0212898D02C280AD00028C8D12C9B1D6097
S3150800A7D093E76FF0890490E76FF088048DE76FF0D0
S3150800A7E094048AE700014005084B984202D0084BBA
S3150800A7F0984207D10B88B3F5105F0CBF00206FF0A5
S3150800A800850070476FF08500704700BF004440041C
S3150800A8100013C0042DE9F04F99460023A3B09346D0
S3150800A820DDE92E74DDE93068CDE90633CDE9083374
S3150800A830CDE90A33CDE90C33DDF8C8A004900591BB
S3150800A84029B96FF08605284623B0BDE8F08F002A9F
S3150800A850F7D00FB9002CF4D12C9B13B92D9B002BE4
S3150800A860EFD116B9B8F1000FEBD1BAF1000FE8D065
S3150800A87048460499FFF7B8FF05460028E3D1014684
S3150800A880202212A83CF054F9202229461AA83CF0A6
S3150800A8904FF912A832F03BFC002878D1DDE9040113
S3150800A8A05A461AAB32F0ECFD05460028CBD11A9869
S3150800A8B032F0A3FD05460028C5D114B9CAF8000030
S3150800A8C0C1E7B7420AD23B199E4207D24445B8D8D7
S3150800A8D03946224630463CF011F937464E4B9945E3
S3150800A8E058D003F54073994515D04C4B994540F01F
S3150800A8F08C804445A5D814F00F02A2D12346CDE991
S3150800A90000761AA912A8FFF72BFB0746002834D1B0
S3150800A910CAF8004097E700234445CDE90E33CDE950
S3150800A92010338ED82D9B0D2B8BD101238DF8383003
S3150800A9302C9B0DF1390203F10C0153F8040B8B42E1
S3150800A94042F8040BF9D11B78137001238DF84730B0
S3150800A95014F00F0933D10F2CDAD906AB01930EABDD
S3150800A960CDE90276009324F00F0200231AA912A853
S3150800A970FFF74EFB0746002843D0424600213046E3
S3150800A9803CF0D6F80023012FCAF8003040D06FF00B
S3150800A990920558E744453FF654AF2D9B102B7FF49C
S3150800A9A050AF2C9B0DF1380C03F1100E6246186857
S3150800A9B05968083303C273459446F7D1C8E724F0AB
S3150800A9C00F033B440DF1280C03F1100E624618687C
S3150800A9D05968083303C273459446F7D10F2CBCD87F
S3150800A9E024F00F03334403930AAB029306AB019397
S3150800A9F00EAB00934A4600231AA912A8FFF708FBD4
S3150800AA0083E7B9F1000F83D0EAE76FF085051AE707
S3150800AA106FF08B0517E700BF0010C0040044400420
S3150800AA202DE9F04F994600239FB09346DDE9286546
S3150800AA30DDE92A788A46CDE90633CDE90833CDE93A
S3150800AA400A33CDE90C33059029B96FF08604204600
S3150800AA501FB0BDE8F08F002AF7D00EB9002DF4D14B
S3150800AA6017B9B8F1000FF0D12C9B002BEDD0484652
S3150800AA700599FFF7B9FE04460028E8D101462022C9
S3150800AA800EA83CF055F82022214616A83CF050F8AE
S3150800AA900EA832F03CFB002844D15A465146059888
S3150800AAA016AB32F0EDFC04460028D0D1169832F0E9
S3150800AAB0A4FC04460028CAD115B92C9B1860C6E721
S3150800AAC0BE420AD273199F4207D24545BDD83146C0
S3150800AAD02A4638463CF012F83E46344B994549D04A
S3150800AAE003F54073994520D0314B994554D14545D6
S3150800AAF055D82B07A9D12B460122CDE9006716A9FF
S3150800AB000EA8FFF72DFA2C9B06461D6000289ED03E
S3150800AB104246002138463CF00BF800232C9A012EB9
S3150800AB2013603FD06FF0920491E70D3D454536D846
S3150800AB3001238DF8283033460DF1290206F10C0160
S3150800AB4053F8040B8B4242F8040BF9D11B780D36E7
S3150800AB5013704FF48073ADF8363006AB01930AAB29
S3150800AB6000932A460023CDE9026716A90EA8FFF727
S3150800AB704FFAC8E7103D454511D833460DF1280C64
S3150800AB8006F1100E624618685968083303C2734501
S3150800AB909446F7D11036E0E76FF0850457E76FF073
S3150800ABA0890454E76FF08B0451E700BF0010C00416
S3150800ABB00044400410B54FF42F72002104463BF0C0
S3150800ABC0B7FF8023C4F88C30054B04F19C00C4F809
S3150800ABD08430012384F88830BDE8104032F093B8F9
S3150800ABE008E2040810B5D0F8A0400A4684B932F045
S3150800ABF05DFE044610B90024204610BD2D2896BFD8
S3150800AC00064B074953F82010064832F095FFF3E73C
S3150800AC10D0F8A4101046A047EDE700BFC8E2040824
S3150800AC2011E204085E080508F8B590F88060044645
S3150800AC3016B100263046F8BD32F06BFC0028F8D174
S3150800AC40012384F8803094F8883033B1D4F884101E
S3150800AC501E4884F8886032F06FFF4FF0FF37D4F84B
S3150800AC60B402421C1FD0C4F8B47210F0FF052BD0F2
S3150800AC70204632F04BFC2946204600F0BDFB002852
S3150800AC80EDD0204632F050FC94F888303BB1D4F829
S3150800AC9084100E4832F050FF002384F888300023D1
S3150800ACA084F88030C6E732F02CFF431CDDD1D4F897
S3150800ACB08C30D4F89420013B9A4203DB04490548BA
S3150800ACC032F03AFF0126EAE70126C8E74A030508F3
S3150800ACD01FE204085E080508F8B50B780446302B11
S3150800ACE00D46164604D14B7803F0DF03582B11D0D6
S3150800ACF0284F6A1E12F8011F002934D128460A2255
S3150800AD0031F064FA202C03460D4631D1B1FA81F0B0
S3150800AD1040091AE04A1C1F4912F8013F8BB9284618
S3150800AD203BF037FF1C4B02382340032B12D101346A
S3150800AD30A41084420AD1A87837288CBF00200120A5
S3150800AD4003E0CB5C13F04400E6D1F8BDCCBF01208C
S3150800AD500020FAE7002CB8BF0334B0EBA40FD4BF29
S3150800AD6001200020F1E77B5C13F00400C2D1ECE778
S3150800AD7026B1084302D0013B61F100050122A24039
S3150800AD80013A1A40002D08BF9A420CBF0120002044
S3150800AD90DBE700BF8B88050803000080F0B5037861
S3150800ADA001467B2B17D10646022400220B4F16F8C4
S3150800ADB0015F7D2D05D10B5D6BB9D24302F0010011
S3150800ADC008E07B5D13F0440002D001320134EEE75F
S3150800ADD0202DFBD0F0BD0020FCE700BF8B880508BE
S3150800ADE070B506460D463BF0D4FE0446304632F0B2
S3150800ADF0A3FE044EAC4200D370BD304632F09CFE32
S3150800AE000134F7E79CFA04082DE9F84F04460221B5
S3150800AE106048FFF7E5FF1E212068FFF7E1FF63683A
S3150800AE20586832F089FE5C4832F086FE67683B7BDC
S3150800AE30FD2B12D8D7F808804FF0FF3440463BF078
S3150800AE40A8FE0646DFF84C91DFF8A8A1DFF864B142
S3150800AE500C3717F8013BFF2B01D1BDE8F88F212BE2
S3150800AE6014D8212B14D8DFE803F0178C8884807C4B
S3150800AE7078741313131313131313706C6864605CDC
S3150800AE8058541313131313131313504CFE2B34D0A7
S3150800AE9006B10134414D02E006B10134404D0221AC
S3150800AEA04846FFF79DFF1E214846FFF799FF504683
S3150800AEB032F042FE594628463BF054FE39490028EE
S3150800AEC018BF2946384832F037FE3B78202B02D186
S3150800AED02B2032F025FE354832F02EFE4EB118F8FA
S3150800AEE004301F2B05D018F804001F2801D0B442DF
S3150800AEF04BDB294832F020FEABE706B101342C4D76
S3150800AF00CDE706B101342B4DC9E7002EA1D0013497
S3150800AF109FE706B10134284DC1E706B10134274D34
S3150800AF20BDE706B10134264DB9E706B10134254D12
S3150800AF30B5E706B10134244DB1E706B10134234D16
S3150800AF40ADE706B10134224DA9E706B10134214D1A
S3150800AF50A5E706B10134204DA1E706B101341F4D1E
S3150800AF609DE706B101341E4D99E706B101341D4D22
S3150800AF7095E706B101341C4D91E706B101341B4D26
S3150800AF808DE706B101341A4D89E732F0C9FD01345F
S3150800AF90A9E700BF03C6040816E804088DE30408F9
S3150800AFA087E30408DEE304084A0305082EF50408C7
S3150800AFB0351C050895E304089EE30408A5E3040880
S3150800AFC0B0E30408BAE30408C4E30408AFE30408DA
S3150800AFD0B9E30408C3E30408CCE30408D0E304088F
S3150800AFE0D8E3040881E3040888E30408D7E30408DF
S3150800AFF080E30408870D05082DE9F04F9BB0054648
S3150800B0008B460024009204933BF0C3FD249F049BC7
S3150800B01005901C6028463C600AAA09A932F0ADFDD5
S3150800B020064658B90A983BF0B4FD3446B146049B27
S3150800B0301860D5F89C300393039B1BB920461BB0B8
S3150800B040BDE8F08F039B9B680193002B69D02E44C3
S3150800B05016F8013B202B12D000260C237343019AC5
S3150800B06002EB030AD3580293002B55D0DDF824804F
S3150800B070C84551DB9AF808302BB1721C35E03B689D
S3150800B08001333B60E4E73B68D5F894200299D21A6D
S3150800B090049B1A601AAB03EB890353F8403C184625
S3150800B0A006933BF04DFD07900028E6D102983BF049
S3150800B0B070FDDAF804100346087BD7F800A0FE28CE
S3150800B0C0079A16D108F1FF38C8452ED00B6806989E
S3150800B0D0029201933BF05DFD0AF10103029A0344D3
S3150800B0E0E95C21B13B6009F101091646B5E7013370
S3150800B0F0F6E7D5F89420A2EB0A029A42BDDC584638
S3150800B10006933BF046FD069B03447B2B1DD9584608
S3150800B1101E4A009931F01EFE2B46059A2A449A4289
S3150800B1202AD1039B1B68039386E7D5F89420A2EBE4
S3150800B1300A029A42E3DDD1F8008058F80C2B82B94E
S3150800B140059B3B60049B1A60E6E75846029A0099FD
S3150800B15031F000FE58460E4A0099013431F0FAFDE6
S3150800B1608BE75846009931F0F5FD5846084A00998C
S3150800B17031F0F0FD0134E0E713F8011B0029CED1C8
S3150800B1804FF0200103F8011CC9E700BFE0E30408FB
S3150800B1909CFA04082DE9F047002486B01C60DDE916
S3150800B1A00EA8064689468AF800401168154888F8A8
S3150800B1B0004017461D468DF81740FCF7EBFD18B9F9
S3150800B1C001242B6801332B600020D6F89C6036B921
S3150800B1D014B1012388F8003006B0BDE8F087B068DE
S3150800B1E068B14B460021CDE902A8CDE900750DF1FD
S3150800B1F0170232F0FAFA9DF81730002BE8D13668B4
S3150800B200E5E700BFE5E304082DE9F0430026044618
S3150800B210ADF5457D7C22314605A802AF04963BF084
S3150800B22087FC80222046009703AB04A9FFF7E4FEBB
S3150800B23001283ED104A83BF0ACFC03993B68A0EB7F
S3150800B24001080B44234428EAE878054604A8014483
S3150800B250424618463BF090FC00F80860D4F8906027
S3150800B260039B3968D4F890201944B14212DCD4F80B
S3150800B2709410E81A0244C4F89020014404AAC4F8B9
S3150800B2809410D41825182B1B002B0DDC0DF5457DC5
S3150800B290BDE8F083A05C32F043FCD4F89030013668
S3150800B2A00133C4F89030DBE714F8010B32F038FCB0
S3150800B2B0E9E7EBDD24AD8022314628463BF038FC31
S3150800B2C044AB4FF40072314618463BF031FC0DF1A1
S3150800B2D0100903464A464FF00108314612F8016B39
S3150800B2E0002E49D104A843F828103BF052FC294601
S3150800B2F0334619F8016B0DF5887C5CF8042B8242FD
S3150800B30043D10133984501F8016BF2DAD4F890601D
S3150800B310039BB34242DC2346354A04A9354832F03A
S3150800B3200BFC28463BF035FC0646039B3F68F61A9D
S3150800B3301F44E0191D4426EAE67204F198031744EF
S3150800B340984204EB07014ED204F1900399424AD978
S3150800B3506A1E81190B1A002B39DD12F8013F00F815
S3150800B360013BD4F890300133C4F89030D4F89430C7
S3150800B3700133C4F89430EDE7202E01F1010104BF32
S3150800B38043F8281008F10108A8E70DF1100E7244D9
S3150800B390D25CB242B1D00022EA54B7E7D4F8903072
S3150800B3A00136E05C32F0BCFBD4F890300133C4F8C7
S3150800B3B09030ADE7D4F89020013B0132C4F89020D4
S3150800B3C0D4F894200132C4F89420002BF2DC002330
S3150800B3D02E44E355731B002B7FF758AF15F8010B66
S3150800B3E032F09EFBF6E729463BF0C6FB3346ECE710
S3150800B3F008E20408EAE304082DE9F843D0E92456EC
S3150800B40004460F46002294F89830012B07D10A2FDC
S3150800B41007D1002384F898300020BDE8F88300F2AD
S3150800B4209F801B2F01D10223F4E70D2F0DD1012395
S3150800B43084F898300D2032F073FB0A2032F070FB46
S3150800B44000230120C4E92433E7E74FF00008082F5A
S3150800B45084F8988034D1454530DDB5420FD1384659
S3150800B46032F05EFB202032F05BFB013D384632F0BD
S3150800B47057FB013E04F80580C4E92456CCE7FBDAFD
S3150800B48005F1FF39384632F04BFB04EB0903A6EB0E
S3150800B4900902611918463BF031FB04F8068001469B
S3150800B4A0013E484832F048FB35464D4501DC4D46DD
S3150800B4B0E2E7082032F034FB013DF6E7ACD0DBE7E3
S3150800B4C07F2F1CD1002EA7DDB542A5DA6319691CAA
S3150800B4D021441846721B3BF011FB04F8068001460E
S3150800B4E0394832F029FB0820013E32F019FBB542F3
S3150800B4F0F9D1D4F89430013BC4F894308CE70A2F7C
