S02300006E63702D756172742D68775F646F6E676C65705F76372E352E302E302E73333728
S31508006000001000207D6D00087DB4000881B40008EA
S315080060102D37030885B400088DB400082D3703080A
S315080060202D3703082D3703082D3703082D370308A6
S3150800603091B4000848C203082D3703082D37030812
S31508006040797200082D3703082D3703082D37030802
S315080060502D3703082D3703082D3703082D37030876
S315080060602D370308296D0008E73403082D37030880
S315080060702D3703082D3703082D3703082D37030856
S315080060802D3703082D3703082D3703082D37030846
S315080060902D370308957800082D3703082D37030890
S315080060A02D3703082D3703082D3703082D37030826
S315080060B02D370308D1730108657E01085D7503084D
S315080060C0597503080576010869750308617503089B
S315080060D03D7E010865750308A57E0108117F010844
S315080060E02D3703082D3703082D3703082D370308E6
S315080060F09F3E03082D3703082D3703082D3703085D
S315080061002D3703082D3703082D3703082D370308C5
S315080061102D3703082D3703082D3703082D370308B5
S315080061202D3703082D3703082D3703082D370308A5
S315080061302D3703082D3703082D3703082D37030895
S315080061402D3703082D3703082D3703086F45030835
S31508006150196401082D370308577203085D7203088E
S315080061602D3703082D3703082D3703082D37030865
S315080061702DE9F04F93B0CDE90A32DDE91C530E93B1
S3150800618053EC102BCDE90801104619468DED060B88
S315080061901E9E2CF0C7FE80B1DDE906014FF0FF32E6
S315080061A0C54B2CF0E7FE40B9DDE906014FF0FF329A
S315080061B06FF480132CF0C0FE70B1DDE908019DED87
S315080061C0060B0E9B1E96CDE91C53DDE90A3213B069
S315080061D0BDE8F04F00F088B90022DDE9060100238A
S315080061E02CF0AAFE002800F03381DDE906A303F1AE
S315080061F0004BCBF30A5016F48063A0F2FF3008BFB9
S3150800620006250F932CF0BCFB9BA3D3E900232CF0A7
S3150800621021FC9BA3D3E900232CF066FACBF31304E5
S31508006220894644F07F5180460022A44B504641F4EB
S3150800623040112CF057FA94A3D3E900232CF00AFC5A
S3150800624002460B46404649462CF04EFA2CF09CFE78
S3150800625004462CF095FB8EA3D3E900238046894695
S315080062602CF0F8FB0022964B2CF03EFA2CF08CFE14
S3150800627089A3D3E900230746494640462CF0EAFBA2
S315080062808046384689462CF07BFB85A3D3E9002354
S315080062902CF0E0FB02460B46404649462CF022FA13
S315080062A002460B46CDE90C232CF0D4FBDDE90C2382
S315080062B080468946104619462CF016FA0022CDE982
S315080062C01001804B404649462CF0EEFC00227E4BDE
S315080062D02CF00AFA02460B46404649462CF0E4FCE6
S315080062E000227A4B2CF000FA02460B4640464946F5
S315080062F02CF0DAFCDDE90C238046894600204FF0B5
S3150800630080412CF0EFF902460B46404649462CF0F0
S31508006310EBF902460B46DDE910012CF0C5FC07F245
S31508006320FF3700226A4B2CF0DFF900223B052CF0E0
S3150800633091FB52465B46804689462CF01BFE002898
S3150800634040F08980CDE90C8904F16303C72B34BF7B
S315080063500427052731051BD553A3D3E90023504647
S3150800636059462CF0FDFD00287FD051A3D3E9002320
S31508006370504659462CF0E0FD002876D00027A54265
S31508006380C6BF2C1B04F1FF3500253C4646F4806643
S315080063900E9B9F422CBF4FF00008A3EB070816F090
S315080063A0020903D0002F18BF4FF000083CB1DDE901
S315080063B00C23504659462CF077FC82468B46DDE97D
S315080063C00601002200232CF0B7FD10B10BF10043A3
S315080063D09B46DDE9080126F40063CDE90183DDE982
S315080063E00A324BEC10AB009500F07EF802465FB31C
S315080063F0DDE9091316F0200F00F10105089E0CBF10
S3150800640065204520B047DDE90801052300220593EC
S315080064100A23002CCDE9023207F1FF374FEAD4737D
S31508006420B8BF64422A46019304970A9B00942FF04A
S3150800643078FE0246B9F1000F06D00B9BC41A0B9BD7
S315080064401A190E9BA34245D8104613B0BDE8F08F23
S31508006450DDE906ABCDE60022404649461A4B2CF04C
S3150800646023FC013CCDE90C016EE7002D90D00F9B73
S31508006470002B8DD0013D8BE7FB799F501344D33F0A
S31508006480B3C8608B288AC63F61436F63A787D23F2C
S3150800649071A379094F930A401655B5BBB16B0240F3
S315080064A0EF39FAFE422EE63F2D431CEBE2361A3F41
S315080064B00000000080842E41FFFFEF7F0000F83FB8
S315080064C00000E03F00002C40000024400000184077
S315080064D00000F03F2020DDE90913089DA847013494
S315080064E0ADE700BF000000002DE9F04F5BEC10ABF4
S315080064F097B0CDE90501DDE92057CDE907235046D8
S3150800650052465B465946229E2CF00CFD70B9032371
S31508006510CDE902760193B04B0093DDE90501DDE98B
S3150800652007232FF01EFD17B0BDE8F08F4FF0FF329E
S315080065306FF48013504659462CF0FEFC28B104230C
S31508006540CDE902760193A54BE6E74FF0FF325046B8
S315080065505946A34B2CF00EFD68B1A24A06F0040377
S31508006560002B08BF0322A04B1CBF13460422CDE90B
S3150800657002760192D0E7504693A3D3E90023594601
S315080065802CF0F8FC38B992A3D3E9002350465946B3
S315080065902CF0D2FC68B1DDE90723DDE905014BECF7
S315080065A010ABCDE92176209517B0BDE8F04FFFF77F
S315080065B0DFBD00220023504659462CF0BDFC0028BA
S315080065C000F09A805B465246002000212CF08AF89B
S315080065D0012382468B46099316F4806400F08E8068
S315080065E0092D40F28E80002430210EABA5F1090258
S315080065F00134202C03F8011BA5EB040901D09442B1
S31508006600F6D1594650462CF0BFFC784B054603EBAD
S31508006610C90393ED007B8DED0A7B2CF0B1F9024698
S315080066200B46504659462CF05DF8DDE90A232CF056
S3150800663011FA02460B46CDE90C232CF0CDFC804618
S315080066402CF08EF902460B46DDE90C012CF04AF8CF
S3150800665002460B46CDE90C230022654B2CF08AFC3A
S31508006660002851D008F1010840462CF079F9024675
S315080066700B46DDE90A012CF069FC10B14FF0000861
S315080066800135B9F1000F50D128462CF079F90246A8
S315080066900B46504659462CF025F80022544B8046A6
S315080066A089462CF049FC30B1002240464946504BF9
S315080066B02CF060FC10B1E80700D501350A210EABB5
S315080066C01A19202C0AD095FBF1F001FB105530352C
S315080066D002F8015B013405460028F2D106F00302F0
S315080066E0012A57D1002F55D0099A12B916F00C0F66
S315080066F000D0013F302245E009906DE74FF00609CA
S315080067007FE7A94600247CE70022DDE90C01384B27
S315080067102CF012FC0028B4D1B8F1000F02D018F002
S31508006720010FAED008F10108ABE70A210EAB2344EE
S31508006730202C0ED0B8FBF1F001FB1082B8F1090F3E
S3150800674002F1300209F1FF3904F1010403F8012BC3
S3150800675011D83021A1440EAA202CAFD0A14504F1AE
S3150800676001030AD11C4609F158030DEB03092E2330
S3150800677009F8203CA2E78046DAE7A1541C46EBE775
S315080067801A550134A74205D9202CF9D1CDE902764C
S315080067900194C1E6202CF9D0099A3AB12D2104F1C9
S315080067A058026A4402F8201C0134EFE7710704D541
S315080067B004F158022B216A44F4E73207E6D504F1BE
S315080067C0580220216A44EDE70000000065CDCD415E
S315080067D00000000065CDCDC1ABDF0308AFDF0308BD
S315080067E0FFFFEF7FA2DF0308A7DF0308B8DF030870
S315080067F00000E03F0000000070B58EB02C2200219A
S3150800680003A835F0B2FC64234FF002320893CDE9B1
S3150800681005230B2301218DF83430514B8DF81010C8
S315080068201B88D80700F19580084615F025FD0A2231
S315080068304C4B4D491A704FF428734C48ADF812303A
S3150800684011F024FC4A4C206020B940F252214948F4
S3150800685004F012FD0521206830F0F4F920B140F269
S315080068606221444804F008FD206800F06FFA424BA4
S315080068702068196830F092FA0C2516F0FDFB68437B
S31508006880099016F0F9FB68430DEB0501079020689F
S315080068900BF014FC20B140F27721364804F0ECFCEA
S315080068A000223649206830F001FB20B140F27921F8
S315080068B0304804F0E1FC40F20353314D314E2B8051
S315080068C0052396F90000AB707F2801D115F032FE3A
S315080068D03378EB7016F0D0FB00EB80008000A880C0
S315080068E016F0CAFB0023C0004FF0FF31E880AB600A
S315080068F04FF0FF3018A3D3E9002315F093FE224981
S31508006900206830F0D6FE206802A930F0AEFA20B131
S3150800691040F2B221174804F0AFFC042220680DEBC0
S31508006920020130F0F3F9042804D040F2B5211148E9
S3150800693004F0A2FC01A9012032F02DF904F0E2FDD1
S31508006940012016F07FFE2DF08AF816F0B3FE15F03A
S3150800695017FD0EB070BD00BF0A0020FF42030000FD
S31508006960E66E0020F6730020A1C20108F812002086
S31508006970E05E00201E200408341100200474002064
S31508006980D45E00209A16002041C401080348044B2F
S31508006990834202D0034B03B118477047A82400204E
S315080069A0A824002000000000064B0749C91A8910D0
S315080069B048BF0131491003D0044B0BB101481847B1
S315080069C0704700BFA8240020A8240020000000006B
S315080069D010B5064C237843B9FFF7D8FF044B13B11B
S315080069E00448AFF300800123237010BD7A6F00209E
S315080069F0000000007C23040808B5054B1BB10549B7
S31508006A000548AFF30080BDE80840FFF7CDBF00BFDB
S31508006A1000000000582A00207C230408A3F5803AC9
S31508006A20704700BF174B002B08BF134B9D46FFF757
S31508006A30F5FF00218B460F461348144A121A35F003
S31508006A4094FB0E4B002B00D098470D4B002B00D023
S31508006A5098470020002104000D000D48002802D0A8
S31508006A600C48AFF300802CF08DFC200029002CF098
S31508006A70FAFC2CF061FC00BF0000080000000000D2
S31508006A800000000000100020A824002084740020C4
S31508006A90000000000000000008B504F063FD1022A5
S31508006AA00021144835F061FB10220021124835F008
S31508006AB05CFB1022FF21114835F057FB0D4806F004
S31508006AC075FF10220D490B4835F025FB10B90C4807
S31508006AD006F074FF084806F079FF102207490648B1
S31508006AE035F019FB20B9BDE80840064806F076BF20
S31508006AF008BD00BF8B6F00207B6F00209B6F0020B6
S31508006B00561600204616002010B5274C01F0F8FB53
S31508006B1001F0D6FD236F23F0070343F00303236731
S31508006B202CF0E4FE214B00209B6ADB015EBF4FF48C
S31508006B3080321F4B9A62D4F8203123F0070343F0C2
S31508006B400203C4F82031D4F8283123F0070343F0B0
S31508006B500203C4F82831D4F8403123F0030343F084
S31508006B600103C4F84031D4F8603123F0030343F03D
S31508006B700103C4F86031D4F8403223F0030343F02C
S31508006B800103C4F84032D4F8003223F0070343F077
S31508006B900103C4F80032D4F8083223F0070343F09F
S31508006BA00103C4F8083210BD008000500040005AA6
S31508006BB00060005A07B501A802F0B6F89DF805303E
S31508006BC0012B14D19DF804308BB94FF48012134B66
S31508006BD01349586E03F580535A664B6B23F0E053FE
S31508006BE043F040634B63C3025CBF0E4B5A6603F027
S31508006BF0C1F903F05FF92DF050F903F083F9FFF7B7
S31508006C0083FF03F06DF900F0F9FA03F0D9FF00F0FD
S31508006C107BFE03B05DF804EB05F0E6BB0080005090
S31508006C200040005A00A0005030B5194D95B00DAC83
S31508006C300FCD0FC495E80700292384E80700002133
S31508006C40144A0DF12600CDE90223134B0E22CDE995
S31508006C500431069135F089FA4FF480210F4B0DAABD
S31508006C60CDE9071309238DF824300A238DF825303A
S31508006C700B4B07A90A9380230B9301238DF8313018
S31508006C80084B0948009302AB03F0F2FC15B030BD7F
S31508006C902CC2030800C005500201020224C0055098
S31508006CA0AB6F0020702A0020C42A0020831E012B07
S31508006CB010B513D8012924D8124B0422D3F8A030D2
S31508006CC001210220C3F3400301F0CCFE0E4B1B68E2
S31508006CD01868B0B1BDE81040436A18478B1E012BEF
S31508006CE00DD801280DD8BDE81040064B0022D3F870
S31508006CF0A03001210220C3F3400301F0B3BE0129ED
S31508006D00E4D910BD00C00350B810002008B50449E6
S31508006D10044805F031FCBDE80840FFF785BF00BF11
S31508006D20BC100020E82A002001482DF083BA00BFD5
S31508006D30C42A0020014B1A6A18681047C42A002082
S31508006D40014B1878704700BF2B70002008B50BF070
S31508006D50E3F90022014B1A7008BD00BF2B70002012
S31508006D600348044A0449121A92102CF0E0BC00BFEA
S31508006D709C3704089C3704088474002008B500F082
S31508006D802FF8FFF7EDFF124B12498B4212D3002062
S31508006D90114B12498B4218D3FFF744FE186850F876
S31508006DA02240586840F82240013298688242F5D35A
S31508006DB00C33EAE70022F8E71C6844F8220001329F
S31508006DC05C68A242F8D30833E4E70022F8E700BF7C
S31508006DD084230408902304089023040890230408B5
S31508006DE04FF480414FF0FF30114B124A10B59A60AC
S31508006DF0D3F8882042F47002C3F888200E4A9166B8
S31508006E000E4901F5005210660D4850660220C3F877
S31508006E10D000BFF34F8FBFF36F8F01244FF4403379
S31508006E200848C0F88041D36004600B6110BD00BFFC
S31508006E3000ED00E00060000800900050008000446B
S31508006E40F7FF370000E100E0014B1868704700BF04
S31508006E50C8100020084B1B6F03F00703022B04D051
S31508006E60032B05D0012B05D0FEE7044B18687047A5
S31508006E70034BFBE70348704700800050C81000200A
S31508006E80D0100020002D310108B5FFF7E3FF054BB0
S31508006E901B6FC3F303330133B0FBF3F0024B1860E7
S31508006EA008BD00BF00800050C4100020004870478D
S31508006EB000B4C404014B1868704700BFD010002006
S31508006EC0054B1860054B1B6F03F00703032B01D115
S31508006ED0FFF7DABF704700BFD010002000800050CF
S31508006EE000487047002D31014FF0B4439868C0F34D
S31508006EF004400C280AD8DFE800F00B09090909093B
S31508006F00072119091B1D1F000F48704700207047ED
S31508006F109B6803F04073B3F1807F11D0B3F1007F13
S31508006F2010D00A4A002B08BF104670470848704719
S31508006F300848704708487047084870470848704727
S31508006F400848704708487047405DC60000093D007C
S31508006F50C0EA210180BA8C010048E801005A6202A1
S31508006F600024F40080841E0040420F00014B18687C
S31508006F70704700BFCC100020BFF34F8F0549064B62
S31508006F80CA6802F4E0621343CB60BFF34F8F00BFB9
S31508006F90FDE700BF00ED00E00400FA054FF00063CE
S31508006FA09B6A03F17842B2F5C04F03D21968064AC4
S31508006FB0914203D000230370836070470122027058
S31508006FC09A689B694260F7E707B0CD5E73B54F4B89
S31508006FD004461A781AB102221A7002B070BDCDE9B9
S31508006FE000220028F9D001261E702CF09FFC484D7F
S31508006FF0484B18600EF010F82B785BB900F084FC4B
S3150800700040B945480823454A454900680AF0B6FA92
S3150800701000B92E70434B5A6E62619B6E424AA36159
S315080070204FF480439366414B5968E1614049996042
S31508007030196E2160596E6160D3F87011A160196CE0
S31508007040E160596C21613B49086C1864496C5964C4
S31508007050012151661B6E9C0441D5374AD368D8076F
S31508007060FCD4364B1A68531C3ED04FF48013934019
S31508007070334A13664FF400730426314C266623669A
S315080070802CF084FB01300DD02CF080FB40F201136C
S31508007090984207D04FF4005323664FF48043236683
S315080070A0C4F870610823264C684623664FF480535B
S315080070B023664FF0006323664FF4002301A9636635
S315080070C02CF048FB009B2366019B63662B78002BFC
S315080070D083D0124B1A6822665B6863667DE7194A95
S315080070E0D368D907FCD4BCE7174B1B78002BC1D152
S315080070F04FF400720C4B5A6603F5A6235B68002B07
S31508007100B8D14FF480120E4B1A66B3E72D700020E3
S315080071102E700020102B0020F8100020142B0020C1
S315080071200071080000800050009000500080004464
S3150800713055CEAC0000C0005400000440D410002016
S3150800714000900044000004502C70002070B5224DB9
S3150800715004462E78012E02D001232B7070BD00281C
S31508007160FCD02CF013FB01300BD02CF00FFB40F2B7
S315080071700113984205D0194B194A5E66D368DE0793
S31508007180FCD42268174B1A6662685A66A268C3F866
S315080071907021E2681A6422695A64E269D00744BF1A
S315080071A000229A60104B1A68013207D10F4A1278EA
S315080071B022B90F494968C90748BF1A6062690D4B69
S315080071C05A66A2699A660DF02FFF0B4B18682CF0C9
S315080071D0B3FB0023C1E700BF2D70002000900040DC
S315080071E00000044000800044D41000202C700020C9
S315080071F000C0055000800050102B002070B54FF0DD
S315080072000064A36A03F17842B2F5C04F24D21A6823
S31508007210134B9A4220D1134E337813F0FD0F02D048
S315080072200024204670BD1048FFF7D0FE01254FF414
S3150800723080330E4A0E49C2F88051CB6015600D4A5C
S315080072401361A36ADB69984704460748FFF77EFF80
S31508007250002CE6D13570E3E74FF48174E1E700BF0F
S3150800726007B0CD5E2C700020F02A002000E100E077
S3150800727000A000440090004413B5204B1B7803B9C6
S31508007280FEE700231E4CCDE900336A4608231D4954
S3150800729020680AF073F9F0B91B4AD2F84031D2F8DF
S315080072A040211F2B4FF0010310D9203A9340019A31
S315080072B01A43019208236A46124920680AF014F90B
S315080072C04FF00053114A1A60FFF756FE9340009A92
S315080072D01A430092EEE70E4B9842F1D10A4AD2F8C9
S315080072E04031D2F840211F2B4FF0010385BF203AC9
S315080072F093409340019398BF0093DBE72D700020DD
S31508007300F810002000710800008000440B020FF0FE
S315080073100BE000F008B501213A2000F0BBFD01237F
S3150800732004220321002001F09DFB00202CF01BFB0A
S315080073300122354B3549C3F844244FF40022A3F5FE
S3150800734050335A66324BD3F8FC20D20146D4D1F8D2
S31508007350803023F0030343F00203C1F880304FF472
S31508007360607000F0B1FD2A4B00F5D520D3F8F02067
S3150800737000F2FC4042F00102C3F8F020D3F8FC20EA
S3150800738042F08072C3F8FC20224AA3F55D431A60D6
S31508007390214B0222B0FBF3F0204B01381861C3F8E9
S315080073A0F0204FF48072C3F804234FF060431C4A60
S315080073B00020C3F8B02F1B4AC3F8802ED3F8002E3E
S315080073C042F48072C3F8002EFF2283F82020D3F8F7
S315080073D0002E22F48072C3F8002E08BDD3F8FC20D4
S315080073E022F08072C3F8FC20D1F8802022F0030234
S315080073F042F00202C1F88020D3F8FC2042F08072E5
S31508007400C3F8FC20ABE700BF00D003500080005053
S3150800741000ED00E0FF030040F8590D00000004E00D
S3150800742055CEACC5090001004FF06043D3F8802E55
S3150800743030B5D20715D501240B4D8440D5F8FC206C
S3150800744042F08072C5F8FC20D3F8002E2243C3F818
S31508007450002E53F82020002AF0D003F82010002030
S3150800746030BD1120FCE700BF00ED00E02DE9F04F2C
S315080074709A46564B85B01B7806460F461546DDF8E4
S315080074803C909DF844B0DDF85080002B00F09780C2
S31508007490072A00F296800E9B002B00F09280B9F125
S315080074A0000F00F08E80129BB3F5006F00F3898001
S315080074B0012803D1109B002B00F08380444B03EB7B
S315080074C005131B7B002B7ED0424C102200216846F8
S315080074D034F04BFE04EB45141022A7BB3946204670
S315080074E034F043FE43F210036380BBF1000F03D16F
S315080074F0E37843F00303E370364A0E9B02EB451C20
S31508007500CCE90193129B6901581E9DF84C30C0F3D3
S315080075100A0003F003039B0643EA001E53582E484D
S31508007520012E00EA03004EEA0003CDF800A05350EE
S3150800753017D0B8F1000F2ED19CF8023068F3041367
S315080075408CF8023027E00021204634F00EFE4FF476
S3150800755044736380BBF1000FCED1E37843F0300368
S31508007560C9E713230CF1100ECCF80C309CE80F0079
S315080075708EE80F006FF00301DCF81C20109B61F306
S315080075809F02012FCCF81C20CCF8143003D1CCF87C
S315080075901890CCF8043000270D4A290102EB051390
S315080075A042F80180159A28465A60694622469F6025
S315080075B05E7301F0F5FA384605B0BDE8F08F074866
S315080075C0FAE70748F8E70748F6E700BF2F700020F4
S315080075D01C2C00201C2B00200F80FFF3028000F0DB
S315080075E0018000F0078000F038B5124B05461B787D
S315080075F0DBB1E0B12CF09AF90F4A00231146147B4F
S3150800760054B92B6001251A0101EB03131D738C5025
S315080076102CF092F9204638BD0133082B02F11002EE
S31508007620EDD12CF089F90548F5E70548F3E7054853
S31508007630F1E700BF2F7000201C2C0020048000F00A
S31508007640028000F0018000F038B52CF06FF90023B5
S3150800765005460B4A147B6CB90133082B02F110025C
S31508007660F8D101F03FFA074B28461C702CF064F954
S31508007670204603E028462CF05FF9034838BD00BFD2
S315080076801C2C00202F700020058000F00D4B10B533
S315080076901B78044693B1072812D82CF047F90A4BF1
S315080076A003EB04131A7B2AB100241C732CF044F94B
S315080076B0204610BD2CF040F90448FAE70448F8E7DC
S315080076C00448F6E72F7000201C2C0020068000F0E6
S315080076D0028000F0018000F0154B13B518680023EE
S315080076E001908DF804302CF021F9124B1C7824B146
S315080076F02CF022F9104802B010BD01221A702CF0A5
S315080077001BF90E4B01A81C731C7783F82C4083F8D1
S315080077103C4083F84C4083F85C4083F86C4083F81F
S315080077207C4008238DF8073001F008FA2046E2E786
S3150800773098C203082F700020038000F01C2C00203C
S315080077400A4A08B512785AB107280BD8084A02EB34
S3150800775000131B7B43B1002101F0E2F9002008BDAC
S315080077600448FCE70448FAE70448F8E72F700020C5
S315080077701C2C0020028000F0018000F0078000F039
S315080077800A4A08B512785AB107280BD8084A02EBF4
S3150800779000131B7B43B1012101F0C2F9002008BD8B
S315080077A00448FCE70448FAE70448F8E72F70002085
S315080077B01C2C0020028000F0018000F0078000F0F9
S315080077C00A4A08B5127852B107280AD8084A02EBBD
S315080077D000131B7B3BB101F02DFA002008BD0548BC
S315080077E0FCE70548FAE70548F8E700BF2F700020D0
S315080077F01C2C0020028000F0018000F0078000F0B9
S315080078000D4B1B7893B1072812D889B10B4B03EBA4
S3150800781000131B7B73B10A4B1A6D01238340134275
S3150800782014BF0123002300200B70704705487047DA
S3150800783005487047054870472F7000201C2C00200B
S3150800784000000450028000F0018000F0078000F07C
S315080078500B4A10B512780C4662B107280CD859B1F4
S31508007860084A02EB00131B7B43B101F0F5F92070BF
S31508007870002010BD0448FCE70448FAE70448F8E786
S315080078802F7000201C2C0020028000F0018000F0E0
S31508007890078000F0184B2DE9F0411F6D5B6D1F4006
S315080078A000D5FEE701260025144CDFF8588037423C
S315080078B018D02368C8F85060A3B1A16828460131DA
S315080078C06268A1609847637B012B0BD150B90C4BBA
S315080078D003EB45131A7B60F341021A731A7F60F3B0
S315080078E041021A770135082D4FEA460604F11004BD
S315080078F0DDD1BDE8F08100BF000004501C2C00203B
S315080079001C2B002000200450024B1968024B1868F3
S3150800791009F010BDD8100020F810002070B59400AA
S31508007920224605460E4634F05BFC431C0AD058B97D
S3150800793022463146284634F0EEFB0028034808BFA5
S31508007940002070BD0248FCE70248FAE710E000F0A4
S3150800795021E000F024E000F010B5044634F03CFCC9
S31508007960431C10D088B901F0F1F9234620F0030032
S315080079702044984201D1002010BD53F8042B01324F
S31508007980F7D00348F8E70348F6E70348F4E700BFEB
S315080079900EE000F021E000F024E000F008B52BF03E
S315080079A0BAFF014B186008BD8C330020014B1868DC
S315080079B02BF0B5BF8C330020044BD3F88420D206B5
S315080079C0FBD4D3F88400C0F3811070470040005000
S315080079D038B5104B0546D3F880300C4603F0030340
S315080079E0022B0BD0032B0DD0012B0FD1FFF732FA48
S315080079F00E2305B1286004B1236038BDFFF774FA79
S31508007A000723F6E7FFF720FA0623F2E700231846CE
S31508007A10EFE700BF0080005038B5184B0546D3F88D
S31508007A2020010C4600F00700062823D8DFE800F0FE
S31508007A30040A0E16121A1E00012305B1286004B1A5
S31508007A40236038BDFFF700FA0523F6E7FFF732FA99
S31508007A500323F2E7FFF748FA0723EEE7FFF740FAB2
S31508007A600223EAE7FFF7F0F90623E6E7FFF722FA2B
S31508007A700423E2E700231846DFE700BF0080005032
S31508007A8038B5174B0546D3F828310C4603F00703DB
S31508007A90013B052B20D8DFE803F003131B0F0B1758
S31508007AA0FFF7D2F9052305B1286004B1236038BD74
S31508007AB0FFF7CAF90623F6E7FFF716FA0723F2E7F0
S31508007AC0FFF7F8F90323EEE7FFF7F4F90423EAE7EB
S31508007AD0FFF706FA0223E6E700231846E3E700BFA6
S31508007AE00080005073B50D460021114B0191D3F863
S31508007AF08041064604F00304022C13D0032C0CD054
S31508007B00012C13D101A8FFF787FF10240EB1019BA2
S31508007B10336005B12C6002B070BDFFF7E5F90724A4
S31508007B200190F3E7FFF7DCF90190EFE70C46EDE784
S31508007B3000800050002337B50193164B0546D3F84D
S31508007B4020320C4603F00703042B21D8DFE803F0A4
S31508007B50030B11161B0001230DB1019A2A6004B10B
S31508007B60236003B030BD002101A8FFF789FF122367
S31508007B70F2E7FFF7B9F907230190EDE72BF0E4FDEB
S31508007B800A230190E8E7FFF7F1F909230190E3E7F3
S31508007B900023E1E70080005038B5104B0546D3F8BE
S31508007BA040310C4603F00303022B0BD0032B0DD0F8
S31508007BB0012B0FD12BF0C8FD0A2305B1286004B1AB
S31508007BC0236038BDFFF7D2F90923F6E72BF0BFFD8E
S31508007BD00C23F2E701230020EFE700BF00800050E6
S31508007BE0002337B50193164B0546D3F860320C4689
S31508007BF003F00703013B032B1FD8DFE803F0020E4F
S31508007C001914002101A8FFF707FF10230DB1019AE7
S31508007C102A6004B1236003B030BD002101A8FFF734
S31508007C20BBFF1123F2E7FFF75FF907230190EDE7A2
S31508007C30FFF756F902230190E8E70023E6E700BFBD
S31508007C4000800050002337B50193164B0546D3F83C
S31508007C5094320C4603F00703013B032B1FD8DFE8D9
S31508007C6003F0020E1914002101A8FFF7D5FE102310
S31508007C700DB1019A2A6004B1236003B030BD00211A
S31508007C8001A8FFF789FF1123F2E7FFF72DF907236C
S31508007C900190EDE7FFF724F902230190E8E70023B6
S31508007CA0E6E700BF0080005038B5144B0546D3F808
S31508007CB000020C4600F0070004281BD8DFE800F095
S31508007CC003090D111500012305B1286004B12360CD
S31508007CD038BD2BF039FD0A23F6E7FFF747F90923E4
S31508007CE0F2E72BF034FD0C23EEE7FFF7CDF80F2370
S31508007CF0800AE9E700231846E6E700BF008000503F
S31508007D0038B5144B0546D3F808020C4600F00700B0
S31508007D1004281BD8DFE800F003090D11150001231C
S31508007D2005B1286004B1236038BD2BF00DFD0A2388
S31508007D30F6E7FFF71BF90923F2E72BF008FD0C23FA
S31508007D40EEE7FFF7A1F80F23800AE9E700231846B4
S31508007D50E6E700BF0080005038B5104B0546D3F85B
S31508007D6040320C4603F00303022B0BD0032B0DD035
S31508007D70012B0FD12BF0E8FC0A2305B1286004B1CA
S31508007D80236038BDFFF7F2F80923F6E72BF0DFFC8E
S31508007D900C23F2E701230020EFE700BF0080005024
S31508007DA038B5104B0546D3F860310C4603F003038B
S31508007DB0022B0BD0032B0DD0012B0FD12BF0C4FCBB
S31508007DC00A2305B1286004B1236038BDFFF7CEF851
S31508007DD00923F6E72BF0BBFC0C23F2E7012300206E
S31508007DE0EFE700BF00800050B0F5207F1FD009D80C
S31508007DF0B0F5007F15D003D868B1B0F5C07F0AD0BA
S31508007E0000200CE0B0F5607FFAD10B4BD3F8800068
S31508007E10C0F3011003E0084B186FC0F303300130BC
S31508007E207047054BD3F89000C0F30460F7E7024BA0
S31508007E30186FC0F38020F2E70080005002464FF426
S31508007E408030104B10B598660020FFF7CDFF5043E1
S31508007E5041F671320C4BDC69DA635A6804F48034F3
S31508007E6022F4401259B90949884294BF00200120DA
S31508007E70000502435A600CB10022DA6310BD0449BA
S31508007E80F2E700BF0090005000000350005A62025B
S31508007E90002D3101430905D0012B0CD0022B084BCC
S31508007EA018BF002300F01F0039B103F580530122E3
S31508007EB082401A607047034BF4E703F50053F6E770
S31508007EC068800050648000501FB500218028044651
S31508007ED0CDE9001100F0998029D8002800F0998092
S31508007EE0A0F120043D2C35D83D2C33D8DFE804F02A
S31508007EF091999199A9A9A9A9A999B33CC9603C994D
S31508007F009999323232323232323299999968D39902
S31508007F1032323232323232323232323232A99191FE
S31508007F2091CE3C3CD8774DAE323232323288B0F5FB
S31508007F30B06F00F090802DD8B0F5207F71D00CD8A6
S31508007F40B0F5C07F65D0B0F5007F65D0B0F5807F0D
S31508007F5000F08680009804B010BDB0F5607F6BD045
S31508007F600DD8B0F5407FF5D1FEF78EFF02464FF4E7
S31508007F702070FFF739FFB2FBF0F252085AE0B0F56D
S31508007F80806F5ED0B0F5A06FE4D100216846FFF798
S31508007F90D1FDDFE7B0F5106F78D016D8B0F5E06FF1
S31508007FA079D00AD8B0F5C06F6BD0B0F5D06FD1D103
S31508007FB000216846FFF778FECCE7B0F5F06FC9D127
S31508007FC000216846FFF7ECFEC4E7B0F5406F3DD0E8
S31508007FD013D8B0F5206F63D0B0F5286FBAD1002159
S31508007FE0324B0391D3F8703203F00303012B02D10D
S31508007FF003A8FFF7D1FD039B3CE0B0F5486FA9D174
S3150800800000216846FFF71EFEA4E7FEF723FF00904F
S31508008010A0E7FEF739FFFAE7FEF71CFF02462046FF
S3150800802004E0FEF731FF02464FF42070FFF7DCFE4E
S31508008030B2FBF0F200928DE701A8FFF7C9FC019A9E
S31508008040EDE700216846FFF7E7FC83E7002168466D
S31508008050FFF716FD7EE700216846FFF743FD79E73F
S315080080604FF0E02302911B695B0705D5FEF70CFF6D
S315080080700290029B00936DE703A902A8FFF78CFD07
S31508008080F7E700216846FFF787FD63E700216846A2
S31508008090FFF736FE5EE700216846FFF75DFE59E703
S315080080A000216846FFF79CFD54E700BF008000509A
S315080080B008B58020FFF708FF034B98429EBF4FF490
S315080080C08032024B1A6708BD005A620200A00050AF
S315080080D01FB503460020B3F5807F019000F0C180EC
S315080080E064D85D2B55D84C2B07D82D2B48D8232B75
S315080080F02CD8019805B05DF804FB4D3B102BF8D839
S3150800810001A252F823F000BF59820008F380000844
S31508008110F3800008F38000080F820008F380000847
S31508008120F3800008DD8200082D820008D38100084C
S31508008130D3820008F3800008F3800008F380000863
S31508008140F3800008F3800008E7820008243B092B27
S31508008150CFD801A252F823F05982000859820008A4
S31508008160598200085982000859820008F3800008DD
S315080081704F820008F3800008EF8100088F8200080C
S315080081803D2B7FD03E2BB4D1002001A9FFF7E4FD9B
S31508008190AFE7802BADD1594B1B6F03F00703013BAB
S315080081A0032BA6D8DFE803F0514E858DB3F5F06FA3
S315080081B068D021D8B3F5B06F49D00FD8B3F5607F32
S315080081C000F0838095D3B3F5806F45D0B3F5A06FE3
S315080081D08FD1002001A9FFF7ADFC8AE7B3F5D06F70
S315080081E055D0B3F5E06FCFD0B3F5C06F81D100207D
S315080081F001A9FFF7D1FC7CE7B3F5206F6ED00BD849
S31508008200B3F5086F48D0B3F5106F7FF472AF00204E
S3150800821001A9FFF775FD6CE7B3F5406F59D0B3F5C3
S31508008220486F60D0B3F5286F7FF463AF334BD3F84C
S31508008230703203F00303012B5AD0022B0CBF15230F
S31508008240002300E00523019353E70223FBE7002000
S3150800825001A9FFF747FC4CE7002001A9FFF7DCFB63
S3150800826047E74FF0E02302901B695B0705D5FEF749
S315080082700BFE0D230393039BE5E703A902A8FFF76B
S315080082808BFCF8E7002001A9FFF78AFD31E70020FB
S3150800829001A9FFF709FD2CE7184BD3F8003103F0C5
S315080082A00303022B07D0032B09D0012B0BD1FEF7B2
S315080082B001FE0323C7E7FEF759FE0923C3E72BF0A0
S315080082C041FA0823BFE70123BDE701A9FFF780FBB1
S315080082D00FE7002001A9FFF7D3FB0AE7002001A951
S315080082E0FFF77EFC05E7002001A9FFF7ABFC00E7D6
S315080082F0002103A8FFF750FC1123A4E700800050D3
S315080083004FF48012034B5A664FF48032024B9A623E
S31508008310704700BF009000500050005A38B5044618
S315080083208020FFF7D5FE032800F083804FF48012E3
S31508008330524B4FF0A0615A6645F60E02504BC3F8F1
S315080083408020504A91624FF4803102F58052916242
S315080083509A6DD203FCD4996D11F08041FBD1D4E912
S315080083600002120542EA0062E07B0243207B42EAF1
S315080083700042607B42EA0032A07B42EA80121A6120
S315080083809869D4E90452120642EA856200F0004070
S315080083900243A07EE57E0243207E42EA0042607EDA
S315080083A042EA00229A611A6AE06922F00F0242EA5A
S315080083B08502354D00283DD11A6294F82420996A21
S315080083C094F82000D200294042EA40120A4394F861
S315080083D0211042EA011242F480329A622B49284A55
S315080083E0936D31EA0303FBD14FF080712548816212
S315080083F01369A56823F4700343EA055313614FF024
S315080084000043836194F822300BB9214B996294F8A2
S3150800841023303BB94FF480321D4B9A62184A936D4C
S315080084205B00FCD494F825301BB1154B194AC3F8E8
S31508008430802038BD024342F0080202281A6208D199
S3150800844019614FF40852996113484FF47F412BF094
S315080084502BFA0B4994F822308A6A94F820001B06F6
S315080084602A4043EA4013134394F8242043EAC203FC
S3150800847094F8232043EA02438B62D3E70090005026
S315080084800040005A0050005AC7FFFEFE03000100D4
S315080084900060005AF1A7FFFF3440005A70B5194C26
S315080084A0FF28A66A2BD8A36D4FF0807113F4803F7E
S315080084B018BF4FF48032144B18BF9A629962134A58
S315080084C0A36992F9005023F47F03054423F47F43FC
S315080084D043EA002385F3080543EA0543A3613246C8
S315080084E00B482BF0E1F9A36DDB0301D4002070BD26
S315080084F032464FF4803106482BF0D6F9F6E72120AC
S31508008500F5E700BF0040005A0050005A66160020E2
S315080085102840005A70B5104C4FF08071A66AA36DBA
S315080085200E4813F4803F18BF4FF480320C4B18BF27
S315080085309A6299623246A5692BF0B6F9A36DC5F31E
S315080085400725DB0305D532464FF4803103482BF067
S31508008550ABF9284670BD00BF0040005A2840005AB3
S315080085600050005A014B93F9000070476616002028
S315080085704FF4803311481249826A8B62836D03F087
S315080085800303032BFAD14FF080730E488B620B4B13
S31508008590996D30EA0101FBD1012009490865996DF9
S315080085A08907FCD4054B996D8807FCD5996D890711
S315080085B0FCD5054905482BF077B900BF0040005A9D
S315080085C00050005A03000100000001012840005A2B
S315080085D0014B1880704700BF04160020B0F5207FB5
S315080085E010B50C465DD008D8B0F5007F4ED003D83C
S315080085F0C0B1B0F5C07F15D010BDB0F5607FFBD116
S315080086002C4B4C1ED3F8FC202B4912F0807F4FEAE6
S31508008610041427D1D1F8803023F030032343C1F85E
S315080086208030E9E72BF04FF92BF05BF94FF48031F6
S31508008630224B214A1967136F013C23F4704343EA1E
S3150800864004331367FEF720FC0446FFF7B5F9C0F1BB
S31508008650020120462BF03FF900F042F8BDE8104031
S31508008660FFF726BDD3F8FC2022F08072C3F8FC2061
S31508008670D1F8802022F030022243C1F88020D3F8B6
S31508008680FC2042F08072C3F8FC20B5E70A4A4C1E6B
S31508008690D2F8903023F0F85343EA0463C2F89030D6
S315080086A0AAE7054A4C1E136F23F4806343EA842322
S315080086B01367A1E700ED00E000800050009000502D
S315080086C008B50121022000F081F82BF0FCF82BF008
S315080086D008F94FF48032014B1A6708BD0090005024
S315080086E008B54FF4C070FFF7EFFBBDE80840044932
S315080086F0884294BF012102214FF42070FFF76EBF14
S3150800870080F0FA02034B5868C0F30800003818BF17
S315080087100120704700ED00E0024A536B0342FCD18A
S31508008720704700BF00400950044A4178536F23F44C
S31508008730407343EA01235367704700BF0040005067
S315080087400C4A10B51369044643F00403136104F098
S315080087505FF92BF0F4F8084B084AC3F8202430BF19
S315080087602BF0EEF804F08EF91CB9BDE81040FEF7C0
S315080087708BBB10BD00ED00E000E003500000FF0FCA
S315080087800A4A10B51369044643F004031361084BFB
S31508008790084AC3F8202404F03BF930BF04F072F904
S315080087A01CB9BDE81040FEF76FBB10BD00ED00E038
S315080087B000E003500000FF0F034A0179D36E23F04F
S315080087C030030B43D366704700400050F8B50446A3
S315080087D01C4BD3F88420D106FBD4D3F88430C3F3DA
S315080087E081139C422CD0FEF735FB012C064602D19C
S315080087F021462BF070F82BF08EF84FF00072124BD2
S3150800880007465A6620462BF09EF84FF480630D4DB6
S31508008810621E93402B676B6E9A0103D4D5F8843099
S315080088209B060AD538462BF07AF8022C08D1304632
S31508008830BDE8F84000212BF04EB8D5F88430EAE7B9
S31508008840F8BD00BF004000500060005010B50C464F
S3150800885008B9FEF7FFFA074B21461B783BB1064BD2
S31508008860984204D80120BDE81040FFF7AFBF0220A8
S31508008870F9E700BF30700020005A62020278034B05
S31508008880012100201A70FFF7E1BF00BF30700020F9
S315080088904FF0004238B5244B244C5A664AF6CD337D
S315080088A0656C014605F00105236428BB0120FFF726
S315080088B033FF6368DB0715D51D4B586008461D4B0B
S315080088C0226BD2070CD4984208D1072415B1174B4E
S315080088D0194A1A642EF018FA204638BD0130EFE717
S315080088E09842F2D00024F1E70132236B13F0080313
S315080088F005D08A42F8D1E8E700220E49F5E78A4210
S31508008900E3D020210A4A91620121A2F580525160E2
S315080089100649084A886A800603D49342D5D00133AB
S31508008920F8E79342DDE700BF009000500040095089
S315080089300060095040420F003254FFFF4FF00042DA
S3150800894038B5164B01465A664AF6CD33144C154AC5
S31508008950656C236443780B205B0043F00103D36303
S31508008960FFF7DAFE63688A7823F4F87343EA02139A
S315080089706360CA784B7943EA0223A3600A798B7944
S3150800898043EA022323610878FFF782FFEB0744BF17
S31508008990054B23642EF0B8F9012038BD009000502D
S315080089A000400950004000503254FFFF4FF000428B
S315080089B0124B70B55D6E03F580535A664AF6CD3391
S315080089C004460F4980204E6C0B64FFF7A5FE0B6A20
S315080089D023F00F030F2C94BF234343F00F030B62BE
S315080089E0F30744BF074B0B64002DA2BF4FF00042AC
S315080089F0054B5A662EF088F970BD00BF00800050FE
S31508008A00004009503254FFFF00A000504FF00042CA
S31508008A10104B70B55D6E03F580535A664AF6CD3332
S31508008A2004460D4980204E6C0B64FFF775FE0B6AF1
S31508008A3023F4F85343EA04230B62F30744BF074BB6
S31508008A400B64002DA2BF4FF00042054B5A662EF06C
S31508008A505BF970BD00800050004009503254FFFF9A
S31508008A6000A000502DE9F04105460F461E469046E7
S31508008A704AB101233022194C8B4002FB004436B31D
S31508008A8004F5825423600F21072F05EB450388BFA1
S31508008A90A7F108044FEA0313114895BFBC00A400C8
S31508008AA004330C3308FA04F2A14018442AF04CFFA8
S31508008AB0B8F1000F09D101233021084ABB4001FB58
S31508008AC005223EB102F582521360BDE8F08104F535
S31508008AD00154D7E702F50152F6E700BF00C003507C
S31508008AE030C003504FF400120B4B10B5C3F880206A
S31508008AF0BFF34F8FBFF36F8F0024FF22074B21462A
S31508008B005C6520209A625C60FFF7C4F92146BDE8DF
S31508008B1010402120FFF7BEB900E100E00000045034
S31508008B20044A054B002908BF1346012282401A60F1
S31508008B30704700BF401004504020045010B5012172
S31508008B4004462020FFF7A6F901212120FFF7A2F904
S31508008B500122114B5A60227812069A606178A2782F
S31508008B6042EA01429A61FF229A6200229A631A64D3
S31508008B704FF000425A654FF0FF324FF4001103F5EB
S31508008B8000531A65054AC2F88011E3781B01DBB267
S31508008B9082F81533116010BD0000045000E100E0B2
S31508008BA0F8B50125C3B2D1F800E091F80AC00F7BE9
S31508008BB00C469D40CB7A1C491C4E0D65810001F17F
S31508008BC0A04101F58821C1F804E04FF0300E0EFBF4
S31508008BD000601B05617B43EA0C4343EA475322F0D6
S31508008BE003020166C36502672AF0A0FE736D227A46
S31508008BF02B4373650E4B02B11D64627A02B19D6305
S31508008C002279A37943EA0243074A93616179E379B2
S31508008C1043EA014306498B61044B55639D64BDE8ED
S31508008C20F8402AF089BE00BF002004500000045016
S31508008C300010045010B50124C0B284402AF076FE14
S31508008C40044B5A6D22EA04025A659C62BDE810403C
S31508008C502AF072BE0000045010B50124C0B2844048
S31508008C602AF064FE074BDA6A224208D15B6B9C4302
S31508008C700CBF012400242AF05FFE204610BD002404
S31508008C80F9E700BF000004504FF48032054B9A669E
S31508008C9041F6713203F51C33DA63012203F50053FA
S31508008CA0DA6070470090005041F671320121064B98
S31508008CB0DA6303F50052D1600022DA634FF480329A
S31508008CC0A3F518339A667047000003500138312817
S31508008CD09ABF024B185C0020704700BFBDC203084C
S31508008CE038B5C2F30625044602F0070241B942EA3E
S31508008CF0052242F440220634074B43F8242038BDA7
S31508008D00114628462AF030FE02462846FFF7DEFFBF
S31508008D10163442EA0022EFE700800350014BD3F8ED
S31508008D2094007047004000504FF48032064B5A6654
S31508008D3003F5E6239B69C3F38512827003F03F02AD
S31508008D401B0B427003707047009000500120034BC4
S31508008D509B680A3303F01F03984070470080E00FB2
S31508008D6070B5054616461C4621B94FF42070FFF724
S31508008D70ABF80146402C1BD003D8DCB1202C1BD005
S31508008D8070BD602CFCD1042303FB06F2530803EBE9
S31508008D904113B3FBF2F36021084A203B02EAC303FE
S31508008DA005F50052916005F580529460EB61E7E79E
S31508008DB00623E9E71023E7E70823E5E7F8FF7F003E
S31508008DC0012100F5805310B5596040F6AA6341F2B7
S31508008DD0050243610023094C8360C365C26000F540
S31508008DE000520361C361C3649464054C8365A04261
S31508008DF004BF03654365516010BD00BFFFFF010056
S31508008E0000C0055070B50C46FFF7DAFF012300F5E0
S31508008E1080567360A37C05461BB1836843F0804384
S31508008E208360E37C4BB1234B9D4202BF227DA3F5B1
S31508008E301033C3F8C8218023F365228A637B28464A
S31508008E401343E2891343EB60237BD4E90112FFF74E
S31508008E5087FF637D1BB1AB6843F48033AB60A37DAA
S31508008E601BB1AB6843F40043AB60E37D227E1B076E
S31508008E70120502F4E00203F0E0431343AB65637E98
S31508008E809A1E012A4FF0020209D80B49032BC1F892
S31508008E90202709D10423F36523786B6170BD074940
S31508008EA0012BC1F82027F4E7042205F50053DA65FB
S31508008EB0F2E700BF00C0055000D0035000E00350A1
S31508008EC0034B5A68D20702D5DA69002AF9D17047E6
S31508008ED000800A50054B9A689107FCD45A68920795
S31508008EE0F9D4DA69002AF6D1704700BF00800A5023
S31508008EF008B5FFF7E5FF0222014B1A6108BD00BF5E
S31508008F0000800A5008B5FFF7E5FF0122024B03F57A
S31508008F1080514A601A6108BD00800A5008B5044BA2
S31508008F205968012903D1FFF7E3FF024B596008BDD1
S31508008F3000800A5000A00A5010B5064CFFF7CAFF79
S31508008F406368012B03D1FFF7E9FFFFF7C3FF037837
S31508008F50E36010BD00800A50B8B94A680B7812B1B0
S31508008F60127843EAC2034A7843EA42038A6812B18E
S31508008F70127843EA82138A7843EA8203CA6812B1EE
S31508008F80127843EA4223014A9364704700800A50E4
S31508008F9008B9014B5964704700900A5008B9014B4B
S31508008FA05964704700A00A5008B9014B1964704704
S31508008FB000A00A5010B9024B186C70470020704781
S31508008FC000800A5048B911B1012903D07047044BF3
S31508008FD0D86C7047024B186D70470020704700BF69
S31508008FE000800A5040B911B1012903D07047034BDC
S31508008FF0DA647047014B1A65704700BF00800A5053
S3150800900010B9024B586D70470020704700800A500F
S3150800901038B50446054D2DF0D2FE0FCC0FC594E8A1
S31508009020030085E80300002038BD00BF9033002008
S3150800903047F6FF739A42F0B56FD002296FD8394BBD
S315080090405B5C012B6BD8384DDF0005EBC30415F8C4
S315080090503330A178012B13D10025E078401AA842B5
S3150800906002D80844C0B2F0BD431B6668A0EB5303A0
S3150800907036F913609642D4BF1D4603F1FF30EEE77A
S3150800908060680028EFD0B0F90040944204DBB0F9DC
S3150800909002409442B8BF144683883D44FF2B19BF4B
S315080090A0C8224FF0280CB0F90620B0F908C0A2EB88
S315080090B004030CBF0126002693FBFCF333446E78A9
S315080090C01BB29E4201DD002B01DA731E1BB24FF460
S315080090D07A7C01339BB2071D5D1E2DB24FEAC50E81
S315080090E000EBC505EA88AD689E4214FB025222EAE7
S315080090F0E27202F15C02B2FBFCF204DD37F833508F
S3150800910001339542E8D200EB0E039888904228BFB7
S315080091101046884238BF0846A4E7FF20A3E7002088
S31508009120A1E700BFEFC20308903300200229F0B57B
S3150800913055D82C4B585C012851D82B4C04EBC00150
S3150800914014F830004B6801280FD1C8788C78904203
S3150800915094BFC4EB0001C4EB0201001BCAB28242F1
S31508009160C8BF002233F91200F0BD002B37D088782B
S31508009170904202D3B3F90200F6E7CC78B3F90000BF
S315080091809442F1D94C789988013CA1F1FF067142C5
S3150800919003F10405E4B2714103F10C07CEB2B442FF
S315080091A016D805EBC1014FF47A756A43B1F9024046
S315080091B04968521A04EBD47102EB610292FBF4F28D
S315080091C09042D1DBB3F902009042CDDC10B2CBE776
S315080091D037F831C04E1C9445E3D33146DEE70348E1
S315080091E0C2E700BFEFC20308903300200080FFFFEC
S315080091F00148FFF70DBF00BFF4C203087FB514226C
S31508009200002101A832F0B1FF044B01A94FF0FF304D
S3150800921002932DF037FE07B05DF804FB006A1800CC
S3150800922008B5B0B14FF480620B4B9A662AF0DCFBA6
S315080092304FF098435A6CD202FCD54FF48062586DB1
S31508009240064B10F470209A6604D0BDE808402AF050
S3150800925031BC212008BD00BF0090005000A000507E
S315080092602DE9F0418CB08846DDE912761D460446A4
S31508009270002847D0002945D0002F43D0002E41D0E2
S3150800928013F00F033ED120482049A360002A08BFE7
S315080092900146E361C4E90013404609A92AF095FC92
S315080092A068BB204609992AF096FB294620462AF0EB
S315080092B092FB694640462AF036FD00BB69462046C1
S315080092C02AF075FB404603A92AF038FDB8B92046AE
S315080092D003A92AF06CFB06970127204645F000559E
S315080092E006A9079708952AF062FB204609A9099658
S315080092F00A970B952AF065FB2046FFF791FF0CB0FD
S31508009300BDE8F0812120FAE700010004000101040C
S315080093102DE9F04F97B0894690461F460546DDF879
S3150800932080A0002800F0BB80002900F0B8803AB180
S31508009330229B002B00F0B380239B002B00F0AF800C
S31508009340BAF1000F00F0AB80219B002B00F0A7803C
S3150800935067B13C680026229B43440293464507D3DF
S3150800936007B13C60002017B0BDE8F08F3C46F1E736
S315080093705CB1229B219A9B5D125D01345340239A6E
S3150800938004F00F0493550136E8E7A8EB060BBBF18A
S315080093900F0F58D9434B4846C5E90034AC60EC6119
S315080093A013A92AF012FC0028DDD1284613992BF0C0
S315080093B00F0B2AF010FB594628462AF00CFB4846A4
S315080093C004A92AF0B0FC0028CDD1284604A92AF021
S315080093D0EEFA484607A92AF0B1FC0028C3D1284668
S315080093E007A92AF0E4FA012322992F4ACDF828A0E2
S315080093F00B930C928A190D9228464BF000520AA933
S315080094000E9303920F922AF0D2FA28460DA92AF053
S31508009410CEFA239B039A991901231091119312925C
S31508009420214A284610A9CDF84CA0149315922AF083
S31508009430C8FA284613A92AF0C4FA2846FFF7F0FE08
S315080094405E4400288FD1229B03EB060B239B1E4408
S31508009450029B5B4501D1464680E7ACB9219B224673
S31508009460CDE900A3494610232846FFF7F9FE002850
S315080094707FF479AF0AF1100212F8013D0133DBB22D
S3150800948013700BB95245F7D1219A1BF8013B125DAF
S315080094900134534006F8013B04F00F04D8E72120B5
S315080094A061E700BF03030004100000202DE9F04F18
S315080094B097B0894615469A460446209FDDF8888067
S315080094C0DDF890B0269E002800F09D80002900F067
S315080094D09A80002E40F08A80002B00F09480B8F124
S315080094E0000F0AD0219B002B00F08D80002A40F047
S315080094F09F80F10700F1878002E0002A40F085800E
S31508009500FB1F062B7FD8524B0BEB05029A427AD8E3
S315080095100023504A4846C4E90023A360E36113A91F
S315080095202AF053FB00285ED1204613992AF053FAF5
S31508009530204646EA07412AF04EFA414620462AF0D6
S315080095404AFA294620462AF046FA484601A92AF048
S31508009550EAFB002847D1204601A92AF028FA4846FE
S3150800956004A92AF0EBFB00283DD14FF0010920465B
S3150800957004A92AF01CFA239B45F000550793219B62
S31508009580CDF82090204609950DA90A9347F0005773
S3150800959048F00053CDF82C900C93CDF834A0CDF8B4
S315080095A038900F972AF003FA20460AA92AF0FFF9FD
S315080095B0204607A92AF0FBF9259B204610A946F064
S315080095C00056CDF840B0CDF8449012951393CDF8D7
S315080095D0509015962AF0F5F9204613A92AF0F1F9C4
S315080095E02046FFF71DFE17B0BDE8F08F259B53B147
S315080095F0BAF1000F07D0B8F1000F01D0219B13B1C3
S31508009600B5B9022E20D12120EDE7239B002BFAD0F5
S31508009610BBF1000FF7D0C7F10F03DBB2032B3FF600
S3150800962068AF0122DB0002FA03F3AB42EBD9E8E7A5
S31508009630239B002BE7D0BBF1000FE4D0C7F10F0343
S31508009640DBB2032BDDD8ECE7102E7FF652AFDAE754
S31508009650FFFF0320000005042DE9F04F99B0884666
S3150800966015469B460446229FDDF89890289E60B1D1
S3150800967059B1279B4BB1BBF1000F06D0249B0BB108
S31508009680239B13B11DB9022E13D121239AE0259BE2
S31508009690002BFAD0B9F1000FF7D0C7F10F03DBB2F0
S315080096A0032BF0D80122DB0002FA03F3AB42ECD914
S315080096B0E9E7731E0F2BE8D816F0010AE5D1FB1F60
S315080096C0062BE2D8414B09EB05029A42DDD8404BFE
S315080096D04046C4E9003AC4F808A0C4F81CA015A975
S315080096E02AF073FA034600286CD1204615992AF009
S315080096F072F9204646EA07412AF06DF92046249970
S315080097002AF069F9294620462AF065F9404603A950
S315080097102AF009FB0346002854D1204603A92AF05B
S3150800972046F9404606A92AF009FB0346002849D10E
S315080097304FF00108204606A92AF039F9259B20464C
S31508009740099345F00053CDF8288001930B93239B8A
S315080097500FA90C93249B47F0005743F00052CDF80D
S3150800976034800E92CDF83CB0CDF8408011972AF09F
S315080097701EF920460CA92AF01AF9204609A92AF04A
S3150800978016F9019B204612A9CDF84890CDF84C80D1
S3150800979014932AF016F9279B204615A946F0005679
S315080097A01593CDF8588017962AF001F92046FFF749
S315080097B037FD034630B101902A465146484632F0F5
S315080097C0D4FC019B184619B0BDE8F08FFFFF0320B3
S315080097D00000060430B5048804F4E043B3F5005FDE
S315080097E02ED1C4F30223042B2AD181F0AA6383F471
S315080097F0807333F47E132AD081F0AA6383F400734E
S3150800980033F47E1323D00023144D21F47E11A9428C
S315080098101AD1B4F5105F17D1418821F0400080288D
S3150800982002D0B1F5807F15D1191F0C2912D8DB0794
S3150800983010D4073A072A34BF00206FF0860030BDDF
S3150800984042F204039C42DED16FF08500F7E7C1F3CC
S315080098500543D9E76FF08600F1E700BF0001400530
S315080098602DE9F04F9BB08146DDE928761D468B46EB
S31508009870DDF8A880DDF8BCA0099241B138B1249B77
S315080098802BB1269B0BB9279B0BB91FB94EB16FF0AD
S3150800989086047FE02EB1B8F1000FF8D02B9B002B81
S315080098A0F5D02C9B002BF2D0BAF1000FEFD02E9BEF
S315080098B0002BECD02D9B002BE9D0B9F8003003F42F
S315080098C0E042B2F5005F69D1C3F30222042A65D1EA
S315080098D085F0AA6383F4807333F47E1306D085F08B
S315080098E0AA6383F4007333F47E1360D1C5F305438A
S315080098F029464846259ACAF80030FFF76BFF044602
S31508009900002847D1014620220AA832F02EFC202240
S31508009910214612A832F029FC0AA82AF0F9F80028EC
S3150800992055D159464846099A12AB2AF070FA0446A8
S3150800993000282FD12B9B9E424CD8DAF800302E9A5D
S31508009940934247D8474508D2BB19984505D23946A8
S315080099503246404632F0EFFB4746204B25F47E154B
S315080099609D4226D1DAF80030324606932D9B03979E
S31508009970CDE90483279B12A90293269B0AA8019383
S31508009980259B0093249BFFF791FD212819D0D8B970
S315080099902C9B1E6020461BB0BDE8F08F42F20402E5
S315080099A0934204D185F0052383F480139BE70023B3
S315080099B09EE76FF0880400232C9A1360CAF80030DB
S315080099C0E8E76FF08604F6E76FF09204F3E76FF0C6
S315080099D09204DFE76FF08904DCE700BF0001400569
S315080099E02DE9F04F99B08A46DDE9266593469846F3
S315080099F081462A9F28B96FF08604204619B0BDE82B
S31508009A00F08F0029F7D0229B002BF4D0249B13B9A2
S31508009A10259B002BEFD10EB9002DECD117B92B9B46
S31508009A20002BE8D12C9B002BE5D0289B002BE2D0FD
S31508009A3041464846239AFFF7CDFE04460028DCD166
S31508009A40202201460DEB020032F08FFB2022214630
S31508009A5010A832F08AFB08A82AF05AF810B16FF05D
S31508009A609204CAE75A465146484610AB2AF0CFF93F
S31508009A7004460028C1D12B9B9D422AD8BE4208D253
S31508009A8073199F4205D231462A46384632F053FBAF
S31508009A903E46144B28F47E1898451DD1299B2A4624
S31508009AA00693289B0396CDE90473259B10A9029378
S31508009AB0249B08A80193239B0093229BFFF7CCFDC8
S31508009AC0212898D02C280AD00028C8D12C9B1D60A4
S31508009AD093E76FF0890490E76FF088048DE76FF0DD
S31508009AE094048AE700014005084B984202D0084BC7
S31508009AF0984207D10B88B3F5105F0CBF00206FF0B2
S31508009B00850070476FF08500704700BF0044400429
S31508009B100013C0042DE9F04F99460023A3B09346DD
S31508009B20DDE92E74DDE93068CDE90633CDE9083381
S31508009B30CDE90A33CDE90C33DDF8C8A004900591C8
S31508009B4029B96FF08605284623B0BDE8F08F002AAC
S31508009B50F7D00FB9002CF4D12C9B13B92D9B002BF1
S31508009B60EFD116B9B8F1000FEBD1BAF1000FE8D072
S31508009B7048460499FFF7B8FF05460028E3D1014691
S31508009B80202212A832F0F1FA202229461AA832F029
S31508009B90ECFA12A829F0BCFF002878D1DDE9040107
S31508009BA05A461AAB2AF033F905460028CBD11A983B
S31508009BB02AF0EAF805460028C5D114B9CAF8000003
S31508009BC0C1E7B7420AD23B199E4207D24445B8D8E4
S31508009BD039462246304632F0AEFA37464E4B99455C
S31508009BE058D003F54073994515D04C4B994540F02C
S31508009BF08C804445A5D814F00F02A2D12346CDE99E
S31508009C0000761AA912A8FFF72BFB0746002834D1BD
S31508009C10CAF8004097E700234445CDE90E33CDE95D
S31508009C2010338ED82D9B0D2B8BD101238DF8383010
S31508009C302C9B0DF1390203F10C0153F8040B8B42EE
S31508009C4042F8040BF9D11B78137001238DF84730BD
S31508009C5014F00F0933D10F2CDAD906AB01930EABEA
S31508009C60CDE90276009324F00F0200231AA912A860
S31508009C70FFF74EFB0746002843D0424600213046F0
S31508009C8032F073FA0023012FCAF8003040D06FF083
S31508009C90920558E744453FF654AF2D9B102B7FF4A9
S31508009CA050AF2C9B0DF1380C03F1100E6246186864
S31508009CB05968083303C273459446F7D1C8E724F0B8
S31508009CC00F033B440DF1280C03F1100E6246186889
S31508009CD05968083303C273459446F7D10F2CBCD88C
S31508009CE024F00F03334403930AAB029306AB0193A4
S31508009CF00EAB00934A4600231AA912A8FFF708FBE1
S31508009D0083E7B9F1000F83D0EAE76FF085051AE714
S31508009D106FF08B0517E700BF0010C004004440042D
S31508009D202DE9F04F994600239FB09346DDE9286553
S31508009D30DDE92A788A46CDE90633CDE90833CDE947
S31508009D400A33CDE90C33059029B96FF0860420460D
S31508009D501FB0BDE8F08F002AF7D00EB9002DF4D158
S31508009D6017B9B8F1000FF0D12C9B002BEDD048465F
S31508009D700599FFF7B9FE04460028E8D101462022D6
S31508009D800EA832F0F2F92022214616A832F0EDF993
S31508009D900EA829F0BDFE002844D15A46514605981A
S31508009DA016AB2AF034F804460028D0D1169829F0C4
S31508009DB0EBFF04460028CAD115B92C9B1860C6E7E4
S31508009DC0BE420AD273199F4207D24545BDD83146CD
S31508009DD02A46384632F0AFF93E46344B994549D0C3
S31508009DE003F54073994520D0314B994554D14545E3
S31508009DF055D82B07A9D12B460122CDE9006716A90C
S31508009E000EA8FFF72DFA2C9B06461D6000289ED04B
S31508009E1042460021384632F0A8F900232C9A012E32
S31508009E2013603FD06FF0920491E70D3D454536D853
S31508009E3001238DF8283033460DF1290206F10C016D
S31508009E4053F8040B8B4242F8040BF9D11B780D36F4
S31508009E5013704FF48073ADF8363006AB01930AAB36
S31508009E6000932A460023CDE9026716A90EA8FFF734
S31508009E704FFAC8E7103D454511D833460DF1280C71
S31508009E8006F1100E624618685968083303C273450E
S31508009E909446F7D11036E0E76FF0850457E76FF080
S31508009EA0890454E76FF08B0451E700BF0010C00423
S31508009EB00044400407B5094B18689A889B790090B6
S31508009EC06846ADF804208DF80630FEF737FD092000
S31508009ED0FEF76CFD002003B05DF804FB44C90308D7
S31508009EE013B50024064A6846536F43F001035367C7
S31508009EF000948DF80440FEF75FFC204602B010BDC2
S31508009F000040005030B58BB06C46174D0FCD0FC4CE
S31508009F100FCD0FC495E8030084E80300134BD3F86C
S31508009F204C2112031CD5A3F5FE431C884FF6FF737C
S31508009F309C4208BF8C248DF81940FEF713FB204479
S31508009F4080F308008DF818000948FCF7B9FF684641
S31508009F50FEF7E4F93220FEF73BFB00200BB030BDDC
S31508009F60D3F85041E4B2E6E74CC903080080E00F95
S31508009F7000F049026FF00403502110B50A480B4C53
S31508009F8013F0800F03F1010207D123444C2A83F80A
S31508009F9000131346F4D1002010BD03F00F03043B51
S31508009FA0034419761346EBE700ED00E000E100E014
S31508009FB038B502F01FFF0446F0B903F07BF903F049
S31508009FC005F84FF4167343430C4A03F5742303F25A
S31508009FD03F23B3FBF2F30A21094A0A4813600A4DE4
S31508009FE00268013911F0FF0145F8043BF9D11A441A
S31508009FF003EBC30313440360204638BD40420F00F9
S3150800A000DC330020AC330020B0330020012208B531
S3150800A010034B1A702AF07DFA024B186008BD00BF80
S3150800A02031700020A833002010B502F0CFFF044697
S3150800A03029F08DFB844207D92AF077FA20B101224C
S3150800A040024B1860024B1A7010BD00BFA8330020DF
S3150800A05031700020F8B51C4C2378D3B12AF059FA90
S3150800A0601A4B1B4D1B68C01A012838BF01202860EF
S3150800A07002F0ACFF4FF416735843164B00F57420E4
S3150800A08000F23F20B0FBF3F02968814202D9002391
S3150800A0902370F8BD104D114E2B78114F56F823201A
S3150800A0A046F82310501A0A213A680133121A3A6000
S3150800A0B00932B2FBF1F20B48DBB20260B3FBF1F2F4
S3150800A0C001FB12332B70E2E731700020A833002021
S3150800A0D0D833002040420F0032700020B0330020F1
S3150800A0E0AC330020DC330020014B1868704700BFF2
S3150800A0F0DC33002020234FF4801204204FF48051D3
S3150800A10030B50C4D0C4C85F82C330C4B5A660C4B61
S3150800A11003F500525467506714671067C5F8841131
S3150800A12069600B445C6758674FF0007090629962EB
S3150800A13030BD00BF00E100E0010000A00090005023
S3150800A1400040005A044B9A6D12F0050F02D1002800
S3150800A150F9D17047012070470040005A164B10B5D8
S3150800A1601C6F14F0040111D0144A1167082191627A
S3150800A1709B6DDA0701D4FFF757FF02F075FB02F073
S3150800A18055FB012003F046F82AF0D1F9E30706D576
S3150800A19001220A4B1A67FFF75DFF02F047FB14F02E
S3150800A1A000521CBF054B1A67002CBEBF4FF0004279
S3150800A1B0024B1A6710BD00BF0040005A0060005AE3
S3150800A1C010B5044629F0A7FB024B1C6029F0A7FB33
S3150800A1D0002010BDE033002010B529F09CFB034B8E
S3150800A1E01C6829F09CFB204610BD00BFE033002008
S3150800A1F038B50C461546014610B9FFF7EDFF01467E
S3150800A2002B462246034805F0C5FE0028D4BF372052
S3150800A210002038BD0B3F030810B5002400F024F8D1
S3150800A2200348044B84604360FFF7CAFF204610BD0D
S3150800A230E433002039A2000813B5064C23780093AE
S3150800A240054B1B8829F07EFE10B92378013323704D
S3150800A25002B010BD3370002006160020014B18808E
S3150800A260002070470616002008B5074B1A6842B941
S3150800A270012208201A6029F0C1FA0449044802F0AC
S3150800A2807BF9002008BD00BFF83300201811002014
S3150800A290F033002030B51446054687B0104629F03D
S3150800A2A0AAFE6369024683423CBFD4E903315B18C0
S3150800A2B01B1A7BB10F49049403910021CDE90131A2
S3150800A2C0012300932846D4E9001329F0A2FA0020B6
S3150800A2D007B030BD0122627694F82D20002AF6D008
S3150800A2E084F835301321E369204698472046636A87
S3150800A2F09847ECE795A200082DE9F04788B0044690
S3150800A3000F461646984629F011FB8146002E7AD04C
S3150800A310237E03F0FF02002B00F0A280204629F0DE
S3150800A3206AFE6569A84205D1637ED4E903321344FF
S3150800A3305D1B01E0F9D9451BB54228BF354629F012
S3150800A340F5FA94F82D308246002B6DD12A46384608
S3150800A350616931F01EFF63692E462B44636121E073
S3150800A360037803F0FD0111295BD1216B814205D1E8
S3150800A370A3F111014B424B4184F83430013E636925
S3150800A380216B01328B4203F1010308BF236363612A
S3150800A39095426069E4D1D4E90323216B13449942B9
S3150800A3A000D122630025D4E9032361691344994245
S3150800A3B008BF6261207A6576FDF7C2F9204629F062
S3150800A3C01AFE6369834232D1257694F82D30E56802
S3150800A3D0656103B125632046636A9847214B049457
S3150800A3E003930023029323692A46019301230093CA
S3150800A3F063682168207A29F00CFA207AFDF7C0F9FB
S3150800A400504629F099FA4846C8F8006029F094FAA7
S3150800A410D8F80030002B0CBF1B20002008B0BDE880
S3150800A420F08707F8013BAAE72E460022B0E701238A
S3150800A430207A23760DF11E01FDF70AFA9DF81E30E3
S3150800A440002BDAD00DF11F01207AFDF7D9F99DF816
S3150800A4501F100029D1D12246207AFFF71BFFCCE72F
S3150800A4601646D0E795A20008002807DB0123410914
S3150800A470034A00F01F00834042F82130704700BFAE
S3150800A48000E100E0002808DB01224309034900F047
S3150800A4901F008240603341F82320704700E100E046
S3150800A4A070B504460568FFF797FE844202D100207E
S3150800A4B0FFF786FE95F936603046FFF7E3FF002E74
S3150800A4C00CDB01221949730906F01F06B240203336
S3150800A4D041F82320BFF34F8FBFF36F8F95F937608D
S3150800A4E03046FFF7CFFF002E0CDB01220F49730918
S3150800A4F006F01F06B240203341F82320BFF34F8FE2
S3150800A500BFF36F8F287AFDF75BF9287AFDF7BEF857
S3150800A510FDF79AF800232846C4E90033C4E9043352
S3150800A520A360AB6ABDE87040184700BF00E100E0D1
S3150800A5302DE9F0430C461546064687B04022002111
S3150800A54020461F4631F011FE95E8030000232A69CC
S3150800A5502376EB6884E80300C4E904232A7DE360D4
S3150800A56084F82C20AA7D2363012384F8343084F8E8
S3150800A57035300E9B84F82D2023620F9BE7616362BA
S3150800A580109BA3622B7A84F836306B7A84F83730BE
S3150800A5902D4B346073602D4BB3602D4B33612D4BBF
S3150800A5A073612D4BF360FDF797F838B12B4B984242
S3150800A5B004D01024204607B0BDE8F083002104F13A
S3150800A5C00800FDF711F807460028F2D14FF00108F8
S3150800A5D0234B3362234B84F83C80B361224BF361EF
S3150800A5E09DF8483084F8390084F83B309DF84430AB
S3150800A5F0204684F83A30697D84F8388029F00BFDC6
S3150800A60095F909904846FFF73DFF4846FFF72CFFA6
S3150800A610164B0494CDE902732369CDE90083636878
S3150800A620E2682168207A29F0F4F804460028C0D1A7
S3150800A63095F908502846FFF725FF2846FFF714FF27
S3150800A6403046FFF7BDFDB5E767400308F9A20008E5
S3150800A650E53F0308EB3F0308A1A40008038000F0C8
S3150800A660BF3F030817400308F13F030895A20008F7
S3150800A6702DE9F04101271C465B4B86B002935B4BE4
S3150800A6800C9D01935A4B904600930A46CDE90377F1
S3150800A6902946584BFFF74CFF0646002840F09B809A
S3150800A6A0236839462B6463683A206B64637A85F8B5
S3150800A6B04930237A85F84830E37A85F84B30A37A0F
S3150800A6C085F84A30637B85F84D30237B85F84C3016
S3150800A6D0E37B85F84F30A37B85F84E30FDF7DAFB30
S3150800A6E03B460422617A207AFEF7BCF93B460222F1
S3150800A6F0E17AA07AFEF7B6F939466068FDF7CAFB33
S3150800A70088F8006041462068FEF77CFB1420617CCF
S3150800A710394B01F1390252019850607A227A03EBDB
S3150800A720411342EA0042C3F83827E17AA27A42EA9C
S3150800A7300142C3F8302785F8506098F81930032B82
S3150800A7404FD8DFE803F0394C021C022385F8503055
S3150800A75000230422E17BA07BFEF784F90220617CBA
S3150800A760254B01F1B9025201985003EB411341F20E
S3150800A7702C71E07BA27B42EA00425A501CE001277A
S3150800A78085F8503002220023617B207BFEF76AF9A8
S3150800A790617B227B637C42EA014241F228715B01BC
S3150800A7A003F1A04303F570335A500422236803F5D6
S3150800A7B08053DA65002FCBD10422237A052185F848
S3150800A7C04830637A85F849302B6C206803F5805346
S3150800A7D0DA6429F026F9304606B0BDE8F08100278C
S3150800A7E0CEE72326F7E700BF95410308894103080A
S3150800A7F01D4203081142030800C0035010B51C4649
S3150800A800044B18682BF03AFD002820600CBF1B206B
S3150800A810002010BD2011002013B5064C23780093A4
S3150800A820112329F08FFB10B923780133237002B066
S3150800A83010BD00BF3470002010B5FFF715FD0F4C92
S3150800A84020602BF029FD20220D4901230D4805F033
S3150800A85027FC0D4B18600D4B204663600C4BA3601C
S3150800A860FFF7AEFC29F057F801210446084601F027
S3150800A870EFFD204629F053F8002010BDFC330020D8
S3150800A880357000207AC903082011002019A800088D
S3150800A890FDA700081A2812D8102814D940F28523D3
S3150800A8A0A0F11102D2B2D340DB070CD50122064B28
S3150800A8B080F020001A70054B18707D2003E0A0F187
S3150800A8C07D03012BF2D970475C7000205B70002075
S3150800A8D0F8B50E461446204B00B3204A204910709E
S3150800A8E000221A7022700A704FF6FF721D4B1A80EA
S3150800A8F01B4D2B78EBB91B4F3046398829F046FD9E
S3150800A900164A38801378013BDBB213706BB9012302
S3150800A9102B703046BDE8F840FFF7BCBF1A78002A0E
S3150800A920E6D01870104B1878F8BD237801332370D9
S3150800A930EFE7012B05D102232B700A4B1888000A72
S3150800A940E8E7022B04D103232B70064B1878E1E7BE
S3150800A950FF237E202370E7E75C70002059700020F3
S3150800A9605A7000203A6200205B7000202DE9F047FB
S3150800A970394E8846337817465BB9384A1370384AD1
S3150800A9801370384A1370384A13704FF6FF72374BF4
S3150800A9901A807D2850D02DD8182851D01A2852D080
S3150800A9A0314B2E4D1A78DFF8BC9080EA020400225B
S3150800A9B01A702B78DF2B9CBF01332B702B78022B58
S3150800A9C012D9DFF8A8A099F80000BAF8001029F003
S3150800A9D0DDFC2B78AAF80000DF2B9FBF99F8002032
S3150800A9E0023B88F800203B701D4B1A781C7089F8CA
S3150800A9F0002006E07E28D3D1184B1B781BB91A4ACB
S3150800AA001370202011E0FF2B1FD0184A1188154A11
S3150800AA101078134A127802EB0022914217D1022BC2
S3150800AA2017D9E02B34BF00207A20A0F12002534228
S3150800AA3053413370BDE8F08720220B4B1A70E0E7CC
S3150800AA40FF22064BFAE77420EFE77720EDE776203A
S3150800AA50EBE77920E9E700BF5D7000205870002019
S3150800AA60567000205570002057700020386200206C
S3150800AA7008B529F03CFC4FF6FF73002818BF0346BB
S3150800AA80014A138008BD00BF3E62002010B5074C7E
S3150800AA90208850B129F02BFC2388C01A044B00B239
S3150800AAA01B889842B4BF0020012010BD3E620020DA
S3150800AAB03C6200204FF07E624FF6FF732DE9F041AD
S3150800AAC0B2F84670B2F84460154D9F4208BF4FF47D
S3150800AAD048679E4208BF4FF4C8762C88DFF8448042
S3150800AAE050B164002C802B88BB4215D92F800023D7
S3150800AAF0A8F80030BDE8F081B8F80030002BF2D095
S3150800AB0029F0F5FBB8F80030C4EBC404C01A80B2CB
S3150800AB1004EB8004E408E5E7B34238BF2E80E6E795
S3150800AB203C6200203E62002008B529F0E0FB4FF0A9
S3150800AB307E634FF6FF72B3F85430934208BF4FF462
S3150800AB407A73034413F47F6FC3F3071208BFFF2217
S3150800AB50014B1A7008BD00BF5E70002010B5084C86
S3150800AB60237843B129F0C3FB2378C3EB10131B06E4
S3150800AB705CBF002323702078B0FA80F0400910BD2E
S3150800AB805E70002007B502F007FA6A4602F06AFA14
S3150800AB9018B15221034800F06FFBDDE9000103B04C
S3150800ABA05DF804FB90C9030808B502F023F918B14B
S3150800ABB07A21024800F060FB002008BD90C903080E
S3150800ABC008B500F087FA0D4A536A43F470235362B6
S3150800ABD0EFF308834FF0CD31094A043B934209D27B
S3150800ABE00222084B1A67FFF7DFFFBDE80840064850
S3150800ABF0FEF70EBA43F80419F0E700BF00ED00E0CF
S3150800AC000000002000400050F4C2030807B50422E3
S3150800AC1000200DEB02012CF079F8042804D040F24C
S3150800AC206711044800F028FB019800F06BFC03B09C
S3150800AC305DF804FB90C903081028034670B535D0A3
S3150800AC4020D8032815D9002070BD032202231A49EB
S3150800AC501A4D0C680021C8B28442F4D955F8200070
S3150800AC6028B1067A9E4202D1467A9642ECD0013144
S3150800AC70F1E7421E022A19D8DFE802F0021B160085
S3150800AC800022E3E7A0F12002032ADCD8213B022BAD
S3150800AC90F6D801A252F823F0A5AC0008A9AC000822
S3150800ACA04BAC00080122D1E70222CFE7002203239A
S3150800ACB0CDE70122CBE700BF20C203089C10002085
S3150800ACC010B5FFF7B9FF044630B1037A022B03D15A
S3150800ACD003680BB11B6823B940F23321064800F01C
S3150800ACE0CBFA23681B681B6C986900F44830A0F5FA
S3150800ACF000535842584110BD90C90308082310B59F
S3150800AD000A0A41400648C9B201F00104490804B1DB
S3150800AD104140013B13F0FF03F6D181EA020010BD62
S3150800AD202083B8ED2DE9F8430025134C134EDFF8C0
S3150800AD305480134FDFF8509023780BB9BDE8F88399
S3150800AD4022464146002056F8043B29F0E7F82278C7
S3150800AD5023460134002AFAD15B7853B105F0030380
S3150800AD60032B0CBF39464946002029F0D7F8013590
S3150800AD70E2E73946F8E700BFFCCE030800100020DA
S3150800AD8068CD0308D9C90308D6C9030840F60522C1
S3150800AD906A4B2DE9F0411B8893420ED8B3F5206F14
S3150800ADA00DD840F20252934218D040F201729342F3
S3150800ADB020D040F2015293420AD0BDE8F081A3F6B2
S3150800ADC002235F4C032B1ED8DFE803F0376396B2E5
S3150800ADD05C490020BDE8F04129F0A0B800205A4996
S3150800ADE029F09CF8564B1A6C0020BDE8F0415749EB
S3150800ADF029F094B8524A0020D2E92523BDE8F0414B
S3150800AE00534929F08BB80020524929F087F894F85D
S3150800AE106C309E0703D500204F4929F07FF894F837
S3150800AE206F305D0603D500204C4929F077F894F970
S3150800AE306F30002BC1DA4A49CBE70020494929F08F
S3150800AE406DF894F86830980704D00020226C3F49C2
S3150800AE5029F064F894F96830002B04DA0020626F50
S3150800AE60414929F05BF800250126404FDFF80881A3
S3150800AE70A26E06FA05F3134207D057F82520137871
S3150800AE801BB14146002029F049F80135082DEFD1BC
S3150800AE9093E73749002029F041F82C490020226C15
S3150800AEA029F03CF894F86930590703D50020314950
S3150800AEB029F034F894F96930002B04DA0020626F1F
S3150800AEC0294929F02BF80825284E2B4FA36EEB406D
S3150800AED0DA0707D556F8252013781BB1394600201E
S3150800AEE029F01CF80135102DF0D194F868000028D7
S3150800AEF07FF463AF21496DE72149002029F00EF858
S3150800AF000020226C114929F009F81025174E1A4F0E
S3150800AF10A36EEB40DB0707D556F8252013781BB13F
S3150800AF203946002028F0FAFF01351A2DF0D144E7FA
S3150800AF300020144928F0F2FF226C55E740620020F1
S3150800AF4000100020E3C9030821CA030852CA0308EF
S3150800AF506DCA030889CA0308A2CA0308DDCA03081A
S3150800AF6011CB03084ECB030874CB0308D4D70308C8
S3150800AF709BCB0308B3CB030892CB0308FACB030891
S3150800AF802BCC030845CC03082DE9F04F424C85B07D
S3150800AF90D4E90D32580748BF0026D4E9121B48BF2A
S3150800AFA0B046D4F83CA05FBFD4F850808B46924692
S3150800AFB03A4E54BFDFF81091DFF8109113F0080FDE
S3150800AFC0374B384A18BF1A46B6EB08071FBF642323
S3150800AFD07D0803FB0B55B5FBF7F50CBF3D46ADB237
S3150800AFE04B4631490020CDE9016ACDF80080BFB251
S3150800AFF028F094FF2B460020CDE900972B491FFA2D
S3150800B0008BF228F08BFFB24501D8C24504D24A46D6
S3150800B0100020274928F082FFD4E91703184338D0BF
S3150800B0200020244928F07AFF00250126224FDFF860
S3150800B030A080E26D06FA05F3134207D057F82520DB
S3150800B04013781BB14146002028F068FF0135202DF2
S3150800B050EFD100250126194FDFF87480226E06FA13
S3150800B06005F3134207D057F8252013781BB141463C
S3150800B070002028F053FF01352A2DEFD10020104972
S3150800B08028F04CFF00200E4905B0BDE8F04F28F027
S3150800B09045BF0C49F4E700BF00100020001000204F
S3150800B0A074CC03087BCC030883CC0308B5CC03080F
S3150800B0B0EFCC03080ECD0308ACD603082CD703083B
S3150800B0C069CD030842CD03086FCC030867CC030893
S3150800B0D03ECD030810B5FDF721FE044628F061FCB5
S3150800B0E0E30721D401221046114600FA01F3234052
S3150800B0F002F101021AD0214B33F811302049062BF0
S3150800B10019D040F20722934212D14FF000524FF263
S3150800B1100F00548884420BD11088984208D14CF20B
S3150800B1203C335380088010BD0021E4E7102ADBD1A8
S3150800B130134A138012E04FF000534FF20F0258885B
S3150800B140904218D11B88B3F5406F28BF4FF4C063EF
S3150800B1500B804CF23C324FF000535A80084B1A8849
S3150800B16040F201739A4201BF064B074AD2E9000131
S3150800B170C3E90001D7E74FF4C063E9E7DCCE03086B
S3150800B180406200200834002094100020014B1888E3
S3150800B190704700BF40620020014B1888000A7047BC
S3150800B1A040620020164B1888020A10F0FF0013466A
S3150800B1B004D1012A23D143F080007047072BFAD81F
S3150800B1C001A252F823F000BFEDB10008B7B100089C
S3150800B1D0E9B10008FDB10008FDB10008F1B10008A9
S3150800B1E0F5B10008F9B100080920704718467047FC
S3150800B1F0032070470B2070470620704702207047CF
S3150800B20040620020044B05481B881A0AB3F5406FB4
S3150800B21038BF00EB8200704740620020ACCE0308BE
S3150800B220044B1888044B020A53F82230C0B203EBC9
S3150800B23080007047406200207CCE030810B50446A3
S3150800B24028F070FB4FF000534FF20F021C805A8013
S3150800B250BFF35F8FBFF34F8F0549064BCA6802F4E9
S3150800B260E0621343CB60BFF34F8F00BFFDE700BF1B
S3150800B27000ED00E00400FA0538B504460D460B4615
S3150800B28002460749002028F049FE29F0A8F828F0C8
S3150800B29049FB29462046BDE8384029F086B800BF54
S3150800B2A058CD03086C4A2DE9F0416C4B55686C4C37
S3150800B2B05D65516A99656B49D1F80002D865D1F880
S3150800B2C00412586B1966916A10F0040F9966D16AD0
S3150800B2D04FF00000D966116B1967516B5967D26B2D
S3150800B2E0D8649A67D3E90E1218BF11465E4A91428E
S3150800B2F01A655DD301F12000A04259D88869C5F3C3
S3150800B30008051864CE69062D5E6455D1574DA842C6
S3150800B31052D3574DA8424FD205884DF64260854212
S3150800B3204AD11868C3F894005868C3F8980040F2E0
S3150800B3300170A242154604D22E680432B6F1CD3FFA
S3150800B340F7D00022C3E91F22C3E92122C3E9232239
S3150800B350641BDFF818C1424DDFF814E19C648D4286
S3150800B3602DD8D3E91FC7D3E92165D3E923414FF087
S3150800B370000E013AD2B2FF2A3BD1BEF1000F05D02A
S3150800B380C3E91FC7C3E92165C3E92341B3F85430AC
S3150800B390C3F308030C2B3AD8022B53D9DA1E092A11
S3150800B3A050D8DFE802F030563F424F4F4F4F4F4CD0
S3150800B3B00021C3E910112C494FF42060B9E755F86C
S3150800B3C0044D6445CBD37445C9D2E607C7D50026D4
S3150800B3D0284F57F8048FA045C1D00136062EF8D15C
S3150800B3E02AB1013AD2B203EB8206F467B7E705221F
S3150800B3F0F9E7E0464FF0010EBC4637462E4625468D
S3150800B4000C464146B5E740F60120BDE8F0813A2BE7
S3150800B41018D1194B9B6913F0020F40F2025318BF5B
S3150800B4201846F2E740F60320EFE740F2017240F6CD
S3150800B4300423B0F5206F14BF10461846E5E740F61A
S3150800B4400520E2E740F60722013B5A2B98BF104633
S3150800B450DBE740F60220D8E700ED00E00010002008
S3150800B4600010002000E100E00000002070610008E4
S3150800B470C0C10308781000200040005B00F00CB83B
S3150800B48000F00AB800F008B800F006B800F004B8F2
S3150800B49000F002B800F000B872B61EF0080F09D026
S3150800B4A01EF0040F0DD0DFF850E0AEE8FF1F6FF076
S3150800B4B002000CE0DFF840E0AEE8FF1F6FF00E0078
S3150800B4C005E0DFF834E0AEE8FF1F6FF006006946D6
S3150800B4D0EFF309828EE8070086460848084C85453A
S3150800B4E001D3A54501D384F30888FFF7DBFE84F36F
S3150800B4F00888FFF7A3FE0000001000204000002087
