S01F00005A334C696768745F646F6E676C65705F76372E352E302E302E733337DD
S3150800600000100020457600089DC40008A1C40008B9
S315080060105FBF0308A5C40008ADC400085FBF030836
S315080060205FBF03085FBF03085FBF03085FBF0308BE
S31508006030B1C400082CCC04085FBF03085FBF03087F
S31508006040417B00085FBF03085FBF03085FBF030803
S315080060505FBF03085FBF03085FBF03085FBF03088E
S315080060605FBF0308957200082BB603085FBF0308D5
S315080060705FBF03085FBF03085FBF03085FBF03086E
S315080060805FBF03085FBF03085FBF03085FBF03085E
S315080060905FBF03080D8200085FBF03085FBF0308E0
S315080060A05FBF03080D840008E98300085FBF030883
S315080060B05FBF0308B5370208494202086925040884
S315080060C065250408E9390208752504086D250408BC
S315080060D0214202087125040889420208F54202088D
S315080060E05FBF03085FBF03085FBF03085FBF0308FE
S315080060F0C3CE03085FBF03085FBF03085FBF03087B
S315080061005FBF03085FBF03085FBF03085FBF0308DD
S315080061105FBF03085FBF03085FBF03085FBF0308CD
S315080061205FBF03085FBF03085FBF03085FBF0308BD
S315080061305FBF03085FBF03085FBF03085FBF0308AD
S315080061405FBF03085FBF03085FBF03082FD40308B8
S31508006150FD2702085FBF0308692204086F220408A6
S315080061605FBF03085FBF03085FBF03085FBF03087D
S315080061702DE9F04F4FF0FD0BC9B09A460DF11B09FA
S315080061809DF8503108AFCDF80C90CDF808B00197BE
S31508006190059303890446009383790E469046418801
S315080061A08288407813F0F4FD054650B10090A38824
S315080061B0002062883A4914F051F9284649B0BDE8EA
S315080061C0F08F99F8000039F069F938B12846A388A4
S315080061D06288344914F042F98D25EEE75A46394665
S315080061E099F8000039F029F98346002851D0529BC6
S315080061F01BB1BDF84C3198424BD8002399F8009052
S315080062000793A9F14102012A5FFA8BF123D8384690
S315080062100139254ADFF898C05FFA81FE734513DB1A
S31508006220059B04210792C3B907AF18221F489FEDA3
S315080062301A7B02FB060420460A460830394684EDD6
S31508006240027B3FF02AFD11E010F8011F013351408F
S315080062500CFB01F2E2E7059B33B123464A46384672
S3150800626000960FF01BFAA8E70829DED9B8F1000F47
S3150800627001D088F80090BAF1000F01D0AAF800B052
S31508006280529B002B99D05A46184608A93FF005FD9F
S3150800629093E7012591E700BF000000000000000019
S315080062A02B0F05085C0F0508C59D1C81901800205A
S315080062B093010001000000002DE9F04F93B0CDE9ED
S315080062C00A32DDE91C530E9353EC102BCDE9080175
S315080062D0104619468DED060B1E9E34F01BFD80B147
S315080062E0DDE906014FF0FF32C54B34F03BFD40B9FE
S315080062F0DDE906014FF0FF326FF4801334F014FD28
S3150800630070B1DDE908019DED060B0E9B1E96CDE9E1
S315080063101C53DDE90A3213B0BDE8F04F00F088B926
S315080063200022DDE90601002334F0FEFC002800F017
S315080063303381DDE906A303F1004BCBF30A5016F4CB
S315080063408063A0F2FF3008BF06250F9334F010FAD9
S315080063509BA3D3E9002334F075FA9BA3D3E9002362
S3150800636034F0BAF8CBF31304894644F07F518046DB
S315080063700022A44B504641F4401134F0ABF894A3E4
S31508006380D3E9002334F05EFA02460B4640464946F6
S3150800639034F0A2F834F0F0FC044634F0E9F98EA3A0
S315080063A0D3E900238046894634F04CFA0022964BFE
S315080063B034F092F834F0E0FC89A3D3E900230746C9
S315080063C04946404634F03EFA80463846894634F017
S315080063D0CFF985A3D3E9002334F034FA02460B46F5
S315080063E04046494634F076F802460B46CDE90C237A
S315080063F034F028FADDE90C2380468946104619460A
S3150800640034F06AF80022CDE91001804B404649462F
S3150800641034F042FB00227E4B34F05EF802460B460F
S315080064204046494634F038FB00227A4B34F054F89B
S3150800643002460B464046494634F02EFBDDE90C235E
S315080064408046894600204FF0804134F043F80246E2
S315080064500B464046494634F03FF802460B46DDE90E
S31508006460100134F019FB07F2FF3700226A4B34F0AB
S3150800647033F800223B0534F0E5F952465B46804680
S31508006480894634F06FFC002840F08980CDE90C89F4
S3150800649004F16303C72B34BF0427052731051BD531
S315080064A053A3D3E900235046594634F051FC00283B
S315080064B07FD051A3D3E900235046594634F034FC23
S315080064C0002876D00027A542C6BF2C1B04F1FF354D
S315080064D000253C4646F480660E9B9F422CBF4FF033
S315080064E00008A3EB070816F0020903D0002F18BF0F
S315080064F04FF000083CB1DDE90C235046594634F00C
S31508006500CBFA82468B46DDE906010022002334F0E9
S315080065100BFC10B10BF100439B46DDE9080126F49C
S315080065200063CDE90183DDE90A324BEC10AB009537
S3150800653000F07EF802465FB3DDE9091316F0200F76
S3150800654000F10105089E0CBF65204520B047DDE92E
S3150800655008010523002205930A23002CCDE90232FF
S3150800656007F1FF374FEAD473B8BF64422A4601934E
S3150800657004970A9B00943AF041FE0246B9F1000FCF
S3150800658006D00B9BC41A0B9B1A190E9BA34245D81F
S31508006590104613B0BDE8F08FDDE906ABCDE6002264
S315080065A0404649461A4B34F077FA013CCDE90C01CE
S315080065B06EE7002D90D00F9B002B8DD0013D8BE709
S315080065C0FB799F501344D33FB3C8608B288AC63FD4
S315080065D061436F63A787D23F71A379094F930A4036
S315080065E01655B5BBB16B0240EF39FAFE422EE63FAF
S315080065F02D431CEBE2361A3F0000000080842E4132
S31508006600FFFFEF7F0000F83F0000E03F00002C404E
S3150800661000002440000018400000F03F2020DDE97B
S315080066200913089DA8470134ADE700BF0000000024
S315080066302DE9F04F5BEC10AB97B0CDE90501DDE92C
S315080066402057CDE90723504652465B465946229EB7
S3150800665034F060FB70B90323CDE902760193B04BA1
S315080066600093DDE90501DDE907233AF0E7FC17B0F9
S31508006670BDE8F08F4FF0FF326FF48013504659464D
S3150800668034F052FB28B10423CDE902760193A54BD9
S31508006690E6E74FF0FF3250465946A34B34F062FB0B
S315080066A068B1A24A06F00403002B08BF0322A04BD8
S315080066B01CBF13460422CDE902760192D0E7504664
S315080066C093A3D3E90023594634F04CFB38B992A377
S315080066D0D3E900235046594634F026FB68B1DDE974
S315080066E00723DDE905014BEC10ABCDE921762095B2
S315080066F017B0BDE8F04FFFF7DFBD00220023504674
S31508006700594634F011FB002800F09A805B46524641
S315080067100020002133F0DEFE012382468B460993D2
S3150800672016F4806400F08E80092D40F28E800024D5
S3150800673030210EABA5F109020134202C03F8011B08
S31508006740A5EB040901D09442F6D15946504634F0D7
S3150800675013FB784B054603EBC90393ED007B8DEDE0
S315080067600A7B34F005F802460B465046594633F084
S31508006770B1FEDDE90A2334F065F802460B46CDE999
S315080067800C2334F021FB804633F0E2FF02460B4629
S31508006790DDE90C0133F09EFE02460B46CDE90C23DB
S315080067A00022654B34F0DEFA002851D008F10108C2
S315080067B0404633F0CDFF02460B46DDE90A0134F0C8
S315080067C0BDFA10B14FF000080135B9F1000F50D1EC
S315080067D0284633F0CDFF02460B465046594633F05D
S315080067E079FE0022544B8046894634F09DFA30B132
S315080067F0002240464946504B34F0B4FA10B1E80737
S3150800680000D501350A210EAB1A19202C0AD095FBA2
S31508006810F1F001FB1055303502F8015B01340546ED
S315080068200028F2D106F00302012A57D1002F55D0CD
S31508006830099A12B916F00C0F00D0013F302245E034
S3150800684009906DE74FF006097FE7A94600247CE723
S315080068500022DDE90C01384B34F066FA0028B4D181
S31508006860B8F1000F02D018F0010FAED008F10108F8
S31508006870ABE70A210EAB2344202C0ED0B8FBF1F06F
S3150800688001FB1082B8F1090F02F1300209F1FF3954
S3150800689004F1010403F8012B11D83021A1440EAAF2
S315080068A0202CAFD0A14504F101030AD11C4609F1F9
S315080068B058030DEB03092E2309F8203CA2E780466E
S315080068C0DAE7A1541C46EBE71A550134A74205D965
S315080068D0202CF9D1CDE902760194C1E6202CF9D015
S315080068E0099A3AB12D2104F158026A4402F8201C8B
S315080068F00134EFE7710704D504F158022B216A44E5
S31508006900F4E73207E6D504F1580220216A44EDE798
S315080069100000000065CDCD410000000065CDCDC169
S31508006920563905085A390508FFFFEF7F4D3905081E
S3150800693052390508603905080000E03F00000000EC
S3150800694070B58EB02C22002103A83FF080F964238D
S315080069504FF002320893CDE905230B2301218DF868
S315080069603430514B8DF810101B88D80700F19580EC
S3150800697008461FF00BF80A224C4B4D491A704FF483
S3150800698028734C48ADF812301DF072FD4A4C206051
S3150800699020B940F25221494805F07EFC05212068BD
S315080069A03BF0ADF920B140F26221444805F074FC91
S315080069B0206800F07BFC424B206819683BF015FA0A
S315080069C00C251FF0C3FE684309901FF0BFFE6843FD
S315080069D00DEB05010790206817F072FE20B140F212
S315080069E07721364805F058FC0022364920683BF0E6
S315080069F085FA20B140F27921304805F04DFC40F285
S31508006A000353314D314E2B80052396F90000AB70A8
S31508006A107F2801D11FF018F93378EB701FF096FE26
S31508006A2000EB80008000A8801FF090FE0023C000C5
S31508006A304FF0FF31E880AB604FF0FF3018A3D3E981
S31508006A4000231FF05FF9224920683BF033FE2068D7
S31508006A5002A93BF02DFA20B140F2B221174805F001
S31508006A601BFC042220680DEB02013BF0ACF904285C
S31508006A7004D040F2B521114805F00EFC01A9012009
S31508006A803CF0D8F805F04EFD012020F0FDF835F071
S31508006A9069FC20F023F91EF0FDFF0EB070BD00BFA3
S31508006AA00A0020FF42030000545400202E5F0020F5
S31508006AB0B5590208D012002094450020B67805087A
S31508006AC0141100203C5F0020884500205C16002039
S31508006AD0555B02080348044B834202D0034B03B1BB
S31508006AE01847704740180020401800200000000092
S31508006AF0064B0749C91A891048BF0131491003D006
S31508006B00044B0BB101481847704700BF40180020D6
S31508006B10401800200000000010B5064C237843B941
S31508006B20FFF7D8FF044B13B10448AFF300800123E5
S31508006B30237010BDD654002000000000C47C050850
S31508006B4008B5054B1BB105490548AFF30080BDE8FC
S31508006B500840FFF7CDBF00BF00000000981E0020C8
S31508006B60C47C0508A3F5803A704700BF174B002B75
S31508006B7008BF134B9D46FFF7F5FF00218B460F46CE
S31508006B801348144A121A3FF062F80E4B002B00D035
S31508006B9098470D4B002B00D0984700200021040091
S31508006BA00D000D48002802D00C48AFF3008034F0E1
S31508006BB089FC2000290034F0FFFC34F0B5FA00BF48
S31508006BC0000008000000000000000000001000207F
S31508006BD040180020B05F0020000000000000000000
S31508006BE008B50E4B1A78042A0FD100221A703CF009
S31508006BF0FAFF012103460A4A02200AF043FE40F63C
S31508006C00B832FF21074836F076FDBDE808404FF454
S31508006C107A72FF21044836F06EBD00BFD7540020B3
S31508006C20405D0408DC1E0020BC1E002008B50121BA
S31508006C300220034A0AF026FEBDE8084036F025BBC6
S31508006C406A5D040808B50B4835F05BFA0A4A13680A
S31508006C500133B3F5B47F136007DABDE808404FF493
S31508006C60FA72FF21054836F046BD0122044B1A7018
S31508006C7008BD00BF00B70408B81E0020FC1E00208F
S31508006C80D854002010B538F06BFB02280ED001212D
S31508006C90074A04200AF0F6FD0DF094FEBDE8104000
S31508006CA0034601210420034A0AF0ECBD10BD00BFCB
S31508006CB0765D04088B5D040810B538F051FB022890
S31508006CC00ED1FF21074836F027FD01200AF042FEC3
S31508006CD0BDE81040034601210420034A0AF0D2BD4C
S31508006CE010BD00BF3C1F0020B45D04087FB538F016
S31508006CF037FB022818D1184835F0FDF938F032FB71
S31508006D00044638F02BFB054638F026FB06463CF0D1
S31508006D10CFFB2346CDE90160012104200F4A0095E7
S31508006D200AF0B0FD04B070BD012104200C4A0AF037
S31508006D30A9FD00220B4BFF210B481A6036F0E4FC34
S31508006D400DF040FE094B0190009301210420084BE9
S31508006D50084A0AF097FDE5E700B70408D75D040876
S31508006D60765D0408B81E0020FC1E00203363040864
S31508006D70325E0408375E04081FB50123002200931B
S31508006D8006210DF10F0338F09EFE28B99DF80F3045
S31508006D90044823B135F0AFF905B05DF804FB35F0CA
S31508006DA0ADF9F9E700B70408912808B504D1BDE89C
S31508006DB00840074835F0A2B9902808D1044835F0AC
S31508006DC09AF9BDE80840FF21024836F09DBC08BD87
S31508006DD000B704083C1F002073B505F01DFA0446E9
S31508006DE005F020FA224603462449002013F036FB14
S31508006DF038F0B8FA044638F0B1FA054638F0ACFA75
S31508006E002346FF241E4ECDE90050012102201D4ACB
S31508006E100AF038FD234630461B4A0021009409F043
S31508006E20AFF91A491A4809F02FFA23460021194AD8
S31508006E301948009409F0A4F9184D23460021184A68
S31508006E401848009409F09CF923460021164A174869
S31508006E50009409F095F923462846154A002100941E
S31508006E6009F08EF92146304636F04EFC2146284672
S31508006E7002B0BDE8704036F047BC00BF515E04085A
S31508006E805C1F0020675E0408ED6C0008B96C0008FA
S31508006E903C1F0020856C00081C1F0020BC1E00201B
S31508006EA0456C0008FC1E00202D6C0008DC1E002026
S31508006EB0E16B000810B504460346012104201E4A6A
S31508006EC00AF0E0FC44B310F0D3FC034620B10121DC
S31508006ED004201A4A0AF0D6FC194B1A783AB9BDE8C2
S31508006EE010404FF47A72FF21164836F004BC00228F
S31508006EF0154914480A60FF211A7036F00DFCFF2167
S31508006F00124836F009FC1248FF2136F005FCBDE8A8
S31508006F101040104835F0F2B80B4BFF2109481C60A9
S31508006F2036F0FAFBFF210A4836F0F6FBBDE81040BA
S31508006F30FF21064836F0F0BBA65E0408C45E0408C6
S31508006F40D85400201C1F0020B81E00205C1F0020FB
S31508006F50FC1E002000B7040837B5054635F09FF833
S31508006F60012804460BD136F034FA1F4B2146186027
S31508006F7004201E4A03B0BDE830400AF083BC284608
S31508006F8035F08DF850BB0121194A04200AF07AFC25
S31508006F9036F01FFA144B174C1B68C01A2060FA20EB
S31508006FA006F004FB236898421AD84FF47A7006F064
S31508006FB0FDFA2368984215D841F2883006F0F6FAA9
S31508006FC0236898428CBF032304230B4A01211370BC
S31508006FD0226804200092094A0AF054FC03B030BD26
S31508006FE00123F2E70223F0E7B01E0020F25E040850
S31508006FF0205F0408B41E0020D75400204E5F040802
S3150800700030B50A4C0A4B22680A4D1A600A4B85B0FD
S315080070102B600A4B019304F083FB2B68029001A9AD
S315080070202068039335F0C4FB05B030BDA8100020D6
S31508007030742D0020702D00209C100020EDB504084A
S31508007040014B186835F0C8BBA810002038B504F005
S3150800705067FB0446064D2B68D3F8B00204F054FBD0
S31508007060286835F0CCFB2046BDE8384004F04CBB18
S31508007070A810002010B5274C01F0D6FE02F020F823
S31508007080236F23F0070343F00303236735F0BAF8A9
S31508007090214B00209B6ADB015EBF4FF480321F4BF9
S315080070A09A62D4F8203123F0070343F00203C4F8A8
S315080070B02031D4F8283123F0070343F00203C4F83B
S315080070C02831D4F8403123F0030343F00103C4F810
S315080070D04031D4F8603123F0030343F00103C4F8C8
S315080070E06031D4F8403223F0030343F00103C4F8B7
S315080070F04032D4F8003223F0070343F00103C4F802
S315080071000032D4F8083223F0070343F00103C4F829
S31508007110083210BD008000500040005A0060005A36
S3150800712007B501A802F0A6FB9DF80530012B14D17E
S315080071309DF804308BB94FF48012134B1349586EDF
S3150800714003F580535A664B6B23F0E05343F04063D4
S315080071504B63C3025CBF0E4B5A6604F0AFF904F0EA
S315080071604DF935F0ACFE04F071F9FFF783FF04F032
S315080071705BF900F0A7FC04F0C5FD01F059F903B06E
S315080071805DF804EB05F01ABC008000500040005A78
S3150800719000A0005030B5194D95B00DAC0FCD0FC4F9
S315080071A095E80700292384E807000021144A0DF111
S315080071B02600CDE90223134B0E22CDE904310691B0
S315080071C03EF045FD4FF480210F4B0DAACDE907137C
S315080071D009238DF824300A238DF825300B4B07A98F
S315080071E00A9320230B9301238DF83130084B094865
S315080071F0009302AB04F0A2FC15B030BDCCB604086F
S3150800720000C005500201020224C00550D9540020CE
S31508007210382200208C220020831E012B10B513D89B
S31508007220012924D8124B0422D3F8A03001210220C8
S31508007230C3F3400302F07EF90E4B1B681868B0B121
S31508007240BDE81040436A18478B1E012B0DD801284C
S315080072500DD8BDE81040064B0022D3F8A030012116
S315080072600220C3F3400302F065B90129E4D910BD31
S3150800727000C00350AC10002008B50449044805F0C6
S3150800728065FCBDE80840FFF785BF00BFB0100020C9
S31508007290B0220020014835F09BBF00BF8C22002099
S315080072A0014B1A6A186810478C22002008B517F097
S315080072B035FA0022014B1A7008BD00BFF9540020A8
S315080072C0014834F0E7BE00BFE8B60408014834F0C8
S315080072D00FBF00BF00B704081FB508490346086872
S315080072E0097902AA02908DF80C1000920521002255
S315080072F0012008F0E1F805B05DF804FB18B70408AA
S315080073001FB5084903460868097902AA02908DF84C
S315080073100C10009205214222012008F0CDF805B094
S315080073205DF804FB1EB704081FB50849034608683C
S31508007330097902AA02908DF80C10009205214022C4
S31508007340012008F0B9F805B05DF804FB18B7040881
S315080073501FB5064A0346039203AA00920122082192
S31508007360104608F0A9F805B05DF804FB01012121D3
S315080073701FB5064A0346039203AA00920821002273
S31508007380012008F099F805B05DF804FB01022121F7
S315080073901FB5094903460888897803AAADF80C0081
S315080073A08DF80E10009206214222012008F084F87A
S315080073B005B05DF804FB00BF24B704081FB503AA8F
S315080073C0009205220749034608888978ADF80C001B
S315080073D08DF80E100120114608F06EF805B05DF81C
S315080073E004FB00BF28B704081FB508490346086808
S315080073F0097902AA02908DF80C100092082102223F
S31508007400012008F059F805B05DF804FB2CB704080C
S315080074101FB5094903460888897803AAADF80C0000
S315080074208DF80E10009208210622012008F044F873
S3150800743005B05DF804FB00BF32B704080A460149E7
S3150800744034F0BABA23CC04080A46014934F0B4BA6F
S3150800745018CC04080A46014934F0AEBA13CC04081D
S315080074600A46014934F0A8BA0ECC04080A4601496E
S3150800747034F0A2BA09CC04080A46014934F09CBA89
S31508007480FCCB04080A46014934F096BAEDCB040849
S315080074900A46014934F090BAE8CB04080A4601497D
S315080074A034F08ABADFCB04080A46014934F084BAB4
S315080074B0D6CB04080A46014934F07EBACDCB040877
S315080074C00A46014934F078BAC6CB04080A46014987
S315080074D034F072BABBCB04080A46014934F06CBAD8
S315080074E0B0CB04080A46014934F066BAA5CB0408AD
S315080074F00A46014934F060BA9CCB04080A46014999
S3150800750034F05ABA91CB04080A46014934F054BA01
S315080075108ECB04080A46014934F04EBA8BCB0408D0
S315080075200A46014934F048BA88CB04080A46014994
S3150800753034F042BA85CB04080A46014934F03CBA0D
S3150800754082CB04080A46014934F036BA7DCB0408D2
S315080075500A46014934F030BA78CB04080A4601498C
S3150800756034F02ABA6FCB04080A46014934F024BA23
S3150800757064CB04080A46014934F01EBA5FCB0408F6
S315080075800A46014934F018BA5ACB04080A46014992
S3150800759034F012BA55CB04080A46014934F00CBA3D
S315080075A050CB04080A46014934F006BA45CB04080C
S315080075B00A46014934F000BA3ACB04080A4601499A
S315080075C034F0FAB933CB04080A46014934F0F4B961
S315080075D030CB04080A46014934F0EEB92DCB04082D
S315080075E00A46014934F0E8B922CB04080A4601499B
S315080075F034F0E2B91DCB04080A46014934F0DCB977
S3150800760014CB04080A46014934F0D6B90BCB040852
S315080076100A46014934F0D0B906CB04080A4601499E
S3150800762034F0CAB9FBCA04080348044A0449121AC2
S31508007630921034F095BC00BF7C8405087C8405084C
S31508007640B05F002008B500F02FF8FFF7EDFF124BEA
S3150800765012498B4212D30020114B12498B4218D380
S31508007660FFF784FA186850F82240586840F8224014
S31508007670013298688242F5D30C33EAE70022F8E72C
S315080076801C6844F8220001325C68A242F8D3083329
S31508007690E4E70022F8E700BFCC7C0508D87C05089B
S315080076A0D87C0508D87C05084FF480414FF0FF3098
S315080076B0114B124A10B59A60D3F8882042F470022A
S315080076C0C3F888200E4A91660E4901F500521066E5
S315080076D00D4850660220C3F8D000BFF34F8FBFF3A2
S315080076E06F8F01244FF440330848C0F88041D360B7
S315080076F004600B6110BD00BF00ED00E000600008EB
S315080077000090005000800044F7FF370000E100E0D9
S31508007710014B1868704700BFD8100020084B1B6F34
S3150800772003F00703022B04D0032B05D0012B05D049
S31508007730FEE7044B18687047034BFBE7034870479E
S3150800774000800050D8100020E0100020002D3101E4
S3150800775008B5FFF7E3FF054B1B6FC3F3033301338C
S31508007760B0FBF3F0024B186008BD00BF0080005064
S31508007770D41000200048704700B4C404014B1868B0
S31508007780704700BFE0100020054B1860054B1B6FC3
S3150800779003F00703032B01D1FFF7DABF704700BFD9
S315080077A0E01000200080005000487047002D31018D
S315080077B04FF0B4439868C0F304400C280AD8DFE8B1
S315080077C000F00B0909090909072119091B1D1F00E2
S315080077D00F487047002070479B6803F04073B3F169
S315080077E0807F11D0B3F1007F10D00A4A002B08BF62
S315080077F01046704708487047084870470848704759
S31508007800084870470848704708487047084870474E
S31508007810405DC60000093D00C0EA210180BA8C011E
S315080078200048E801005A62020024F40080841E0021
S3150800783040420F00014B1868704700BFDC1000205B
S31508007840BFF34F8F0549064BCA6802F4E06213433B
S31508007850CB60BFF34F8F00BFFDE700BF00ED00E030
S315080078600400FA054FF000639B6A03F17842B2F50B
S31508007870C04F03D21968064A914203D00023037009
S3150800788083607047012202709A689B694260F7E735
S3150800789007B0CD5E73B54F4B04461A781AB102226B
S315080078A01A7002B070BDCDE900220028F9D0012671
S315080078B01E7034F0C7FC484D484B186019F06CFE32
S315080078C02B785BB900F0B4FD40B945480823454A12
S315080078D04549006816F054F900B92E70434B5A6EA4
S315080078E062619B6E424AA3614FF480439366414BA3
S315080078F05968E16140499960196E2160596E616065
S31508007900D3F87011A160196CE160596C21613B498B
S31508007910086C1864496C5964012151661B6E9C04F5
S3150800792041D5374AD368D807FCD4364B1A68531C56
S315080079303ED04FF480139340334A13664FF40073D6
S315080079400426314C2666236634F039FB01300DD007
S3150800795034F035FB40F20113984207D04FF4005338
S3150800796023664FF480432366C4F870610823264CC7
S31508007970684623664FF4805323664FF000632366F8
S315080079804FF4002301A9636634F0FDFA009B2366D1
S31508007990019B63662B78002B83D0124B1A682266EC
S315080079A05B6863667DE7194AD368D907FCD4BCE7E8
S315080079B0174B1B78002BC1D14FF400720C4B5A663B
S315080079C003F5A6235B68002BB8D14FF480120E4B43
S315080079D01A66B3E7FB540020FC540020D822002086
S315080079E008110020DC2200200071080000800050E9
S315080079F0009000500080004455CEAC0000C00054F2
S31508007A0000000440E41000200090004400000450E8
S31508007A10FA54002070B5224D04462E78012E02D065
S31508007A2001232B7070BD0028FCD034F0C8FA013051
S31508007A300BD034F0C4FA40F20113984205D0194B22
S31508007A40194A5E66D368DE07FCD42268174B1A66A5
S31508007A5062685A66A268C3F87021E2681A642269E5
S31508007A605A64E269D00744BF00229A60104B1A682C
S31508007A70013207D10F4A127822B90F494968C90756
S31508007A8048BF1A6062690D4B5A66A2699A6619F070
S31508007A908BFD0B4B186834F0DBFB0023C1E700BFF6
S31508007AA0FB54002000900040000004400080004481
S31508007AB0E4100020FA54002000C005500080005051
S31508007AC0D822002070B54FF00064A36A03F178420B
S31508007AD0B2F5C04F24D21A68134B9A4220D1134EDE
S31508007AE0337813F0FD0F02D00024204670BD1048ED
S31508007AF0FFF7D0FE01254FF480330E4A0E49C2F82F
S31508007B008051CB6015600D4A1361A36ADB699847FB
S31508007B1004460748FFF77EFF002CE6D13570E3E7F9
S31508007B204FF48174E1E700BF07B0CD5EFA54002038
S31508007B30B822002000E100E000A0004400900044C4
S31508007B4013B5204B1B7803B9FEE700231E4CCDE97D
S31508007B5000336A4608231D49206816F011F8F0B963
S31508007B601B4AD2F84031D2F840211F2B4FF00103AF
S31508007B7010D9203A9340019A1A43019208236A467B
S31508007B801249206815F0B2FF4FF00053114A1A60E7
S31508007B90FFF756FE9340009A1A430092EEE70E4B03
S31508007BA09842F1D10A4AD2F84031D2F840211F2B27
S31508007BB04FF0010385BF203A93409340019398BF45
S31508007BC00093DBE7FB540020081100200071080031
S31508007BD0008000440B020FF00BE000F070B5D0B146
S31508007BE0C9B10E4E431E013913F8014F2046325DC6
S31508007BF002F00302012A11F8012F08BF04F1200040
S31508007C00B55C05F00305012D08BF2032801A01D1A5
S31508007C10002CE9D170BD0120FCE700BFC17B050837
S31508007C2010B40A6808461378022B10D014213023A2
S31508007C30147913FB041307495B585179CB40DB438E
S31508007C4003F0010313705DF8044BFFF785B95DF87F
S31508007C50044B704730C00350F7B504680121054648
S31508007C603A2000F0ABFE002301226179207901F069
S31508007C7061FC14223023217913FB01231D4A9958EC
S31508007C806379D940C943A37901F00101022B217018
S31508007C9017D100F011FB184A2B466179207900F0BC
S31508007CA035FBFF28024660790ED12A46124900F0B4
S31508007CB069FB0123024661792079CDE9003301F099
S31508007CC0DFFB002003B0F0BD01262779002301461B
S31508007CD00096384601F08EFC2A460749607900F07E
S31508007CE051FB0023617902462079009301963346B9
S31508007CF0E5E700BF30C00350217C0008026813780E
S31508007D00022B24D014213023107913FB00131049B9
S31508007D105B585179CB40917903F00103012912D1BF
S31508007D20508843EA40034FF6E07063F03F039BB286
S31508007D30834202D11170538070474FF6DF718B4230
S31508007D40F9D10021F6E711B983F0010313707047E2
S31508007D5030C0035010B5012243780178847830206A
S31508007D609A40054B00FB01331CB903F501531A6011
S31508007D7010BD03F58253FAE700C0035010B501227F
S31508007D8043780178847830209A40054B00FB01330C
S31508007D901CB903F582531A6010BD03F50153FAE7BF
S31508007DA000C003500122437801789A403023594392
S31508007DB0014B5A50704700BF40F003501021302342
S31508007DC00246007813FB001305495B585178CB40EF
S31508007DD003F0010093780BB980F00100704700BFEB
S31508007DE030C003502DE9F04F9A46564B85B01B78A4
S31508007DF006460F461546DDF83C909DF844B0DDF87A
S31508007E005080002B00F09780072A00F296800E9B80
S31508007E10002B00F09280B9F1000F00F08E80129BC3
S31508007E20B3F5006F00F38980012803D1109B002B5E
S31508007E3000F08380444B03EB05131B7B002B7ED09D
S31508007E40424C1022002168463DF001FF04EB451420
S31508007E501022A7BB394620463DF0F9FE43F210032F
S31508007E606380BBF1000F03D1E37843F00303E370AB
S31508007E70364A0E9B02EB451CCCE90193129B69011D
S31508007E80581E9DF84C30C0F30A0003F003039B0606
S31508007E9043EA001E53582E48012E00EA03004EEA14
S31508007EA00003CDF800A0535017D0B8F1000F2ED11B
S31508007EB09CF8023068F304138CF8023027E000219E
S31508007EC020463DF0C4FE4FF444736380BBF1000FB7
S31508007ED0CED1E37843F03003C9E713230CF1100E33
S31508007EE0CCF80C309CE80F008EE80F006FF0030109
S31508007EF0DCF81C20109B61F39F02012FCCF81C2094
S31508007F00CCF8143003D1CCF81890CCF804300027FC
S31508007F100D4A290102EB051342F80180159A2846F5
S31508007F205A60694622469F605E7301F0DFFB384659
S31508007F3005B0BDE8F08F0748FAE70748F8E70748AD
S31508007F40F6E700BFFD540020E4230020E4220020C9
S31508007F500F80FFF3028000F0018000F0078000F038
S31508007F6038B5124B05461B78DBB1E0B134F06AF937
S31508007F700F4A00231146147B54B92B6001251A01B8
S31508007F8001EB03131D738C5034F062F9204638BD9B
S31508007F900133082B02F11002EDD134F059F90548E6
S31508007FA0F5E70548F3E70548F1E700BFFD5400206B
S31508007FB0E4230020048000F0028000F0018000F035
S31508007FC038B534F03FF9002305460B4A147B6CB9E3
S31508007FD00133082B02F11002F8D101F029FB074BF7
S31508007FE028461C7034F034F9204603E0284634F05D
S31508007FF02FF9034838BD00BFE4230020FD540020B4
S31508008000058000F00D4B10B51B78044693B1072880
S3150800801012D834F017F90A4B03EB04131A7B2AB16A
S3150800802000241C7334F014F9204610BD34F010F9FE
S315080080300448FAE70448F8E70448F6E7FD54002040
S31508008040E4230020068000F0028000F0018000F0A2
S31508008050154B13B51868002301908DF8043034F0D9
S31508008060F1F8124B1C7824B134F0F2F8104802B03B
S3150800807010BD01221A7034F0EBF80E4B01A81C73E0
S315080080801C7783F82C4083F83C4083F84C4083F8EF
S315080080905C4083F86C4083F87C4008238DF80730F1
S315080080A001F0F2FA2046E2E77CCC0408FD540020F1
S315080080B0038000F0E42300200A4A08B512785AB172
S315080080C007280BD8084A02EB00131B7B43B1002193
S315080080D001F0CCFA002008BD0448FCE70448FAE79A
S315080080E00448F8E7FD540020E4230020028000F04D
S315080080F0018000F0078000F00A4A08B512785AB1E4
S3150800810007280BD8084A02EB00131B7B43B1012151
S3150800811001F0ACFA002008BD0448FCE70448FAE779
S315080081200448F8E7FD540020E4230020028000F00C
S31508008130018000F0078000F00A4A08B5127852B1AB
S3150800814007280AD8084A02EB00131B7B3BB101F04B
S3150800815017FB002008BD0548FCE70548FAE705486F
S31508008160F8E700BFFD540020E4230020028000F059
S31508008170018000F0078000F00D4B1B7893B10728AB
S3150800818012D889B10B4B03EB00131B7B73B10A4B57
S315080081901A6D01238340134214BF012300230020D4
S315080081A00B70704705487047054870470548704783
S315080081B0FD540020E423002000000450028000F053
S315080081C0018000F0078000F00B4A10B512780C46C3
S315080081D062B107280CD859B1084A02EB00131B7B79
S315080081E043B101F0DFFA2070002010BD0448FCE717
S315080081F00448FAE70448F8E7FD540020E423002081
S31508008200028000F0018000F0078000F0184B2DE98D
S31508008210F0411F6D5B6D1F4000D5FEE70126002566
S31508008220144CDFF85880374218D02368C8F85060D5
S31508008230A3B1A168284601316268A1609847637BAB
S31508008240012B0BD150B90C4B03EB45131A7B60F38A
S3150800825041021A731A7F60F341021A770135082D15
S315080082604FEA460604F11004DDD1BDE8F08100BFEF
S3150800827000000450E4230020E422002000200450DB
S3150800828070B5044601250B4E04B970BD94FAA4F0E6
S31508008290B0FA80F005FA00F306EB001224EA0304AC
S315080082A05368002BF0D0117B11B191689847EBE722
S315080082B09847E9E76424002008B5192000F02CFF48
S315080082C028B14FF00072074BC3F880211A601A20B4
S315080082D000F022FF28B14FF08062024BC3F88021DC
S315080082E01A6008BD00E100E038B505460C4633F0D3
S315080082F0A9FF0022044B03EB05135C601A73BDE863
S31508008300384033F0A5BF00BF64240020F8B5044602
S315080083100D4617461E4633F095FF1CB9052D1AD093
S31508008320FF2421E0012C05D1012D21D0032DF7D101
S31508008330042410E0022C07D1052D1BD0072D1BD0D5
S31508008340002DEDD1062406E0032CE9D1022D15D027
S31508008350052DE5D10A240A4904F1100301EB03119E
S315080083600123C1E901760B7333F072FF2046F8BD8D
S315080083700324F0E70724EEE70824ECE70924EAE7F4
S3150800838064240020F8B505460E46174633F05AFF12
S31508008390134B2C46D3F8242405F0FC0122FA05F3E6
S315080083A0DB0712D500230133DBB2042B04D1FF24EB
S315080083B033F04EFF2046F8BDEC1804F003040C44D5
S315080083C022FA04FC1CF0010FEDD1FF2CF0D001229B
S315080083D0044B03EB0413C3E901671A73E8E700BF0C
S315080083E000C0035064240020074BD3F82404D3F8B4
S315080083F0202403F50053104000F0553020F050209B
S31508008400C3F82004FFF73CBF00C00350074BD3F85E
S315080084102404D3F8202403F50053104000F0AA30B2
S3150800842020F0A020C3F82004FFF72ABF00C003509D
S31508008430024B1968024B186815F07EBAE81000203E
S315080084400811002070B59400224605460E463DF0F8
S3150800845057FC431C0AD058B92246314628463DF0F7
S31508008460CCFB0028034808BF002070BD0248FCE783
S315080084700248FAE710E000F021E000F024E000F0FE
S3150800848010B504463DF038FC431C10D088B901F0FD
S3150800849003FA234620F003002044984201D1002025
S315080084A010BD53F8042B0132F7D00348F8E7034808
S315080084B0F6E70348F4E700BF0EE000F021E000F01D
S315080084C024E000F008B533F0B2FE014B186008BD91
S315080084D0542D0020014B186833F0ADBE542D0020F2
S315080084E0044BD3F88420D206FBD4D3F88400C0F317
S315080084F0811070470040005038B5104B0546D3F838
S3150800850080300C4603F00303022B0BD0032B0DD04F
S31508008510012B0FD1FFF702F90E2305B1286004B12C
S31508008520236038BDFFF744F90723F6E7FFF7F0F8AD
S315080085300623F2E700231846EFE700BF0080005045
S3150800854038B5184B0546D3F820010C4600F007004D
S31508008550062823D8DFE800F0040A0E16121A1E00B1
S31508008560012305B1286004B1236038BDFFF7D0F8B0
S315080085700523F6E7FFF702F90323F2E7FFF718F9F1
S315080085800723EEE7FFF710F90223EAE7FFF7C0F83B
S315080085900623E6E7FFF7F2F80423E2E70023184686
S315080085A0DFE700BF0080005038B5174B0546D3F803
S315080085B028310C4603F00703013B052B20D8DFE8DA
S315080085C003F003131B0F0B17FFF7A2F8052305B1DA
S315080085D0286004B1236038BDFFF79AF80623F6E74A
S315080085E0FFF7E6F80723F2E7FFF7C8F80323EEE7F5
S315080085F0FFF7C4F80423EAE7FFF7D6F80223E6E70D
S3150800860000231846E3E700BF0080005073B50D4607
S315080086100021114B0191D3F88041064604F003046A
S31508008620022C13D0032C0CD0012C13D101A8FFF770
S3150800863087FF10240EB1019B336005B12C6002B090
S3150800864070BDFFF7B5F807240190F3E7FFF7ACF81C
S315080086500190EFE70C46EDE700800050002337B5A0
S315080086600193164B0546D3F820320C4603F0070350
S31508008670042B21D8DFE803F0030B11161B00012396
S315080086800DB1019A2A6004B1236003B030BD002100
S3150800869001A8FFF789FF1223F2E7FFF789F80723F6
S315080086A00190EDE733F069FC0A230190E8E7FFF74C
S315080086B0C1F809230190E3E70023E1E700800050B1
S315080086C038B5104B0546D3F840310C4603F0030382
S315080086D0022B0BD0032B0DD0012B0FD133F04DFC01
S315080086E00A2305B1286004B1236038BDFFF7A2F854
S315080086F00923F6E733F044FC0C23F2E701230020B4
S31508008700EFE700BF00800050002337B50193164BF2
S315080087100546D3F860320C4603F00703013B032BEA
S315080087201FD8DFE803F0020E1914002101A8FFF78D
S3150800873007FF10230DB1019A2A6004B1236003B024
S3150800874030BD002101A8FFF7BBFF1123F2E7FFF7B1
S315080087502FF807230190EDE7FFF726F8022301908B
S31508008760E8E70023E6E700BF00800050002337B59E
S315080087700193164B0546D3F894320C4603F00703CB
S31508008780013B032B1FD8DFE803F0020E1914002162
S3150800879001A8FFF7D5FE10230DB1019A2A6004B18E
S315080087A0236003B030BD002101A8FFF789FF11231C
S315080087B0F2E7FEF7FDFF07230190EDE7FEF7F4FF6A
S315080087C002230190E8E70023E6E700BF0080005097
S315080087D038B5144B0546D3F800020C4600F00700DE
S315080087E004281BD8DFE800F003090D111500012342
S315080087F005B1286004B1236038BD33F0BEFB0A23F7
S31508008800F6E7FFF717F80923F2E733F0B9FB0C236D
S31508008810EEE7FEF79DFF0F23800AE9E700231846D7
S31508008820E6E700BF0080005038B5144B0546D3F87C
S3150800883008020C4600F0070004281BD8DFE800F001
S3150800884003090D111500012305B1286004B1236041
S3150800885038BD33F092FB0A23F6E7FEF7EBFF092350
S31508008860F2E733F08DFB0C23EEE7FEF771FF0F23DB
S31508008870800AE9E700231846E6E700BF00800050B3
S3150800888038B5104B0546D3F840320C4603F00303BF
S31508008890022B0BD0032B0DD0012B0FD133F06DFB20
S315080088A00A2305B1286004B1236038BDFEF7C2FF6C
S315080088B00923F6E733F064FB0C23F2E701230020D3
S315080088C0EFE700BF0080005038B5104B0546D3F8D7
S315080088D060310C4603F00303022B0BD0032B0DD09B
S315080088E0012B0FD133F049FB0A2305B1286004B1E7
S315080088F0236038BDFEF79EFF0923F6E733F040FBF9
S315080089000C23F2E701230020EFE700BF00800050A8
S31508008910B0F5207F1FD009D8B0F5007F15D003D851
S3150800892068B1B0F5C07F0AD000200CE0B0F5607FD2
S31508008930FAD10B4BD3F88000C0F3011003E0084BC3
S31508008940186FC0F3033001307047054BD3F8900019
S31508008950C0F30460F7E7024B186FC0F38020F2E714
S315080089600080005002464FF48030104B10B59866D0
S315080089700020FFF7CDFF504341F671320C4BDC69FE
S31508008980DA635A6804F4803422F4401259B9094962
S31508008990884294BF00200120000502435A600CB1AA
S315080089A00022DA6310BD0449F2E700BF00900050C8
S315080089B000000350005A6202002D3101430905D018
S315080089C0012B0CD0022B084B18BF002300F01F0008
S315080089D039B103F58053012282401A607047034B70
S315080089E0F4E703F50053F6E768800050648000500A
S315080089F01FB5002180280446CDE9001100F09980B2
S31508008A0029D8002800F09980A0F120043D2C35D8FB
S31508008A103D2C33D8DFE804F091999199A9A9A9A921
S31508008A20A999B33CC9603C999999323232323232AB
S31508008A30323299999968D399323232323232323295
S31508008A403232323232A9919191CE3C3CD8774DAE32
S31508008A50323232323288B0F5B06F00F090802DD8BD
S31508008A60B0F5207F71D00CD8B0F5C07F65D0B0F5D1
S31508008A70007F65D0B0F5807F00F08680009804B04E
S31508008A8010BDB0F5607F6BD00DD8B0F5407FF5D13D
S31508008A90FEF75EFE02464FF42070FFF739FFB2FB81
S31508008AA0F0F252085AE0B0F5806F5ED0B0F5A06FCC
S31508008AB0E4D100216846FFF7D1FDDFE7B0F5106F76
S31508008AC078D016D8B0F5E06F79D00AD8B0F5C06F6F
S31508008AD06BD0B0F5D06FD1D100216846FFF778FE8C
S31508008AE0CCE7B0F5F06FC9D100216846FFF7ECFE78
S31508008AF0C4E7B0F5406F3DD013D8B0F5206F63D00A
S31508008B00B0F5286FBAD10021324B0391D3F87032F1
S31508008B1003F00303012B02D103A8FFF7D1FD039B42
S31508008B203CE0B0F5486FA9D100216846FFF71EFE64
S31508008B30A4E7FEF7F3FD0090A0E7FEF709FEFAE7C3
S31508008B40FEF7ECFD0246204604E0FEF701FE02466B
S31508008B504FF42070FFF7DCFEB2FBF0F200928DE7CF
S31508008B6001A8FFF7C9FC019AEDE700216846FFF75F
S31508008B70E7FC83E700216846FFF716FD7EE700213C
S31508008B806846FFF743FD79E74FF0E02302911B693A
S31508008B905B0705D5FEF7DCFD0290029B00936DE7A7
S31508008BA003A902A8FFF78CFDF7E700216846FFF73F
S31508008BB087FD63E700216846FFF736FE5EE700217A
S31508008BC06846FFF75DFE59E700216846FFF79CFDFA
S31508008BD054E700BF0080005008B58020FFF708FF63
S31508008BE0034B98429EBF4FF48032024B1A6708BD6A
S31508008BF0005A620200A000501FB503460020B3F5D4
S31508008C00807F019000F0C18064D85D2B55D84C2B2D
S31508008C1007D82D2B48D8232B2CD8019805B05DF8FA
S31508008C2004FB4D3B102BF8D801A252F823F000BFE5
S31508008C30818D00081B8C00081B8C00081B8C000803
S31508008C40378D00081B8C00081B8C0008058E000851
S31508008C50558D0008FB8C0008FB8D00081B8C00084E
S31508008C601B8C00081B8C00081B8C00081B8C00083A
S31508008C700F8E0008243B092BCFD801A252F823F007
S31508008C80818D0008818D0008818D0008818D00087E
S31508008C90818D00081B8C0008778D00081B8C000846
S31508008CA0178D0008B78D00083D2B7FD03E2BB4D119
S31508008CB0002001A9FFF7E4FDAFE7802BADD1594BA2
S31508008CC01B6F03F00703013B032BA6D8DFE803F06D
S31508008CD0514E858DB3F5F06F68D021D8B3F5B06FD6
S31508008CE049D00FD8B3F5607F00F0838095D3B3F5EC
S31508008CF0806F45D0B3F5A06F8FD1002001A9FFF78B
S31508008D00ADFC8AE7B3F5D06F55D0B3F5E06FCFD099
S31508008D10B3F5C06F81D1002001A9FFF7D1FC7CE72C
S31508008D20B3F5206F6ED00BD8B3F5086F48D0B3F5FE
S31508008D30106F7FF472AF002001A9FFF775FD6CE78D
S31508008D40B3F5406F59D0B3F5486F60D0B3F5286FC7
S31508008D507FF463AF334BD3F8703203F00303012B70
S31508008D605AD0022B0CBF1523002300E005230193DC
S31508008D7053E70223FBE7002001A9FFF747FC4CE76E
S31508008D80002001A9FFF7DCFB47E74FF0E02302903C
S31508008D901B695B0705D5FEF7DBFC0D230393039BD5
S31508008DA0E5E703A902A8FFF78BFCF8E7002001A96D
S31508008DB0FFF78AFD31E7002001A9FFF709FD2CE737
S31508008DC0184BD3F8003103F00303022B07D0032B0B
S31508008DD009D0012B0BD1FEF7D1FC0323C7E7FEF719
S31508008DE029FD0923C3E733F0C6F80823BFE70123A3
S31508008DF0BDE701A9FFF780FB0FE7002001A9FFF7F0
S31508008E00D3FB0AE7002001A9FFF77EFC05E700204F
S31508008E1001A9FFF7ABFC00E7002103A8FFF750FC08
S31508008E201123A4E7008000504FF48012034B5A66C2
S31508008E304FF48032024B9A62704700BF0090005090
S31508008E400050005A38B504468020FFF7D5FE03289F
S31508008E5000F083804FF48012524B4FF0A0615A669F
S31508008E6045F60E02504BC3F88020504A91624FF4E3
S31508008E70803102F5805291629A6DD203FCD4996DC5
S31508008E8011F08041FBD1D4E90002120542EA0062E2
S31508008E90E07B0243207B42EA0042607B42EA0032E2
S31508008EA0A07B42EA80121A619869D4E90452120634
S31508008EB042EA856200F000400243A07EE57E024356
S31508008EC0207E42EA0042607E42EA00229A611A6ADD
S31508008ED0E06922F00F0242EA8502354D00283DD1AD
S31508008EE01A6294F82420996A94F82000D20029403E
S31508008EF042EA40120A4394F8211042EA011242F467
S31508008F0080329A622B49284A936D31EA0303FBD1D2
S31508008F104FF08071254881621369A56823F47003B0
S31508008F2043EA055313614FF00043836194F82230F6
S31508008F300BB9214B996294F823303BB94FF4803230
S31508008F401D4B9A62184A936D5B00FCD494F8253041
S31508008F501BB1154B194AC3F8802038BD024342F0AD
S31508008F60080202281A6208D119614FF40852996159
S31508008F7013484FF47F4133F023F90B4994F8223014
S31508008F808A6A94F820001B062A4043EA40131343D2
S31508008F9094F8242043EAC20394F8232043EA0243C0
S31508008FA08B62D3E7009000500040005A0050005AE8
S31508008FB0C7FFFEFE030001000060005AF1A7FFFF8D
S31508008FC03440005A014B93F90000704709160020F7
S31508008FD0014B1880704700BFC4150020B0F5207FEC
S31508008FE010B50C465DD008D8B0F5007F4ED003D832
S31508008FF0C0B1B0F5C07F15D010BDB0F5607FFBD10C
S315080090002C4B4C1ED3F8FC202B4912F0807F4FEADC
S31508009010041427D1D1F8803023F030032343C1F854
S315080090208030E9E733F0DBF833F0E7F84FF48031C6
S31508009030224B214A1967136F013C23F4704343EA14
S3150800904004331367FEF784FB0446FFF749FAC0F1B9
S315080090500201204633F0CBF800F042F8BDE8104094
S31508009060FFF7BABDD3F8FC2022F08072C3F8FC20C3
S31508009070D1F8802022F030022243C1F88020D3F8AC
S31508009080FC2042F08072C3F8FC20B5E70A4A4C1E61
S31508009090D2F8903023F0F85343EA0463C2F89030CC
S315080090A0AAE7054A4C1E136F23F4806343EA842318
S315080090B01367A1E700ED00E0008000500090005023
S315080090C008B50121022000F08FF833F088F833F054
S315080090D094F84FF48032014B1A6708BD009000508F
S315080090E008B54FF4C070FFF783FCBDE80840044993
S315080090F0884294BF012102214FF42070FFF76EBF0A
S3150800910080F0FA02034B5868C0F30800003818BF0D
S315080091100120704700ED00E0054B420953F8223064
S3150800912000F01F0023FA00F0C04300F0010070476A
S3150800913000E100E0024A536B0342FCD1704700BFCE
S3150800914000400950044A4178536F23F4407343EAB8
S3150800915001235367704700BF004000500C4A10B502
S315080091601369044643F00403136103F03BFF33F02D
S3150800917072F8084B084AC3F8202430BF33F06CF85D
S3150800918003F06AFF1CB9BDE81040FEF7E1BA10BD4E
S3150800919000ED00E000E003500000FF0F0A4A10B59A
S315080091A01369044643F004031361084B084AC3F8DD
S315080091B0202403F017FF30BF03F04EFF1CB9BDE8AB
S315080091C01040FEF7C5BA10BD00ED00E000E0035000
S315080091D00000FF0F034A0179D36E23F030030B43D7
S315080091E0D366704700400050F8B504461C4BD3F8C8
S315080091F08420D106FBD4D3F88430C3F381139C4270
S315080092002CD0FEF78BFA012C064602D1214632F005
S31508009210EEFF33F00CF84FF00072124B07465A6611
S31508009220204633F01CF84FF480630D4D621E9340C0
S315080092302B676B6E9A0103D4D5F884309B060AD542
S31508009240384632F0F8FF022C08D13046BDE8F8401F
S31508009250002132F0CCBFD5F88430EAE7F8BD00BF6C
S31508009260004000500060005010B50C4608B9FEF7E3
S3150800927055FA074B21461B783BB1064B984204D852
S315080092800120BDE81040FFF7AFBF0220F9E700BF95
S31508009290FE540020005A62020278034B0121002086
S315080092A01A70FFF7E1BF00BFFE5400204FF00042DE
S315080092B038B5244B244C5A664AF6CD33656C0146BC
S315080092C005F00105236428BB0120FFF733FF636817
S315080092D0DB0715D51D4B586008461D4B226BD20778
S315080092E00CD4984208D1072415B1174B194A1A64A9
S315080092F038F067FD204638BD0130EFE79842F2D0D6
S315080093000024F1E70132236B13F0080305D08A42E3
S31508009310F8D1E8E700220E49F5E78A42E3D0202192
S315080093200A4A91620121A2F5805251600649084A0B
S31508009330886A800603D49342D5D00133F8E793426E
S31508009340DDE700BF0090005000400950006009505A
S3150800935040420F003254FFFF4FF0004238B5164B1B
S3150800936001465A664AF6CD33144C154A656C236491
S3150800937043780B205B0043F00103D363FFF7DAFE63
S3150800938063688A7823F4F87343EA02136360CA7839
S315080093904B7943EA0223A3600A798B7943EA0223CD
S315080093A023610878FFF782FFEB0744BF054B236468
S315080093B038F007FD012038BD0090005000400950E4
S315080093C0004000503254FFFF4FF00042124B70B578
S315080093D05D6E03F580535A664AF6CD3304460F4947
S315080093E080204E6C0B64FFF7A5FE0B6A23F00F0373
S315080093F00F2C94BF234343F00F030B62F30744BFBC
S31508009400074B0B64002DA2BF4FF00042054B5A666E
S3150800941038F0D7FC70BD00BF0080005000400950EE
S315080094203254FFFF00A000504FF00042104B70B5B9
S315080094305D6E03F580535A664AF6CD3304460D49E8
S3150800944080204E6C0B64FFF775FE0B6A23F4F85305
S3150800945043EA04230B62F30744BF074B0B64002D52
S31508009460A2BF4FF00042054B5A6638F0AAFC70BD01
S3150800947000800050004009503254FFFF00A0005001
S31508009480072A2DE9F041154698464FF0030401F0E6
S3150800949003072DD89600B44000FA06F221461C4868
S315080094A032F0DEFE21461B4807FA06F232F0D8FEF5
S315080094B0194B1A499DF81800B8F1000F18BF19463C
S315080094C0012303FA05F50D60154B1649002818BF48
S315080094D00B461D60144B9DF81C00C3F82054103130
S315080094E003F22443002818BF0B461D60BDE8F0812F
S315080094F0A2F10806B600B44000FA06F221460B4867
S3150800950032F0AEFE21460A4807FA06F2CEE700BF59
S3150800951000C4035008C4035010D4035010E4035089
S3150800952014E4035014D4035000E0035004C4035059
S315080095300CC403502DE9F04105460F461E469046D9
S315080095404AB101233022194C8B4002FB004436B342
S3150800955004F5825423600F21072F05EB450388BFC6
S31508009560A7F108044FEA0313114895BFBC00A400ED
S3150800957004330C3308FA04F2A140184432F070FEA2
S31508009580B8F1000F09D101233021084ABB4001FB7D
S3150800959005223EB102F582521360BDE8F08104F55A
S315080095A00154D7E702F50152F6E700BF00C00350A1
S315080095B030C0035010B50C4B0C4C0D4A0140C4F892
S315080095C03004C3F83014C3F82C04D36E03F0300308
S315080095D0202B1FBFD36E23F0300343F01003D3664E
S315080095E0C4F8200410BD00BF00D0035000E00350AB
S315080095F00040005038B514461D46032283F0010387
S31508009600FFF798FF012004F11001884005FA01F1DF
S31508009610FFF7D0FF9DF81010034B044A002918BF26
S315080096201346186038BD00BF24E4035024D4035001
S315080096304FF400120B4B10B5C3F88020BFF34F8FC1
S31508009640BFF36F8F0024FF22074B21465C6520205D
S315080096509A625C60FFF7B2F92146BDE81040212006
S31508009660FFF7ACB900E100E000000450044A054BDE
S31508009670002908BF1346012282401A60704700BFBE
S31508009680401004504020045010B501210446202003
S31508009690FFF794F901212120FFF790F90122114BD8
S315080096A05A60227812069A606178A27842EA0142E4
S315080096B09A61FF229A6200229A631A644FF0004266
S315080096C05A654FF0FF324FF4001103F500531A653F
S315080096D0054AC2F88011E3781B01DBB282F815331C
S315080096E0116010BD0000045000E100E0F8B5012546
S315080096F0C3B2D1F800E091F80AC00F7B0C469D4032
S31508009700CB7A1C491C4E0D65810001F1A04101F57B
S315080097108821C1F804E04FF0300E0EFB00601B05EF
S31508009720617B43EA0C4343EA475322F0030201668E
S31508009730C365026732F086FD736D227A2B43736523
S315080097400E4B02B11D64627A02B19D632279A37938
S3150800975043EA0243074A93616179E37943EA01439D
S3150800976006498B61044B55639D64BDE8F84032F0A9
S315080097706FBD00BF002004500000045000100450C4
S3150800978010B50124C0B2844032F05CFD044B5A6D1A
S3150800979022EA04025A659C62BDE8104032F058BDC0
S315080097A00000045010B50124C0B2844032F04AFDCE
S315080097B0074BDA6A224208D15B6B9C430CBF012433
S315080097C0002432F045FD204610BD0024F9E700BF0D
S315080097D0000004504FF48032054B9A6641F6713208
S315080097E003F51C33DA63012203F50053DA60704788
S315080097F00090005041F671320121064BDA6303F5F9
S315080098000052D1600022DA634FF48032A3F5183390
S315080098109A66704700000350013831289ABF024BF8
S31508009820185C0020704700BFA1CC040838B5C2F305
S315080098300625044602F0070241B942EA052242F427
S3150800984040220634074B43F8242038BD11462846E3
S3150800985032F015FD02462846FFF7DEFF163442EAC7
S315080098600022EFE700800350014BD3F894007047BD
S31508009870004000504FF48032064B5A6603F5E62343
S315080098809B69C3F38512827003F03F021B0B42707B
S3150800989003707047009000500120034B9B680A3301
S315080098A003F01F03984070470080E00F70B5054627
S315080098B016461C4621B94FF42070FFF799F8014661
S315080098C0402C1BD003D8DCB1202C1BD070BD602CDB
S315080098D0FCD1042303FB06F2530803EB4113B3FB45
S315080098E0F2F36021084A203B02EAC30305F5005259
S315080098F0916005F580529460EB61E7E70623E9E796
S315080099001023E7E70823E5E7F8FF7F00012100F5C4
S31508009910805310B5596040F6AA6341F205024361C7
S315080099200023094C8360C365C26000F500520361D9
S31508009930C361C3649464054C8365A04204BF036590
S315080099404365516010BD00BFFFFF010000C0055010
S3150800995070B50C46FFF7DAFF012300F580567360F1
S31508009960A37C05461BB1836843F080438360E37C90
S315080099704BB1234B9D4202BF227DA3F51033C3F89A
S31508009980C8218023F365228A637B28461343E2892C
S315080099901343EB60237BD4E90112FFF787FF637D4E
S315080099A01BB1AB6843F48033AB60A37D1BB1AB68D6
S315080099B043F40043AB60E37D227E1B07120502F4E5
S315080099C0E00203F0E0431343AB65637E9A1E012A67
S315080099D04FF0020209D80B49032BC1F8202709D1F9
S315080099E00423F36523786B6170BD0749012BC1F821
S315080099F02027F4E7042205F50053DA65F2E700BFED
S31508009A0000C0055000D0035000E00350034B5A68CD
S31508009A10D20702D5DA69002AF9D1704700800A50C0
S31508009A20054B9A689107FCD45A689207F9D4DA6903
S31508009A30002AF6D1704700BF00800A5008B5FFF724
S31508009A40E5FF0222014B1A6108BD00BF00800A50DB
S31508009A5008B5FFF7E5FF0122024B03F580514A607E
S31508009A601A6108BD00800A5008B5044B59680129D7
S31508009A7003D1FFF7E3FF024B596008BD00800A5087
S31508009A8000A00A5010B5064CFFF7CAFF6368012B01
S31508009A9003D1FFF7E9FFFFF7C3FF0378E36010BDC3
S31508009AA000800A50B8B94A680B7812B1127843EAAE
S31508009AB0C2034A7843EA42038A6812B1127843EA33
S31508009AC082138A7843EA8203CA6812B1127843EA93
S31508009AD04223014A9364704700800A5008B9014B33
S31508009AE05964704700900A5008B9014B5964704789
S31508009AF000A00A5008B9014B1964704700A00A5023
S31508009B0010B9024B186C70470020704700800A5045
S31508009B1048B911B1012903D07047044BD86C704776
S31508009B20024B186D70470020704700BF00800A502E
S31508009B3040B911B1012903D07047034BDA64704765
S31508009B40014B1A65704700BF00800A5010B9024BD6
S31508009B50586D70470020704700800A5038B5044693
S31508009B60054D38F053F90FCC0FC594E8030085E886
S31508009B700300002038BD00BF582D002047F6FF73AC
S31508009B809A42F0B56FD002296FD8394B5B5C012B2E
S31508009B906BD8384DDF0005EBC30415F83330A178D0
S31508009BA0012B13D10025E078401AA84202D80844B0
S31508009BB0C0B2F0BD431B6668A0EB530336F91360C9
S31508009BC09642D4BF1D4603F1FF30EEE760680028D1
S31508009BD0EFD0B0F90040944204DBB0F90240944259
S31508009BE0B8BF144683883D44FF2B19BFC8224FF0DF
S31508009BF0280CB0F90620B0F908C0A2EB04030CBF84
S31508009C000126002693FBFCF333446E781BB29E4272
S31508009C1001DD002B01DA731E1BB24FF47A7C013387
S31508009C209BB2071D5D1E2DB24FEAC50E00EBC5059A
S31508009C30EA88AD689E4214FB025222EAE27202F1F9
S31508009C405C02B2FBFCF204DD37F83350013395426F
S31508009C50E8D200EB0E039888904228BF1046884247
S31508009C6038BF0846A4E7FF20A3E70020A1E700BF06
S31508009C70D3CC0408582D00200229F0B555D82C4B12
S31508009C80585C012851D82B4C04EBC00114F830005D
S31508009C904B6801280FD1C8788C78904294BFC4EBE2
S31508009CA00001C4EB0201001BCAB28242C8BF0022EF
S31508009CB033F91200F0BD002B37D08878904202D3D2
S31508009CC0B3F90200F6E7CC78B3F900009442F1D96B
S31508009CD04C789988013CA1F1FF06714203F104050D
S31508009CE0E4B2714103F10C07CEB2B44216D805EBC3
S31508009CF0C1014FF47A756A43B1F902404968521AAC
S31508009D0004EBD47102EB610292FBF4F29042D1DBD0
S31508009D10B3F902009042CDDC10B2CBE737F831C078
S31508009D204E1C9445E3D33146DEE70348C2E700BF3D
S31508009D30D3CC0408582D00200080FFFF0148FFF708
S31508009D400DBF00BFD8CC04087FB51422002101A896
S31508009D503BF07DFF044B01A94FF0FF30029338F02A
S31508009D60B4F807B05DF804FB006A180008B5B0B18E
S31508009D704FF480620B4B9A6632F0C1FA4FF0984363
S31508009D805A6CD202FCD54FF48062586D064B10F41B
S31508009D9070209A6604D0BDE8084032F0F5BA212052
S31508009DA008BD00BF0090005000A000502DE9F0410A
S31508009DB08CB08846DDE912761D460446002847D051
S31508009DC0002945D0002F43D0002E41D013F00F03B1
S31508009DD03ED120482049A360002A08BF0146E36116
S31508009DE0C4E90013404609A932F059FB68BB20466E
S31508009DF0099932F07BFA2946204632F077FA694605
S31508009E00404632F0FAFB00BB6946204632F05AFA61
S31508009E10404603A932F0FCFBB8B9204603A932F044
S31508009E2051FA06970127204645F0005506A90797D7
S31508009E30089532F047FA204609A909960A970B951C
S31508009E4032F04AFA2046FFF791FF0CB0BDE8F081E0
S31508009E502120FAE700010004000101042DE9F04F72
S31508009E6097B0894690461F460546DDF880A000282B
S31508009E7000F0BB80002900F0B8803AB1229B002B85
S31508009E8000F0B380239B002B00F0AF80BAF1000FDF
S31508009E9000F0AB80219B002B00F0A78067B13C68DF
S31508009EA00026229B43440293464507D307B13C60EC
S31508009EB0002017B0BDE8F08F3C46F1E75CB1229B65
S31508009EC0219A9B5D125D01345340239A04F00F04D6
S31508009ED093550136E8E7A8EB060BBBF10F0F58D9E7
S31508009EE0434B4846C5E90034AC60EC6113A932F02F
S31508009EF0D6FA0028DDD1284613992BF00F0B32F03D
S31508009F00F5F95946284632F0F1F9484604A932F0DF
S31508009F1074FB0028CDD1284604A932F0D3F9484667
S31508009F2007A932F075FB0028C3D1284607A932F0E5
S31508009F30C9F9012322992F4ACDF828A00B930C9230
S31508009F408A190D9228464BF000520AA90E930392DD
S31508009F500F9232F0B7F928460DA932F0B3F9239BD0
S31508009F60039A99190123109111931292214A2846AE
S31508009F7010A9CDF84CA01493159232F0ADF92846E5
S31508009F8013A932F0A9F92846FFF7F0FE5E44002827
S31508009F908FD1229B03EB060B239B1E44029B5B453A
S31508009FA001D1464680E7ACB9219B2246CDE900A3FC
S31508009FB0494610232846FFF7F9FE00287FF479AFB3
S31508009FC00AF1100212F8013D0133DBB213700BB926
S31508009FD05245F7D1219A1BF8013B125D01345340D3
S31508009FE006F8013B04F00F04D8E7212061E700BF1B
S31508009FF003030004100000202DE9F04F97B08946AE
S3150800A00015469A460446209FDDF88880DDF890B00C
S3150800A010269E002800F09D80002900F09A80002ED8
S3150800A02040F08A80002B00F09480B8F1000F0AD027
S3150800A030219B002B00F08D80002A40F09F80F107BD
S3150800A04000F1878002E0002A40F08580FB1F062B7E
S3150800A0507FD8524B0BEB05029A427AD80023504A16
S3150800A0604846C4E90023A360E36113A932F017FA4E
S3150800A07000285ED12046139932F038F9204646EA80
S3150800A080074132F033F94146204632F02FF9294686
S3150800A090204632F02BF9484601A932F0AEFA0028DC
S3150800A0A047D1204601A932F00DF9484604A932F0F5
S3150800A0B0AFFA00283DD14FF00109204604A932F035
S3150800A0C001F9239B45F000550793219BCDF8209075
S3150800A0D0204609950DA90A9347F0005748F0005302
S3150800A0E0CDF82C900C93CDF834A0CDF838900F9776
S3150800A0F032F0E8F820460AA932F0E4F8204607A923
S3150800A10032F0E0F8259B204610A946F00056CDF817
S3150800A11040B0CDF8449012951393CDF8509015960B
S3150800A12032F0DAF8204613A932F0D6F82046FFF7BF
S3150800A1301DFE17B0BDE8F08F259B53B1BAF1000F8D
S3150800A14007D0B8F1000F01D0219B13B1B5B9022E83
S3150800A15020D12120EDE7239B002BFAD0BBF1000F7D
S3150800A160F7D0C7F10F03DBB2032B3FF668AF012226
S3150800A170DB0002FA03F3AB42EBD9E8E7239B002B9B
S3150800A180E7D0BBF1000FE4D0C7F10F03DBB2032B16
S3150800A190DDD8ECE7102E7FF652AFDAE7FFFF032093
S3150800A1A0000005042DE9F04F99B0884615469B46F0
S3150800A1B00446229FDDF89890289E60B159B1279BE6
S3150800A1C04BB1BBF1000F06D0249B0BB1239B13B1F7
S3150800A1D01DB9022E13D121239AE0259B002BFAD014
S3150800A1E0B9F1000FF7D0C7F10F03DBB2032BF0D894
S3150800A1F00122DB0002FA03F3AB42ECD9E9E7731E4E
S3150800A2000F2BE8D816F0010AE5D1FB1F062BE2D87A
S3150800A210414B09EB05029A42DDD8404B4046C4E95A
S3150800A220003AC4F808A0C4F81CA015A932F037F9FA
S3150800A230034600286CD12046159932F057F8204677
S3150800A24046EA074132F052F82046249932F04EF891
S3150800A2502946204632F04AF8404603A932F0CDF99D
S3150800A2600346002854D1204603A932F02BF840466D
S3150800A27006A932F0CDF90346002849D14FF0010866
S3150800A280204606A932F01EF8259B2046099345F07C
S3150800A2900053CDF8288001930B93239B0FA90C93A9
S3150800A2A0249B47F0005743F00052CDF834800E92B5
S3150800A2B0CDF83CB0CDF84080119732F003F820462F
S3150800A2C00CA931F0FFFF204609A931F0FBFF019BDD
S3150800A2D0204612A9CDF84890CDF84C80149331F059
S3150800A2E0FBFF279B204615A946F000561593CDF887
S3150800A2F05880179631F0E6FF2046FFF737FD0346EC
S3150800A30030B101902A46514648463BF0A0FC019BD5
S3150800A310184619B0BDE8F08FFFFF032000000604B9
S3150800A32030B5048804F4E043B3F5005F2ED1C4F3D6
S3150800A3300223042B2AD181F0AA6383F4807333F4B1
S3150800A3407E132AD081F0AA6383F4007333F47E1354
S3150800A35023D00023144D21F47E11A9421AD1B4F555
S3150800A360105F17D1418821F04000802802D0B1F54E
S3150800A370807F15D1191F0C2912D8DB0710D4073A8C
S3150800A380072A34BF00206FF0860030BD42F204036E
S3150800A3909C42DED16FF08500F7E7C1F30543D9E7A4
S3150800A3A06FF08600F1E700BF000140052DE9F04F88
S3150800A3B09BB08146DDE928761D468B46DDF8A880E8
S3150800A3C0DDF8BCA0099241B138B1249B2BB1269B7C
S3150800A3D00BB9279B0BB91FB94EB16FF086047FE006
S3150800A3E02EB1B8F1000FF8D02B9B002BF5D02C9B83
S3150800A3F0002BF2D0BAF1000FEFD02E9B002BECD039
S3150800A4002D9B002BE9D0B9F8003003F4E042B2F5F1
S3150800A410005F69D1C3F30222042A65D185F0AA63D5
S3150800A42083F4807333F47E1306D085F0AA6383F42D
S3150800A430007333F47E1360D1C5F3054329464846B5
S3150800A440259ACAF80030FFF76BFF0446002847D163
S3150800A450014620220AA83BF0FAFB2022214612A830
S3150800A4603BF0F5FB0AA831F0BDFF002855D1594647
S3150800A4704846099A12AB32F034F9044600282FD11F
S3150800A4802B9B9E424CD8DAF800302E9A934247D836
S3150800A490474508D2BB19984505D239463246404643
S3150800A4A03BF0BBFB4746204B25F47E159D4226D143
S3150800A4B0DAF80030324606932D9B0397CDE90483DC
S3150800A4C0279B12A90293269B0AA80193259B009312
S3150800A4D0249BFFF791FD212819D0D8B92C9B1E6023
S3150800A4E020461BB0BDE8F08F42F20402934204D125
S3150800A4F085F0052383F480139BE700239EE76FF01E
S3150800A500880400232C9A1360CAF80030E8E76FF035
S3150800A5108604F6E76FF09204F3E76FF09204DFE73C
S3150800A5206FF08904DCE700BF000140052DE9F04F14
S3150800A53099B08A46DDE926659346984681462A9F5C
S3150800A54028B96FF08604204619B0BDE8F08F0029B7
S3150800A550F7D0229B002BF4D0249B13B9259B002B04
S3150800A560EFD10EB9002DECD117B92B9B002BE8D1F2
S3150800A5702C9B002BE5D0289B002BE2D04146484671
S3150800A580239AFFF7CDFE04460028DCD12022014697
S3150800A5900DEB02003BF05BFB2022214610A83BF0A6
S3150800A5A056FB08A831F01EFF10B16FF09204CAE7F7
S3150800A5B05A465146484610AB32F093F804460028EE
S3150800A5C0C1D12B9B9D422AD8BE4208D273199F42FD
S3150800A5D005D231462A4638463BF01FFB3E46144B09
S3150800A5E028F47E1898451DD1299B2A460693289B50
S3150800A5F00396CDE90473259B10A90293249B08A80A
S3150800A6000193239B0093229BFFF7CCFD212898D02A
S3150800A6102C280AD00028C8D12C9B1D6093E76FF020
S3150800A620890490E76FF088048DE76FF094048AE751
S3150800A63000014005084B984202D0084B984207D1C2
S3150800A6400B88B3F5105F0CBF00206FF085007047CC
S3150800A6506FF08500704700BF004440040013C00433
S3150800A6602DE9F04F99460023A3B09346DDE92E74F1
S3150800A670DDE93068CDE90633CDE90833CDE90A339B
S3150800A680CDE90C33DDF8C8A00490059129B96FF01F
S3150800A6908605284623B0BDE8F08F002AF7D00FB903
S3150800A6A0002CF4D12C9B13B92D9B002BEFD116B996
S3150800A6B0B8F1000FEBD1BAF1000FE8D0484604997B
S3150800A6C0FFF7B8FF05460028E3D10146202212A865
S3150800A6D03BF0BDFA202229461AA83BF0B8FA12A880
S3150800A6E031F080FE002878D1DDE904015A461AAB1C
S3150800A6F031F0F7FF05460028CBD11A9831F0AEFFA6
S3150800A70005460028C5D114B9CAF80000C1E7B74202
S3150800A7100AD23B199E4207D24445B8D83946224642
S3150800A72030463BF07AFA37464E4B994558D003F5F2
S3150800A7304073994515D04C4B994540F08C8044455B
S3150800A740A5D814F00F02A2D12346CDE900761AA99E
S3150800A75012A8FFF72BFB0746002834D1CAF8004099
S3150800A76097E700234445CDE90E33CDE910338ED85B
S3150800A7702D9B0D2B8BD101238DF838302C9B0DF199
S3150800A780390203F10C0153F8040B8B4242F8040B0F
S3150800A790F9D11B78137001238DF8473014F00F098F
S3150800A7A033D10F2CDAD906AB01930EABCDE902767D
S3150800A7B0009324F00F0200231AA912A8FFF74EFBF4
S3150800A7C00746002843D04246002130463BF03FFA70
S3150800A7D00023012FCAF8003040D06FF0920558E7E1
S3150800A7E044453FF654AF2D9B102B7FF450AF2C9B5E
S3150800A7F00DF1380C03F1100E6246186859680833D3
S3150800A80003C273459446F7D1C8E724F00F033B44C7
S3150800A8100DF1280C03F1100E6246186859680833C2
S3150800A82003C273459446F7D10F2CBCD824F00F0306
S3150800A830334403930AAB029306AB01930EAB009322
S3150800A8404A4600231AA912A8FFF708FB83E7B9F1BD
S3150800A850000F83D0EAE76FF085051AE76FF08B05DE
S3150800A86017E700BF0010C004004440042DE9F04F6C
S3150800A870994600239FB09346DDE92865DDE92A78E5
S3150800A8808A46CDE90633CDE90833CDE90A33CDE961
S3150800A8900C33059029B96FF0860420461FB0BDE831
S3150800A8A0F08F002AF7D00EB9002DF4D117B9B8F1F8
S3150800A8B0000FF0D12C9B002BEDD048460599FFF7E9
S3150800A8C0B9FE04460028E8D1014620220EA83BF02E
S3150800A8D0BEF92022214616A83BF0B9F90EA831F098
S3150800A8E081FD002844D15A465146059816AB31F0E9
S3150800A8F0F8FE04460028D0D1169831F0AFFE04467B
S3150800A9000028CAD115B92C9B1860C6E7BE420AD2E0
S3150800A91073199F4207D24545BDD831462A4638465F
S3150800A9203BF07BF93E46344B994549D003F54073D5
S3150800A930994520D0314B994554D1454555D82B07D3
S3150800A940A9D12B460122CDE9006716A90EA8FFF763
S3150800A9502DFA2C9B06461D6000289ED042460021F3
S3150800A96038463BF074F900232C9A012E13603FD029
S3150800A9706FF0920491E70D3D454536D801238DF8D1
S3150800A980283033460DF1290206F10C0153F8040B61
S3150800A9908B4242F8040BF9D11B780D3613704FF42D
S3150800A9A08073ADF8363006AB01930AAB00932A469E
S3150800A9B00023CDE9026716A90EA8FFF74FFAC8E7E4
S3150800A9C0103D454511D833460DF1280C06F1100EF9
S3150800A9D0624618685968083303C273459446F7D126
S3150800A9E01036E0E76FF0850457E76FF0890454E7FF
S3150800A9F06FF08B0451E700BF0010C0040044400408
S3150800AA0010B54FF42F72002104463BF020F980233D
S3150800AA10C4F88C30054B04F19C00C4F8843001233B
S3150800AA2084F88830BDE8104031F0F9BA28D3040814
S3150800AA3010B5D0F8A0400A4684B932F068F8044642
S3150800AA4010B90024204610BD2D2896BF064B07498D
S3150800AA5053F82010064832F0A0F9F3E7D0F8A4100E
S3150800AA601046A047EDE700BFD4D3040831D3040845
S3150800AA70E3FC0408F8B590F88060044616B1002691
S3150800AA803046F8BD31F076FE0028F8D1012384F867
S3150800AA90803094F8883033B1D4F88410194884F893
S3150800AAA0886032F07AF94FF0FF37D4F8B402421CC6
S3150800AAB01CD0C4F8B47210F0FF0520D0204631F03F
S3150800AAC056FE2946204600F0AFFB0028EDD020466A
S3150800AAD031F05BFE94F888306BB1D4F884100948DD
S3150800AAE032F05BF9002384F8883004E032F03AF952
S3150800AAF0431CE0D10126002384F88030C0E70126F4
S3150800AB00D3E700BF7EF80408F8B50B780446302B67
S3150800AB100D46164604D14B7803F0DF03582B11D0A7
S3150800AB20284F6A1E12F8011F002934D128460A2226
S3150800AB3030F0B8FC202C03460D4631D1B1FA81F02D
S3150800AB4040091AE04A1C1F4912F8013F8BB92846EA
S3150800AB503BF0B0F81C4B02382340032B12D10134CA
S3150800AB60A41084420AD1A87837288CBF0020012077
S3150800AB7003E0CB5C13F04400E6D1F8BDCCBF01205E
S3150800AB800020FAE7002CB8BF0334B0EBA40FD4BFFB
S3150800AB9001200020F1E77B5C13F00400C2D1ECE74A
S3150800ABA026B1084302D0013B61F100050122A2400B
S3150800ABB0013A1A40002D08BF9A420CBF0120002016
S3150800ABC0DBE700BFC17B050803000080F0B503780A
S3150800ABD001467B2B17D10646022400220B4F16F896
S3150800ABE0015F7D2D05D10B5D6BB9D24302F00100E3
S3150800ABF008E07B5D13F0440002D001320134EEE731
S3150800AC00202DFBD0F0BD0020FCE700BFC17B050866
S3150800AC1070B506460D463BF04DF80446304632F010
S3150800AC20BCF8044EAC4200D370BD304632F0B5F8DD
S3150800AC300134F7E7E4EF04082DE9F84F044602214A
S3150800AC406048FFF7E5FF1E212068FFF7E1FF63680C
S3150800AC50586832F0A2F85C4832F09FF867683B7B88
S3150800AC60FD2B12D8D7F808804FF0FF3440463BF04A
S3150800AC7021F80646DFF84C91DFF8A8A1DFF864B1A1
S3150800AC800C3717F8013BFF2B01D1BDE8F88F212BB4
S3150800AC9014D8212B14D8DFE803F0178C8884807C1D
S3150800ACA078741313131313131313706C6864605CAE
S3150800ACB058541313131313131313504CFE2B34D079
S3150800ACC006B10134414D02E006B10134404D02217E
S3150800ACD04846FFF79DFF1E214846FFF799FF504655
S3150800ACE032F05BF8594628463AF0CDFF3949002834
S3150800ACF018BF2946384832F050F83B78202B02D145
S3150800AD002B2032F03EF8354832F047F84EB118F8A5
S3150800AD1004301F2B05D018F804001F2801D0B442B0
S3150800AD204BDB294832F039F8ABE706B101342C4D34
S3150800AD30CDE706B101342B4DC9E7002EA1D0013469
S3150800AD409FE706B10134284DC1E706B10134274D06
S3150800AD50BDE706B10134264DB9E706B10134254DE4
S3150800AD60B5E706B10134244DB1E706B10134234DE8
S3150800AD70ADE706B10134224DA9E706B10134214DEC
S3150800AD80A5E706B10134204DA1E706B101341F4DF0
S3150800AD909DE706B101341E4D99E706B101341D4DF4
S3150800ADA095E706B101341C4D91E706B101341B4DF8
S3150800ADB08DE706B101341A4D89E731F0E2FF013417
S3150800ADC0A9E700BF23B70408FED8040899D40408E5
S3150800ADD093D40408EAD404087EF804087AEA040836
S3150800ADE09D100508A1D40408AAD40408B1D40408FF
S3150800ADF0BCD40408C6D40408D0D40408BBD40408B8
S3150800AE00C5D40408CFD40408D8D40408DCD404086C
S3150800AE10E4D404088DD4040894D40408E3D40408BC
S3150800AE208CD40408FF0105082DE9F04F9BB00546B0
S3150800AE308B460024009204933AF03CFF249F049B1F
S3150800AE4005901C6028463C600AAA09A931F0C6FF8D
S3150800AE50064658B90A983AF02DFF3446B146049B7F
S3150800AE601860D5F89C300393039B1BB920461BB08A
S3150800AE70BDE8F08F039B9B680193002B69D02E4495
S3150800AE8016F8013B202B12D000260C237343019A97
S3150800AE9002EB030AD3580293002B55D0DDF8248021
S3150800AEA0C84551DB9AF808302BB1721C35E03B686F
S3150800AEB001333B60E4E73B68D5F894200299D21A3F
S3150800AEC0049B1A601AAB03EB890353F8403C1846F7
S3150800AED006933AF0C4FE07900028E6D102983AF0A5
S3150800AEE0E9FEDAF804100346087BD7F800A0FE2826
S3150800AEF0079A16D108F1FF38C8452ED00B68069870
S3150800AF00029201933AF0D6FE0AF10103029A03442B
S3150800AF10E95C21B13B6009F101091646B5E7013341
S3150800AF20F6E7D5F89420A2EB0A029A42BDDC584609
S3150800AF3006933AF0BFFE069B03447B2B1DD9584661
S3150800AF401E4A009931F092F82B46059A2A449A42ED
S3150800AF502AD1039B1B68039386E7D5F89420A2EBB6
S3150800AF600A029A42E3DDD1F8008058F80C2B82B920
S3150800AF70059B3B60049B1A60E6E75846029A0099CF
S3150800AF8031F074F858460E4A0099013431F06EF8DB
S3150800AF908BE75846009931F069F85846084A0099EF
S3150800AFA031F064F80134E0E713F8011B0029CED12B
S3150800AFB04FF0200103F8011CC9E700BFECD40408D0
S3150800AFC0E4EF04082DE9F047002486B01C60DDE9AB
S3150800AFD00EA8064689468AF800401168154888F87A
S3150800AFE0004017461D468DF81740FCF7F7FD18B9BF
S3150800AFF001242B6801332B600020D6F89C6036B9F3
S3150800B00014B1012388F8003006B0BDE8F087B068AF
S3150800B01068B14B460021CDE902A8CDE900750DF1CE
S3150800B020170231F013FD9DF81730002BE8D136686A
S3150800B030E5E700BFF1D404082DE9F04300260446ED
S3150800B040ADF5457D7C22314605A802AF04963AF057
S3150800B050FEFD80222046009703AB04A9FFF7E4FE15
S3150800B06001283ED104A83AF025FE03993B68A0EBD7
S3150800B07001080B44234428EAE878054604A8014455
S3150800B080424618463AF009FE00F80860D4F890607F
S3150800B090039B3968D4F890201944B14212DCD4F8DD
S3150800B0A09410E81A0244C4F89020014404AAC4F88B
S3150800B0B09410D41825182B1B002B0DDC0DF5457D97
S3150800B0C0BDE8F083A05C31F05CFED4F89030013620
S3150800B0D00133C4F89030DBE714F8010B31F051FE68
S3150800B0E0E9E7EBDD24AD8022314628463AF0AFFD8C
S3150800B0F044AB4FF40072314618463AF0A8FD0DF1FC
S3150800B100100903464A464FF00108314612F8016B0A
S3150800B110002E49D104A843F828103AF0CBFD294659
S3150800B120334619F8016B0DF5887C5CF8042B8242CE
S3150800B13043D10133984501F8016BF2DAD4F89060EF
S3150800B140039BB34242DC2346354A04A9354831F00D
S3150800B15024FE28463AF0AEFD0646039B3F68F61ADB
S3150800B1601F44E0191D4426EAE67204F198031744C1
S3150800B170984204EB07014ED204F1900399424AD94A
S3150800B1806A1E81190B1A002B39DD12F8013F00F8E7
S3150800B190013BD4F890300133C4F89030D4F8943099
S3150800B1A00133C4F89430EDE7202E01F1010104BF04
S3150800B1B043F8281008F10108A8E70DF1100E7244AB
S3150800B1C0D25CB242B1D00022EA54B7E7D4F8903044
S3150800B1D00136E05C31F0D5FDD4F890300133C4F87F
S3150800B1E09030ADE7D4F89020013B0132C4F89020A6
S3150800B1F0D4F894200132C4F89420002BF2DC002302
S3150800B2002E44E355731B002B7FF758AF15F8010B37
S3150800B21031F0B7FDF6E729463AF03FFD3346ECE74D
S3150800B22028D30408F6D404082DE9F843D0E92456AF
S3150800B23004460F46002294F89830012B07D10A2FAE
S3150800B24007D1002384F898300020BDE8F88300F27F
S3150800B2509F801B2F01D10223F4E70D2F0DD1012367
S3150800B26084F898300D2031F08CFD0A2031F089FDE4
S3150800B27000230120C4E92433E7E74FF00008082F2C
S3150800B28084F8988034D1454530DDB5420FD138462B
S3150800B29031F077FD202031F074FD013D384631F05C
S3150800B2A070FD013E04F80580C4E92456CCE7FBDAB4
S3150800B2B005F1FF39384631F064FD04EB0903A6EBC6
S3150800B2C00902611918463AF0A8FC04F806800146F6
S3150800B2D0013E484831F061FD35464D4501DC4D4695
S3150800B2E0E2E7082031F04DFD013DF6E7ACD0DBE79B
S3150800B2F07F2F1CD1002EA7DDB542A5DA6319691C7C
S3150800B30021441846721B3AF088FC04F80680014668
S3150800B310394831F042FD0820013E31F032FDB54290
S3150800B320F9D1D4F89430013BC4F894308CE70A2F4D
S3150800B33098D0092F03D12046FFF77EFE84E7D4F87C
S3150800B3408C30013BB3427FF77FAFB54204EB05086B
S3150800B35005F101090CDB384688F80070D4F89430FA
S3150800B360C4F890900133C4F8943031F00AFD6BE7C5
S3150800B3704146721B04EB09003AF04FFC404631F097
S3150800B3800CFD0820013E31F0FCFCB542F9DDE2E790
S3150800B390022B06D15B2F01D1032353E784F89820AB
S3150800B3A049E7032B7FF450AF413F84F89820032FD9
S3150800B3B03FF64AAFDFE807F002070A1601212046E2
S3150800B3C031F090FC40E74FF0FF31F8E7B542BFF6A1
S3150800B3D03BAF605D31F0D5FCD4F890300133C4F84A
S3150800B3E0903031E7002D7FF72FAF013D0820C4F8D4
S3150800B3F09050BAE7FFD404085FEB040807B5094B79
S3150800B40018689A889B7900906846ADF804208DF8EC
S3150800B4100630FDF7A1FF0920FDF7D6FF002003B08F
S3150800B4205DF804FB04D5040813B50024064A6846EB
S3150800B430536F43F00103536700948DF80440FDF7FA
S3150800B440C9FE204602B010BD0040005030B58BB092
S3150800B4506C46174D0FCD0FC40FCD0FC495E80300EA
S3150800B46084E80300134BD3F84C2112031CD5A3F52B
S3150800B470FE431C884FF6FF739C4208BF8C248DF848
S3150800B4801940FDF79FFD204480F308008DF8180049
S3150800B4900948FCF779F96846FDF7D4FC3220FDF730
S3150800B4A097FD00200BB030BDD3F85041E4B2E6E773
S3150800B4B00CD504080080E00F00F049026FF0040381
S3150800B4C0502110B50A480B4C13F0800F03F1010206
S3150800B4D007D123444C2A83F800131346F4D10020DD
S3150800B4E010BD03F00F03043B034419761346EBE73C
S3150800B4F000ED00E000E100E038B501F065FF044624
